{
  "contractName": "NewRegister",
  "abi": [
    {
      "inputs": [],
      "stateMutability": "nonpayable",
      "type": "constructor"
    },
    {
      "anonymous": false,
      "inputs": [
        {
          "indexed": true,
          "internalType": "address",
          "name": "player",
          "type": "address"
        },
        {
          "indexed": true,
          "internalType": "uint256",
          "name": "id",
          "type": "uint256"
        },
        {
          "indexed": false,
          "internalType": "uint256",
          "name": "amount",
          "type": "uint256"
        }
      ],
      "name": "Award",
      "type": "event"
    },
    {
      "anonymous": false,
      "inputs": [
        {
          "indexed": true,
          "internalType": "address",
          "name": "player",
          "type": "address"
        },
        {
          "indexed": false,
          "internalType": "string",
          "name": "name",
          "type": "string"
        },
        {
          "indexed": false,
          "internalType": "string",
          "name": "email",
          "type": "string"
        },
        {
          "indexed": false,
          "internalType": "address",
          "name": "wallet",
          "type": "address"
        }
      ],
      "name": "RegisterSucceed",
      "type": "event"
    },
    {
      "anonymous": false,
      "inputs": [
        {
          "indexed": true,
          "internalType": "uint256",
          "name": "useId",
          "type": "uint256"
        },
        {
          "indexed": true,
          "internalType": "uint256",
          "name": "kind",
          "type": "uint256"
        },
        {
          "indexed": true,
          "internalType": "address",
          "name": "player",
          "type": "address"
        },
        {
          "indexed": false,
          "internalType": "uint256",
          "name": "id",
          "type": "uint256"
        },
        {
          "indexed": false,
          "internalType": "uint256",
          "name": "amount",
          "type": "uint256"
        }
      ],
      "name": "Use",
      "type": "event"
    },
    {
      "inputs": [
        {
          "internalType": "address",
          "name": "",
          "type": "address"
        }
      ],
      "name": "accountInfo",
      "outputs": [
        {
          "internalType": "string",
          "name": "name",
          "type": "string"
        },
        {
          "internalType": "string",
          "name": "email",
          "type": "string"
        },
        {
          "internalType": "address",
          "name": "wallet",
          "type": "address"
        },
        {
          "internalType": "uint256",
          "name": "punkId",
          "type": "uint256"
        }
      ],
      "stateMutability": "view",
      "type": "function",
      "constant": true
    },
    {
      "inputs": [
        {
          "internalType": "address",
          "name": "",
          "type": "address"
        }
      ],
      "name": "isAdmin",
      "outputs": [
        {
          "internalType": "bool",
          "name": "",
          "type": "bool"
        }
      ],
      "stateMutability": "view",
      "type": "function",
      "constant": true
    },
    {
      "inputs": [
        {
          "internalType": "address",
          "name": "",
          "type": "address"
        }
      ],
      "name": "lastUse",
      "outputs": [
        {
          "internalType": "uint256",
          "name": "",
          "type": "uint256"
        }
      ],
      "stateMutability": "view",
      "type": "function",
      "constant": true
    },
    {
      "inputs": [
        {
          "internalType": "address",
          "name": "",
          "type": "address"
        },
        {
          "internalType": "uint256",
          "name": "",
          "type": "uint256"
        }
      ],
      "name": "oldBalance",
      "outputs": [
        {
          "internalType": "uint256",
          "name": "",
          "type": "uint256"
        }
      ],
      "stateMutability": "view",
      "type": "function",
      "constant": true
    },
    {
      "inputs": [],
      "name": "owner",
      "outputs": [
        {
          "internalType": "address",
          "name": "",
          "type": "address"
        }
      ],
      "stateMutability": "view",
      "type": "function",
      "constant": true
    },
    {
      "inputs": [
        {
          "internalType": "uint256",
          "name": "",
          "type": "uint256"
        }
      ],
      "name": "punkOwner",
      "outputs": [
        {
          "internalType": "address",
          "name": "",
          "type": "address"
        }
      ],
      "stateMutability": "view",
      "type": "function",
      "constant": true
    },
    {
      "inputs": [],
      "name": "useId",
      "outputs": [
        {
          "internalType": "uint256",
          "name": "",
          "type": "uint256"
        }
      ],
      "stateMutability": "view",
      "type": "function",
      "constant": true
    },
    {
      "inputs": [
        {
          "internalType": "uint256",
          "name": "",
          "type": "uint256"
        }
      ],
      "name": "useInfo",
      "outputs": [
        {
          "internalType": "uint256",
          "name": "kind",
          "type": "uint256"
        },
        {
          "internalType": "address",
          "name": "player",
          "type": "address"
        },
        {
          "internalType": "uint256",
          "name": "id",
          "type": "uint256"
        },
        {
          "internalType": "uint256",
          "name": "amount",
          "type": "uint256"
        },
        {
          "internalType": "string",
          "name": "metaData",
          "type": "string"
        },
        {
          "internalType": "enum NewRegister.Status",
          "name": "status",
          "type": "uint8"
        }
      ],
      "stateMutability": "view",
      "type": "function",
      "constant": true
    },
    {
      "inputs": [
        {
          "internalType": "address",
          "name": "candidate",
          "type": "address"
        },
        {
          "internalType": "bool",
          "name": "b",
          "type": "bool"
        }
      ],
      "name": "setAdmin",
      "outputs": [],
      "stateMutability": "nonpayable",
      "type": "function"
    },
    {
      "inputs": [
        {
          "internalType": "string",
          "name": "tokenName",
          "type": "string"
        }
      ],
      "name": "newToken",
      "outputs": [],
      "stateMutability": "nonpayable",
      "type": "function"
    },
    {
      "inputs": [
        {
          "internalType": "uint256",
          "name": "punkId",
          "type": "uint256"
        },
        {
          "internalType": "address",
          "name": "newOwner",
          "type": "address"
        }
      ],
      "name": "grantPunk",
      "outputs": [],
      "stateMutability": "nonpayable",
      "type": "function"
    },
    {
      "inputs": [
        {
          "internalType": "address",
          "name": "user",
          "type": "address"
        }
      ],
      "name": "balanceOf",
      "outputs": [
        {
          "internalType": "uint256[]",
          "name": "",
          "type": "uint256[]"
        }
      ],
      "stateMutability": "view",
      "type": "function",
      "constant": true
    },
    {
      "inputs": [],
      "name": "tokenInfo",
      "outputs": [
        {
          "internalType": "string[]",
          "name": "",
          "type": "string[]"
        }
      ],
      "stateMutability": "view",
      "type": "function",
      "constant": true
    },
    {
      "inputs": [
        {
          "internalType": "address",
          "name": "user",
          "type": "address"
        }
      ],
      "name": "punkOf",
      "outputs": [
        {
          "internalType": "uint256",
          "name": "",
          "type": "uint256"
        }
      ],
      "stateMutability": "view",
      "type": "function",
      "constant": true
    },
    {
      "inputs": [
        {
          "internalType": "string",
          "name": "name_",
          "type": "string"
        },
        {
          "internalType": "string",
          "name": "email_",
          "type": "string"
        },
        {
          "internalType": "address",
          "name": "wallet_",
          "type": "address"
        }
      ],
      "name": "register",
      "outputs": [],
      "stateMutability": "nonpayable",
      "type": "function"
    },
    {
      "inputs": [
        {
          "internalType": "address",
          "name": "player",
          "type": "address"
        },
        {
          "internalType": "uint256",
          "name": "id",
          "type": "uint256"
        },
        {
          "internalType": "uint256",
          "name": "amount",
          "type": "uint256"
        }
      ],
      "name": "award",
      "outputs": [],
      "stateMutability": "nonpayable",
      "type": "function"
    },
    {
      "inputs": [
        {
          "internalType": "address",
          "name": "player",
          "type": "address"
        },
        {
          "internalType": "uint256",
          "name": "id",
          "type": "uint256"
        },
        {
          "internalType": "uint256",
          "name": "amount",
          "type": "uint256"
        },
        {
          "internalType": "uint256",
          "name": "kind",
          "type": "uint256"
        },
        {
          "internalType": "string",
          "name": "metaData",
          "type": "string"
        }
      ],
      "name": "use",
      "outputs": [],
      "stateMutability": "nonpayable",
      "type": "function"
    },
    {
      "inputs": [
        {
          "internalType": "uint256",
          "name": "id",
          "type": "uint256"
        }
      ],
      "name": "setFinish",
      "outputs": [],
      "stateMutability": "nonpayable",
      "type": "function"
    }
  ],
  "bytecode": "0x608060405234801561001057600080fd5b50336000806101000a81548173ffffffffffffffffffffffffffffffffffffffff021916908373ffffffffffffffffffffffffffffffffffffffff160217905550612193806100606000396000f3fe608060405234801561001057600080fd5b50600436106101165760003560e01c8063839bf9a6116100a2578063be38c67911610071578063be38c679146102f2578063c5b078c214610310578063d9565e2614610345578063dd44137514610375578063ecf17e401461039157610116565b8063839bf9a6146102555780638da5cb5b146102715780639c9f17c91461028f578063a7310b58146102bf57610116565b80635664d69c116100e95780635664d69c1461019f578063663d2607146101bb5780636addb663146101eb5780636ff897791461020957806370a082311461022557610116565b806324d7806c1461011b5780632f558ba01461014b578063444bd6fd146101675780634b0bddd214610183575b600080fd5b61013560048036038101906101309190611645565b6103c1565b6040516101429190611bc4565b60405180910390f35b61016560048036038101906101609190611884565b6103e1565b005b610181600480360381019061017c91906117c4565b6104d5565b005b61019d6004803603810190610198919061166e565b6105a2565b005b6101b960048036038101906101b49190611805565b61068b565b005b6101d560048036038101906101d09190611645565b610811565b6040516101e29190611cd7565b60405180910390f35b6101f3610829565b6040516102009190611b80565b60405180910390f35b610223600480360381019061021e9190611735565b610902565b005b61023f600480360381019061023a9190611645565b610d4b565b60405161024c9190611ba2565b60405180910390f35b61026f600480360381019061026a91906118ad565b610de5565b005b610279610f91565b6040516102869190611b65565b60405180910390f35b6102a960048036038101906102a491906116aa565b610fb5565b6040516102b69190611cd7565b60405180910390f35b6102d960048036038101906102d49190611645565b610fda565b6040516102e99493929190611c24565b60405180910390f35b6102fa61113a565b6040516103079190611cd7565b60405180910390f35b61032a60048036038101906103259190611884565b611140565b60405161033c96959493929190611cf2565b60405180910390f35b61035f600480360381019061035a9190611884565b611231565b60405161036c9190611b65565b60405180910390f35b61038f600480360381019061038a91906116e6565b611264565b005b6103ab60048036038101906103a69190611645565b6114af565b6040516103b89190611cd7565b60405180910390f35b60056020528060005260406000206000915054906101000a900460ff1681565b600560003373ffffffffffffffffffffffffffffffffffffffff1673ffffffffffffffffffffffffffffffffffffffff16815260200190815260200160002060009054906101000a900460ff1661046d576040517f08c379a000000000000000000000000000000000000000000000000000000000815260040161046490611c77565b60405180910390fd5b60026007600083815260200190815260200160002060050160006101000a81548160ff021916908360028111156104cd577f4e487b7100000000000000000000000000000000000000000000000000000000600052602160045260246000fd5b021790555050565b60008054906101000a900473ffffffffffffffffffffffffffffffffffffffff1673ffffffffffffffffffffffffffffffffffffffff163373ffffffffffffffffffffffffffffffffffffffff1614610563576040517f08c379a000000000000000000000000000000000000000000000000000000000815260040161055a90611c77565b60405180910390fd5b60018190806001815401808255809150506001900390600052602060002001600090919091909150908051906020019061059e9291906114fb565b5050565b60008054906101000a900473ffffffffffffffffffffffffffffffffffffffff1673ffffffffffffffffffffffffffffffffffffffff163373ffffffffffffffffffffffffffffffffffffffff1614610630576040517f08c379a000000000000000000000000000000000000000000000000000000000815260040161062790611c77565b60405180910390fd5b80600560008473ffffffffffffffffffffffffffffffffffffffff1673ffffffffffffffffffffffffffffffffffffffff16815260200190815260200160002060006101000a81548160ff0219169083151502179055505050565b82600360003373ffffffffffffffffffffffffffffffffffffffff1673ffffffffffffffffffffffffffffffffffffffff16815260200190815260200160002060000190805190602001906106e19291906114fb565b5081600360003373ffffffffffffffffffffffffffffffffffffffff1673ffffffffffffffffffffffffffffffffffffffff16815260200190815260200160002060010190805190602001906107389291906114fb565b5080600360003373ffffffffffffffffffffffffffffffffffffffff1673ffffffffffffffffffffffffffffffffffffffff16815260200190815260200160002060020160006101000a81548173ffffffffffffffffffffffffffffffffffffffff021916908373ffffffffffffffffffffffffffffffffffffffff1602179055503373ffffffffffffffffffffffffffffffffffffffff167f4f6b29c42cbb86e8b44367429b0f173d7c590de4e12913cd5ff95b31a5cbc1a684848460405161080493929190611bdf565b60405180910390a2505050565b60066020528060005260406000206000915090505481565b60606001805480602002602001604051908101604052809291908181526020016000905b828210156108f957838290600052602060002001805461086c90611fbc565b80601f016020809104026020016040519081016040528092919081815260200182805461089890611fbc565b80156108e55780601f106108ba576101008083540402835291602001916108e5565b820191906000526020600020905b8154815290600101906020018083116108c857829003601f168201915b50505050508152602001906001019061084d565b50505050905090565b600560003373ffffffffffffffffffffffffffffffffffffffff1673ffffffffffffffffffffffffffffffffffffffff16815260200190815260200160002060009054906101000a900460ff168061098557508473ffffffffffffffffffffffffffffffffffffffff163373ffffffffffffffffffffffffffffffffffffffff16145b6109c4576040517f08c379a00000000000000000000000000000000000000000000000000000000081526004016109bb90611cb7565b60405180910390fd5b82600360008773ffffffffffffffffffffffffffffffffffffffff1673ffffffffffffffffffffffffffffffffffffffff1681526020019081526020016000206004018581548110610a3f577f4e487b7100000000000000000000000000000000000000000000000000000000600052603260045260246000fd5b90600052602060002001541015610a8b576040517f08c379a0000000000000000000000000000000000000000000000000000000008152600401610a8290611c97565b60405180910390fd5b82600360008773ffffffffffffffffffffffffffffffffffffffff1673ffffffffffffffffffffffffffffffffffffffff1681526020019081526020016000206004018581548110610b06577f4e487b7100000000000000000000000000000000000000000000000000000000600052603260045260246000fd5b906000526020600020016000828254610b1f9190611ed9565b9250508190555060026000815480929190610b3990611fee565b91905055506040518060c001604052808381526020018673ffffffffffffffffffffffffffffffffffffffff16815260200185815260200184815260200182815260200160016002811115610bb7577f4e487b7100000000000000000000000000000000000000000000000000000000600052602160045260246000fd5b8152506007600060025481526020019081526020016000206000820151816000015560208201518160010160006101000a81548173ffffffffffffffffffffffffffffffffffffffff021916908373ffffffffffffffffffffffffffffffffffffffff16021790555060408201518160020155606082015181600301556080820151816004019080519060200190610c509291906114fb565b5060a08201518160050160006101000a81548160ff02191690836002811115610ca2577f4e487b7100000000000000000000000000000000000000000000000000000000600052602160045260246000fd5b0217905550905050600254600660008773ffffffffffffffffffffffffffffffffffffffff1673ffffffffffffffffffffffffffffffffffffffff168152602001908152602001600020819055508473ffffffffffffffffffffffffffffffffffffffff16826002547fbf5920ceaae7e6f08ab43f29cc42559ede51d500137b216df60a15bcff4ac3b18787604051610d3c929190611d5a565b60405180910390a45050505050565b6060600360008373ffffffffffffffffffffffffffffffffffffffff1673ffffffffffffffffffffffffffffffffffffffff168152602001908152602001600020600401805480602002602001604051908101604052809291908181526020018280548015610dd957602002820191906000526020600020905b815481526020019060010190808311610dc5575b50505050509050919050565b60008054906101000a900473ffffffffffffffffffffffffffffffffffffffff1673ffffffffffffffffffffffffffffffffffffffff163373ffffffffffffffffffffffffffffffffffffffff1614610e73576040517f08c379a0000000000000000000000000000000000000000000000000000000008152600401610e6a90611c77565b60405180910390fd5b60006004600084815260200190815260200160002060009054906101000a900473ffffffffffffffffffffffffffffffffffffffff1690506000600360008373ffffffffffffffffffffffffffffffffffffffff1673ffffffffffffffffffffffffffffffffffffffff1681526020019081526020016000206003018190555082600360008473ffffffffffffffffffffffffffffffffffffffff1673ffffffffffffffffffffffffffffffffffffffff16815260200190815260200160002060030181905550816004600085815260200190815260200160002060006101000a81548173ffffffffffffffffffffffffffffffffffffffff021916908373ffffffffffffffffffffffffffffffffffffffff160217905550505050565b60008054906101000a900473ffffffffffffffffffffffffffffffffffffffff1681565b6008602052816000526040600020602052806000526040600020600091509150505481565b6003602052806000526040600020600091509050806000018054610ffd90611fbc565b80601f016020809104026020016040519081016040528092919081815260200182805461102990611fbc565b80156110765780601f1061104b57610100808354040283529160200191611076565b820191906000526020600020905b81548152906001019060200180831161105957829003601f168201915b50505050509080600101805461108b90611fbc565b80601f01602080910402602001604051908101604052809291908181526020018280546110b790611fbc565b80156111045780601f106110d957610100808354040283529160200191611104565b820191906000526020600020905b8154815290600101906020018083116110e757829003601f168201915b5050505050908060020160009054906101000a900473ffffffffffffffffffffffffffffffffffffffff16908060030154905084565b60025481565b60076020528060005260406000206000915090508060000154908060010160009054906101000a900473ffffffffffffffffffffffffffffffffffffffff169080600201549080600301549080600401805461119b90611fbc565b80601f01602080910402602001604051908101604052809291908181526020018280546111c790611fbc565b80156112145780601f106111e957610100808354040283529160200191611214565b820191906000526020600020905b8154815290600101906020018083116111f757829003601f168201915b5050505050908060050160009054906101000a900460ff16905086565b60046020528060005260406000206000915054906101000a900473ffffffffffffffffffffffffffffffffffffffff1681565b600560003373ffffffffffffffffffffffffffffffffffffffff1673ffffffffffffffffffffffffffffffffffffffff16815260200190815260200160002060009054906101000a900460ff166112f0576040517f08c379a00000000000000000000000000000000000000000000000000000000081526004016112e790611c77565b60405180910390fd5b6000600360008573ffffffffffffffffffffffffffffffffffffffff1673ffffffffffffffffffffffffffffffffffffffff1681526020019081526020016000206004018054905090505b8281116113bf57600360008573ffffffffffffffffffffffffffffffffffffffff1673ffffffffffffffffffffffffffffffffffffffff1681526020019081526020016000206004016000908060018154018082558091505060019003906000526020600020016000909190919091505580806113b790611fee565b91505061133b565b5080600360008573ffffffffffffffffffffffffffffffffffffffff1673ffffffffffffffffffffffffffffffffffffffff168152602001908152602001600020600401838154811061143b577f4e487b7100000000000000000000000000000000000000000000000000000000600052603260045260246000fd5b9060005260206000200160008282546114549190611e83565b92505081905550818373ffffffffffffffffffffffffffffffffffffffff167f1187560d7b166b3122e71aedb88f19cf2f33b2d141b513fde3ca2562d19d1bcb836040516114a29190611cd7565b60405180910390a3505050565b6000600360008373ffffffffffffffffffffffffffffffffffffffff1673ffffffffffffffffffffffffffffffffffffffff168152602001908152602001600020600301549050919050565b82805461150790611fbc565b90600052602060002090601f0160209004810192826115295760008555611570565b82601f1061154257805160ff1916838001178555611570565b82800160010185558215611570579182015b8281111561156f578251825591602001919060010190611554565b5b50905061157d9190611581565b5090565b5b8082111561159a576000816000905550600101611582565b5090565b60006115b16115ac84611db4565b611d83565b9050828152602081018484840111156115c957600080fd5b6115d4848285611f7a565b509392505050565b6000813590506115eb81612118565b92915050565b6000813590506116008161212f565b92915050565b600082601f83011261161757600080fd5b813561162784826020860161159e565b91505092915050565b60008135905061163f81612146565b92915050565b60006020828403121561165757600080fd5b6000611665848285016115dc565b91505092915050565b6000806040838503121561168157600080fd5b600061168f858286016115dc565b92505060206116a0858286016115f1565b9150509250929050565b600080604083850312156116bd57600080fd5b60006116cb858286016115dc565b92505060206116dc85828601611630565b9150509250929050565b6000806000606084860312156116fb57600080fd5b6000611709868287016115dc565b935050602061171a86828701611630565b925050604061172b86828701611630565b9150509250925092565b600080600080600060a0868803121561174d57600080fd5b600061175b888289016115dc565b955050602061176c88828901611630565b945050604061177d88828901611630565b935050606061178e88828901611630565b925050608086013567ffffffffffffffff8111156117ab57600080fd5b6117b788828901611606565b9150509295509295909350565b6000602082840312156117d657600080fd5b600082013567ffffffffffffffff8111156117f057600080fd5b6117fc84828501611606565b91505092915050565b60008060006060848603121561181a57600080fd5b600084013567ffffffffffffffff81111561183457600080fd5b61184086828701611606565b935050602084013567ffffffffffffffff81111561185d57600080fd5b61186986828701611606565b925050604061187a868287016115dc565b9150509250925092565b60006020828403121561189657600080fd5b60006118a484828501611630565b91505092915050565b600080604083850312156118c057600080fd5b60006118ce85828601611630565b92505060206118df858286016115dc565b9150509250929050565b60006118f58383611a15565b905092915050565b60006119098383611b47565b60208301905092915050565b61191e81611f0d565b82525050565b600061192f82611e04565b6119398185611e3f565b93508360208202850161194b85611de4565b8060005b85811015611987578484038952815161196885826118e9565b945061197383611e25565b925060208a0199505060018101905061194f565b50829750879550505050505092915050565b60006119a482611e0f565b6119ae8185611e50565b93506119b983611df4565b8060005b838110156119ea5781516119d188826118fd565b97506119dc83611e32565b9250506001810190506119bd565b5085935050505092915050565b611a0081611f1f565b82525050565b611a0f81611f68565b82525050565b6000611a2082611e1a565b611a2a8185611e61565b9350611a3a818560208601611f89565b611a43816120f3565b840191505092915050565b6000611a5982611e1a565b611a638185611e72565b9350611a73818560208601611f89565b611a7c816120f3565b840191505092915050565b6000611a94601183611e72565b91507f596f7520617265206e6f742061646d696e0000000000000000000000000000006000830152602082019050919050565b6000611ad4601183611e72565b91507f4e6f20656e6f7567682062616c616e63650000000000000000000000000000006000830152602082019050919050565b6000611b14601c83611e72565b91507f596f752063616e6e6f7420757365206f74686572277320746f6b656e000000006000830152602082019050919050565b611b5081611f5e565b82525050565b611b5f81611f5e565b82525050565b6000602082019050611b7a6000830184611915565b92915050565b60006020820190508181036000830152611b9a8184611924565b905092915050565b60006020820190508181036000830152611bbc8184611999565b905092915050565b6000602082019050611bd960008301846119f7565b92915050565b60006060820190508181036000830152611bf98186611a4e565b90508181036020830152611c0d8185611a4e565b9050611c1c6040830184611915565b949350505050565b60006080820190508181036000830152611c3e8187611a4e565b90508181036020830152611c528186611a4e565b9050611c616040830185611915565b611c6e6060830184611b56565b95945050505050565b60006020820190508181036000830152611c9081611a87565b9050919050565b60006020820190508181036000830152611cb081611ac7565b9050919050565b60006020820190508181036000830152611cd081611b07565b9050919050565b6000602082019050611cec6000830184611b56565b92915050565b600060c082019050611d076000830189611b56565b611d146020830188611915565b611d216040830187611b56565b611d2e6060830186611b56565b8181036080830152611d408185611a4e565b9050611d4f60a0830184611a06565b979650505050505050565b6000604082019050611d6f6000830185611b56565b611d7c6020830184611b56565b9392505050565b6000604051905081810181811067ffffffffffffffff82111715611daa57611da96120c4565b5b8060405250919050565b600067ffffffffffffffff821115611dcf57611dce6120c4565b5b601f19601f8301169050602081019050919050565b6000819050602082019050919050565b6000819050602082019050919050565b600081519050919050565b600081519050919050565b600081519050919050565b6000602082019050919050565b6000602082019050919050565b600082825260208201905092915050565b600082825260208201905092915050565b600082825260208201905092915050565b600082825260208201905092915050565b6000611e8e82611f5e565b9150611e9983611f5e565b9250827fffffffffffffffffffffffffffffffffffffffffffffffffffffffffffffffff03821115611ece57611ecd612037565b5b828201905092915050565b6000611ee482611f5e565b9150611eef83611f5e565b925082821015611f0257611f01612037565b5b828203905092915050565b6000611f1882611f3e565b9050919050565b60008115159050919050565b6000819050611f3982612104565b919050565b600073ffffffffffffffffffffffffffffffffffffffff82169050919050565b6000819050919050565b6000611f7382611f2b565b9050919050565b82818337600083830152505050565b60005b83811015611fa7578082015181840152602081019050611f8c565b83811115611fb6576000848401525b50505050565b60006002820490506001821680611fd457607f821691505b60208210811415611fe857611fe7612095565b5b50919050565b6000611ff982611f5e565b91507fffffffffffffffffffffffffffffffffffffffffffffffffffffffffffffffff82141561202c5761202b612037565b5b600182019050919050565b7f4e487b7100000000000000000000000000000000000000000000000000000000600052601160045260246000fd5b7f4e487b7100000000000000000000000000000000000000000000000000000000600052602160045260246000fd5b7f4e487b7100000000000000000000000000000000000000000000000000000000600052602260045260246000fd5b7f4e487b7100000000000000000000000000000000000000000000000000000000600052604160045260246000fd5b6000601f19601f8301169050919050565b6003811061211557612114612066565b5b50565b61212181611f0d565b811461212c57600080fd5b50565b61213881611f1f565b811461214357600080fd5b50565b61214f81611f5e565b811461215a57600080fd5b5056fea26469706673582212207785fbecf4fe2b1e666e9e638bd2f069c13365ac434ccda55e9bd7e14ac306d864736f6c63430008000033",
  "immutableReferences": {},
  "source": "// SPDX-License-Identifier: MIT\r\npragma solidity ^0.8.0;\r\n\r\nimport \"./register.sol\";\r\n\r\ncontract NewRegister {\r\n  \r\n  enum Status { NoRecord, Processing, Finished }\r\n  \r\n  struct Account {\r\n    string name;\r\n    string email;\r\n    address wallet;\r\n\tuint punkId;\r\n    uint[] balance;\r\n  }\r\n\r\n  struct UseInfo {\r\n    uint kind;\r\n    address player;\r\n    uint id;\r\n\tuint amount;\r\n    string metaData;\r\n    Status status;\r\n  }\r\n  \r\n  address public owner;\r\n  string[] tokens;\r\n  uint public useId;\r\n\r\n  mapping (address => Account) public accountInfo;\r\n  mapping (uint => address) public punkOwner;\r\n  mapping (address => bool) public isAdmin;\r\n  mapping (address => uint) public lastUse;\r\n  mapping (uint => UseInfo) public useInfo;\r\n  mapping (address => mapping (uint => uint)) public oldBalance;\r\n\r\n  event RegisterSucceed(address indexed player, string name, string email, address wallet);\r\n  event Award(address indexed player, uint indexed id, uint amount);\r\n  event Use(uint indexed useId, uint indexed kind, address indexed player, uint id, uint amount);\r\n  \r\n  constructor() {\r\n    owner = msg.sender;\r\n  }\r\n\r\n  function setAdmin(address candidate, bool b) public {\r\n    require(msg.sender == owner, \"You are not admin\");\r\n    isAdmin[candidate] = b;\r\n  }\r\n\r\n  function newToken(string memory tokenName) public {\r\n    require(msg.sender == owner, \"You are not admin\");\r\n    tokens.push(tokenName);\r\n  }\r\n\r\n  function grantPunk(uint punkId, address newOwner) public {\r\n    require(msg.sender == owner, \"You are not admin\");\r\n    address prevOwner = punkOwner[punkId];\r\n    accountInfo[prevOwner].punkId = 0;\r\n    accountInfo[newOwner].punkId = punkId;\r\n    punkOwner[punkId] = newOwner;\r\n  }\r\n\r\n  function balanceOf(address user) public view returns (uint[] memory) {\r\n    return accountInfo[user].balance;\r\n  }\r\n\r\n  function tokenInfo() public view returns (string[] memory) {\r\n    return tokens;\r\n  }\r\n\r\n  function punkOf(address user) public view returns (uint) {\r\n    return accountInfo[user].punkId;\r\n  }\r\n  \r\n  function register(string memory name_, string memory email_, address wallet_) public {\r\n    accountInfo[msg.sender].name = name_;\r\n    accountInfo[msg.sender].email = email_;\r\n    accountInfo[msg.sender].wallet = wallet_;\r\n    emit RegisterSucceed(msg.sender, name_, email_, wallet_);\r\n  }\r\n\r\n  function award(address player, uint id, uint amount) public {\r\n    require(isAdmin[msg.sender], \"You are not admin\");\r\n    for(uint i=accountInfo[player].balance.length; i<=id; i++) {\r\n      accountInfo[player].balance.push(0);\r\n    }\r\n    accountInfo[player].balance[id] += amount;\r\n    emit Award(player, id, amount);\r\n  }\r\n\r\n  function use(address player, uint id, uint amount, uint kind, string memory metaData) public {\r\n    require(isAdmin[msg.sender] || msg.sender == player, \"You cannot use other's token\");\r\n    require(accountInfo[player].balance[id] >= amount, \"No enough balance\");\r\n    accountInfo[player].balance[id] -= amount;\r\n    useId ++;\r\n    useInfo[useId] = UseInfo(kind, player, id, amount, metaData, Status.Processing);\r\n    lastUse[player] = useId;\r\n    emit Use(useId, kind, player, id, amount);\r\n  }\r\n\r\n  function setFinish(uint id) public {\r\n    require(isAdmin[msg.sender], \"You are not admin\");\r\n    useInfo[id].status = Status.Finished;\r\n  }\r\n\r\n  \r\n}\r\n",
  "sourcePath": "C:/Users/Weixuan/Documents/github/RogueLand/contracts/NewRegister.sol",
  "compiler": {
    "name": "solc",
    "version": "0.8.0+commit.c7dfd78e.Emscripten.clang"
  },
  "schemaVersion": "3.4.0",
  "updatedAt": "2021-09-25T06:56:43.391Z",
  "networkType": "ethereum",
  "devdoc": {
    "kind": "dev",
    "methods": {},
    "version": 1
  },
  "userdoc": {
    "kind": "user",
    "methods": {},
    "version": 1
  }
}