{
  "contractName": "Register",
  "abi": [
    {
      "inputs": [],
      "stateMutability": "nonpayable",
      "type": "constructor"
    },
    {
      "anonymous": false,
      "inputs": [
        {
          "indexed": true,
          "internalType": "address",
          "name": "player",
          "type": "address"
        },
        {
          "indexed": true,
          "internalType": "uint256",
          "name": "id",
          "type": "uint256"
        },
        {
          "indexed": false,
          "internalType": "uint256",
          "name": "amount",
          "type": "uint256"
        }
      ],
      "name": "Award",
      "type": "event"
    },
    {
      "anonymous": false,
      "inputs": [
        {
          "indexed": true,
          "internalType": "address",
          "name": "player",
          "type": "address"
        },
        {
          "indexed": false,
          "internalType": "string",
          "name": "name",
          "type": "string"
        },
        {
          "indexed": false,
          "internalType": "string",
          "name": "email",
          "type": "string"
        }
      ],
      "name": "RegisterSucceed",
      "type": "event"
    },
    {
      "anonymous": false,
      "inputs": [
        {
          "indexed": true,
          "internalType": "uint256",
          "name": "useId",
          "type": "uint256"
        },
        {
          "indexed": true,
          "internalType": "uint256",
          "name": "kind",
          "type": "uint256"
        },
        {
          "indexed": true,
          "internalType": "address",
          "name": "player",
          "type": "address"
        },
        {
          "indexed": false,
          "internalType": "uint256",
          "name": "id",
          "type": "uint256"
        },
        {
          "indexed": false,
          "internalType": "uint256",
          "name": "amount",
          "type": "uint256"
        }
      ],
      "name": "Use",
      "type": "event"
    },
    {
      "inputs": [
        {
          "internalType": "address",
          "name": "",
          "type": "address"
        }
      ],
      "name": "accountInfo",
      "outputs": [
        {
          "internalType": "string",
          "name": "name",
          "type": "string"
        },
        {
          "internalType": "string",
          "name": "email",
          "type": "string"
        },
        {
          "internalType": "uint256",
          "name": "punkId",
          "type": "uint256"
        }
      ],
      "stateMutability": "view",
      "type": "function",
      "constant": true
    },
    {
      "inputs": [
        {
          "internalType": "address",
          "name": "",
          "type": "address"
        }
      ],
      "name": "isAdmin",
      "outputs": [
        {
          "internalType": "bool",
          "name": "",
          "type": "bool"
        }
      ],
      "stateMutability": "view",
      "type": "function",
      "constant": true
    },
    {
      "inputs": [
        {
          "internalType": "address",
          "name": "",
          "type": "address"
        }
      ],
      "name": "lastUse",
      "outputs": [
        {
          "internalType": "uint256",
          "name": "",
          "type": "uint256"
        }
      ],
      "stateMutability": "view",
      "type": "function",
      "constant": true
    },
    {
      "inputs": [],
      "name": "owner",
      "outputs": [
        {
          "internalType": "address",
          "name": "",
          "type": "address"
        }
      ],
      "stateMutability": "view",
      "type": "function",
      "constant": true
    },
    {
      "inputs": [
        {
          "internalType": "uint256",
          "name": "",
          "type": "uint256"
        }
      ],
      "name": "punkOwner",
      "outputs": [
        {
          "internalType": "address",
          "name": "",
          "type": "address"
        }
      ],
      "stateMutability": "view",
      "type": "function",
      "constant": true
    },
    {
      "inputs": [],
      "name": "useId",
      "outputs": [
        {
          "internalType": "uint256",
          "name": "",
          "type": "uint256"
        }
      ],
      "stateMutability": "view",
      "type": "function",
      "constant": true
    },
    {
      "inputs": [
        {
          "internalType": "uint256",
          "name": "",
          "type": "uint256"
        }
      ],
      "name": "useInfo",
      "outputs": [
        {
          "internalType": "enum Register.Status",
          "name": "",
          "type": "uint8"
        }
      ],
      "stateMutability": "view",
      "type": "function",
      "constant": true
    },
    {
      "inputs": [
        {
          "internalType": "address",
          "name": "candidate",
          "type": "address"
        },
        {
          "internalType": "bool",
          "name": "b",
          "type": "bool"
        }
      ],
      "name": "setAdmin",
      "outputs": [],
      "stateMutability": "nonpayable",
      "type": "function"
    },
    {
      "inputs": [
        {
          "internalType": "string",
          "name": "tokenName",
          "type": "string"
        }
      ],
      "name": "newToken",
      "outputs": [],
      "stateMutability": "nonpayable",
      "type": "function"
    },
    {
      "inputs": [
        {
          "internalType": "uint256",
          "name": "punkId",
          "type": "uint256"
        },
        {
          "internalType": "address",
          "name": "newOwner",
          "type": "address"
        }
      ],
      "name": "grantPunk",
      "outputs": [],
      "stateMutability": "nonpayable",
      "type": "function"
    },
    {
      "inputs": [
        {
          "internalType": "address",
          "name": "user",
          "type": "address"
        }
      ],
      "name": "balanceOf",
      "outputs": [
        {
          "internalType": "uint256[]",
          "name": "",
          "type": "uint256[]"
        }
      ],
      "stateMutability": "view",
      "type": "function",
      "constant": true
    },
    {
      "inputs": [],
      "name": "tokenInfo",
      "outputs": [
        {
          "internalType": "string[]",
          "name": "",
          "type": "string[]"
        }
      ],
      "stateMutability": "view",
      "type": "function",
      "constant": true
    },
    {
      "inputs": [
        {
          "internalType": "address",
          "name": "user",
          "type": "address"
        }
      ],
      "name": "punkOf",
      "outputs": [
        {
          "internalType": "uint256",
          "name": "",
          "type": "uint256"
        }
      ],
      "stateMutability": "view",
      "type": "function",
      "constant": true
    },
    {
      "inputs": [
        {
          "internalType": "string",
          "name": "name_",
          "type": "string"
        },
        {
          "internalType": "string",
          "name": "email_",
          "type": "string"
        }
      ],
      "name": "register",
      "outputs": [],
      "stateMutability": "nonpayable",
      "type": "function"
    },
    {
      "inputs": [
        {
          "internalType": "address",
          "name": "player",
          "type": "address"
        },
        {
          "internalType": "uint256",
          "name": "id",
          "type": "uint256"
        },
        {
          "internalType": "uint256",
          "name": "amount",
          "type": "uint256"
        }
      ],
      "name": "award",
      "outputs": [],
      "stateMutability": "nonpayable",
      "type": "function"
    },
    {
      "inputs": [
        {
          "internalType": "uint256",
          "name": "id",
          "type": "uint256"
        },
        {
          "internalType": "uint256",
          "name": "kind",
          "type": "uint256"
        },
        {
          "internalType": "uint256",
          "name": "amount",
          "type": "uint256"
        }
      ],
      "name": "use",
      "outputs": [],
      "stateMutability": "nonpayable",
      "type": "function"
    },
    {
      "inputs": [
        {
          "internalType": "uint256",
          "name": "id",
          "type": "uint256"
        }
      ],
      "name": "setFinish",
      "outputs": [],
      "stateMutability": "nonpayable",
      "type": "function"
    }
  ],
  "bytecode": "0x608060405234801561001057600080fd5b50336000806101000a81548173ffffffffffffffffffffffffffffffffffffffff021916908373ffffffffffffffffffffffffffffffffffffffff160217905550611c8d806100606000396000f3fe608060405234801561001057600080fd5b506004361061010b5760003560e01c8063839bf9a6116100a2578063c5b078c211610071578063c5b078c2146102b8578063c8935b90146102e8578063d9565e2614610304578063dd44137514610334578063ecf17e40146103505761010b565b8063839bf9a61461022e5780638da5cb5b1461024a578063a7310b5814610268578063be38c6791461029a5761010b565b80634b0bddd2116100de5780634b0bddd214610194578063663d2607146101b05780636addb663146101e057806370a08231146101fe5761010b565b806324d7806c146101105780632f558ba0146101405780633ffbd47f1461015c578063444bd6fd14610178575b600080fd5b61012a60048036038101906101259190611297565b610380565b6040516101379190611747565b60405180910390f35b61015a600480360381019061015591906113f8565b6103a0565b005b6101766004803603810190610171919061138c565b610493565b005b610192600480360381019061018d919061134b565b610595565b005b6101ae60048036038101906101a991906112c0565b610662565b005b6101ca60048036038101906101c59190611297565b61074b565b6040516101d79190611839565b60405180910390f35b6101e8610763565b6040516101f59190611703565b60405180910390f35b61021860048036038101906102139190611297565b61083c565b6040516102259190611725565b60405180910390f35b61024860048036038101906102439190611421565b6108d6565b005b610252610a82565b60405161025f91906116e8565b60405180910390f35b610282600480360381019061027d9190611297565b610aa6565b604051610291939291906117b4565b60405180910390f35b6102a2610be0565b6040516102af9190611839565b60405180910390f35b6102d260048036038101906102cd91906113f8565b610be6565b6040516102df9190611762565b60405180910390f35b61030260048036038101906102fd919061145d565b610c06565b005b61031e600480360381019061031991906113f8565b610e83565b60405161032b91906116e8565b60405180910390f35b61034e600480360381019061034991906112fc565b610eb6565b005b61036a60048036038101906103659190611297565b611101565b6040516103779190611839565b60405180910390f35b60056020528060005260406000206000915054906101000a900460ff1681565b60008054906101000a900473ffffffffffffffffffffffffffffffffffffffff1673ffffffffffffffffffffffffffffffffffffffff163373ffffffffffffffffffffffffffffffffffffffff161461042e576040517f08c379a0000000000000000000000000000000000000000000000000000000008152600401610425906117f9565b60405180910390fd5b60026007600083815260200190815260200160002060006101000a81548160ff0219169083600281111561048b577f4e487b7100000000000000000000000000000000000000000000000000000000600052602160045260246000fd5b021790555050565b81600360003373ffffffffffffffffffffffffffffffffffffffff1673ffffffffffffffffffffffffffffffffffffffff16815260200190815260200160002060000190805190602001906104e992919061114d565b5080600360003373ffffffffffffffffffffffffffffffffffffffff1673ffffffffffffffffffffffffffffffffffffffff168152602001908152602001600020600101908051906020019061054092919061114d565b503373ffffffffffffffffffffffffffffffffffffffff167f22266c5d6b942a1db315db9f3b563add9812404b82bc443a03f9910657b4c07b838360405161058992919061177d565b60405180910390a25050565b60008054906101000a900473ffffffffffffffffffffffffffffffffffffffff1673ffffffffffffffffffffffffffffffffffffffff163373ffffffffffffffffffffffffffffffffffffffff1614610623576040517f08c379a000000000000000000000000000000000000000000000000000000000815260040161061a906117f9565b60405180910390fd5b60018190806001815401808255809150506001900390600052602060002001600090919091909150908051906020019061065e92919061114d565b5050565b60008054906101000a900473ffffffffffffffffffffffffffffffffffffffff1673ffffffffffffffffffffffffffffffffffffffff163373ffffffffffffffffffffffffffffffffffffffff16146106f0576040517f08c379a00000000000000000000000000000000000000000000000000000000081526004016106e7906117f9565b60405180910390fd5b80600560008473ffffffffffffffffffffffffffffffffffffffff1673ffffffffffffffffffffffffffffffffffffffff16815260200190815260200160002060006101000a81548160ff0219169083151502179055505050565b60066020528060005260406000206000915090505481565b60606001805480602002602001604051908101604052809291908181526020016000905b828210156108335783829060005260206000200180546107a690611ab6565b80601f01602080910402602001604051908101604052809291908181526020018280546107d290611ab6565b801561081f5780601f106107f45761010080835404028352916020019161081f565b820191906000526020600020905b81548152906001019060200180831161080257829003601f168201915b505050505081526020019060010190610787565b50505050905090565b6060600360008373ffffffffffffffffffffffffffffffffffffffff1673ffffffffffffffffffffffffffffffffffffffff1681526020019081526020016000206003018054806020026020016040519081016040528092919081815260200182805480156108ca57602002820191906000526020600020905b8154815260200190600101908083116108b6575b50505050509050919050565b60008054906101000a900473ffffffffffffffffffffffffffffffffffffffff1673ffffffffffffffffffffffffffffffffffffffff163373ffffffffffffffffffffffffffffffffffffffff1614610964576040517f08c379a000000000000000000000000000000000000000000000000000000000815260040161095b906117f9565b60405180910390fd5b60006004600084815260200190815260200160002060009054906101000a900473ffffffffffffffffffffffffffffffffffffffff1690506000600360008373ffffffffffffffffffffffffffffffffffffffff1673ffffffffffffffffffffffffffffffffffffffff1681526020019081526020016000206002018190555082600360008473ffffffffffffffffffffffffffffffffffffffff1673ffffffffffffffffffffffffffffffffffffffff16815260200190815260200160002060020181905550816004600085815260200190815260200160002060006101000a81548173ffffffffffffffffffffffffffffffffffffffff021916908373ffffffffffffffffffffffffffffffffffffffff160217905550505050565b60008054906101000a900473ffffffffffffffffffffffffffffffffffffffff1681565b6003602052806000526040600020600091509050806000018054610ac990611ab6565b80601f0160208091040260200160405190810160405280929190818152602001828054610af590611ab6565b8015610b425780601f10610b1757610100808354040283529160200191610b42565b820191906000526020600020905b815481529060010190602001808311610b2557829003601f168201915b505050505090806001018054610b5790611ab6565b80601f0160208091040260200160405190810160405280929190818152602001828054610b8390611ab6565b8015610bd05780601f10610ba557610100808354040283529160200191610bd0565b820191906000526020600020905b815481529060010190602001808311610bb357829003601f168201915b5050505050908060020154905083565b60025481565b60076020528060005260406000206000915054906101000a900460ff1681565b80600360003373ffffffffffffffffffffffffffffffffffffffff1673ffffffffffffffffffffffffffffffffffffffff1681526020019081526020016000206003018481548110610c81577f4e487b7100000000000000000000000000000000000000000000000000000000600052603260045260246000fd5b90600052602060002001541015610ccd576040517f08c379a0000000000000000000000000000000000000000000000000000000008152600401610cc490611819565b60405180910390fd5b80600360003373ffffffffffffffffffffffffffffffffffffffff1673ffffffffffffffffffffffffffffffffffffffff1681526020019081526020016000206003018481548110610d48577f4e487b7100000000000000000000000000000000000000000000000000000000600052603260045260246000fd5b906000526020600020016000828254610d6191906119d3565b9250508190555060026000815480929190610d7b90611ae8565b9190505550600160076000600254815260200190815260200160002060006101000a81548160ff02191690836002811115610ddf577f4e487b7100000000000000000000000000000000000000000000000000000000600052602160045260246000fd5b0217905550600254600660003373ffffffffffffffffffffffffffffffffffffffff1673ffffffffffffffffffffffffffffffffffffffff168152602001908152602001600020819055503373ffffffffffffffffffffffffffffffffffffffff16826002547fbf5920ceaae7e6f08ab43f29cc42559ede51d500137b216df60a15bcff4ac3b18685604051610e76929190611854565b60405180910390a4505050565b60046020528060005260406000206000915054906101000a900473ffffffffffffffffffffffffffffffffffffffff1681565b600560003373ffffffffffffffffffffffffffffffffffffffff1673ffffffffffffffffffffffffffffffffffffffff16815260200190815260200160002060009054906101000a900460ff16610f42576040517f08c379a0000000000000000000000000000000000000000000000000000000008152600401610f39906117f9565b60405180910390fd5b6000600360008573ffffffffffffffffffffffffffffffffffffffff1673ffffffffffffffffffffffffffffffffffffffff1681526020019081526020016000206003018054905090505b82811161101157600360008573ffffffffffffffffffffffffffffffffffffffff1673ffffffffffffffffffffffffffffffffffffffff16815260200190815260200160002060030160009080600181540180825580915050600190039060005260206000200160009091909190915055808061100990611ae8565b915050610f8d565b5080600360008573ffffffffffffffffffffffffffffffffffffffff1673ffffffffffffffffffffffffffffffffffffffff168152602001908152602001600020600301838154811061108d577f4e487b7100000000000000000000000000000000000000000000000000000000600052603260045260246000fd5b9060005260206000200160008282546110a6919061197d565b92505081905550818373ffffffffffffffffffffffffffffffffffffffff167f1187560d7b166b3122e71aedb88f19cf2f33b2d141b513fde3ca2562d19d1bcb836040516110f49190611839565b60405180910390a3505050565b6000600360008373ffffffffffffffffffffffffffffffffffffffff1673ffffffffffffffffffffffffffffffffffffffff168152602001908152602001600020600201549050919050565b82805461115990611ab6565b90600052602060002090601f01602090048101928261117b57600085556111c2565b82601f1061119457805160ff19168380011785556111c2565b828001600101855582156111c2579182015b828111156111c15782518255916020019190600101906111a6565b5b5090506111cf91906111d3565b5090565b5b808211156111ec5760008160009055506001016111d4565b5090565b60006112036111fe846118ae565b61187d565b90508281526020810184848401111561121b57600080fd5b611226848285611a74565b509392505050565b60008135905061123d81611c12565b92915050565b60008135905061125281611c29565b92915050565b600082601f83011261126957600080fd5b81356112798482602086016111f0565b91505092915050565b60008135905061129181611c40565b92915050565b6000602082840312156112a957600080fd5b60006112b78482850161122e565b91505092915050565b600080604083850312156112d357600080fd5b60006112e18582860161122e565b92505060206112f285828601611243565b9150509250929050565b60008060006060848603121561131157600080fd5b600061131f8682870161122e565b935050602061133086828701611282565b925050604061134186828701611282565b9150509250925092565b60006020828403121561135d57600080fd5b600082013567ffffffffffffffff81111561137757600080fd5b61138384828501611258565b91505092915050565b6000806040838503121561139f57600080fd5b600083013567ffffffffffffffff8111156113b957600080fd5b6113c585828601611258565b925050602083013567ffffffffffffffff8111156113e257600080fd5b6113ee85828601611258565b9150509250929050565b60006020828403121561140a57600080fd5b600061141884828501611282565b91505092915050565b6000806040838503121561143457600080fd5b600061144285828601611282565b92505060206114538582860161122e565b9150509250929050565b60008060006060848603121561147257600080fd5b600061148086828701611282565b935050602061149186828701611282565b92505060406114a286828701611282565b9150509250925092565b60006114b883836115d8565b905092915050565b60006114cc83836116ca565b60208301905092915050565b6114e181611a07565b82525050565b60006114f2826118fe565b6114fc8185611939565b93508360208202850161150e856118de565b8060005b8581101561154a578484038952815161152b85826114ac565b94506115368361191f565b925060208a01995050600181019050611512565b50829750879550505050505092915050565b600061156782611909565b611571818561194a565b935061157c836118ee565b8060005b838110156115ad57815161159488826114c0565b975061159f8361192c565b925050600181019050611580565b5085935050505092915050565b6115c381611a19565b82525050565b6115d281611a62565b82525050565b60006115e382611914565b6115ed818561195b565b93506115fd818560208601611a83565b61160681611bed565b840191505092915050565b600061161c82611914565b611626818561196c565b9350611636818560208601611a83565b61163f81611bed565b840191505092915050565b600061165760118361196c565b91507f596f7520617265206e6f742061646d696e0000000000000000000000000000006000830152602082019050919050565b600061169760118361196c565b91507f4e6f20656e6f7567682062616c616e63650000000000000000000000000000006000830152602082019050919050565b6116d381611a58565b82525050565b6116e281611a58565b82525050565b60006020820190506116fd60008301846114d8565b92915050565b6000602082019050818103600083015261171d81846114e7565b905092915050565b6000602082019050818103600083015261173f818461155c565b905092915050565b600060208201905061175c60008301846115ba565b92915050565b600060208201905061177760008301846115c9565b92915050565b600060408201905081810360008301526117978185611611565b905081810360208301526117ab8184611611565b90509392505050565b600060608201905081810360008301526117ce8186611611565b905081810360208301526117e28185611611565b90506117f160408301846116d9565b949350505050565b600060208201905081810360008301526118128161164a565b9050919050565b600060208201905081810360008301526118328161168a565b9050919050565b600060208201905061184e60008301846116d9565b92915050565b600060408201905061186960008301856116d9565b61187660208301846116d9565b9392505050565b6000604051905081810181811067ffffffffffffffff821117156118a4576118a3611bbe565b5b8060405250919050565b600067ffffffffffffffff8211156118c9576118c8611bbe565b5b601f19601f8301169050602081019050919050565b6000819050602082019050919050565b6000819050602082019050919050565b600081519050919050565b600081519050919050565b600081519050919050565b6000602082019050919050565b6000602082019050919050565b600082825260208201905092915050565b600082825260208201905092915050565b600082825260208201905092915050565b600082825260208201905092915050565b600061198882611a58565b915061199383611a58565b9250827fffffffffffffffffffffffffffffffffffffffffffffffffffffffffffffffff038211156119c8576119c7611b31565b5b828201905092915050565b60006119de82611a58565b91506119e983611a58565b9250828210156119fc576119fb611b31565b5b828203905092915050565b6000611a1282611a38565b9050919050565b60008115159050919050565b6000819050611a3382611bfe565b919050565b600073ffffffffffffffffffffffffffffffffffffffff82169050919050565b6000819050919050565b6000611a6d82611a25565b9050919050565b82818337600083830152505050565b60005b83811015611aa1578082015181840152602081019050611a86565b83811115611ab0576000848401525b50505050565b60006002820490506001821680611ace57607f821691505b60208210811415611ae257611ae1611b8f565b5b50919050565b6000611af382611a58565b91507fffffffffffffffffffffffffffffffffffffffffffffffffffffffffffffffff821415611b2657611b25611b31565b5b600182019050919050565b7f4e487b7100000000000000000000000000000000000000000000000000000000600052601160045260246000fd5b7f4e487b7100000000000000000000000000000000000000000000000000000000600052602160045260246000fd5b7f4e487b7100000000000000000000000000000000000000000000000000000000600052602260045260246000fd5b7f4e487b7100000000000000000000000000000000000000000000000000000000600052604160045260246000fd5b6000601f19601f8301169050919050565b60038110611c0f57611c0e611b60565b5b50565b611c1b81611a07565b8114611c2657600080fd5b50565b611c3281611a19565b8114611c3d57600080fd5b50565b611c4981611a58565b8114611c5457600080fd5b5056fea26469706673582212200d2869fb708a17c4491104a57febf8ecf4a22412224bc40af00e48bdddfee0d964736f6c63430008000033",
  "immutableReferences": {},
  "source": "// SPDX-License-Identifier: MIT\r\npragma solidity ^0.8.0;\r\n\r\ncontract Register {\r\n  \r\n  enum Status { NoRecord, Processing, Finished }\r\n  \r\n  struct Account {\r\n    string name;\r\n    string email;\r\n\t  uint punkId;\r\n    uint[] balance;\r\n  }\r\n  \r\n  address public owner;\r\n  string[] tokens;\r\n  uint public useId;\r\n\r\n  mapping (address => Account) public accountInfo;\r\n  mapping (uint => address) public punkOwner;\r\n  mapping (address => bool) public isAdmin;\r\n  mapping (address => uint) public lastUse;\r\n  mapping (uint => Status) public useInfo;\r\n\r\n  event RegisterSucceed(address indexed player, string name, string email);\r\n  event Award(address indexed player, uint indexed id, uint amount);\r\n  event Use(uint indexed useId, uint indexed kind, address indexed player, uint id, uint amount);\r\n  \r\n  constructor() {\r\n    owner = msg.sender;\r\n  }\r\n\r\n  function setAdmin(address candidate, bool b) public {\r\n    require(msg.sender == owner, \"You are not admin\");\r\n    isAdmin[candidate] = b;\r\n  }\r\n\r\n  function newToken(string memory tokenName) public {\r\n    require(msg.sender == owner, \"You are not admin\");\r\n    tokens.push(tokenName);\r\n  }\r\n\r\n  function grantPunk(uint punkId, address newOwner) public {\r\n    require(msg.sender == owner, \"You are not admin\");\r\n    address prevOwner = punkOwner[punkId];\r\n    accountInfo[prevOwner].punkId = 0;\r\n    accountInfo[newOwner].punkId = punkId;\r\n    punkOwner[punkId] = newOwner;\r\n  }\r\n\r\n  function balanceOf(address user) public view returns (uint[] memory) {\r\n    return accountInfo[user].balance;\r\n  }\r\n\r\n  function tokenInfo() public view returns (string[] memory) {\r\n    return tokens;\r\n  }\r\n\r\n  function punkOf(address user) public view returns (uint) {\r\n    return accountInfo[user].punkId;\r\n  }\r\n  \r\n  function register(string memory name_, string memory email_) public {\r\n    accountInfo[msg.sender].name = name_;\r\n    accountInfo[msg.sender].email = email_;\r\n    emit RegisterSucceed(msg.sender, name_, email_);\r\n  }\r\n\r\n  function award(address player, uint id, uint amount) public {\r\n    require(isAdmin[msg.sender], \"You are not admin\");\r\n    for(uint i=accountInfo[player].balance.length; i<=id; i++) {\r\n      accountInfo[player].balance.push(0);\r\n    }\r\n    accountInfo[player].balance[id] += amount;\r\n    emit Award(player, id, amount);\r\n  }\r\n\r\n  function use(uint id, uint kind, uint amount) public {\r\n    require(accountInfo[msg.sender].balance[id] >= amount, \"No enough balance\");\r\n    accountInfo[msg.sender].balance[id] -= amount;\r\n    useId ++;\r\n    useInfo[useId] = Status.Processing;\r\n    lastUse[msg.sender] = useId;\r\n    emit Use(useId, kind, msg.sender, id, amount);\r\n  }\r\n\r\n  function setFinish(uint id) public {\r\n    require(msg.sender == owner, \"You are not admin\");\r\n    useInfo[id] = Status.Finished;\r\n  }\r\n\r\n  \r\n}\r\n",
  "sourcePath": "C:/Users/Weixuan/Documents/github/RogueLand/contracts/register.sol",
  "compiler": {
    "name": "solc",
    "version": "0.8.0+commit.c7dfd78e.Emscripten.clang"
  },
  "schemaVersion": "3.4.0",
  "updatedAt": "2021-09-25T06:32:02.263Z",
  "networkType": "ethereum",
  "devdoc": {
    "kind": "dev",
    "methods": {},
    "version": 1
  },
  "userdoc": {
    "kind": "user",
    "methods": {},
    "version": 1
  }
}