{
  "contractName": "RogueLand",
  "abi": [
    {
      "inputs": [],
      "stateMutability": "nonpayable",
      "type": "constructor"
    },
    {
      "anonymous": false,
      "inputs": [
        {
          "indexed": true,
          "internalType": "uint256",
          "name": "punkId",
          "type": "uint256"
        },
        {
          "indexed": true,
          "internalType": "uint256",
          "name": "time",
          "type": "uint256"
        },
        {
          "indexed": false,
          "internalType": "enum RogueLand.ActionChoices",
          "name": "action",
          "type": "uint8"
        }
      ],
      "name": "ActionCommitted",
      "type": "event"
    },
    {
      "anonymous": false,
      "inputs": [
        {
          "indexed": true,
          "internalType": "uint256",
          "name": "punkId",
          "type": "uint256"
        },
        {
          "indexed": true,
          "internalType": "uint256",
          "name": "time",
          "type": "uint256"
        },
        {
          "indexed": false,
          "internalType": "int256",
          "name": "x",
          "type": "int256"
        },
        {
          "indexed": false,
          "internalType": "int256",
          "name": "y",
          "type": "int256"
        },
        {
          "indexed": false,
          "internalType": "uint256",
          "name": "amount",
          "type": "uint256"
        }
      ],
      "name": "GoldPicked",
      "type": "event"
    },
    {
      "stateMutability": "payable",
      "type": "fallback",
      "payable": true
    },
    {
      "inputs": [],
      "name": "activeRound",
      "outputs": [
        {
          "internalType": "uint256",
          "name": "",
          "type": "uint256"
        }
      ],
      "stateMutability": "view",
      "type": "function",
      "constant": true
    },
    {
      "inputs": [],
      "name": "blockPerRound",
      "outputs": [
        {
          "internalType": "uint256",
          "name": "",
          "type": "uint256"
        }
      ],
      "stateMutability": "view",
      "type": "function",
      "constant": true
    },
    {
      "inputs": [
        {
          "internalType": "uint256",
          "name": "",
          "type": "uint256"
        },
        {
          "internalType": "int256",
          "name": "",
          "type": "int256"
        },
        {
          "internalType": "int256",
          "name": "",
          "type": "int256"
        }
      ],
      "name": "events",
      "outputs": [
        {
          "internalType": "uint256",
          "name": "movingPunk",
          "type": "uint256"
        },
        {
          "internalType": "uint256",
          "name": "monster",
          "type": "uint256"
        }
      ],
      "stateMutability": "view",
      "type": "function",
      "constant": true
    },
    {
      "inputs": [],
      "name": "goldAmount",
      "outputs": [
        {
          "internalType": "uint256",
          "name": "",
          "type": "uint256"
        }
      ],
      "stateMutability": "view",
      "type": "function",
      "constant": true
    },
    {
      "inputs": [],
      "name": "goldInterval",
      "outputs": [
        {
          "internalType": "uint256",
          "name": "",
          "type": "uint256"
        }
      ],
      "stateMutability": "view",
      "type": "function",
      "constant": true
    },
    {
      "inputs": [
        {
          "internalType": "int256",
          "name": "",
          "type": "int256"
        },
        {
          "internalType": "int256",
          "name": "",
          "type": "int256"
        }
      ],
      "name": "goldOn",
      "outputs": [
        {
          "internalType": "uint256",
          "name": "amount",
          "type": "uint256"
        },
        {
          "internalType": "uint256",
          "name": "vaildTime",
          "type": "uint256"
        },
        {
          "internalType": "uint256",
          "name": "punkNumber",
          "type": "uint256"
        }
      ],
      "stateMutability": "view",
      "type": "function",
      "constant": true
    },
    {
      "inputs": [
        {
          "internalType": "uint256",
          "name": "",
          "type": "uint256"
        }
      ],
      "name": "lastScheduleOf",
      "outputs": [
        {
          "internalType": "uint256",
          "name": "",
          "type": "uint256"
        }
      ],
      "stateMutability": "view",
      "type": "function",
      "constant": true
    },
    {
      "inputs": [],
      "name": "mapSize",
      "outputs": [
        {
          "internalType": "uint256",
          "name": "",
          "type": "uint256"
        }
      ],
      "stateMutability": "view",
      "type": "function",
      "constant": true
    },
    {
      "inputs": [
        {
          "internalType": "uint256",
          "name": "",
          "type": "uint256"
        },
        {
          "internalType": "uint256",
          "name": "",
          "type": "uint256"
        }
      ],
      "name": "movingPunks",
      "outputs": [
        {
          "internalType": "uint256",
          "name": "newNeighbor",
          "type": "uint256"
        },
        {
          "internalType": "enum RogueLand.ActionChoices",
          "name": "action",
          "type": "uint8"
        },
        {
          "internalType": "int256",
          "name": "x",
          "type": "int256"
        },
        {
          "internalType": "int256",
          "name": "y",
          "type": "int256"
        }
      ],
      "stateMutability": "view",
      "type": "function",
      "constant": true
    },
    {
      "inputs": [],
      "name": "owner",
      "outputs": [
        {
          "internalType": "address",
          "name": "",
          "type": "address"
        }
      ],
      "stateMutability": "view",
      "type": "function",
      "constant": true
    },
    {
      "inputs": [
        {
          "internalType": "address",
          "name": "",
          "type": "address"
        }
      ],
      "name": "playerInfo",
      "outputs": [
        {
          "internalType": "uint256",
          "name": "id",
          "type": "uint256"
        },
        {
          "internalType": "string",
          "name": "name",
          "type": "string"
        },
        {
          "internalType": "string",
          "name": "uri",
          "type": "string"
        }
      ],
      "stateMutability": "view",
      "type": "function",
      "constant": true
    },
    {
      "inputs": [
        {
          "internalType": "int256",
          "name": "",
          "type": "int256"
        },
        {
          "internalType": "int256",
          "name": "",
          "type": "int256"
        }
      ],
      "name": "stillPunkOn",
      "outputs": [
        {
          "internalType": "uint256",
          "name": "",
          "type": "uint256"
        }
      ],
      "stateMutability": "view",
      "type": "function",
      "constant": true
    },
    {
      "inputs": [
        {
          "internalType": "uint256",
          "name": "",
          "type": "uint256"
        }
      ],
      "name": "stillPunks",
      "outputs": [
        {
          "internalType": "uint256",
          "name": "oldNeighbor",
          "type": "uint256"
        },
        {
          "internalType": "uint256",
          "name": "newNeighbor",
          "type": "uint256"
        },
        {
          "internalType": "int256",
          "name": "x",
          "type": "int256"
        },
        {
          "internalType": "int256",
          "name": "y",
          "type": "int256"
        },
        {
          "internalType": "uint256",
          "name": "showtime",
          "type": "uint256"
        },
        {
          "internalType": "uint256",
          "name": "gold",
          "type": "uint256"
        }
      ],
      "stateMutability": "view",
      "type": "function",
      "constant": true
    },
    {
      "inputs": [],
      "name": "validBlockToPutGold",
      "outputs": [
        {
          "internalType": "uint256",
          "name": "",
          "type": "uint256"
        }
      ],
      "stateMutability": "view",
      "type": "function",
      "constant": true
    },
    {
      "stateMutability": "payable",
      "type": "receive",
      "payable": true
    },
    {
      "inputs": [
        {
          "internalType": "int256",
          "name": "x1",
          "type": "int256"
        },
        {
          "internalType": "int256",
          "name": "y1",
          "type": "int256"
        },
        {
          "internalType": "int256",
          "name": "x2",
          "type": "int256"
        },
        {
          "internalType": "int256",
          "name": "y2",
          "type": "int256"
        },
        {
          "internalType": "uint256",
          "name": "t",
          "type": "uint256"
        }
      ],
      "name": "getEvents",
      "outputs": [
        {
          "components": [
            {
              "internalType": "uint256",
              "name": "movingPunk",
              "type": "uint256"
            },
            {
              "internalType": "uint256",
              "name": "monster",
              "type": "uint256"
            }
          ],
          "internalType": "struct RogueLand.Event[]",
          "name": "",
          "type": "tuple[]"
        }
      ],
      "stateMutability": "view",
      "type": "function",
      "constant": true
    },
    {
      "inputs": [
        {
          "internalType": "address payable",
          "name": "player_",
          "type": "address"
        },
        {
          "internalType": "uint256",
          "name": "id_",
          "type": "uint256"
        },
        {
          "internalType": "string",
          "name": "name_",
          "type": "string"
        },
        {
          "internalType": "string",
          "name": "uri_",
          "type": "string"
        }
      ],
      "name": "authorize",
      "outputs": [],
      "stateMutability": "nonpayable",
      "type": "function"
    },
    {
      "inputs": [
        {
          "internalType": "int256",
          "name": "x",
          "type": "int256"
        },
        {
          "internalType": "int256",
          "name": "y",
          "type": "int256"
        }
      ],
      "name": "isValidToPutGold",
      "outputs": [
        {
          "internalType": "bool",
          "name": "",
          "type": "bool"
        }
      ],
      "stateMutability": "view",
      "type": "function",
      "constant": true
    },
    {
      "inputs": [
        {
          "internalType": "address payable",
          "name": "player_",
          "type": "address"
        }
      ],
      "name": "swapGold",
      "outputs": [],
      "stateMutability": "nonpayable",
      "type": "function"
    },
    {
      "inputs": [
        {
          "internalType": "uint256",
          "name": "goldInterval_",
          "type": "uint256"
        },
        {
          "internalType": "uint256",
          "name": "goldAmount_",
          "type": "uint256"
        }
      ],
      "name": "setGold",
      "outputs": [],
      "stateMutability": "nonpayable",
      "type": "function"
    },
    {
      "inputs": [],
      "name": "putGold",
      "outputs": [],
      "stateMutability": "nonpayable",
      "type": "function"
    },
    {
      "inputs": [
        {
          "internalType": "int256",
          "name": "x",
          "type": "int256"
        },
        {
          "internalType": "int256",
          "name": "y",
          "type": "int256"
        }
      ],
      "name": "getGold",
      "outputs": [],
      "stateMutability": "nonpayable",
      "type": "function"
    },
    {
      "inputs": [
        {
          "internalType": "uint256",
          "name": "id",
          "type": "uint256"
        }
      ],
      "name": "getEvent",
      "outputs": [
        {
          "components": [
            {
              "internalType": "uint256",
              "name": "t",
              "type": "uint256"
            },
            {
              "internalType": "int256",
              "name": "x",
              "type": "int256"
            },
            {
              "internalType": "int256",
              "name": "y",
              "type": "int256"
            }
          ],
          "internalType": "struct RogueLand.StatusInfo",
          "name": "",
          "type": "tuple"
        }
      ],
      "stateMutability": "view",
      "type": "function",
      "constant": true
    },
    {
      "inputs": [
        {
          "internalType": "uint256",
          "name": "id",
          "type": "uint256"
        },
        {
          "internalType": "enum RogueLand.ActionChoices",
          "name": "action",
          "type": "uint8"
        }
      ],
      "name": "scheduleAction",
      "outputs": [],
      "stateMutability": "nonpayable",
      "type": "function"
    },
    {
      "inputs": [],
      "name": "getCurrentTime",
      "outputs": [
        {
          "internalType": "uint256",
          "name": "",
          "type": "uint256"
        }
      ],
      "stateMutability": "view",
      "type": "function",
      "constant": true
    },
    {
      "inputs": [
        {
          "internalType": "uint256",
          "name": "id",
          "type": "uint256"
        }
      ],
      "name": "getCurrentStatus",
      "outputs": [
        {
          "components": [
            {
              "internalType": "uint256",
              "name": "t",
              "type": "uint256"
            },
            {
              "internalType": "int256",
              "name": "x",
              "type": "int256"
            },
            {
              "internalType": "int256",
              "name": "y",
              "type": "int256"
            }
          ],
          "internalType": "struct RogueLand.StatusInfo",
          "name": "",
          "type": "tuple"
        }
      ],
      "stateMutability": "view",
      "type": "function",
      "constant": true
    },
    {
      "inputs": [
        {
          "internalType": "uint256",
          "name": "id",
          "type": "uint256"
        }
      ],
      "name": "getScheduleInfo",
      "outputs": [
        {
          "components": [
            {
              "internalType": "uint256",
              "name": "t",
              "type": "uint256"
            },
            {
              "internalType": "int256",
              "name": "x",
              "type": "int256"
            },
            {
              "internalType": "int256",
              "name": "y",
              "type": "int256"
            }
          ],
          "internalType": "struct RogueLand.StatusInfo",
          "name": "",
          "type": "tuple"
        }
      ],
      "stateMutability": "view",
      "type": "function",
      "constant": true
    },
    {
      "inputs": [
        {
          "internalType": "address",
          "name": "player_",
          "type": "address"
        }
      ],
      "name": "getPlayerInfo",
      "outputs": [
        {
          "components": [
            {
              "internalType": "uint256",
              "name": "id",
              "type": "uint256"
            },
            {
              "internalType": "string",
              "name": "name",
              "type": "string"
            },
            {
              "internalType": "string",
              "name": "uri",
              "type": "string"
            }
          ],
          "internalType": "struct RogueLand.PlayerInfo",
          "name": "",
          "type": "tuple"
        }
      ],
      "stateMutability": "view",
      "type": "function",
      "constant": true
    },
    {
      "inputs": [],
      "name": "getGoldsofAllPunk",
      "outputs": [
        {
          "internalType": "uint256[667]",
          "name": "",
          "type": "uint256[667]"
        }
      ],
      "stateMutability": "view",
      "type": "function",
      "constant": true
    }
  ],
  "bytecode": "0x6080604052600560035560966004556101f46005556101f460065569021e19e0c9bab240000060075534801561003457600080fd5b50336000806101000a81548173ffffffffffffffffffffffffffffffffffffffff021916908373ffffffffffffffffffffffffffffffffffffffff1602179055504360018190555043600881905550614045806100926000396000f3fe6080604052600436106101bb5760003560e01c80635288a86c116100ec57806386ea92931161008a578063de4f8f1f11610064578063de4f8f1f146106a4578063ea5acccb146106e6578063f673743714610711578063f7aecf6914610728576101c2565b806386ea9293146106135780638da5cb5b1461063c578063a0aa13c614610667576101c2565b80636358eaa3116100c65780636358eaa314610533578063671a8b1a1461055c5780636d1884e0146105995780637336ffac146105d6576101c2565b80635288a86c1461047b57806359328401146104b957806359d103f8146104f6576101c2565b80632a166de31161015957806340d68c111161013357806340d68c11146103aa57806348f9f586146103d35780634b114691146103fc5780634d71e7251461043b576101c2565b80632a166de3146103035780633730d98e146103405780633c9aaf3f1461036b576101c2565b8063123404731161019557806312340473146102575780631a32ebb6146102825780631fda9cb4146102ad57806329cb924d146102d8576101c2565b8063033d5e4d146101c457806308b1b5331461020157806311f0281e1461022c576101c2565b366101c257005b005b3480156101d057600080fd5b506101eb60048036038101906101e69190612e66565b610751565b6040516101f891906136d2565b60405180910390f35b34801561020d57600080fd5b506102166107e6565b60405161022391906136ed565b60405180910390f35b34801561023857600080fd5b506102416107ec565b60405161024e91906136ed565b60405180910390f35b34801561026357600080fd5b5061026c6107f2565b60405161027991906136ed565b60405180910390f35b34801561028e57600080fd5b506102976107f8565b6040516102a491906136ed565b60405180910390f35b3480156102b957600080fd5b506102c26107fe565b6040516102cf91906134e7565b60405180910390f35b3480156102e457600080fd5b506102ed61089c565b6040516102fa91906136ed565b60405180910390f35b34801561030f57600080fd5b5061032a60048036038101906103259190612db3565b6108c3565b60405161033791906136ed565b60405180910390f35b34801561034c57600080fd5b506103556108e8565b60405161036291906136ed565b60405180910390f35b34801561037757600080fd5b50610392600480360381019061038d9190612db3565b6108ee565b6040516103a193929190613853565b60405180910390f35b3480156103b657600080fd5b506103d160048036038101906103cc9190612e8f565b610925565b005b3480156103df57600080fd5b506103fa60048036038101906103f59190612cf7565b610feb565b005b34801561040857600080fd5b50610423600480360381019061041e9190612cce565b6111e5565b60405161043293929190613784565b60405180910390f35b34801561044757600080fd5b50610462600480360381019061045d9190612f1a565b61131f565b604051610472949392919061373f565b60405180910390f35b34801561048757600080fd5b506104a2600480360381019061049d9190612ecb565b611369565b6040516104b09291906137c9565b60405180910390f35b3480156104c557600080fd5b506104e060048036038101906104db9190612cce565b6113a7565b6040516104ed91906136b0565b60405180910390f35b34801561050257600080fd5b5061051d60048036038101906105189190612db3565b61152e565b60405161052a9190613503565b60405180910390f35b34801561053f57600080fd5b5061055a60048036038101906105559190612f1a565b611621565b005b34801561056857600080fd5b50610583600480360381019061057e9190612e66565b6116c1565b60405161059091906136ed565b60405180910390f35b3480156105a557600080fd5b506105c060048036038101906105bb9190612e66565b6116d9565b6040516105cd91906136d2565b60405180910390f35b3480156105e257600080fd5b506105fd60048036038101906105f89190612def565b61194f565b60405161060a91906134c5565b60405180910390f35b34801561061f57600080fd5b5061063a60048036038101906106359190612db3565b611d18565b005b34801561064857600080fd5b5061065161207b565b60405161065e91906134aa565b60405180910390f35b34801561067357600080fd5b5061068e60048036038101906106899190612e66565b61209f565b60405161069b91906136d2565b60405180910390f35b3480156106b057600080fd5b506106cb60048036038101906106c69190612e66565b61218f565b6040516106dd969594939291906137f2565b60405180910390f35b3480156106f257600080fd5b506106fb6121cb565b60405161070891906136ed565b60405180910390f35b34801561071d57600080fd5b506107266121d1565b005b34801561073457600080fd5b5061074f600480360381019061074a9190612d20565b61244a565b005b610759612ada565b600061076361089c565b905080600b600085815260200190815260200160002054111561079757600b60008481526020019081526020016000205490505b6040518060600160405280828152602001600c6000868152602001908152602001600020600201548152602001600c600086815260200190815260200160002060030154815250915050919050565b60075481565b60045481565b60055481565b60035481565b610806612afb565b61080e612afb565b60005b61029b81101561089457600c600060018361082c9190613a13565b815260200190815260200160002060050154828261029b8110610878577f4e487b7100000000000000000000000000000000000000000000000000000000600052603260045260246000fd5b602002018181525050808061088c90613e19565b915050610811565b508091505090565b600080600554600154436108b09190613c9f565b6108ba9190613a69565b90508091505090565b600d602052816000526040600020602052806000526040600020600091509150505481565b60085481565b600e602052816000526040600020602052806000526040600020600091509150508060000154908060010154908060020154905083565b81600960003373ffffffffffffffffffffffffffffffffffffffff1673ffffffffffffffffffffffffffffffffffffffff16815260200190815260200160002060000154146109a9576040517f08c379a00000000000000000000000000000000000000000000000000000000081526004016109a090613630565b60405180910390fd5b60006109b361089c565b905080600b60008581526020019081526020016000205410156109e95780600b6000858152602001908152602001600020819055505b6000600b60008581526020019081526020016000205490506000600c60008681526020019081526020016000206002015490506000600c6000878152602001908152602001600020600301549050610a42868383612649565b610a4f86848484896126fe565b60016008811115610a89577f4e487b7100000000000000000000000000000000000000000000000000000000600052602160045260246000fd5b856008811115610ac2577f4e487b7100000000000000000000000000000000000000000000000000000000600052602160045260246000fd5b1415610aed57610aec86600184610ad99190613c0b565b83600187610ae79190613a13565b612873565b5b60026008811115610b27577f4e487b7100000000000000000000000000000000000000000000000000000000600052602160045260246000fd5b856008811115610b60577f4e487b7100000000000000000000000000000000000000000000000000000000600052602160045260246000fd5b1415610b8b57610b8a86600184610b77919061397f565b83600187610b859190613a13565b612873565b5b60036008811115610bc5577f4e487b7100000000000000000000000000000000000000000000000000000000600052602160045260246000fd5b856008811115610bfe577f4e487b7100000000000000000000000000000000000000000000000000000000600052602160045260246000fd5b1415610c2957610c288683600184610c16919061397f565b600187610c239190613a13565b612873565b5b60046008811115610c63577f4e487b7100000000000000000000000000000000000000000000000000000000600052602160045260246000fd5b856008811115610c9c577f4e487b7100000000000000000000000000000000000000000000000000000000600052602160045260246000fd5b1415610cc757610cc68683600184610cb49190613c0b565b600187610cc19190613a13565b612873565b5b60056008811115610d01577f4e487b7100000000000000000000000000000000000000000000000000000000600052602160045260246000fd5b856008811115610d3a577f4e487b7100000000000000000000000000000000000000000000000000000000600052602160045260246000fd5b1415610d7157610d7086600184610d519190613c0b565b600184610d5e919061397f565b600187610d6b9190613a13565b612873565b5b60066008811115610dab577f4e487b7100000000000000000000000000000000000000000000000000000000600052602160045260246000fd5b856008811115610de4577f4e487b7100000000000000000000000000000000000000000000000000000000600052602160045260246000fd5b1415610e1b57610e1a86600184610dfb9190613c0b565b600184610e089190613c0b565b600187610e159190613a13565b612873565b5b60076008811115610e55577f4e487b7100000000000000000000000000000000000000000000000000000000600052602160045260246000fd5b856008811115610e8e577f4e487b7100000000000000000000000000000000000000000000000000000000600052602160045260246000fd5b1415610ec557610ec486600184610ea5919061397f565b600184610eb2919061397f565b600187610ebf9190613a13565b612873565b5b600880811115610efe577f4e487b7100000000000000000000000000000000000000000000000000000000600052602160045260246000fd5b856008811115610f37577f4e487b7100000000000000000000000000000000000000000000000000000000600052602160045260246000fd5b1415610f6e57610f6d86600184610f4e919061397f565b600184610f5b9190613c0b565b600187610f689190613a13565b612873565b5b600b60008781526020019081526020016000206000815480929190610f9290613e19565b9190505550600b600087815260200190815260200160002054867f6a2d17d8c21b88f2e1a453533160575a5702bd8b1f6492daff557c2ae2a34a5687604051610fdb919061351e565b60405180910390a3505050505050565b3373ffffffffffffffffffffffffffffffffffffffff168173ffffffffffffffffffffffffffffffffffffffff1614611059576040517f08c379a0000000000000000000000000000000000000000000000000000000008152600401611050906135d0565b60405180910390fd5b6103e8600c6000600960008573ffffffffffffffffffffffffffffffffffffffff1673ffffffffffffffffffffffffffffffffffffffff1681526020019081526020016000206000015481526020019081526020016000206005015410156110f6576040517f08c379a00000000000000000000000000000000000000000000000000000000081526004016110ed90613690565b60405180910390fd5b6103e8600c6000600960008573ffffffffffffffffffffffffffffffffffffffff1673ffffffffffffffffffffffffffffffffffffffff16815260200190815260200160002060000154815260200190815260200160002060050160008282546111609190613c9f565b925050819055508073ffffffffffffffffffffffffffffffffffffffff166108fc662386f26fc100009081150290604051600060405180830381858888f193505050506111e2576040517f08c379a00000000000000000000000000000000000000000000000000000000081526004016111d990613590565b60405180910390fd5b50565b600960205280600052604060002060009150905080600001549080600101805461120e90613d9e565b80601f016020809104026020016040519081016040528092919081815260200182805461123a90613d9e565b80156112875780601f1061125c57610100808354040283529160200191611287565b820191906000526020600020905b81548152906001019060200180831161126a57829003601f168201915b50505050509080600201805461129c90613d9e565b80601f01602080910402602001604051908101604052809291908181526020018280546112c890613d9e565b80156113155780601f106112ea57610100808354040283529160200191611315565b820191906000526020600020905b8154815290600101906020018083116112f857829003601f168201915b5050505050905083565b600a602052816000526040600020602052806000526040600020600091509150508060000154908060010160009054906101000a900460ff16908060020154908060030154905084565b600f60205282600052604060002060205281600052604060002060205280600052604060002060009250925050508060000154908060010154905082565b6113af612b1f565b600960008373ffffffffffffffffffffffffffffffffffffffff1673ffffffffffffffffffffffffffffffffffffffff1681526020019081526020016000206040518060600160405290816000820154815260200160018201805461141390613d9e565b80601f016020809104026020016040519081016040528092919081815260200182805461143f90613d9e565b801561148c5780601f106114615761010080835404028352916020019161148c565b820191906000526020600020905b81548152906001019060200180831161146f57829003601f168201915b505050505081526020016002820180546114a590613d9e565b80601f01602080910402602001604051908101604052809291908181526020018280546114d190613d9e565b801561151e5780601f106114f35761010080835404028352916020019161151e565b820191906000526020600020905b81548152906001019060200180831161150157829003601f168201915b5050505050815250509050919050565b60008061153961089c565b90506000600d60008681526020019081526020016000206000858152602001908152602001600020541480156115a757506000600f60008381526020019081526020016000206000868152602001908152602001600020600085815260200190815260200160002060000154145b801561161857506000600e600086815260200190815260200160002060008581526020019081526020016000206001015414806116175750600454600e60008681526020019081526020016000206000858152602001908152602001600020600101546116149190613a13565b81115b5b91505092915050565b60008054906101000a900473ffffffffffffffffffffffffffffffffffffffff1673ffffffffffffffffffffffffffffffffffffffff163373ffffffffffffffffffffffffffffffffffffffff16146116af576040517f08c379a00000000000000000000000000000000000000000000000000000000081526004016116a690613650565b60405180910390fd5b81600681905550806007819055505050565b600b6020528060005260406000206000915090505481565b6116e1612ada565b6000600b600084815260200190815260200160002054141561172257604051806060016040528060008152602001600081526020016000815250905061194a565b600061172c61089c565b905060006096821161173f57600161174d565b60968261174c9190613c9f565b5b905060006001600b6000878152602001908152602001600020546117719190613c9f565b831061179c576001600b6000878152602001908152602001600020546117979190613c9f565b61179e565b825b905060008290505b818111611871576000600a600088815260200190815260200160002060008381526020019081526020016000206002015490506000600a6000898152602001908152602001600020600084815260200190815260200160002060030154905082600e6000848152602001908152602001600020600083815260200190815260200160002060010154141561185c57604051806060016040528084815260200183815260200182815250965050505050505061194a565b5050808061186990613e19565b9150506117a6565b506000600c60008781526020019081526020016000206002015490506000600c6000888152602001908152602001600020600301549050600b600088815260200190815260200160002054600e60008481526020019081526020016000206000838152602001908152602001600020600101541415611924576040518060600160405280600b60008a8152602001908152602001600020548152602001838152602001828152509550505050505061194a565b604051806060016040528060008152602001600081526020016000815250955050505050505b919050565b60608584121580156119615750848312155b6119a0576040517f08c379a0000000000000000000000000000000000000000000000000000000008152600401611997906135b0565b60405180910390fd5b6000600186856119b09190613c0b565b6119ba919061397f565b600188876119c89190613c0b565b6119d2919061397f565b6119dc9190613a9a565b67ffffffffffffffff811115611a1b577f4e487b7100000000000000000000000000000000000000000000000000000000600052604160045260246000fd5b604051908082528060200260200182016040528015611a5457816020015b611a41612b40565b815260200190600190039081611a395790505b5090506000808890505b868113611d095760008890505b868113611cf557600f60008781526020019081526020016000206000838152602001908152602001600020600082815260200190815260200160002060405180604001604052908160008201548152602001600182015481525050848481518110611aff577f4e487b7100000000000000000000000000000000000000000000000000000000600052603260045260246000fd5b60200260200101819052506000600f60008881526020019081526020016000206000848152602001908152602001600020600083815260200190815260200160002060000154148015611b8c575085600c6000600d600086815260200190815260200160002060008581526020019081526020016000205481526020019081526020016000206004015411155b15611c0057600d6000838152602001908152602001600020600082815260200190815260200160002054848481518110611bef577f4e487b7100000000000000000000000000000000000000000000000000000000600052603260045260246000fd5b602002602001015160000181815250505b6000600e60008481526020019081526020016000206000838152602001908152602001600020600101541480611c5d575085600e600084815260200190815260200160002060008381526020019081526020016000206001015410155b15611cd457600e6000838152602001908152602001600020600082815260200190815260200160002060000154848481518110611cc3577f4e487b7100000000000000000000000000000000000000000000000000000000600052603260045260246000fd5b602002602001015160200181815250505b8280611cdf90613e19565b9350508080611ced90613dd0565b915050611a6b565b508080611d0190613dd0565b915050611a5e565b50819250505095945050505050565b6000600e600084815260200190815260200160002060008381526020019081526020016000206002015411611d82576040517f08c379a0000000000000000000000000000000000000000000000000000000008152600401611d7990613570565b60405180910390fd5b6000600e6000848152602001908152602001600020600083815260200190815260200160002060010154905080611db761089c565b1015611df8576040517f08c379a0000000000000000000000000000000000000000000000000000000008152600401611def90613670565b60405180910390fd5b6000600d600085815260200190815260200160002060008481526020019081526020016000205490506000600e6000868152602001908152602001600020600085815260200190815260200160002060020154600e6000878152602001908152602001600020600086815260200190815260200160002060000154611e7d9190613a69565b90505b60008214611f105780600c60008481526020019081526020016000206005016000828254611eae9190613a13565b92505081905550600c600083815260200190815260200160002060010154915082827f182360e966f6daf12e0babcf2e608bff76281ab5ef047743382204d335ad7509878785604051611f0393929190613539565b60405180910390a3611e80565b600f6000848152602001908152602001600020600086815260200190815260200160002060008581526020019081526020016000206000015491505b60008214611fed5780600c60008481526020019081526020016000206005016000828254611f7a9190613a13565b92505081905550600a6000838152602001908152602001600020600084815260200190815260200160002060000154915082827f182360e966f6daf12e0babcf2e608bff76281ab5ef047743382204d335ad7509878785604051611fe093929190613539565b60405180910390a3611f4c565b6000600e60008781526020019081526020016000206000868152602001908152602001600020600101819055506000600e60008781526020019081526020016000206000868152602001908152602001600020600201819055506000600e60008781526020019081526020016000206000868152602001908152602001600020600001819055505050505050565b60008054906101000a900473ffffffffffffffffffffffffffffffffffffffff1681565b6120a7612ada565b60006120b161089c565b905080600b600085815260200190815260200160002054111561213f576040518060600160405280828152602001600a60008681526020019081526020016000206000848152602001908152602001600020600201548152602001600a600086815260200190815260200160002060008481526020019081526020016000206003015481525091505061218a565b6040518060600160405280828152602001600c6000868152602001908152602001600020600201548152602001600c6000868152602001908152602001600020600301548152509150505b919050565b600c6020528060005260406000206000915090508060000154908060010154908060020154908060030154908060040154908060050154905086565b60065481565b436008541015612216576040517f08c379a000000000000000000000000000000000000000000000000000000000815260040161220d906135f0565b60405180910390fd5b423360025460405160200161222d93929190613708565b6040516020818303038152906040528051906020012060001c6002819055506000600354600160035460026122629190613bb1565b61226c9190613a13565b6002546122799190613e62565b6122839190613c0b565b9050423360025460405160200161229c93929190613708565b6040516020818303038152906040528051906020012060001c6002819055506000600354600160035460026122d19190613bb1565b6122db9190613a13565b6002546122e89190613e62565b6122f29190613c0b565b90506122fe828261152e565b156123bd576000600e60008481526020019081526020016000206000838152602001908152602001600020600101819055506000600e6000848152602001908152602001600020600083815260200190815260200160002060020181905550600754600e6000848152602001908152602001600020600083815260200190815260200160002060000160008282546123969190613a13565b92505081905550600654600860008282546123b19190613a13565b925050819055506123d6565b600360008154809291906123d090613e19565b91905055505b6064600c6000600960003373ffffffffffffffffffffffffffffffffffffffff1673ffffffffffffffffffffffffffffffffffffffff168152602001908152602001600020600001548152602001908152602001600020600501600082825461243f9190613a13565b925050819055505050565b60008054906101000a900473ffffffffffffffffffffffffffffffffffffffff1673ffffffffffffffffffffffffffffffffffffffff163373ffffffffffffffffffffffffffffffffffffffff16146124d8576040517f08c379a00000000000000000000000000000000000000000000000000000000081526004016124cf90613610565b60405180910390fd5b604051806060016040528084815260200183815260200182815250600960008673ffffffffffffffffffffffffffffffffffffffff1673ffffffffffffffffffffffffffffffffffffffff168152602001908152602001600020600082015181600001556020820151816001019080519060200190612558929190612b5a565b506040820151816002019080519060200190612575929190612b5a565b509050506000600b600085815260200190815260200160002054141561264357600061259f61089c565b905080600b6000868152602001908152602001600020819055506125c68460008084612873565b8473ffffffffffffffffffffffffffffffffffffffff166108fc662386f26fc100009081150290604051600060405180830381858888f19350505050612641576040517f08c379a000000000000000000000000000000000000000000000000000000000815260040161263890613590565b60405180910390fd5b505b50505050565b6000600c60008581526020019081526020016000206000015490506000600c600086815260200190815260200160002060010154905060008211156126a85780600c6000848152602001908152602001600020600101819055506126d2565b80600d60008681526020019081526020016000206000858152602001908152602001600020819055505b60008111156126f75781600c6000838152602001908152602001600020600001819055505b5050505050565b600f60008581526020019081526020016000206000848152602001908152602001600020600083815260200190815260200160002060000154600a600087815260200190815260200160002060008681526020019081526020016000206000018190555084600f6000868152602001908152602001600020600085815260200190815260200160002060008481526020019081526020016000206000018190555080600a6000878152602001908152602001600020600086815260200190815260200160002060010160006101000a81548160ff0219169083600881111561280f577f4e487b7100000000000000000000000000000000000000000000000000000000600052602160045260246000fd5b021790555082600a600087815260200190815260200160002060008681526020019081526020016000206002018190555081600a60008781526020019081526020016000206000868152602001908152602001600020600301819055505050505050565b6000600d6000858152602001908152602001600020600084815260200190815260200160002054905084600d60008681526020019081526020016000206000858152602001908152602001600020819055506000600c60008781526020019081526020016000206000018190555080600c60008781526020019081526020016000206001018190555083600c60008781526020019081526020016000206002018190555082600c60008781526020019081526020016000206003018190555081600c60008781526020019081526020016000206004018190555060008111156129725784600c6000838152602001908152602001600020600001819055505b6000600e6000868152602001908152602001600020600085815260200190815260200160002060000154118015612a0257506000600e60008681526020019081526020016000206000858152602001908152602001600020600101541480612a01575081600e600086815260200190815260200160002060008581526020019081526020016000206001015410155b5b15612ad35781600e60008681526020019081526020016000206000858152602001908152602001600020600101541415612a7857600e600085815260200190815260200160002060008481526020019081526020016000206002016000815480929190612a6e90613e19565b9190505550612aa6565b6001600e60008681526020019081526020016000206000858152602001908152602001600020600201819055505b81600e60008681526020019081526020016000206000858152602001908152602001600020600101819055505b5050505050565b60405180606001604052806000815260200160008152602001600081525090565b60405180615360016040528061029b90602082028036833780820191505090505090565b60405180606001604052806000815260200160608152602001606081525090565b604051806040016040528060008152602001600081525090565b828054612b6690613d9e565b90600052602060002090601f016020900481019282612b885760008555612bcf565b82601f10612ba157805160ff1916838001178555612bcf565b82800160010185558215612bcf579182015b82811115612bce578251825591602001919060010190612bb3565b5b509050612bdc9190612be0565b5090565b5b80821115612bf9576000816000905550600101612be1565b5090565b6000612c10612c0b846138bb565b61388a565b905082815260208101848484011115612c2857600080fd5b612c33848285613d5c565b509392505050565b600081359050612c4a81613fa3565b92915050565b600081359050612c5f81613fba565b92915050565b600081359050612c7481613fd1565b92915050565b600081359050612c8981613fe1565b92915050565b600082601f830112612ca057600080fd5b8135612cb0848260208601612bfd565b91505092915050565b600081359050612cc881613ff8565b92915050565b600060208284031215612ce057600080fd5b6000612cee84828501612c3b565b91505092915050565b600060208284031215612d0957600080fd5b6000612d1784828501612c50565b91505092915050565b60008060008060808587031215612d3657600080fd5b6000612d4487828801612c50565b9450506020612d5587828801612cb9565b935050604085013567ffffffffffffffff811115612d7257600080fd5b612d7e87828801612c8f565b925050606085013567ffffffffffffffff811115612d9b57600080fd5b612da787828801612c8f565b91505092959194509250565b60008060408385031215612dc657600080fd5b6000612dd485828601612c7a565b9250506020612de585828601612c7a565b9150509250929050565b600080600080600060a08688031215612e0757600080fd5b6000612e1588828901612c7a565b9550506020612e2688828901612c7a565b9450506040612e3788828901612c7a565b9350506060612e4888828901612c7a565b9250506080612e5988828901612cb9565b9150509295509295909350565b600060208284031215612e7857600080fd5b6000612e8684828501612cb9565b91505092915050565b60008060408385031215612ea257600080fd5b6000612eb085828601612cb9565b9250506020612ec185828601612c65565b9150509250929050565b600080600060608486031215612ee057600080fd5b6000612eee86828701612cb9565b9350506020612eff86828701612c7a565b9250506040612f1086828701612c7a565b9150509250925092565b60008060408385031215612f2d57600080fd5b6000612f3b85828601612cb9565b9250506020612f4c85828601612cb9565b9150509250929050565b6000612f6283836133c4565b60408301905092915050565b6000612f7a838361348c565b60208301905092915050565b612f8f81613cd3565b82525050565b6000612fa082613905565b612faa8185613941565b9350612fb5836138eb565b8060005b83811015612fe6578151612fcd8882612f56565b9750612fd883613927565b925050600181019050612fb9565b5085935050505092915050565b612ffc81613910565b6130068184613952565b9250613011826138fb565b8060005b838110156130425781516130298782612f6e565b965061303483613934565b925050600181019050613015565b505050505050565b61305381613cf7565b82525050565b61306281613d4a565b82525050565b61307181613d16565b82525050565b61308081613d16565b82525050565b60006130918261391c565b61309b818561395d565b93506130ab818560208601613d6b565b6130b481613f7e565b840191505092915050565b60006130ca8261391c565b6130d4818561396e565b93506130e4818560208601613d6b565b6130ed81613f7e565b840191505092915050565b6000613105600e8361396e565b91507f4e6f7468696e6720746f20646f2e0000000000000000000000000000000000006000830152602082019050919050565b600061314560138361396e565b91507f6f6b74207472616e73666572206661696c6564000000000000000000000000006000830152602082019050919050565b6000613185600d8361396e565b91507f496e76616c696420696e646578000000000000000000000000000000000000006000830152602082019050919050565b60006131c560158361396e565b91507f506c656173652075736520796f757220676f6c642e00000000000000000000006000830152602082019050919050565b600061320560288361396e565b91507f576169742c2074686520676f6c64206e65656420736f6d652074696d6520746f60008301527f206d696e742e2e2e0000000000000000000000000000000000000000000000006020830152604082019050919050565b600061326b60228361396e565b91507f4f6e6c792061646d696e2063616e20617574686f72697a65206869732070756e60008301527f6b210000000000000000000000000000000000000000000000000000000000006020830152604082019050919050565b60006132d160158361396e565b91507f47657420617574686f72697a65642066697273742100000000000000000000006000830152602082019050919050565b600061331160188361396e565b91507f4f6e6c792061646d696e2063616e2070757420676f6c642e00000000000000006000830152602082019050919050565b600061335160188361396e565b91507f576169742c2069742773206e6f74207468652074696d652e00000000000000006000830152602082019050919050565b6000613391600a8361396e565b91507f4c61636b20676f6c642e000000000000000000000000000000000000000000006000830152602082019050919050565b6040820160008201516133da600085018261348c565b5060208201516133ed602085018261348c565b50505050565b600060608301600083015161340b600086018261348c565b50602083015184820360208601526134238282613086565b9150506040830151848203604086015261343d8282613086565b9150508091505092915050565b606082016000820151613460600085018261348c565b5060208201516134736020850182613068565b5060408201516134866040850182613068565b50505050565b61349581613d40565b82525050565b6134a481613d40565b82525050565b60006020820190506134bf6000830184612f86565b92915050565b600060208201905081810360008301526134df8184612f95565b905092915050565b6000615360820190506134fd6000830184612ff3565b92915050565b6000602082019050613518600083018461304a565b92915050565b60006020820190506135336000830184613059565b92915050565b600060608201905061354e6000830186613077565b61355b6020830185613077565b613568604083018461349b565b949350505050565b60006020820190508181036000830152613589816130f8565b9050919050565b600060208201905081810360008301526135a981613138565b9050919050565b600060208201905081810360008301526135c981613178565b9050919050565b600060208201905081810360008301526135e9816131b8565b9050919050565b60006020820190508181036000830152613609816131f8565b9050919050565b600060208201905081810360008301526136298161325e565b9050919050565b60006020820190508181036000830152613649816132c4565b9050919050565b6000602082019050818103600083015261366981613304565b9050919050565b6000602082019050818103600083015261368981613344565b9050919050565b600060208201905081810360008301526136a981613384565b9050919050565b600060208201905081810360008301526136ca81846133f3565b905092915050565b60006060820190506136e7600083018461344a565b92915050565b6000602082019050613702600083018461349b565b92915050565b600060608201905061371d600083018661349b565b61372a6020830185612f86565b613737604083018461349b565b949350505050565b6000608082019050613754600083018761349b565b6137616020830186613059565b61376e6040830185613077565b61377b6060830184613077565b95945050505050565b6000606082019050613799600083018661349b565b81810360208301526137ab81856130bf565b905081810360408301526137bf81846130bf565b9050949350505050565b60006040820190506137de600083018561349b565b6137eb602083018461349b565b9392505050565b600060c082019050613807600083018961349b565b613814602083018861349b565b6138216040830187613077565b61382e6060830186613077565b61383b608083018561349b565b61384860a083018461349b565b979650505050505050565b6000606082019050613868600083018661349b565b613875602083018561349b565b613882604083018461349b565b949350505050565b6000604051905081810181811067ffffffffffffffff821117156138b1576138b0613f4f565b5b8060405250919050565b600067ffffffffffffffff8211156138d6576138d5613f4f565b5b601f19601f8301169050602081019050919050565b6000819050602082019050919050565b6000819050919050565b600081519050919050565b600061029b9050919050565b600081519050919050565b6000602082019050919050565b6000602082019050919050565b600082825260208201905092915050565b600081905092915050565b600082825260208201905092915050565b600082825260208201905092915050565b600061398a82613d16565b915061399583613d16565b9250817f7fffffffffffffffffffffffffffffffffffffffffffffffffffffffffffffff038313600083121516156139d0576139cf613e93565b5b817f8000000000000000000000000000000000000000000000000000000000000000038312600083121615613a0857613a07613e93565b5b828201905092915050565b6000613a1e82613d40565b9150613a2983613d40565b9250827fffffffffffffffffffffffffffffffffffffffffffffffffffffffffffffffff03821115613a5e57613a5d613e93565b5b828201905092915050565b6000613a7482613d40565b9150613a7f83613d40565b925082613a8f57613a8e613ec2565b5b828204905092915050565b6000613aa582613d16565b9150613ab083613d16565b9250827f7fffffffffffffffffffffffffffffffffffffffffffffffffffffffffffffff0482116000841360008413161615613aef57613aee613e93565b5b817f80000000000000000000000000000000000000000000000000000000000000000583126000841260008413161615613b2c57613b2b613e93565b5b827f80000000000000000000000000000000000000000000000000000000000000000582126000841360008412161615613b6957613b68613e93565b5b827f7fffffffffffffffffffffffffffffffffffffffffffffffffffffffffffffff0582126000841260008412161615613ba657613ba5613e93565b5b828202905092915050565b6000613bbc82613d40565b9150613bc783613d40565b9250817fffffffffffffffffffffffffffffffffffffffffffffffffffffffffffffffff0483118215151615613c0057613bff613e93565b5b828202905092915050565b6000613c1682613d16565b9150613c2183613d16565b9250827f800000000000000000000000000000000000000000000000000000000000000001821260008412151615613c5c57613c5b613e93565b5b827f7fffffffffffffffffffffffffffffffffffffffffffffffffffffffffffffff018213600084121615613c9457613c93613e93565b5b828203905092915050565b6000613caa82613d40565b9150613cb583613d40565b925082821015613cc857613cc7613e93565b5b828203905092915050565b6000613cde82613d20565b9050919050565b6000613cf082613d20565b9050919050565b60008115159050919050565b6000819050613d1182613f8f565b919050565b6000819050919050565b600073ffffffffffffffffffffffffffffffffffffffff82169050919050565b6000819050919050565b6000613d5582613d03565b9050919050565b82818337600083830152505050565b60005b83811015613d89578082015181840152602081019050613d6e565b83811115613d98576000848401525b50505050565b60006002820490506001821680613db657607f821691505b60208210811415613dca57613dc9613f20565b5b50919050565b6000613ddb82613d16565b91507f7fffffffffffffffffffffffffffffffffffffffffffffffffffffffffffffff821415613e0e57613e0d613e93565b5b600182019050919050565b6000613e2482613d40565b91507fffffffffffffffffffffffffffffffffffffffffffffffffffffffffffffffff821415613e5757613e56613e93565b5b600182019050919050565b6000613e6d82613d40565b9150613e7883613d40565b925082613e8857613e87613ec2565b5b828206905092915050565b7f4e487b7100000000000000000000000000000000000000000000000000000000600052601160045260246000fd5b7f4e487b7100000000000000000000000000000000000000000000000000000000600052601260045260246000fd5b7f4e487b7100000000000000000000000000000000000000000000000000000000600052602160045260246000fd5b7f4e487b7100000000000000000000000000000000000000000000000000000000600052602260045260246000fd5b7f4e487b7100000000000000000000000000000000000000000000000000000000600052604160045260246000fd5b6000601f19601f8301169050919050565b60098110613fa057613f9f613ef1565b5b50565b613fac81613cd3565b8114613fb757600080fd5b50565b613fc381613ce5565b8114613fce57600080fd5b50565b60098110613fde57600080fd5b50565b613fea81613d16565b8114613ff557600080fd5b50565b61400181613d40565b811461400c57600080fd5b5056fea2646970667358221220dfc902f3e80315b08b59b114b47f51dac009a54ff1a77b7379306abdc114f32a64736f6c63430008000033",
  "immutableReferences": {},
  "source": "// SPDX-License-Identifier: MIT\r\npragma solidity ^0.8.0;\r\n\r\ncontract RogueLand {\r\n    \r\n    enum ActionChoices { SitStill, GoLeft, GoRight, GoUp, GoDown, GoLeftUp, GoLeftDown, GoRightUp, GoRightDown }\r\n\t\r\n    struct Event {\r\n      uint movingPunk;\r\n      uint monster;\r\n    }\r\n\r\n    struct Gold {\r\n      uint amount;\r\n      uint vaildTime;\r\n      uint punkNumber;\r\n    }\r\n\r\n    struct PlayerInfo {\r\n      uint id;\r\n      string name;\r\n      string uri;\r\n    }\r\n\r\n    struct StatusInfo {\r\n      uint t;\r\n      int x;\r\n      int y;\r\n    }\r\n\r\n    struct MovingPunk {\r\n      uint newNeighbor;\r\n      ActionChoices action;\r\n      int x;\r\n      int y;\r\n    }\r\n\r\n    struct StillPunk {\r\n      uint oldNeighbor;\r\n      uint newNeighbor;\r\n      int x;\r\n      int y;\r\n      uint showtime;\r\n      uint gold;\r\n    }\r\n\r\n    address public owner;\r\n\r\n    uint private _startBlock; // \r\n    uint private _randNonce;\r\n    uint public mapSize = 5;\r\n    uint public activeRound = 150;\r\n    uint public blockPerRound = 500;\r\n    uint public goldInterval = 500;\r\n    uint public goldAmount = 10000e18;\r\n    uint public validBlockToPutGold;\r\n  \r\n    // \r\n    mapping (address => PlayerInfo) public playerInfo;\r\n\r\n    // punk\r\n    mapping (uint => mapping (uint => MovingPunk)) public movingPunks;\r\n\r\n    // punk\r\n    mapping (uint => uint) public lastScheduleOf;\r\n\r\n    // punk\r\n    mapping (uint => StillPunk) public stillPunks;\r\n\r\n    // punk\r\n    mapping (int => mapping (int => uint)) public stillPunkOn;\r\n\r\n    // \r\n    mapping (int => mapping (int => Gold)) public goldOn;\r\n  \r\n    // \r\n    mapping (uint => mapping (int => mapping (int => Event))) public events;\r\n\r\n    event ActionCommitted(uint indexed punkId, uint indexed time, ActionChoices action);\r\n    event GoldPicked(uint indexed punkId, uint indexed time, int x, int y, uint amount);\r\n  \r\n    constructor() {\r\n        owner = msg.sender;\r\n        _startBlock = block.number;\r\n        validBlockToPutGold = block.number;\r\n    }\r\n\r\n    // Function to receive Ether. msg.data must be empty\r\n    receive() external payable {}\r\n\r\n    // Fallback function is called when msg.data is not empty\r\n    fallback() external payable {}\r\n\r\n    function getEvents(int x1, int y1, int x2, int y2, uint t) public view returns (Event[] memory) {\r\n        require(x2 >= x1 && y2 >= y1, \"Invalid index\");\r\n        Event[] memory selectEvents = new Event[](uint((x2-x1+1)*(y2-y1+1)));\r\n        uint i = 0;\r\n        for (int x=x1; x<=x2; x++) {\r\n          for (int y=y1; y<=y2; y++) {\r\n            selectEvents[i] = events[t][x][y];\r\n            if (events[t][x][y].movingPunk == 0 && stillPunks[stillPunkOn[x][y]].showtime <= t) {\r\n              selectEvents[i].movingPunk = stillPunkOn[x][y];\r\n            }\r\n            if (goldOn[x][y].vaildTime == 0 || goldOn[x][y].vaildTime >= t) {\r\n              selectEvents[i].monster = goldOn[x][y].amount;\r\n            }\r\n            i ++;\r\n          }\r\n        }\r\n        return selectEvents;\r\n    }\r\n\r\n    // punk\r\n    function authorize(address payable player_, uint id_, string memory name_, string memory uri_) public {\r\n        require(msg.sender == owner, \"Only admin can authorize his punk!\");\r\n        playerInfo[player_] = PlayerInfo(id_, name_, uri_);\r\n        if (lastScheduleOf[id_] == 0) {\r\n          uint t = getCurrentTime();\r\n          lastScheduleOf[id_] = t;\r\n          _addStillPunk(id_, 0, 0, t);\r\n          require(player_.send(1e16), \"okt transfer failed\");\r\n        }\r\n    }\r\n\r\n    function isValidToPutGold(int x, int y) public view returns (bool) {\r\n      uint time = getCurrentTime();\r\n      return stillPunkOn[x][y] == 0 && events[time][x][y].movingPunk == 0 && (goldOn[x][y].vaildTime == 0 || time > goldOn[x][y].vaildTime + activeRound);\r\n    }\r\n\r\n    // OKT\r\n    function swapGold(address payable player_) public {\r\n        require(player_ == msg.sender, \"Please use your gold.\");\r\n        require(stillPunks[playerInfo[player_].id].gold >= 1000, \"Lack gold.\");\r\n        stillPunks[playerInfo[player_].id].gold -= 1000;\r\n        require(player_.send(1e16), \"okt transfer failed\");\r\n    }\r\n\r\n    // \r\n    function setGold(uint goldInterval_, uint goldAmount_) public {\r\n        require(msg.sender == owner, \"Only admin can put gold.\");\r\n        goldInterval = goldInterval_;\r\n        goldAmount = goldAmount_;\r\n    }\r\n\r\n    // \r\n    function putGold() public {\r\n        require(validBlockToPutGold >= block.number, \"Wait, the gold need some time to mint...\");\r\n        _randNonce = uint(keccak256(abi.encode(block.timestamp, msg.sender, _randNonce)));\r\n        int x = int(_randNonce % (2*mapSize+1)) - int(mapSize);\r\n        _randNonce = uint(keccak256(abi.encode(block.timestamp, msg.sender, _randNonce)));\r\n        int y = int(_randNonce % (2*mapSize+1)) - int(mapSize);\r\n        if (isValidToPutGold(x, y)) {\r\n          goldOn[x][y].vaildTime = 0;\r\n          goldOn[x][y].punkNumber = 0;\r\n          goldOn[x][y].amount += goldAmount;\r\n          validBlockToPutGold += goldInterval;\r\n        }\r\n        else {\r\n          mapSize ++;\r\n        }\r\n        stillPunks[playerInfo[msg.sender].id].gold += 100;\r\n    }\r\n\r\n    // \r\n    function getGold(int x, int y) public {\r\n        require(goldOn[x][y].punkNumber > 0 , \"Nothing to do.\");\r\n        uint t = goldOn[x][y].vaildTime;\r\n        require(getCurrentTime() >= t, \"Wait, it's not the time.\");\r\n        uint id = stillPunkOn[x][y];\r\n        uint amount = goldOn[x][y].amount / goldOn[x][y].punkNumber;\r\n        while (id != 0) {\r\n          stillPunks[id].gold += amount;\r\n          id = stillPunks[id].newNeighbor;\r\n          emit GoldPicked(id, t, x, y, amount);\r\n        }\r\n        id = events[t][x][y].movingPunk;\r\n        while (id != 0) {\r\n          stillPunks[id].gold += amount;\r\n          id = movingPunks[id][t].newNeighbor;\r\n          emit GoldPicked(id, t, x, y, amount);\r\n        }\r\n        goldOn[x][y].vaildTime = 0;\r\n        goldOn[x][y].punkNumber = 0;\r\n        goldOn[x][y].amount = 0;\r\n    }\r\n\r\n    function getEvent(uint id) public view returns (StatusInfo memory) {\r\n      if (lastScheduleOf[id] == 0) {\r\n        return StatusInfo(0, 0, 0);\r\n      }\r\n      uint time = getCurrentTime();\r\n      uint start = time > 150? time-150: 1;\r\n      uint end = time < lastScheduleOf[id]-1? time: lastScheduleOf[id]-1;\r\n      for (uint t=start; t<=end; t++) {\r\n        int x_ = movingPunks[id][t].x;\r\n        int y_ = movingPunks[id][t].y;\r\n        if (goldOn[x_][y_].vaildTime == t) {\r\n          return StatusInfo(t, x_, y_);\r\n        }\r\n      }\r\n      int x = stillPunks[id].x;\r\n      int y = stillPunks[id].y;\r\n      if (goldOn[x][y].vaildTime == lastScheduleOf[id]) {\r\n        return StatusInfo(lastScheduleOf[id], x, y);\r\n      }\r\n      return StatusInfo(0, 0, 0);\r\n    }\r\n\r\n    function _removeStillPunk(uint id, int x, int y) private {\r\n        uint oldNeighbor = stillPunks[id].oldNeighbor;\r\n        uint newNeighbor = stillPunks[id].newNeighbor;\r\n        if (oldNeighbor > 0) {\r\n          stillPunks[oldNeighbor].newNeighbor = newNeighbor;\r\n        }\r\n        else {\r\n          stillPunkOn[x][y] = newNeighbor;\r\n        }\r\n        if (newNeighbor > 0) {\r\n          stillPunks[newNeighbor].oldNeighbor = oldNeighbor;\r\n        }\r\n    }\r\n\r\n    function _addStillPunk(uint id, int x, int y, uint t) private {\r\n        uint latestNeighbor = stillPunkOn[x][y];\r\n        stillPunkOn[x][y] = id;\r\n        stillPunks[id].oldNeighbor = 0;\r\n        stillPunks[id].newNeighbor = latestNeighbor;\r\n        stillPunks[id].x = x;\r\n        stillPunks[id].y = y;\r\n        stillPunks[id].showtime = t;\r\n        if (latestNeighbor > 0) {\r\n          stillPunks[latestNeighbor].oldNeighbor = id;\r\n        }\r\n        // \r\n        if (goldOn[x][y].amount > 0 && (goldOn[x][y].vaildTime == 0 || goldOn[x][y].vaildTime >= t)) {\r\n          if (goldOn[x][y].vaildTime == t) {\r\n            goldOn[x][y].punkNumber ++;\r\n          }\r\n          else {\r\n            goldOn[x][y].punkNumber = 1;\r\n          }\r\n          goldOn[x][y].vaildTime = t;\r\n        }\r\n    }\r\n\r\n    function _addMovingPunk(uint id, uint t, int x, int y, ActionChoices action) private {\r\n        movingPunks[id][t].newNeighbor = events[t][x][y].movingPunk;\r\n        events[t][x][y].movingPunk = id;\r\n        movingPunks[id][t].action = action;\r\n        movingPunks[id][t].x = x;\r\n        movingPunks[id][t].y = y;\r\n    }\r\n\r\n    // punk\r\n    function scheduleAction(uint id, ActionChoices action) public {\r\n        require(playerInfo[msg.sender].id == id, \"Get authorized first!\");\r\n        uint currentTime = getCurrentTime();\r\n        if (lastScheduleOf[id] < currentTime) {\r\n          lastScheduleOf[id] = currentTime;\r\n        }\r\n        uint t = lastScheduleOf[id];\r\n        int x = stillPunks[id].x;\r\n        int y = stillPunks[id].y;\r\n        // remove this punk from still punks in (x, y) \r\n        _removeStillPunk(id, x, y);\r\n        _addMovingPunk(id, t, x, y, action);\r\n        if (action == ActionChoices.GoLeft) {\r\n          _addStillPunk(id, x-1, y, t+1);\r\n        }\r\n        if (action == ActionChoices.GoRight) {\r\n          _addStillPunk(id, x+1, y, t+1);\r\n        }\r\n        if (action == ActionChoices.GoUp) {\r\n          _addStillPunk(id, x, y+1, t+1);\r\n        }\r\n        if (action == ActionChoices.GoDown) {\r\n          _addStillPunk(id, x, y-1, t+1);\r\n        }\r\n        if (action == ActionChoices.GoLeftUp) {\r\n          _addStillPunk(id, x-1, y+1, t+1);\r\n        }\r\n        if (action == ActionChoices.GoLeftDown) {\r\n          _addStillPunk(id, x-1, y-1, t+1);\r\n        }\r\n        if (action == ActionChoices.GoRightUp) {\r\n          _addStillPunk(id, x+1, y+1, t+1);\r\n        }\r\n        if (action == ActionChoices.GoRightDown) {\r\n          _addStillPunk(id, x+1, y-1, t+1);\r\n        }\r\n        lastScheduleOf[id] ++;\r\n        emit ActionCommitted(id, lastScheduleOf[id], action);\r\n    }\r\n\r\n    function getCurrentTime() public view returns (uint) {\r\n      uint time = (block.number - _startBlock) / blockPerRound;\r\n      return time;\r\n    }\r\n\r\n    function getCurrentStatus(uint id) public view returns (StatusInfo memory) {\r\n      uint time = getCurrentTime();\r\n      if (lastScheduleOf[id] > time) {\r\n        return StatusInfo(time, movingPunks[id][time].x, movingPunks[id][time].y);\r\n      }\r\n      else {\r\n        return StatusInfo(time, stillPunks[id].x, stillPunks[id].y);\r\n      }\r\n      \r\n    }\r\n\r\n    function getScheduleInfo(uint id) public view returns (StatusInfo memory) {\r\n      uint time = getCurrentTime();\r\n      if (lastScheduleOf[id] > time) {\r\n        time = lastScheduleOf[id];\r\n      }\r\n      return StatusInfo(time, stillPunks[id].x, stillPunks[id].y);\r\n    }\r\n\r\n    function getPlayerInfo(address player_) public view returns (PlayerInfo memory) {\r\n      return playerInfo[player_];\r\n    }\r\n\r\n    function getGoldsofAllPunk() public view returns (uint[667] memory) {\r\n      uint[667] memory golds;\r\n      for (uint i=0; i<667; i++) {\r\n        golds[i] = stillPunks[i+1].gold;\r\n      }\r\n      return golds;\r\n    }\r\n\r\n}\r\n",
  "sourcePath": "C:/Users/Weixuan/Documents/github/RogueLand/contracts/RogueLand.sol",
  "compiler": {
    "name": "solc",
    "version": "0.8.0+commit.c7dfd78e.Emscripten.clang"
  },
  "schemaVersion": "3.4.0",
  "updatedAt": "2021-09-05T03:40:40.918Z",
  "networkType": "ethereum",
  "devdoc": {
    "kind": "dev",
    "methods": {},
    "version": 1
  },
  "userdoc": {
    "kind": "user",
    "methods": {},
    "version": 1
  }
}