{
  "contractName": "RogueLand",
  "abi": [
    {
      "inputs": [
        {
          "internalType": "address",
          "name": "buildingAddress_",
          "type": "address"
        },
        {
          "internalType": "address",
          "name": "hepAddress_",
          "type": "address"
        },
        {
          "internalType": "address",
          "name": "squidAddress_",
          "type": "address"
        }
      ],
      "stateMutability": "nonpayable",
      "type": "constructor"
    },
    {
      "anonymous": false,
      "inputs": [
        {
          "indexed": true,
          "internalType": "uint256",
          "name": "punkId",
          "type": "uint256"
        },
        {
          "indexed": true,
          "internalType": "uint256",
          "name": "time",
          "type": "uint256"
        },
        {
          "indexed": false,
          "internalType": "enum RogueLand.ActionChoices",
          "name": "action",
          "type": "uint8"
        }
      ],
      "name": "ActionCommitted",
      "type": "event"
    },
    {
      "anonymous": false,
      "inputs": [
        {
          "indexed": true,
          "internalType": "uint256",
          "name": "punkA",
          "type": "uint256"
        },
        {
          "indexed": true,
          "internalType": "uint256",
          "name": "punkB",
          "type": "uint256"
        },
        {
          "indexed": false,
          "internalType": "uint256",
          "name": "damage",
          "type": "uint256"
        }
      ],
      "name": "Attacked",
      "type": "event"
    },
    {
      "anonymous": false,
      "inputs": [
        {
          "indexed": true,
          "internalType": "uint256",
          "name": "punkA",
          "type": "uint256"
        },
        {
          "indexed": true,
          "internalType": "uint256",
          "name": "punkB",
          "type": "uint256"
        }
      ],
      "name": "Killed",
      "type": "event"
    },
    {
      "inputs": [],
      "name": "AC",
      "outputs": [
        {
          "internalType": "uint256",
          "name": "",
          "type": "uint256"
        }
      ],
      "stateMutability": "view",
      "type": "function",
      "constant": true
    },
    {
      "inputs": [],
      "name": "BAREHAND",
      "outputs": [
        {
          "internalType": "uint256",
          "name": "",
          "type": "uint256"
        }
      ],
      "stateMutability": "view",
      "type": "function",
      "constant": true
    },
    {
      "inputs": [],
      "name": "blockPerRound",
      "outputs": [
        {
          "internalType": "uint256",
          "name": "",
          "type": "uint256"
        }
      ],
      "stateMutability": "view",
      "type": "function",
      "constant": true
    },
    {
      "inputs": [],
      "name": "buildingAddress",
      "outputs": [
        {
          "internalType": "address",
          "name": "",
          "type": "address"
        }
      ],
      "stateMutability": "view",
      "type": "function",
      "constant": true
    },
    {
      "inputs": [
        {
          "internalType": "uint256",
          "name": "",
          "type": "uint256"
        }
      ],
      "name": "deadPunk",
      "outputs": [
        {
          "internalType": "address",
          "name": "",
          "type": "address"
        }
      ],
      "stateMutability": "view",
      "type": "function",
      "constant": true
    },
    {
      "inputs": [],
      "name": "hepAddress",
      "outputs": [
        {
          "internalType": "address",
          "name": "",
          "type": "address"
        }
      ],
      "stateMutability": "view",
      "type": "function",
      "constant": true
    },
    {
      "inputs": [
        {
          "internalType": "address",
          "name": "",
          "type": "address"
        }
      ],
      "name": "lastKilled",
      "outputs": [
        {
          "internalType": "uint256",
          "name": "A",
          "type": "uint256"
        },
        {
          "internalType": "uint256",
          "name": "B",
          "type": "uint256"
        },
        {
          "internalType": "uint256",
          "name": "t",
          "type": "uint256"
        },
        {
          "internalType": "int256",
          "name": "x",
          "type": "int256"
        },
        {
          "internalType": "int256",
          "name": "y",
          "type": "int256"
        }
      ],
      "stateMutability": "view",
      "type": "function",
      "constant": true
    },
    {
      "inputs": [
        {
          "internalType": "uint256",
          "name": "",
          "type": "uint256"
        }
      ],
      "name": "lastScheduleOf",
      "outputs": [
        {
          "internalType": "uint256",
          "name": "",
          "type": "uint256"
        }
      ],
      "stateMutability": "view",
      "type": "function",
      "constant": true
    },
    {
      "inputs": [
        {
          "internalType": "uint256",
          "name": "",
          "type": "uint256"
        },
        {
          "internalType": "uint256",
          "name": "",
          "type": "uint256"
        }
      ],
      "name": "movingPunks",
      "outputs": [
        {
          "internalType": "int256",
          "name": "x",
          "type": "int256"
        },
        {
          "internalType": "int256",
          "name": "y",
          "type": "int256"
        }
      ],
      "stateMutability": "view",
      "type": "function",
      "constant": true
    },
    {
      "inputs": [
        {
          "internalType": "uint256",
          "name": "",
          "type": "uint256"
        },
        {
          "internalType": "int256",
          "name": "",
          "type": "int256"
        },
        {
          "internalType": "int256",
          "name": "",
          "type": "int256"
        }
      ],
      "name": "movingPunksOn",
      "outputs": [
        {
          "internalType": "uint256",
          "name": "punkId",
          "type": "uint256"
        },
        {
          "internalType": "uint256",
          "name": "punkNonce",
          "type": "uint256"
        }
      ],
      "stateMutability": "view",
      "type": "function",
      "constant": true
    },
    {
      "inputs": [
        {
          "internalType": "address",
          "name": "",
          "type": "address"
        }
      ],
      "name": "nickNameOf",
      "outputs": [
        {
          "internalType": "string",
          "name": "",
          "type": "string"
        }
      ],
      "stateMutability": "view",
      "type": "function",
      "constant": true
    },
    {
      "inputs": [],
      "name": "owner",
      "outputs": [
        {
          "internalType": "address",
          "name": "",
          "type": "address"
        }
      ],
      "stateMutability": "view",
      "type": "function",
      "constant": true
    },
    {
      "inputs": [
        {
          "internalType": "uint256",
          "name": "",
          "type": "uint256"
        }
      ],
      "name": "punkMaster",
      "outputs": [
        {
          "internalType": "address",
          "name": "",
          "type": "address"
        }
      ],
      "stateMutability": "view",
      "type": "function",
      "constant": true
    },
    {
      "inputs": [
        {
          "internalType": "address",
          "name": "",
          "type": "address"
        }
      ],
      "name": "punkOf",
      "outputs": [
        {
          "internalType": "uint256",
          "name": "",
          "type": "uint256"
        }
      ],
      "stateMutability": "view",
      "type": "function",
      "constant": true
    },
    {
      "inputs": [],
      "name": "rewardsPerRound",
      "outputs": [
        {
          "internalType": "uint256",
          "name": "",
          "type": "uint256"
        }
      ],
      "stateMutability": "view",
      "type": "function",
      "constant": true
    },
    {
      "inputs": [],
      "name": "squidAddress",
      "outputs": [
        {
          "internalType": "address",
          "name": "",
          "type": "address"
        }
      ],
      "stateMutability": "view",
      "type": "function",
      "constant": true
    },
    {
      "inputs": [],
      "name": "startBlock",
      "outputs": [
        {
          "internalType": "uint256",
          "name": "",
          "type": "uint256"
        }
      ],
      "stateMutability": "view",
      "type": "function",
      "constant": true
    },
    {
      "inputs": [
        {
          "internalType": "int256",
          "name": "",
          "type": "int256"
        },
        {
          "internalType": "int256",
          "name": "",
          "type": "int256"
        }
      ],
      "name": "stillPunkOn",
      "outputs": [
        {
          "internalType": "uint256",
          "name": "",
          "type": "uint256"
        }
      ],
      "stateMutability": "view",
      "type": "function",
      "constant": true
    },
    {
      "inputs": [
        {
          "internalType": "uint256",
          "name": "",
          "type": "uint256"
        }
      ],
      "name": "stillPunks",
      "outputs": [
        {
          "internalType": "uint256",
          "name": "oldNeighbor",
          "type": "uint256"
        },
        {
          "internalType": "uint256",
          "name": "newNeighbor",
          "type": "uint256"
        },
        {
          "internalType": "int256",
          "name": "x",
          "type": "int256"
        },
        {
          "internalType": "int256",
          "name": "y",
          "type": "int256"
        },
        {
          "internalType": "uint256",
          "name": "showtime",
          "type": "uint256"
        },
        {
          "internalType": "uint256",
          "name": "gold",
          "type": "uint256"
        },
        {
          "internalType": "uint256",
          "name": "enemy",
          "type": "uint256"
        },
        {
          "internalType": "uint256",
          "name": "hp",
          "type": "uint256"
        },
        {
          "internalType": "uint256",
          "name": "nonce",
          "type": "uint256"
        },
        {
          "internalType": "uint256",
          "name": "evil",
          "type": "uint256"
        }
      ],
      "stateMutability": "view",
      "type": "function",
      "constant": true
    },
    {
      "inputs": [],
      "name": "totalPunk",
      "outputs": [
        {
          "internalType": "uint256",
          "name": "",
          "type": "uint256"
        }
      ],
      "stateMutability": "view",
      "type": "function",
      "constant": true
    },
    {
      "inputs": [
        {
          "internalType": "int256",
          "name": "x1",
          "type": "int256"
        },
        {
          "internalType": "int256",
          "name": "y1",
          "type": "int256"
        },
        {
          "internalType": "int256",
          "name": "x2",
          "type": "int256"
        },
        {
          "internalType": "int256",
          "name": "y2",
          "type": "int256"
        },
        {
          "internalType": "uint256",
          "name": "t",
          "type": "uint256"
        }
      ],
      "name": "getEvents",
      "outputs": [
        {
          "internalType": "uint256[]",
          "name": "",
          "type": "uint256[]"
        }
      ],
      "stateMutability": "view",
      "type": "function",
      "constant": true
    },
    {
      "inputs": [],
      "name": "getDeadPunk",
      "outputs": [
        {
          "components": [
            {
              "internalType": "uint256",
              "name": "A",
              "type": "uint256"
            },
            {
              "internalType": "uint256",
              "name": "B",
              "type": "uint256"
            },
            {
              "internalType": "uint256",
              "name": "t",
              "type": "uint256"
            },
            {
              "internalType": "int256",
              "name": "x",
              "type": "int256"
            },
            {
              "internalType": "int256",
              "name": "y",
              "type": "int256"
            }
          ],
          "internalType": "struct RogueLand.KillEvent[]",
          "name": "",
          "type": "tuple[]"
        }
      ],
      "stateMutability": "view",
      "type": "function",
      "constant": true
    },
    {
      "inputs": [
        {
          "internalType": "string",
          "name": "name",
          "type": "string"
        }
      ],
      "name": "setNickName",
      "outputs": [],
      "stateMutability": "nonpayable",
      "type": "function"
    },
    {
      "inputs": [],
      "name": "freePunk",
      "outputs": [
        {
          "internalType": "uint256",
          "name": "",
          "type": "uint256"
        }
      ],
      "stateMutability": "view",
      "type": "function",
      "constant": true
    },
    {
      "inputs": [
        {
          "internalType": "address",
          "name": "player",
          "type": "address"
        }
      ],
      "name": "gameInfo",
      "outputs": [
        {
          "components": [
            {
              "internalType": "uint256",
              "name": "total",
              "type": "uint256"
            },
            {
              "internalType": "uint256",
              "name": "dead",
              "type": "uint256"
            },
            {
              "internalType": "uint256",
              "name": "pool",
              "type": "uint256"
            },
            {
              "internalType": "uint256",
              "name": "squidBalance",
              "type": "uint256"
            },
            {
              "internalType": "uint256",
              "name": "squidApproved",
              "type": "uint256"
            },
            {
              "internalType": "uint256",
              "name": "hepBalance",
              "type": "uint256"
            },
            {
              "internalType": "uint256",
              "name": "hepApproved",
              "type": "uint256"
            }
          ],
          "internalType": "struct RogueLand.GameInfo",
          "name": "",
          "type": "tuple"
        }
      ],
      "stateMutability": "view",
      "type": "function",
      "constant": true
    },
    {
      "inputs": [
        {
          "internalType": "uint256",
          "name": "id",
          "type": "uint256"
        }
      ],
      "name": "register",
      "outputs": [],
      "stateMutability": "nonpayable",
      "type": "function"
    },
    {
      "inputs": [
        {
          "internalType": "uint256",
          "name": "startBlock_",
          "type": "uint256"
        }
      ],
      "name": "startGame",
      "outputs": [],
      "stateMutability": "nonpayable",
      "type": "function"
    },
    {
      "inputs": [
        {
          "internalType": "uint256",
          "name": "rewards",
          "type": "uint256"
        }
      ],
      "name": "setRewards",
      "outputs": [],
      "stateMutability": "nonpayable",
      "type": "function"
    },
    {
      "inputs": [
        {
          "internalType": "uint256",
          "name": "A",
          "type": "uint256"
        },
        {
          "internalType": "uint256",
          "name": "B",
          "type": "uint256"
        }
      ],
      "name": "attack",
      "outputs": [],
      "stateMutability": "nonpayable",
      "type": "function"
    },
    {
      "inputs": [
        {
          "internalType": "uint256",
          "name": "id",
          "type": "uint256"
        }
      ],
      "name": "useHEP",
      "outputs": [],
      "stateMutability": "nonpayable",
      "type": "function"
    },
    {
      "inputs": [
        {
          "internalType": "uint256",
          "name": "id",
          "type": "uint256"
        },
        {
          "internalType": "enum RogueLand.ActionChoices",
          "name": "action",
          "type": "uint8"
        }
      ],
      "name": "scheduleAction",
      "outputs": [],
      "stateMutability": "nonpayable",
      "type": "function"
    },
    {
      "inputs": [],
      "name": "getCurrentTime",
      "outputs": [
        {
          "internalType": "uint256",
          "name": "",
          "type": "uint256"
        }
      ],
      "stateMutability": "view",
      "type": "function",
      "constant": true
    },
    {
      "inputs": [
        {
          "internalType": "uint256",
          "name": "id",
          "type": "uint256"
        }
      ],
      "name": "getPunkInfo",
      "outputs": [
        {
          "components": [
            {
              "internalType": "uint256",
              "name": "oldNeighbor",
              "type": "uint256"
            },
            {
              "internalType": "uint256",
              "name": "newNeighbor",
              "type": "uint256"
            },
            {
              "internalType": "int256",
              "name": "x",
              "type": "int256"
            },
            {
              "internalType": "int256",
              "name": "y",
              "type": "int256"
            },
            {
              "internalType": "bool",
              "name": "isMoving",
              "type": "bool"
            },
            {
              "internalType": "uint256",
              "name": "totalGold",
              "type": "uint256"
            },
            {
              "internalType": "uint256",
              "name": "hp",
              "type": "uint256"
            },
            {
              "internalType": "uint256",
              "name": "evil",
              "type": "uint256"
            },
            {
              "internalType": "uint256",
              "name": "seed",
              "type": "uint256"
            },
            {
              "internalType": "address",
              "name": "player",
              "type": "address"
            },
            {
              "internalType": "string",
              "name": "name",
              "type": "string"
            },
            {
              "internalType": "uint256",
              "name": "blockNumber",
              "type": "uint256"
            }
          ],
          "internalType": "struct RogueLand.PunkInfo",
          "name": "",
          "type": "tuple"
        }
      ],
      "stateMutability": "view",
      "type": "function",
      "constant": true
    },
    {
      "inputs": [
        {
          "internalType": "uint256",
          "name": "t",
          "type": "uint256"
        },
        {
          "internalType": "int256",
          "name": "x",
          "type": "int256"
        },
        {
          "internalType": "int256",
          "name": "y",
          "type": "int256"
        }
      ],
      "name": "getPunkOn",
      "outputs": [
        {
          "internalType": "uint256",
          "name": "",
          "type": "uint256"
        }
      ],
      "stateMutability": "view",
      "type": "function",
      "constant": true
    },
    {
      "inputs": [
        {
          "internalType": "uint256",
          "name": "id",
          "type": "uint256"
        },
        {
          "internalType": "uint256",
          "name": "t",
          "type": "uint256"
        }
      ],
      "name": "getPostion",
      "outputs": [
        {
          "components": [
            {
              "internalType": "int256",
              "name": "x",
              "type": "int256"
            },
            {
              "internalType": "int256",
              "name": "y",
              "type": "int256"
            }
          ],
          "internalType": "struct RogueLand.Position",
          "name": "",
          "type": "tuple"
        }
      ],
      "stateMutability": "view",
      "type": "function",
      "constant": true
    },
    {
      "inputs": [
        {
          "internalType": "uint256",
          "name": "id",
          "type": "uint256"
        }
      ],
      "name": "getCurrentStatus",
      "outputs": [
        {
          "components": [
            {
              "internalType": "uint256",
              "name": "t",
              "type": "uint256"
            },
            {
              "internalType": "int256",
              "name": "x",
              "type": "int256"
            },
            {
              "internalType": "int256",
              "name": "y",
              "type": "int256"
            }
          ],
          "internalType": "struct RogueLand.TimeSpace",
          "name": "",
          "type": "tuple"
        }
      ],
      "stateMutability": "view",
      "type": "function",
      "constant": true
    },
    {
      "inputs": [
        {
          "internalType": "uint256",
          "name": "id",
          "type": "uint256"
        }
      ],
      "name": "getScheduleInfo",
      "outputs": [
        {
          "components": [
            {
              "internalType": "uint256",
              "name": "t",
              "type": "uint256"
            },
            {
              "internalType": "int256",
              "name": "x",
              "type": "int256"
            },
            {
              "internalType": "int256",
              "name": "y",
              "type": "int256"
            }
          ],
          "internalType": "struct RogueLand.TimeSpace",
          "name": "",
          "type": "tuple"
        }
      ],
      "stateMutability": "view",
      "type": "function",
      "constant": true
    },
    {
      "inputs": [],
      "name": "getGoldsofAllPunk",
      "outputs": [
        {
          "internalType": "uint256[667]",
          "name": "",
          "type": "uint256[667]"
        }
      ],
      "stateMutability": "view",
      "type": "function",
      "constant": true
    },
    {
      "inputs": [
        {
          "internalType": "uint256",
          "name": "id",
          "type": "uint256"
        }
      ],
      "name": "pendingGold",
      "outputs": [
        {
          "internalType": "uint256",
          "name": "",
          "type": "uint256"
        }
      ],
      "stateMutability": "view",
      "type": "function",
      "constant": true
    },
    {
      "inputs": [],
      "name": "claimRewards",
      "outputs": [],
      "stateMutability": "nonpayable",
      "type": "function"
    }
  ],
  "bytecode": "0x60806040526101f46006556611c37937e080006007553480156200002257600080fd5b50604051620037b1380380620037b183398101604081905262000045916200010e565b60008054336001600160a01b031991821681179092556003805482166001600160a01b0387811691909117909155600180548316868316179055600280549092169084161790556040516200009f91429160200162000157565b60408051601f198184030181529190528051602091820120600581905560008052600f9091527ff4803e074bd026baaf6ed2e288c9515f68c72fb7216eebdd7cae1718a53ec37555506200016e915050565b80516001600160a01b03811681146200010957600080fd5b919050565b60008060006060848603121562000123578283fd5b6200012e84620000f1565b92506200013e60208501620000f1565b91506200014e60408501620000f1565b90509250925092565b9182526001600160a01b0316602082015260400190565b613633806200017e6000396000f3fe608060405234801561001057600080fd5b50600436106102485760003560e01c80638da5cb5b1161013b578063c7a29c6f116100b8578063e5ed1d591161007c578063e5ed1d5914610519578063ecf17e401461052c578063efcd908e1461053f578063f207564e14610547578063f705fc491461055a57610248565b8063c7a29c6f1461048a578063ccf8b0971461049d578063de4f8f1f146104bd578063e1fa7638146104e6578063e2d19903146104f957610248565b8063adca04be116100ff578063adca04be14610418578063aeec3acd14610438578063b06765ea1461044b578063bcf0196b1461046f578063c73ea3671461047757610248565b80638da5cb5b146103b7578063a02498ca146103bf578063a0aa13c6146103d2578063a6e34190146103e5578063a9e76a8e1461040557610248565b806343223025116101c957806360e96ed71161018d57806360e96ed71461035657806362e026de14610369578063671a8b1a1461037c5780637336ffac1461038f57806379d618e3146103af57610248565b8063432230251461030a57806348cd4cb11461031d5780634b5cf775146103255780634d71e7251461032d57806351c183261461034e57610248565b806325eb64c71161021057806325eb64c7146102bd57806329cb924d146102d25780632a166de3146102da578063372500ab146102ed57806340d68c11146102f757610248565b8063033d5e4d1461024d57806312340473146102765780631dbd05a61461028b5780631fda9cb4146102a0578063238c18a1146102b5575b600080fd5b61026061025b366004612b00565b610562565b60405161026d91906131e7565b60405180910390f35b61027e6105d8565b60405161026d9190612dd6565b6102936105de565b60405161026d9190612cbb565b6102a8610720565b60405161026d9190612d29565b61027e6107cd565b6102c5610813565b60405161026d9190612c50565b61027e610822565b61027e6102e83660046129e1565b610871565b6102f561088e565b005b6102f5610305366004612b30565b610a52565b6102f5610318366004612b00565b610dae565b61027e610ead565b61027e610eb3565b61034061033b366004612b8d565b610eb9565b60405161026d929190612dc8565b61027e610edd565b610340610364366004612b62565b610ee3565b6102c5610377366004612b00565b610f0d565b61027e61038a366004612b00565b610f28565b6103a261039d366004612a25565b610f3a565b60405161026d9190612d5c565b6102c561107a565b6102c5611089565b6102c56103cd366004612b00565b611098565b6102606103e0366004612b00565b6110c2565b6103f86103f33660046129ab565b611109565b60405161026d91906130ce565b61027e610413366004612b00565b6113eb565b61042b610426366004612b8d565b6114fe565b60405161026d919061311c565b61027e610446366004612b62565b611591565b61045e6104593660046129ab565b61165d565b60405161026d95949392919061326c565b61027e61168c565b6102f5610485366004612a5f565b611691565b6102f5610498366004612b00565b6116b1565b6104b06104ab366004612b00565b6116e0565b60405161026d9190613133565b6104d06104cb366004612b00565b6118ad565b60405161026d9a99989796959493929190613227565b6102f56104f4366004612b8d565b611901565b61050c6105073660046129ab565b611bc9565b60405161026d9190612ddf565b6102f5610527366004612b00565b611c63565b61027e61053a3660046129ab565b611c92565b6102c5611ca4565b6102f5610555366004612b00565b611cb3565b61027e611fca565b61056a6127cf565b6000610574610822565b6000848152600e602052604090205490915081101561059e57506000828152600e60205260409020545b604080516060810182529182526000848152601160208181528383206002810154828701529287905252600301549082015290505b919050565b60065481565b60095460609060009067ffffffffffffffff81111561060d57634e487b7160e01b600052604160045260246000fd5b60405190808252806020026020018201604052801561064657816020015b6106336127f0565b81526020019060019003908161062b5790505b50905060005b60095481101561071957601260006009838154811061067b57634e487b7160e01b600052603260045260246000fd5b60009182526020808320909101546001600160a01b031683528281019390935260409182019020815160a081018352815481526001820154938101939093526002810154918301919091526003810154606083015260040154608082015282518390839081106106fb57634e487b7160e01b600052603260045260246000fd5b602002602001018190525080806107119061357b565b91505061064c565b5090505b90565b61072861281f565b61073061281f565b60005b61029b811015610719576000600a8161074d8460016132d0565b81526020810191909152604001600020546001600160a01b031614610792576011600061077b8360016132d0565b815260200190815260200160002060050154610795565b60005b828261029b81106107b657634e487b7160e01b600052603260045260246000fd5b6020020152806107c58161357b565b915050610733565b600060025b61029b811161080e576000818152600a60205260409020546001600160a01b03166107fc5761080e565b806108068161357b565b9150506107d2565b905090565b6003546001600160a01b031681565b600060045460001480610836575043600454115b156108435750600061071d565b600060065460045443610856919061350f565b61086091906132e8565b61086b9060016132d0565b91505090565b601360209081526000928352604080842090915290825290205481565b336000908152600b6020526040902054806108c45760405162461bcd60e51b81526004016108bb90613085565b60405180910390fd5b60006108ce610822565b905060006108dc83836114fe565b600354815160208301516040516340e7741960e11b81529394506001600160a01b039092169283926381cee8329261091992909190600401612dc8565b60206040518083038186803b15801561093157600080fd5b505afa158015610945573d6000803e3d6000fd5b505050506040513d601f19601f8201168201806040525081019061096991906129c7565b6109855760405162461bcd60e51b81526004016108bb90612fe2565b60008481526011602052604090819020600501549051632ec53bb760e11b81526001600160a01b03831691635d8a776e916109c4913391600401612ca2565b600060405180830381600087803b1580156109de57600080fd5b505af11580156109f2573d6000803e3d6000fd5b50505060008581526011602052604081206005015550610a1184611fcf565b5050506000818152600a6020818152604080842080546001600160a01b03168552600b835290842084905593909252905280546001600160a01b0319169055565b336000908152600b60205260409020548214610a805760405162461bcd60e51b81526004016108bb90612fb3565b60008211610aa05760405162461bcd60e51b81526004016108bb90613085565b6000816008811115610ac257634e487b7160e01b600052602160045260246000fd5b1415610ae05760405162461bcd60e51b81526004016108bb90612f8d565b6000610aea610822565b6000848152600e6020526040902054909150811115610b15576000838152600e602052604090208190555b6000838152600e602090815260408083205460119092529091206002810154600390910154610b4386611fcf565b610b4f8684848461204e565b6001856008811115610b7157634e487b7160e01b600052602160045260246000fd5b1415610b9757610b9786610b866001856134d0565b83610b928760016132d0565b6120da565b6002856008811115610bb957634e487b7160e01b600052602160045260246000fd5b1415610bce57610bce86610b8684600161328f565b6003856008811115610bf057634e487b7160e01b600052602160045260246000fd5b1415610c1157610c118683610c0684600161328f565b610b928760016132d0565b6004856008811115610c3357634e487b7160e01b600052602160045260246000fd5b1415610c4957610c498683610c066001856134d0565b6005856008811115610c6b57634e487b7160e01b600052602160045260246000fd5b1415610c8b57610c8b86610c806001856134d0565b610c0684600161328f565b6006856008811115610cad57634e487b7160e01b600052602160045260246000fd5b1415610ccd57610ccd86610cc26001856134d0565b610c066001856134d0565b6007856008811115610cef57634e487b7160e01b600052602160045260246000fd5b1415610d0457610d0486610c8084600161328f565b6008856008811115610d2657634e487b7160e01b600052602160045260246000fd5b1415610d3b57610d3b86610cc284600161328f565b6000868152600e60205260408120805491610d558361357b565b9190505550600e600087815260200190815260200160002054867f6a2d17d8c21b88f2e1a453533160575a5702bd8b1f6492daff557c2ae2a34a5687604051610d9e9190612da0565b60405180910390a3505050505050565b600180546040516323b872dd60e01b81526001600160a01b039091169182916323b872dd91610de39133913091600401612c7e565b602060405180830381600087803b158015610dfd57600080fd5b505af1158015610e11573d6000803e3d6000fd5b505050506040513d601f19601f82011682018060405250810190610e3591906129c7565b610e515760405162461bcd60e51b81526004016108bb90612eae565b60008281526011602052604081206007018054600a9290610e739084906132d0565b9091555050600082815260116020526040902060070154600f1015610ea9576000828152601160205260409020600f6007909101555b5050565b60045481565b60085481565b600d6020908152600092835260408084209091529082529020805460019091015482565b60075481565b60146020908152600093845260408085208252928452828420905282529020805460019091015482565b600a602052600090815260409020546001600160a01b031681565b600e6020526000908152604090205481565b6060858412158015610f4c5750848312155b610f685760405162461bcd60e51b81526004016108bb90612e50565b6000610f7486856134d0565b610f7f90600161328f565b610f8988876134d0565b610f9490600161328f565b610f9e919061342e565b67ffffffffffffffff811115610fc457634e487b7160e01b600052604160045260246000fd5b604051908082528060200260200182016040528015610fed578160200160208202803683370190505b5090506000875b86811361106d57875b86811361105a5761100f868383611591565b84848151811061102f57634e487b7160e01b600052603260045260246000fd5b6020908102919091010152826110448161357b565b93505080806110529061355b565b915050610ffd565b50806110658161355b565b915050610ff4565b5090979650505050505050565b6001546001600160a01b031681565b6000546001600160a01b031681565b600981815481106110a857600080fd5b6000918252602090912001546001600160a01b0316905081565b6110ca6127cf565b60006110d4610822565b905060006110e284836114fe565b60408051606081018252938452815160208086019190915290910151908301525092915050565b61111161283f565b6008546009546002546003546040516370a0823160e01b81526001600160a01b039283169260009284926370a082319261114f921690600401612c50565b60206040518083038186803b15801561116757600080fd5b505afa15801561117b573d6000803e3d6000fd5b505050506040513d601f19601f8201168201806040525081019061119f9190612b18565b90506000826001600160a01b03166370a08231886040518263ffffffff1660e01b81526004016111cf9190612c50565b60206040518083038186803b1580156111e757600080fd5b505afa1580156111fb573d6000803e3d6000fd5b505050506040513d601f19601f8201168201806040525081019061121f9190612b18565b600354604051636eb1769f60e11b81529192506000916001600160a01b038087169263dd62ed3e92611257928d921690600401612c64565b60206040518083038186803b15801561126f57600080fd5b505afa158015611283573d6000803e3d6000fd5b505050506040513d601f19601f820116820180604052508101906112a79190612b18565b6001546040516370a0823160e01b81529192506001600160a01b03169060009082906370a08231906112dd908d90600401612c50565b60206040518083038186803b1580156112f557600080fd5b505afa158015611309573d6000803e3d6000fd5b505050506040513d601f19601f8201168201806040525081019061132d9190612b18565b90506000826001600160a01b031663dd62ed3e8c306040518363ffffffff1660e01b815260040161135f929190612c64565b60206040518083038186803b15801561137757600080fd5b505afa15801561138b573d6000803e3d6000fd5b505050506040513d601f19601f820116820180604052508101906113af9190612b18565b6040805160e0810182529a8b5260208b019990995297890195909552606088019390935250608086015260a0850152505060c082015292915050565b6000806113f6610822565b6000848152601160205260409020600401549091508111156114ee57600380546000858152601160205260408082206002810154940154905163f42a527560e01b81526001600160a01b03909316939192849263f42a52759261145b92600401612dc8565b60206040518083038186803b15801561147357600080fd5b505afa158015611487573d6000803e3d6000fd5b505050506040513d601f19601f820116820180604052508101906114ab9190612b18565b6007546000878152601160205260409020600401549192509082906114d0908661350f565b6114da91906134b1565b6114e491906134b1565b93505050506105d3565b60009150506105d3565b50919050565b61150661287c565b6000838152600e602052604090205482101561155957506040805180820182526000848152600d60209081528382208583528082529382208054845291859052928352600101549181019190915261158b565b506040805180820182526000848152601160208181529382206002810154845291869052835260030154918101919091525b92915050565b6000828152601360209081526040808320848452909152812054158015906115df57506000838152601360209081526040808320858452825280832054835260119091529020600401548410155b1561160457506000828152601360209081526040808320848452909152902054611656565b600084815260146020908152604080832086845282528083208584528083528184208054808652601185529285206008015494879052925260019091015490911415611651579050611656565b505060005b9392505050565b601260205260009081526040902080546001820154600283015460038401546004909401549293919290919085565b600981565b336000908152600c602090815260409091208251610ea992840190612896565b6000546001600160a01b031633146116db5760405162461bcd60e51b81526004016108bb90613017565b600755565b6116e861291a565b60006116f2610822565b9050600061170084836114fe565b6000858152600a60205260408120549192506001600160a01b0390911690611727866113eb565b60008781526011602052604090206005015461174391906132d0565b60008781526011602052604081206008015491925090851480611776575060008781526011602052604090206004015485105b604080516101808101825260008a815260116020818152848320805485528d8452918152600182015481850152895184860152898101516060850152851515608085015260a08401889052600782015460c085015260099091015460e08401528b825260108152838220546101008401526001600160a01b03881661012084018190528252600c905291909120805492935090916101408301919061181a90613526565b80601f016020809104026020016040519081016040528092919081815260200182805461184690613526565b80156118935780601f1061186857610100808354040283529160200191611893565b820191906000526020600020905b81548152906001019060200180831161187657829003601f168201915b505050505081526020014381525095505050505050919050565b6011602052806000526040600020600091509050806000015490806001015490806002015490806003015490806004015490806005015490806006015490806007015490806008015490806009015490508a565b336000908152600b6020526040902054821461192f5760405162461bcd60e51b81526004016108bb90612fb3565b60008211801561193f5750600081115b61195b5760405162461bcd60e51b81526004016108bb90613085565b6000818152600a60205260409020546001600160a01b031661198f5760405162461bcd60e51b81526004016108bb90612f56565b6000611999610822565b905060006119a784836114fe565b905060006119b584846114fe565b6000858152601160205260409020600401549091508310156119e95760405162461bcd60e51b81526004016108bb90612f2c565b6000848152601160205260409020600801548311611a195760405162461bcd60e51b81526004016108bb90612ed9565b80518251600191600291611a2d91906134d0565b611a379190613412565b13158015611a6557506001600282602001518460200151611a5891906134d0565b611a629190613412565b13155b611a815760405162461bcd60e51b81526004016108bb90612e77565b600354815160208301516040516340e7741960e11b81526001600160a01b039093169283926381cee83292611ab892600401612dc8565b60206040518083038186803b158015611ad057600080fd5b505afa158015611ae4573d6000803e3d6000fd5b505050506040513d601f19601f82011682018060405250810190611b0891906129c7565b15611b255760405162461bcd60e51b81526004016108bb90612df2565b6000868152601160205260409020600601548514611b525760008681526011602052604090206006018590555b611b5c86866123e5565b600085815260116020526040902060070154611b8c57611b8786868685600001518660200151612575565b611bc1565b611b9685876123e5565b600086815260116020526040902060070154611bc157611bc185878686600001518760200151612575565b505050505050565b600c6020526000908152604090208054611be290613526565b80601f0160208091040260200160405190810160405280929190818152602001828054611c0e90613526565b8015611c5b5780601f10611c3057610100808354040283529160200191611c5b565b820191906000526020600020905b815481529060010190602001808311611c3e57829003601f168201915b505050505081565b6000546001600160a01b03163314611c8d5760405162461bcd60e51b81526004016108bb90613017565b600455565b600b6020526000908152604090205481565b6002546001600160a01b031681565b80611cc357611cc06107cd565b90505b60028110158015611cd6575061029b8111155b611cf25760405162461bcd60e51b81526004016108bb906130ad565b6000818152600a60205260409020546001600160a01b031615611d275760405162461bcd60e51b81526004016108bb90612e29565b336000908152600b602052604090205415611d545760405162461bcd60e51b81526004016108bb90612f07565b6003546040516366ca9b6160e01b81526001600160a01b0390911690600090819083906366ca9b6190611d8b903390600401612c50565b604080518083038186803b158015611da257600080fd5b505afa158015611db6573d6000803e3d6000fd5b505050506040513d601f19601f82011682018060405250810190611dda9190612a02565b915091506000836001600160a01b031663edd4bd0184846040518363ffffffff1660e01b8152600401611e0e929190612dc8565b60a06040518083038186803b158015611e2657600080fd5b505afa158015611e3a573d6000803e3d6000fd5b505050506040513d601f19601f82011682018060405250810190611e5e9190612b9f565b5093505050508015611ed7576040516372746eaf60e01b81526001600160a01b038516906372746eaf90611ea0903390670de0b6b3a764000090600401612ca2565b600060405180830381600087803b158015611eba57600080fd5b505af1158015611ece573d6000803e3d6000fd5b50505050611f38565b6040516310366f0760e21b81526001600160a01b038516906340d9bc1c90611f059086908690600401612dc8565b600060405180830381600087803b158015611f1f57600080fd5b505af1158015611f33573d6000803e3d6000fd5b505050505b6000858152600a6020908152604080832080546001600160a01b03191633908117909155808452600b8352928190208890556005549051611f7e93429390929101613208565b60408051601f19818403018152918152815160209283012060008881526010909352912055611fae85848461277d565b60088054906000611fbe8361357b565b91905055505050505050565b600581565b600081815260116020526040902080546001820154600283015460039093015491929091831561201257600084815260116020526040902060010183905561202f565b600082815260136020908152604080832084845290915290208390555b82156120475760008381526011602052604090208490555b5050505050565b6000838152601460209081526040808320858452825280832084845282528083208781558784526011835281842060080154600191820155600d83528184208785529092528220848155018290556120a5856113eb565b9050801561204757600085815260116020526040812060050180548392906120ce9084906132d0565b90915550505050505050565b60035460405163edd4bd0160e01b81526001600160a01b0390911690600090829063edd4bd01906121119088908890600401612dc8565b60a06040518083038186803b15801561212957600080fd5b505afa15801561213d573d6000803e3d6000fd5b505050506040513d601f19601f820116820180604052508101906121619190612b9f565b6040516340e7741960e11b81529095506001600160a01b03871694506381cee832935061219692508991508890600401612dc8565b60206040518083038186803b1580156121ae57600080fd5b505afa1580156121c2573d6000803e3d6000fd5b505050506040513d601f19601f820116820180604052508101906121e691906129c7565b80156121fb5750336001600160a01b03821614155b156122cf576040516372746eaf60e01b81526001600160a01b038316906372746eaf9061223590339066b1a2bc2ec5000090600401612ca2565b600060405180830381600087803b15801561224f57600080fd5b505af1158015612263573d6000803e3d6000fd5b5050604051632ec53bb760e11b81526001600160a01b0385169250635d8a776e915061229c90849066b1a2bc2ec5000090600401612ca2565b600060405180830381600087803b1580156122b657600080fd5b505af11580156122ca573d6000803e3d6000fd5b505050505b6122da838686611591565b158061235f57506040516340e7741960e11b81526001600160a01b038316906381cee8329061230f9088908890600401612dc8565b60206040518083038186803b15801561232757600080fd5b505afa15801561233b573d6000803e3d6000fd5b505050506040513d601f19601f8201168201806040525081019061235f91906129c7565b61237b5760405162461bcd60e51b81526004016108bb9061304e565b600085815260136020908152604080832087845282528083208054908a905589845260119092528220918255600182018190556002820187905560038201869055600490910184905580156123dc5760008181526011602052604090208790555b50505050505050565b81601060008381526020019081526020016000205460405160200161240b929190612dc8565b60408051601f1981840301815291815281516020928301206000848152601090935290822081905561243f9060649061358f565b905061244d6009600a6132d0565b6124586005836132e8565b6124639060016132d0565b10156125355761247460058261358f565b61247f9060016132d0565b600083815260116020526040902060070154106124cd576124a160058261358f565b6124ac9060016132d0565b6000838152601160205260409020600701546124c8919061350f565b6124d0565b60005b60008381526011602052604090206007015581837fba2c1e89a773b1234ed614b22747890d7abe2dc00dea2aac7a5bc913d1b3fd1061251060058561358f565b61251b9060016132d0565b6040516125289190612dd6565b60405180910390a3612570565b81837fba2c1e89a773b1234ed614b22747890d7abe2dc00dea2aac7a5bc913d1b3fd1060006040516125679190612dd6565b60405180910390a35b505050565b61257e84611fcf565b6040805160a0810182528681526020808201878152828401878152606084018781526080850187815260008b8152600a80875288822080546001600160a01b039081168452601289528a842099518a5596516001808b0191909155955160028a015593516003890155915160049097019690965581546009805494850190557f6e1540171b6c0c960b71a7020d9f60077f6af931a8bbf590da0223dacf75c7af90930180549385166001600160a01b031994851617905581549093168552600b8452948420849055928890529052815416905561265a846113eb565b60008581526011602052604090206005015461267691906132d0565b600086815260116020526040812060050180549091906126979084906132d0565b90915550506000848152601160205260408082206005810183905587835290822060068082018490559091018290556009018054916126d58361357b565b9091555050600354604051632ec53bb760e11b81526001600160a01b03909116908190635d8a776e906127169033906702c68af0bb14000090600401612ca2565b600060405180830381600087803b15801561273057600080fd5b505af1158015612744573d6000803e3d6000fd5b50506040518792508891507f2be144f485b9e81b714c43c261dbd828d6bfcaf7a2099bedac01808694096a3390600090a3505050505050565b6000612787610822565b6000858152600e6020908152604080832084905560119091528120600f600782015560088101839055600981018290556005015590506127c9848484846120da565b50505050565b60405180606001604052806000815260200160008152602001600081525090565b6040518060a0016040528060008152602001600081526020016000815260200160008152602001600081525090565b60405180615360016040528061029b906020820280368337509192915050565b6040518060e00160405280600081526020016000815260200160008152602001600081526020016000815260200160008152602001600081525090565b604051806040016040528060008152602001600081525090565b8280546128a290613526565b90600052602060002090601f0160209004810192826128c4576000855561290a565b82601f106128dd57805160ff191683800117855561290a565b8280016001018555821561290a579182015b8281111561290a5782518255916020019190600101906128ef565b50612916929150612986565b5090565b604051806101800160405280600081526020016000815260200160008152602001600081526020016000151581526020016000815260200160008152602001600081526020016000815260200160006001600160a01b0316815260200160608152602001600081525090565b5b808211156129165760008155600101612987565b805180151581146105d357600080fd5b6000602082840312156129bc578081fd5b8135611656816135e5565b6000602082840312156129d8578081fd5b6116568261299b565b600080604083850312156129f3578081fd5b50508035926020909101359150565b60008060408385031215612a14578182fd5b505080516020909101519092909150565b600080600080600060a08688031215612a3c578081fd5b505083359560208501359550604085013594606081013594506080013592509050565b60006020808385031215612a71578182fd5b823567ffffffffffffffff80821115612a88578384fd5b818501915085601f830112612a9b578384fd5b813581811115612aad57612aad6135cf565b604051601f8201601f1916810185018381118282101715612ad057612ad06135cf565b6040528181528382018501881015612ae6578586fd5b818585018683013790810190930193909352509392505050565b600060208284031215612b11578081fd5b5035919050565b600060208284031215612b29578081fd5b5051919050565b60008060408385031215612b42578182fd5b82359150602083013560098110612b57578182fd5b809150509250929050565b600080600060608486031215612b76578283fd5b505081359360208301359350604090920135919050565b600080604083850312156129f3578182fd5b600080600080600060a08688031215612bb6578081fd5b855194506020860151935060408601519250612bd46060870161299b565b91506080860151612be4816135e5565b809150509295509295909350565b6001600160a01b03169052565b15159052565b60008151808452815b81811015612c2a57602081850181015186830182015201612c0e565b81811115612c3b5782602083870101525b50601f01601f19169290920160200192915050565b6001600160a01b0391909116815260200190565b6001600160a01b0392831681529116602082015260400190565b6001600160a01b039384168152919092166020820152604081019190915260600190565b6001600160a01b03929092168252602082015260400190565b602080825282518282018190526000919060409081850190868401855b82811015612d1c5781518051855286810151878601528581015186860152606080820151908601526080908101519085015260a09093019290850190600101612cd8565b5091979650505050505050565b6153608101818360005b61029b811015612d53578151835260209283019290910190600101612d33565b50505092915050565b6020808252825182820181905260009190848201906040850190845b81811015612d9457835183529284019291840191600101612d78565b50909695505050505050565b6020810160098310612dc257634e487b7160e01b600052602160045260246000fd5b91905290565b918252602082015260400190565b90815260200190565b6000602082526116566020830184612c05565b6020808252601f908201527f63616e6e6f742061747461636b2070756e6b20696e2074686520686f75736500604082015260600190565b6020808252600d908201526c6e6f7420667265652070756e6b60981b604082015260600190565b6020808252600d908201526c092dcecc2d8d2c840d2dcc8caf609b1b604082015260600190565b60208082526019908201527f63616e206f6e6c792061747461636b206e65696768626f727300000000000000604082015260600190565b60208082526011908201527004661696c656420746f207573652068657607c1b604082015260600190565b60208082526014908201527370756e6b2042206973206a75737420626f726e2160601b604082015260600190565b6020808252600b908201526a726567697374657265642160a81b604082015260600190565b60208082526010908201526f70756e6b2042206973206d6f76696e6760801b604082015260600190565b60208082526017908201527f596f752061747461636b206120646561642070756e6b21000000000000000000604082015260600190565b6020808252600c908201526b4e6f7420616c6c6f7765642160a01b604082015260600190565b60208082526015908201527447657420617574686f72697a65642066697273742160581b604082015260600190565b6020808252818101527f676f20746f20686f75736520746f20636c61696d20796f757220726577617264604082015260600190565b6020808252601e908201527f4f6e6c792061646d696e2063616e207374617274207468652067616d652e0000604082015260600190565b60208082526019908201527f6f746865722070756e6b20616c7265616479206f6e2069742100000000000000604082015260600190565b6020808252600e908201526d50756e6b206e6f7420657869742160901b604082015260600190565b6020808252600790820152661a5b9d985b1a5960ca1b604082015260600190565b600060e082019050825182526020830151602083015260408301516040830152606083015160608301526080830151608083015260a083015160a083015260c083015160c083015292915050565b815181526020918201519181019190915260400190565b60006020825282516020830152602083015160408301526040830151606083015260608301516080830152608083015161317060a0840182612bff565b5060a083015160c083015260c083015160e083015260e08301516101008181850152808501519150506101208181850152808501519150506101406131b781850183612bf2565b8085015191505061018061016081818601526131d76101a0860184612c05565b9501519301929092525090919050565b81518152602080830151908201526040918201519181019190915260600190565b9283526001600160a01b03919091166020830152604082015260600190565b998a5260208a019890985260408901969096526060880194909452608087019290925260a086015260c085015260e08401526101008301526101208201526101400190565b948552602085019390935260408401919091526060830152608082015260a00190565b600080821280156001600160ff1b03849003851316156132b1576132b16135a3565b600160ff1b83900384128116156132ca576132ca6135a3565b50500190565b600082198211156132e3576132e36135a3565b500190565b6000826132f7576132f76135b9565b500490565b80825b600180861161330e5750613339565b818704821115613320576133206135a3565b8086161561332d57918102915b9490941c9380026132ff565b94509492505050565b600082801561335857600181146133625761336b565b600191505061340a565b8291505061340a565b50816133795750600061340a565b506001600082138082146133925780156133a9576133bb565b8286048311156133a4576133a46135a3565b6133bb565b8286058312156133bb576133bb6135a3565b50808316156133c75750805b6133d8858460011c848502846132fc565b80870482116000831316156133ef576133ef6135a3565b8086058212600083121615613406576134066135a3565b0290505b949350505050565b60006116566001600160ff1b03600160ff1b60ff861685613342565b60006001600160ff1b0381841382841380821686840486111615613454576134546135a3565b600160ff1b84871282811687830589121615613472576134726135a3565b85871292508782058712848416161561348d5761348d6135a3565b878505871281841616156134a3576134a36135a3565b505050929093029392505050565b60008160001904831182151516156134cb576134cb6135a3565b500290565b60008083128015600160ff1b8501841216156134ee576134ee6135a3565b6001600160ff1b0384018313811615613509576135096135a3565b50500390565b600082821015613521576135216135a3565b500390565b60028104600182168061353a57607f821691505b602082108114156114f857634e487b7160e01b600052602260045260246000fd5b60006001600160ff1b03821415613574576135746135a3565b5060010190565b6000600019821415613574576135746135a3565b60008261359e5761359e6135b9565b500690565b634e487b7160e01b600052601160045260246000fd5b634e487b7160e01b600052601260045260246000fd5b634e487b7160e01b600052604160045260246000fd5b6001600160a01b03811681146135fa57600080fd5b5056fea264697066735822122070d52bd67519d6a834112ee112a00200fd6cf1114faca089aca9574a6ef08f6164736f6c63430008000033",
  "immutableReferences": {},
  "source": "// SPDX-License-Identifier: MIT\r\npragma solidity ^0.8.0;\r\n\r\nimport \"./Building.sol\";\r\n\r\ncontract RogueLand {\r\n    \r\n    enum ActionChoices { SitStill, GoLeft, GoRight, GoUp, GoDown, GoLeftUp, GoLeftDown, GoRightUp, GoRightDown }\r\n\t\r\n    struct MovingPunk {\r\n      uint punkId;\r\n      uint punkNonce;\r\n    }\r\n\r\n    struct KillEvent {\r\n      uint A;\r\n      uint B;\r\n      uint t;\r\n      int x;\r\n      int y;\r\n    }\r\n\r\n    struct TimeSpace {\r\n      uint t;\r\n      int x;\r\n      int y;\r\n    }\r\n\r\n    struct Position {\r\n      int x;\r\n      int y;\r\n    }\r\n\r\n    struct StillPunk {\r\n      uint oldNeighbor;\r\n      uint newNeighbor;\r\n      int x;\r\n      int y;\r\n      uint showtime;\r\n      uint gold;\r\n      uint enemy;\r\n      uint hp;\r\n      uint nonce; // \r\n      uint evil; // \r\n    }\r\n    \r\n    struct PunkInfo {      \r\n      uint oldNeighbor;\r\n      uint newNeighbor;\r\n      int x;\r\n      int y;\r\n      bool isMoving;\r\n      uint totalGold;\r\n      uint hp;\r\n      uint evil;\r\n      uint seed;\r\n      address player;\r\n      string name;\r\n      uint blockNumber;\r\n    }\r\n\r\n    struct GameInfo {\r\n      uint total;\r\n      uint dead;\r\n      uint pool;\r\n      uint squidBalance;\r\n      uint squidApproved;\r\n      uint hepBalance;\r\n      uint hepApproved;\r\n    }\r\n\r\n    uint public constant AC = 9; // \r\n    uint public constant BAREHAND = 5; // \r\n    \r\n    address public owner;\r\n    address public hepAddress;\r\n    address public squidAddress;\r\n    address public buildingAddress;\r\n    uint public startBlock; // \r\n    uint private _randNonce;\r\n    uint public blockPerRound = 500;\r\n    uint public rewardsPerRound = 5e15;\r\n    //bool public gameOver;\r\n    uint public totalPunk; // \r\n    address[] public deadPunk; // \r\n\r\n  \r\n    // \r\n    mapping (uint => address) public punkMaster;\r\n    mapping (address => uint) public punkOf;\r\n    mapping (address => string) public nickNameOf;\r\n\r\n    // punk\r\n    mapping (uint => mapping (uint => Position)) public movingPunks;\r\n\r\n    // punk\r\n    mapping (uint => uint) public lastScheduleOf;\r\n\r\n    // \r\n    mapping (uint => uint) private _randseedOfRound;\r\n    mapping (uint => uint) private _randseedOfPunk;\r\n\r\n    // punk\r\n    mapping (uint => StillPunk) public stillPunks;\r\n\r\n    // punk\r\n    mapping (address => KillEvent) public lastKilled;\r\n\r\n    // punk\r\n    mapping (int => mapping (int => uint)) public stillPunkOn;\r\n  \r\n    // \r\n    mapping (uint => mapping (int => mapping (int => MovingPunk))) public movingPunksOn;\r\n\r\n\r\n    event ActionCommitted(uint indexed punkId, uint indexed time, ActionChoices action);\r\n    event Attacked(uint indexed punkA, uint indexed punkB, uint damage);\r\n    event Killed(uint indexed punkA, uint indexed punkB);\r\n  \r\n    constructor(address buildingAddress_, address hepAddress_, address squidAddress_) {\r\n        owner = msg.sender;\r\n        buildingAddress = buildingAddress_;\r\n        hepAddress = hepAddress_;\r\n        squidAddress = squidAddress_;\r\n        _randNonce = uint(keccak256(abi.encode(block.timestamp, msg.sender)));\r\n        _randseedOfRound[0] = _randNonce;\r\n    }\r\n\r\n    // \r\n    function getEvents(int x1, int y1, int x2, int y2, uint t) public view returns (uint[] memory) {\r\n        require(x2 >= x1 && y2 >= y1, \"Invalid index\");\r\n        uint[] memory selectEvents = new uint[](uint((x2-x1+1)*(y2-y1+1)));\r\n        uint i = 0;\r\n        for (int x=x1; x<=x2; x++) {\r\n          for (int y=y1; y<=y2; y++) {\r\n            selectEvents[i] = getPunkOn(t, x, y);\r\n            i ++;\r\n          }\r\n        }\r\n        return selectEvents;\r\n    }\r\n\r\n    function getDeadPunk() public view returns (KillEvent[] memory) {\r\n        KillEvent[] memory _deadPunks = new KillEvent[](deadPunk.length);\r\n        for (uint i=0; i<deadPunk.length; i++) {\r\n          _deadPunks[i] = lastKilled[deadPunk[i]];\r\n        }\r\n        return _deadPunks;\r\n    }\r\n\r\n    function _resetPunk(uint id, int x, int y) private {\r\n      uint t = getCurrentTime();\r\n      lastScheduleOf[id] = t;\r\n      stillPunks[id].hp = 15; // 15\r\n      stillPunks[id].nonce = t;\r\n      stillPunks[id].evil = 0;\r\n      stillPunks[id].gold = 0;\r\n      _addStillPunk(id, x, y, t);\r\n    }\r\n\r\n    // \r\n    function setNickName(string memory name) public {\r\n        nickNameOf[msg.sender] = name;\r\n    }\r\n\r\n    function freePunk() public view returns (uint) {\r\n      uint id;\r\n      for (id=2; id<=667; id++) {\r\n        if (punkMaster[id] == address(0)) {\r\n          break;\r\n        }\r\n      }\r\n      return id;\r\n    }\r\n\r\n    function gameInfo(address player) public view returns (GameInfo memory) {\r\n        uint total = totalPunk;\r\n        uint dead = deadPunk.length;\r\n        IERC20 squid = IERC20(squidAddress);\r\n        uint pool = squid.balanceOf(buildingAddress);\r\n        uint squidBalance = squid.balanceOf(player);\r\n        uint squidApproved = squid.allowance(player, buildingAddress);\r\n        IERC20 hep = IERC20(hepAddress);\r\n        uint hepBalance = hep.balanceOf(player);\r\n        uint hepApproved = hep.allowance(player, address(this));\r\n        return GameInfo(total, dead, pool, squidBalance, squidApproved, hepBalance, hepApproved);\r\n    }\r\n\r\n    function register(uint id) public {\r\n        if (id == 0) {\r\n          id = freePunk();\r\n        }\r\n        require(id >= 2 && id <= 667, 'invalid');\r\n        require(punkMaster[id] == address(0), 'not free punk');\r\n        require(punkOf[msg.sender] == 0, \"registered!\");\r\n        Building building = Building(buildingAddress);\r\n        (int x, int y) = building.playerLand(msg.sender);\r\n        (,,,bool used,) = building.landInfo(x, y);\r\n        if (used) {\r\n          building.payFee(msg.sender, 1e18);\r\n        }\r\n        else {\r\n          building.setUsed(x, y);\r\n        }\r\n        punkMaster[id] = msg.sender;\r\n        punkOf[msg.sender] = id;\r\n        _randseedOfPunk[id] = uint(keccak256(abi.encode(block.timestamp, msg.sender, _randNonce)));\r\n        _resetPunk(id, x, y);\r\n        totalPunk ++;\r\n    }\r\n\r\n    // \r\n    function startGame(uint startBlock_) public {\r\n        require(msg.sender == owner, \"Only admin can start the game.\");\r\n        startBlock = startBlock_;\r\n    }\r\n\r\n    function setRewards(uint rewards) public {\r\n        require(msg.sender == owner, \"Only admin can start the game.\");\r\n        rewardsPerRound = rewards;\r\n    }\r\n\r\n\r\n    // punkApunkB\r\n    function _kill(uint A, uint B, uint t, int x, int y) private {\r\n      // B\r\n      _removeStillPunk(B);\r\n      // \r\n      lastKilled[punkMaster[B]] = KillEvent(A, B, t, x, y);\r\n      deadPunk.push(punkMaster[B]);\r\n      punkOf[punkMaster[B]] = 0;\r\n      punkMaster[B] = address(0);\r\n      // AB\r\n      stillPunks[A].gold += (stillPunks[B].gold + pendingGold(B));\r\n      stillPunks[B].gold = 0;\r\n      stillPunks[A].enemy = 0;\r\n      stillPunks[B].enemy = 0;\r\n      // A\r\n      stillPunks[A].evil ++;\r\n      Building building = Building(buildingAddress);\r\n      building.award(msg.sender, 2e17);\r\n      \r\n\t    emit Killed(A, B);\r\n    }\r\n    \r\n    // punkApunkB\r\n    function _attack(uint A, uint B) private {\r\n      // 1d201d5\r\n      _randseedOfPunk[B] = uint(keccak256(abi.encode(A, _randseedOfPunk[B])));\r\n      uint dice = _randseedOfPunk[B] % 100;\r\n      //  10+AC \r\n      if (dice/5+1 < 10+AC) {\r\n        // 1d5\r\n        stillPunks[B].hp = (stillPunks[B].hp < (dice%5+1)? 0 : stillPunks[B].hp-(dice%5+1));\r\n\t\t    emit Attacked(A, B, dice%5+1);\r\n      }\r\n\t    else {\r\n\t\t    emit Attacked(A, B, 0);\r\n\t    }\r\n    }\r\n\r\n    // punkApunkB\r\n    function attack(uint A, uint B) public {\r\n      require(punkOf[msg.sender] == A, \"Get authorized first!\");\r\n      require(A > 0 && B > 0, \"Punk not exit!\");\r\n      require(punkMaster[B] != address(0), \"You attack a dead punk!\");\r\n      uint t = getCurrentTime();\r\n      Position memory posA = getPostion(A, t);\r\n      Position memory posB = getPostion(B, t);\r\n\t    require(stillPunks[B].showtime <= t, \"punk B is moving\");\r\n      require(t > stillPunks[B].nonce, \"punk B is just born!\");\r\n      //require(posA.x**2 < 625 && posA.y**2 < 625 && posB.x**2 < 625 && posB.y**2 < 625, \"cannot attack punks outside the game area\");\r\n      require((posA.x-posB.x)**2 <=1  &&  (posA.y-posB.y)**2 <=1, \"can only attack neighbors\");\r\n      Building building = Building(buildingAddress);\r\n      require(!building.isHouse(posB.x, posB.y), \"cannot attack punk in the house\");\r\n\r\n      if (stillPunks[A].enemy != B) {\r\n        stillPunks[A].enemy = B;\r\n      }\r\n\r\n      _attack(A, B);\r\n      if (stillPunks[B].hp == 0) {\r\n        _kill(A, B, t, posB.x, posB.y);\r\n      }\r\n      else {\r\n        // punkB\r\n        _attack(B, A);\r\n        if (stillPunks[A].hp == 0) {\r\n          _kill(B, A, t, posA.x, posA.y);\r\n        }\r\n      }\r\n    }\r\n\r\n    // HEP\r\n    function useHEP(uint id) public {\r\n      IERC20 hep = IERC20(hepAddress);\r\n      require(hep.transferFrom(msg.sender, address(this), 1), 'Failed to use hep');\r\n\r\n      // \r\n      //if (stillPunks[id].enemy != 0) {\r\n      //  leaveBattle(id);\r\n      //}\r\n\r\n      stillPunks[id].hp += 10;\r\n      if (stillPunks[id].hp > 15) {\r\n        stillPunks[id].hp = 15;\r\n      }\r\n    }\r\n\r\n    function _removeStillPunk(uint id) private {\r\n        uint oldNeighbor = stillPunks[id].oldNeighbor;\r\n        uint newNeighbor = stillPunks[id].newNeighbor;\r\n        int x = stillPunks[id].x;\r\n        int y = stillPunks[id].y;\r\n        if (oldNeighbor > 0) {\r\n          stillPunks[oldNeighbor].newNeighbor = newNeighbor;\r\n        }\r\n        else {\r\n          stillPunkOn[x][y] = newNeighbor;\r\n        }\r\n        if (newNeighbor > 0) {\r\n          stillPunks[newNeighbor].oldNeighbor = oldNeighbor;\r\n        }\r\n    }\r\n\r\n    function _addStillPunk(uint id, int x, int y, uint t) private {\r\n        Building building = Building(buildingAddress);\r\n        (,,,,address landOwner) = building.landInfo(x, y);\r\n        if (building.isHouse(x, y) && msg.sender != landOwner) {\r\n          building.payFee(msg.sender, 5e16);\r\n          building.award(landOwner, 5e16);\r\n        }\r\n        require (getPunkOn(t, x, y) == 0 || building.isHouse(x, y), 'other punk already on it!');\r\n        uint latestNeighbor = stillPunkOn[x][y];\r\n        stillPunkOn[x][y] = id;\r\n        stillPunks[id].oldNeighbor = 0;\r\n        stillPunks[id].newNeighbor = latestNeighbor;\r\n        stillPunks[id].x = x;\r\n        stillPunks[id].y = y;\r\n        stillPunks[id].showtime = t;\r\n        if (latestNeighbor > 0) {\r\n          stillPunks[latestNeighbor].oldNeighbor = id;\r\n        }\r\n    }\r\n\r\n    function _addMovingPunk(uint id, uint t, int x, int y) private {\r\n        movingPunksOn[t][x][y].punkId = id;\r\n        movingPunksOn[t][x][y].punkNonce = stillPunks[id].nonce;\r\n        movingPunks[id][t].x = x;\r\n        movingPunks[id][t].y = y;\r\n        // \r\n        uint gold = pendingGold(id);\r\n        if (gold > 0) {\r\n          stillPunks[id].gold += gold;\r\n        }\r\n    }\r\n\r\n\r\n\r\n    // punk\r\n    function scheduleAction(uint id, ActionChoices action) public {\r\n        require(punkOf[msg.sender] == id, \"Get authorized first!\");\r\n        require(id > 0, \"Punk not exit!\");\r\n        require(action != ActionChoices.SitStill, \"Not allowed!\");\r\n        uint currentTime = getCurrentTime();\r\n        if (lastScheduleOf[id] < currentTime) {\r\n          lastScheduleOf[id] = currentTime;\r\n        }\r\n        uint t = lastScheduleOf[id];\r\n        int x = stillPunks[id].x;\r\n        int y = stillPunks[id].y;\r\n        // remove this punk from still punks in (x, y) \r\n        _removeStillPunk(id);\r\n        _addMovingPunk(id, t, x, y);\r\n        if (action == ActionChoices.GoLeft) {\r\n          _addStillPunk(id, x-1, y, t+1);\r\n        }\r\n        if (action == ActionChoices.GoRight) {\r\n          _addStillPunk(id, x+1, y, t+1);\r\n        }\r\n        if (action == ActionChoices.GoUp) {\r\n          _addStillPunk(id, x, y+1, t+1);\r\n        }\r\n        if (action == ActionChoices.GoDown) {\r\n          _addStillPunk(id, x, y-1, t+1);\r\n        }\r\n        if (action == ActionChoices.GoLeftUp) {\r\n          _addStillPunk(id, x-1, y+1, t+1);\r\n        }\r\n        if (action == ActionChoices.GoLeftDown) {\r\n          _addStillPunk(id, x-1, y-1, t+1);\r\n        }\r\n        if (action == ActionChoices.GoRightUp) {\r\n          _addStillPunk(id, x+1, y+1, t+1);\r\n        }\r\n        if (action == ActionChoices.GoRightDown) {\r\n          _addStillPunk(id, x+1, y-1, t+1);\r\n        }\r\n        lastScheduleOf[id] ++;\r\n        emit ActionCommitted(id, lastScheduleOf[id], action);\r\n    }\r\n\r\n    function getCurrentTime() public view returns (uint) {\r\n      if (startBlock == 0 || startBlock > block.number) {\r\n        return 0;\r\n      }\r\n      uint time = (block.number - startBlock) / blockPerRound + 1;\r\n      return time;\r\n    }\r\n\r\n    function getPunkInfo(uint id) public view returns (PunkInfo memory) {\r\n      uint t = getCurrentTime();\r\n      Position memory pos = getPostion(id, t);\r\n      address player = punkMaster[id];\r\n      uint totalGold = stillPunks[id].gold + pendingGold(id);\r\n      bool isMoving = (t == stillPunks[id].nonce) || (stillPunks[id].showtime > t);\r\n      return PunkInfo(stillPunks[id].oldNeighbor, stillPunks[id].newNeighbor, pos.x, pos.y, isMoving, totalGold, stillPunks[id].hp, stillPunks[id].evil, _randseedOfPunk[id], player, nickNameOf[player], block.number);\r\n    }\r\n\r\n    function getPunkOn(uint t, int x, int y) public view returns (uint) {\r\n      if (stillPunkOn[x][y] != 0  && stillPunks[stillPunkOn[x][y]].showtime <= t) {\r\n        return stillPunkOn[x][y];\r\n      }\r\n      else {\r\n        uint id = movingPunksOn[t][x][y].punkId;\r\n        if (movingPunksOn[t][x][y].punkNonce == stillPunks[id].nonce) {\r\n          return id;\r\n        }\r\n      }\r\n      return 0;\r\n    }\r\n\r\n    function getPostion(uint id, uint t) public view returns (Position memory) {\r\n      if (lastScheduleOf[id] > t) {\r\n        return Position(movingPunks[id][t].x, movingPunks[id][t].y);\r\n      }\r\n      else {\r\n        return Position(stillPunks[id].x, stillPunks[id].y);\r\n      }\r\n    }\r\n\r\n    function getCurrentStatus(uint id) public view returns (TimeSpace memory) {\r\n      uint time = getCurrentTime();\r\n      Position memory pos = getPostion(id, time);\r\n      return TimeSpace(time, pos.x, pos.y);\r\n    }\r\n\r\n    function getScheduleInfo(uint id) public view returns (TimeSpace memory) {\r\n      uint time = getCurrentTime();\r\n      if (lastScheduleOf[id] > time) {\r\n        time = lastScheduleOf[id];\r\n      }\r\n      return TimeSpace(time, stillPunks[id].x, stillPunks[id].y);\r\n    }\r\n\r\n    function getGoldsofAllPunk() public view returns (uint[667] memory) {\r\n      uint[667] memory golds;\r\n      for (uint i=0; i<667; i++) {\r\n        golds[i] = punkMaster[i+1] == address(0) ? 0 : stillPunks[i+1].gold;\r\n      }\r\n      return golds;\r\n    }\r\n\r\n    function pendingGold(uint id) public view returns (uint) {\r\n      uint time = getCurrentTime();\r\n      if (stillPunks[id].showtime < time) {\r\n        Building building = Building(buildingAddress);\r\n        uint productivity = building.getProductivity(stillPunks[id].x, stillPunks[id].y);\r\n        return (time - stillPunks[id].showtime) * productivity * rewardsPerRound;\r\n      }\r\n      else {\r\n        return 0;\r\n      }\r\n    }\r\n\r\n    // \r\n    function claimRewards() public {\r\n      uint id = punkOf[msg.sender];\r\n      require(id > 0, \"Punk not exit!\");\r\n      uint t = getCurrentTime();\r\n      Position memory pos = getPostion(id, t);\r\n      Building building = Building(buildingAddress);\r\n      require(building.isHouse(pos.x, pos.y), 'go to house to claim your reward');\r\n      building.award(msg.sender, stillPunks[id].gold);\r\n      stillPunks[id].gold = 0;\r\n      // \r\n      _removeStillPunk(id);\r\n      punkOf[punkMaster[id]] = 0;\r\n      punkMaster[id] = address(0);\r\n    }\r\n\r\n}\r\n",
  "sourcePath": "C:/Users/Weixuan/Documents/github/RogueLand/contracts/RogueLand.sol",
  "compiler": {
    "name": "solc",
    "version": "0.8.0+commit.c7dfd78e.Emscripten.clang"
  },
  "schemaVersion": "3.4.0",
  "updatedAt": "2021-11-28T07:36:31.784Z",
  "networkType": "ethereum",
  "devdoc": {
    "kind": "dev",
    "methods": {},
    "version": 1
  },
  "userdoc": {
    "kind": "user",
    "methods": {},
    "version": 1
  }
}