{
  "contractName": "RogueLand",
  "abi": [
    {
      "inputs": [
        {
          "internalType": "address",
          "name": "cherryNFTAddress_",
          "type": "address"
        },
        {
          "internalType": "address",
          "name": "hepAddress_",
          "type": "address"
        },
        {
          "internalType": "address",
          "name": "squidAddress_",
          "type": "address"
        }
      ],
      "stateMutability": "nonpayable",
      "type": "constructor"
    },
    {
      "anonymous": false,
      "inputs": [
        {
          "indexed": true,
          "internalType": "uint256",
          "name": "punkId",
          "type": "uint256"
        },
        {
          "indexed": true,
          "internalType": "uint256",
          "name": "time",
          "type": "uint256"
        },
        {
          "indexed": false,
          "internalType": "enum RogueLand.ActionChoices",
          "name": "action",
          "type": "uint8"
        }
      ],
      "name": "ActionCommitted",
      "type": "event"
    },
    {
      "anonymous": false,
      "inputs": [
        {
          "indexed": true,
          "internalType": "uint256",
          "name": "punkA",
          "type": "uint256"
        },
        {
          "indexed": true,
          "internalType": "uint256",
          "name": "punkB",
          "type": "uint256"
        },
        {
          "indexed": false,
          "internalType": "uint256",
          "name": "damage",
          "type": "uint256"
        }
      ],
      "name": "Attacked",
      "type": "event"
    },
    {
      "anonymous": false,
      "inputs": [
        {
          "indexed": true,
          "internalType": "uint256",
          "name": "punkA",
          "type": "uint256"
        },
        {
          "indexed": true,
          "internalType": "uint256",
          "name": "punkB",
          "type": "uint256"
        }
      ],
      "name": "Killed",
      "type": "event"
    },
    {
      "inputs": [],
      "name": "AC",
      "outputs": [
        {
          "internalType": "uint256",
          "name": "",
          "type": "uint256"
        }
      ],
      "stateMutability": "view",
      "type": "function",
      "constant": true
    },
    {
      "inputs": [],
      "name": "BAREHAND",
      "outputs": [
        {
          "internalType": "uint256",
          "name": "",
          "type": "uint256"
        }
      ],
      "stateMutability": "view",
      "type": "function",
      "constant": true
    },
    {
      "inputs": [],
      "name": "blockPerRound",
      "outputs": [
        {
          "internalType": "uint256",
          "name": "",
          "type": "uint256"
        }
      ],
      "stateMutability": "view",
      "type": "function",
      "constant": true
    },
    {
      "inputs": [],
      "name": "cherryNFTAddress",
      "outputs": [
        {
          "internalType": "address",
          "name": "",
          "type": "address"
        }
      ],
      "stateMutability": "view",
      "type": "function",
      "constant": true
    },
    {
      "inputs": [
        {
          "internalType": "uint256",
          "name": "",
          "type": "uint256"
        }
      ],
      "name": "deadPunk",
      "outputs": [
        {
          "internalType": "address",
          "name": "",
          "type": "address"
        }
      ],
      "stateMutability": "view",
      "type": "function",
      "constant": true
    },
    {
      "inputs": [],
      "name": "gameOver",
      "outputs": [
        {
          "internalType": "bool",
          "name": "",
          "type": "bool"
        }
      ],
      "stateMutability": "view",
      "type": "function",
      "constant": true
    },
    {
      "inputs": [],
      "name": "hepAddress",
      "outputs": [
        {
          "internalType": "address",
          "name": "",
          "type": "address"
        }
      ],
      "stateMutability": "view",
      "type": "function",
      "constant": true
    },
    {
      "inputs": [
        {
          "internalType": "address",
          "name": "",
          "type": "address"
        }
      ],
      "name": "isVIP",
      "outputs": [
        {
          "internalType": "bool",
          "name": "",
          "type": "bool"
        }
      ],
      "stateMutability": "view",
      "type": "function",
      "constant": true
    },
    {
      "inputs": [
        {
          "internalType": "address",
          "name": "",
          "type": "address"
        }
      ],
      "name": "lastKilled",
      "outputs": [
        {
          "internalType": "uint256",
          "name": "A",
          "type": "uint256"
        },
        {
          "internalType": "uint256",
          "name": "B",
          "type": "uint256"
        },
        {
          "internalType": "uint256",
          "name": "t",
          "type": "uint256"
        },
        {
          "internalType": "int256",
          "name": "x",
          "type": "int256"
        },
        {
          "internalType": "int256",
          "name": "y",
          "type": "int256"
        }
      ],
      "stateMutability": "view",
      "type": "function",
      "constant": true
    },
    {
      "inputs": [
        {
          "internalType": "uint256",
          "name": "",
          "type": "uint256"
        }
      ],
      "name": "lastScheduleOf",
      "outputs": [
        {
          "internalType": "uint256",
          "name": "",
          "type": "uint256"
        }
      ],
      "stateMutability": "view",
      "type": "function",
      "constant": true
    },
    {
      "inputs": [
        {
          "internalType": "uint256",
          "name": "",
          "type": "uint256"
        },
        {
          "internalType": "uint256",
          "name": "",
          "type": "uint256"
        }
      ],
      "name": "movingPunks",
      "outputs": [
        {
          "internalType": "int256",
          "name": "x",
          "type": "int256"
        },
        {
          "internalType": "int256",
          "name": "y",
          "type": "int256"
        }
      ],
      "stateMutability": "view",
      "type": "function",
      "constant": true
    },
    {
      "inputs": [
        {
          "internalType": "uint256",
          "name": "",
          "type": "uint256"
        },
        {
          "internalType": "int256",
          "name": "",
          "type": "int256"
        },
        {
          "internalType": "int256",
          "name": "",
          "type": "int256"
        }
      ],
      "name": "movingPunksOn",
      "outputs": [
        {
          "internalType": "uint256",
          "name": "punkId",
          "type": "uint256"
        },
        {
          "internalType": "uint256",
          "name": "punkNonce",
          "type": "uint256"
        }
      ],
      "stateMutability": "view",
      "type": "function",
      "constant": true
    },
    {
      "inputs": [
        {
          "internalType": "address",
          "name": "",
          "type": "address"
        }
      ],
      "name": "nickNameOf",
      "outputs": [
        {
          "internalType": "string",
          "name": "",
          "type": "string"
        }
      ],
      "stateMutability": "view",
      "type": "function",
      "constant": true
    },
    {
      "inputs": [],
      "name": "owner",
      "outputs": [
        {
          "internalType": "address",
          "name": "",
          "type": "address"
        }
      ],
      "stateMutability": "view",
      "type": "function",
      "constant": true
    },
    {
      "inputs": [
        {
          "internalType": "uint256",
          "name": "",
          "type": "uint256"
        }
      ],
      "name": "punkMaster",
      "outputs": [
        {
          "internalType": "address",
          "name": "",
          "type": "address"
        }
      ],
      "stateMutability": "view",
      "type": "function",
      "constant": true
    },
    {
      "inputs": [
        {
          "internalType": "address",
          "name": "",
          "type": "address"
        }
      ],
      "name": "punkOf",
      "outputs": [
        {
          "internalType": "uint256",
          "name": "",
          "type": "uint256"
        }
      ],
      "stateMutability": "view",
      "type": "function",
      "constant": true
    },
    {
      "inputs": [],
      "name": "rewardsPerRound",
      "outputs": [
        {
          "internalType": "uint256",
          "name": "",
          "type": "uint256"
        }
      ],
      "stateMutability": "view",
      "type": "function",
      "constant": true
    },
    {
      "inputs": [],
      "name": "squidAddress",
      "outputs": [
        {
          "internalType": "address",
          "name": "",
          "type": "address"
        }
      ],
      "stateMutability": "view",
      "type": "function",
      "constant": true
    },
    {
      "inputs": [],
      "name": "startBlock",
      "outputs": [
        {
          "internalType": "uint256",
          "name": "",
          "type": "uint256"
        }
      ],
      "stateMutability": "view",
      "type": "function",
      "constant": true
    },
    {
      "inputs": [
        {
          "internalType": "int256",
          "name": "",
          "type": "int256"
        },
        {
          "internalType": "int256",
          "name": "",
          "type": "int256"
        }
      ],
      "name": "stillPunkOn",
      "outputs": [
        {
          "internalType": "uint256",
          "name": "",
          "type": "uint256"
        }
      ],
      "stateMutability": "view",
      "type": "function",
      "constant": true
    },
    {
      "inputs": [
        {
          "internalType": "uint256",
          "name": "",
          "type": "uint256"
        }
      ],
      "name": "stillPunks",
      "outputs": [
        {
          "internalType": "uint256",
          "name": "oldNeighbor",
          "type": "uint256"
        },
        {
          "internalType": "uint256",
          "name": "newNeighbor",
          "type": "uint256"
        },
        {
          "internalType": "int256",
          "name": "x",
          "type": "int256"
        },
        {
          "internalType": "int256",
          "name": "y",
          "type": "int256"
        },
        {
          "internalType": "uint256",
          "name": "showtime",
          "type": "uint256"
        },
        {
          "internalType": "uint256",
          "name": "gold",
          "type": "uint256"
        },
        {
          "internalType": "uint256",
          "name": "enemy",
          "type": "uint256"
        },
        {
          "internalType": "uint256",
          "name": "hp",
          "type": "uint256"
        },
        {
          "internalType": "uint256",
          "name": "nonce",
          "type": "uint256"
        },
        {
          "internalType": "uint256",
          "name": "evil",
          "type": "uint256"
        }
      ],
      "stateMutability": "view",
      "type": "function",
      "constant": true
    },
    {
      "inputs": [],
      "name": "totalPunk",
      "outputs": [
        {
          "internalType": "uint256",
          "name": "",
          "type": "uint256"
        }
      ],
      "stateMutability": "view",
      "type": "function",
      "constant": true
    },
    {
      "inputs": [
        {
          "internalType": "int256",
          "name": "x1",
          "type": "int256"
        },
        {
          "internalType": "int256",
          "name": "y1",
          "type": "int256"
        },
        {
          "internalType": "int256",
          "name": "x2",
          "type": "int256"
        },
        {
          "internalType": "int256",
          "name": "y2",
          "type": "int256"
        },
        {
          "internalType": "uint256",
          "name": "t",
          "type": "uint256"
        }
      ],
      "name": "getEvents",
      "outputs": [
        {
          "internalType": "uint256[]",
          "name": "",
          "type": "uint256[]"
        }
      ],
      "stateMutability": "view",
      "type": "function",
      "constant": true
    },
    {
      "inputs": [],
      "name": "getDeadPunk",
      "outputs": [
        {
          "components": [
            {
              "internalType": "uint256",
              "name": "A",
              "type": "uint256"
            },
            {
              "internalType": "uint256",
              "name": "B",
              "type": "uint256"
            },
            {
              "internalType": "uint256",
              "name": "t",
              "type": "uint256"
            },
            {
              "internalType": "int256",
              "name": "x",
              "type": "int256"
            },
            {
              "internalType": "int256",
              "name": "y",
              "type": "int256"
            }
          ],
          "internalType": "struct RogueLand.KillEvent[]",
          "name": "",
          "type": "tuple[]"
        }
      ],
      "stateMutability": "view",
      "type": "function",
      "constant": true
    },
    {
      "inputs": [
        {
          "internalType": "string",
          "name": "name",
          "type": "string"
        }
      ],
      "name": "setNickName",
      "outputs": [],
      "stateMutability": "nonpayable",
      "type": "function"
    },
    {
      "inputs": [
        {
          "internalType": "address[]",
          "name": "vips",
          "type": "address[]"
        }
      ],
      "name": "setVIP",
      "outputs": [],
      "stateMutability": "nonpayable",
      "type": "function"
    },
    {
      "inputs": [],
      "name": "freePunk",
      "outputs": [
        {
          "internalType": "uint256",
          "name": "",
          "type": "uint256"
        },
        {
          "internalType": "uint256",
          "name": "",
          "type": "uint256"
        }
      ],
      "stateMutability": "view",
      "type": "function",
      "constant": true
    },
    {
      "inputs": [
        {
          "internalType": "address",
          "name": "player",
          "type": "address"
        }
      ],
      "name": "gameInfo",
      "outputs": [
        {
          "components": [
            {
              "internalType": "uint256",
              "name": "evenPunk",
              "type": "uint256"
            },
            {
              "internalType": "uint256",
              "name": "oddPunk",
              "type": "uint256"
            },
            {
              "internalType": "uint256",
              "name": "pool",
              "type": "uint256"
            },
            {
              "internalType": "uint256",
              "name": "squidBalance",
              "type": "uint256"
            },
            {
              "internalType": "uint256",
              "name": "squidApproved",
              "type": "uint256"
            },
            {
              "internalType": "uint256",
              "name": "hepBalance",
              "type": "uint256"
            },
            {
              "internalType": "uint256",
              "name": "hepApproved",
              "type": "uint256"
            },
            {
              "internalType": "bool",
              "name": "hasNFT",
              "type": "bool"
            },
            {
              "internalType": "bool",
              "name": "hasPunk",
              "type": "bool"
            }
          ],
          "internalType": "struct RogueLand.GameInfo",
          "name": "",
          "type": "tuple"
        }
      ],
      "stateMutability": "view",
      "type": "function",
      "constant": true
    },
    {
      "inputs": [],
      "name": "registerWithPunk",
      "outputs": [],
      "stateMutability": "nonpayable",
      "type": "function"
    },
    {
      "inputs": [],
      "name": "registerWithNFT",
      "outputs": [],
      "stateMutability": "nonpayable",
      "type": "function"
    },
    {
      "inputs": [],
      "name": "registerWithSquid",
      "outputs": [],
      "stateMutability": "nonpayable",
      "type": "function"
    },
    {
      "inputs": [
        {
          "internalType": "uint256",
          "name": "startBlock_",
          "type": "uint256"
        }
      ],
      "name": "startGame",
      "outputs": [],
      "stateMutability": "nonpayable",
      "type": "function"
    },
    {
      "inputs": [
        {
          "internalType": "uint256",
          "name": "A",
          "type": "uint256"
        },
        {
          "internalType": "uint256",
          "name": "B",
          "type": "uint256"
        }
      ],
      "name": "attack",
      "outputs": [],
      "stateMutability": "nonpayable",
      "type": "function"
    },
    {
      "inputs": [
        {
          "internalType": "uint256",
          "name": "id",
          "type": "uint256"
        }
      ],
      "name": "useHEP",
      "outputs": [],
      "stateMutability": "nonpayable",
      "type": "function"
    },
    {
      "inputs": [
        {
          "internalType": "uint256",
          "name": "id",
          "type": "uint256"
        },
        {
          "internalType": "enum RogueLand.ActionChoices",
          "name": "action",
          "type": "uint8"
        }
      ],
      "name": "scheduleAction",
      "outputs": [],
      "stateMutability": "nonpayable",
      "type": "function"
    },
    {
      "inputs": [],
      "name": "getCurrentTime",
      "outputs": [
        {
          "internalType": "uint256",
          "name": "",
          "type": "uint256"
        }
      ],
      "stateMutability": "view",
      "type": "function",
      "constant": true
    },
    {
      "inputs": [
        {
          "internalType": "uint256",
          "name": "id",
          "type": "uint256"
        }
      ],
      "name": "getPunkInfo",
      "outputs": [
        {
          "components": [
            {
              "internalType": "uint256",
              "name": "oldNeighbor",
              "type": "uint256"
            },
            {
              "internalType": "uint256",
              "name": "newNeighbor",
              "type": "uint256"
            },
            {
              "internalType": "int256",
              "name": "x",
              "type": "int256"
            },
            {
              "internalType": "int256",
              "name": "y",
              "type": "int256"
            },
            {
              "internalType": "bool",
              "name": "isMoving",
              "type": "bool"
            },
            {
              "internalType": "uint256",
              "name": "totalGold",
              "type": "uint256"
            },
            {
              "internalType": "uint256",
              "name": "hp",
              "type": "uint256"
            },
            {
              "internalType": "uint256",
              "name": "evil",
              "type": "uint256"
            },
            {
              "internalType": "uint256",
              "name": "seed",
              "type": "uint256"
            },
            {
              "internalType": "address",
              "name": "player",
              "type": "address"
            },
            {
              "internalType": "string",
              "name": "name",
              "type": "string"
            }
          ],
          "internalType": "struct RogueLand.PunkInfo",
          "name": "",
          "type": "tuple"
        }
      ],
      "stateMutability": "view",
      "type": "function",
      "constant": true
    },
    {
      "inputs": [
        {
          "internalType": "uint256",
          "name": "t",
          "type": "uint256"
        },
        {
          "internalType": "int256",
          "name": "x",
          "type": "int256"
        },
        {
          "internalType": "int256",
          "name": "y",
          "type": "int256"
        }
      ],
      "name": "getPunkOn",
      "outputs": [
        {
          "internalType": "uint256",
          "name": "",
          "type": "uint256"
        }
      ],
      "stateMutability": "view",
      "type": "function",
      "constant": true
    },
    {
      "inputs": [
        {
          "internalType": "uint256",
          "name": "id",
          "type": "uint256"
        },
        {
          "internalType": "uint256",
          "name": "t",
          "type": "uint256"
        }
      ],
      "name": "getPostion",
      "outputs": [
        {
          "components": [
            {
              "internalType": "int256",
              "name": "x",
              "type": "int256"
            },
            {
              "internalType": "int256",
              "name": "y",
              "type": "int256"
            }
          ],
          "internalType": "struct RogueLand.Position",
          "name": "",
          "type": "tuple"
        }
      ],
      "stateMutability": "view",
      "type": "function",
      "constant": true
    },
    {
      "inputs": [
        {
          "internalType": "uint256",
          "name": "id",
          "type": "uint256"
        }
      ],
      "name": "getCurrentStatus",
      "outputs": [
        {
          "components": [
            {
              "internalType": "uint256",
              "name": "t",
              "type": "uint256"
            },
            {
              "internalType": "int256",
              "name": "x",
              "type": "int256"
            },
            {
              "internalType": "int256",
              "name": "y",
              "type": "int256"
            }
          ],
          "internalType": "struct RogueLand.TimeSpace",
          "name": "",
          "type": "tuple"
        }
      ],
      "stateMutability": "view",
      "type": "function",
      "constant": true
    },
    {
      "inputs": [
        {
          "internalType": "uint256",
          "name": "id",
          "type": "uint256"
        }
      ],
      "name": "getScheduleInfo",
      "outputs": [
        {
          "components": [
            {
              "internalType": "uint256",
              "name": "t",
              "type": "uint256"
            },
            {
              "internalType": "int256",
              "name": "x",
              "type": "int256"
            },
            {
              "internalType": "int256",
              "name": "y",
              "type": "int256"
            }
          ],
          "internalType": "struct RogueLand.TimeSpace",
          "name": "",
          "type": "tuple"
        }
      ],
      "stateMutability": "view",
      "type": "function",
      "constant": true
    },
    {
      "inputs": [],
      "name": "getGoldsofAllPunk",
      "outputs": [
        {
          "internalType": "uint256[667]",
          "name": "",
          "type": "uint256[667]"
        }
      ],
      "stateMutability": "view",
      "type": "function",
      "constant": true
    },
    {
      "inputs": [
        {
          "internalType": "int256",
          "name": "x",
          "type": "int256"
        },
        {
          "internalType": "int256",
          "name": "y",
          "type": "int256"
        }
      ],
      "name": "getProductivity",
      "outputs": [
        {
          "internalType": "uint256",
          "name": "",
          "type": "uint256"
        }
      ],
      "stateMutability": "pure",
      "type": "function",
      "constant": true
    },
    {
      "inputs": [
        {
          "internalType": "uint256",
          "name": "id",
          "type": "uint256"
        }
      ],
      "name": "pendingGold",
      "outputs": [
        {
          "internalType": "uint256",
          "name": "",
          "type": "uint256"
        }
      ],
      "stateMutability": "view",
      "type": "function",
      "constant": true
    },
    {
      "inputs": [],
      "name": "claimRewards",
      "outputs": [],
      "stateMutability": "nonpayable",
      "type": "function"
    }
  ],
  "bytecode": "0x60806040526101f46006556611c37937e080006007553480156200002257600080fd5b50604051620039ef380380620039ef83398101604081905262000045916200010e565b60008054336001600160a01b031991821681179092556001805482166001600160a01b0387811691909117909155600280548316868316179055600380549092169084161790556040516200009f91429160200162000157565b60408051601f19818403018152919052805160209182012060058190556000805260119091527f4ad3b33220dddc71b994a52d72c06b10862965f7d926534c05c00fb7e819e7b755506200016e915050565b80516001600160a01b03811681146200010957600080fd5b919050565b60008060006060848603121562000123578283fd5b6200012e84620000f1565b92506200013e60208501620000f1565b91506200014e60408501620000f1565b90509250925092565b9182526001600160a01b0316602082015260400190565b613871806200017e6000396000f3fe608060405234801561001057600080fd5b506004361061027f5760003560e01c806379d618e31161015c578063bdb337d1116100ce578063e5ed1d5911610087578063e5ed1d591461057d578063ecf17e4014610590578063efcd908e146105a3578063f4201c3c146105ab578063f42a5275146105be578063f705fc49146105d15761027f565b8063bdb337d1146104d9578063c73ea367146104ee578063ccf8b09714610501578063de4f8f1f14610521578063e1fa76381461054a578063e2d199031461055d5761027f565b8063a9e76a8e11610120578063a9e76a8e1461045f578063adca04be14610472578063aeec3acd14610492578063b06765ea146104a5578063bcf0196b146104c9578063bd930e77146104d15761027f565b806379d618e3146104095780638da5cb5b14610411578063a02498ca14610419578063a0aa13c61461042c578063a6e341901461043f5761027f565b8063372500ab116101f55780634d71e725116101b95780634d71e7251461039557806351c18326146103a857806360e96ed7146103b057806362e026de146103c3578063671a8b1a146103d65780637336ffac146103e95761027f565b8063372500ab1461035757806340d68c111461035f578063432230251461037257806348cd4cb1146103855780634b5cf7751461038d5761027f565b80631dbd05a6116102475780631dbd05a6146102f45780631fda9cb414610309578063238c18a11461031e57806329cb924d146103345780632a166de31461033c57806333ec15fc1461034f5761027f565b8063033d5e4d146102845780630dccca55146102ad57806312340473146102c257806313cd0610146102d7578063148d7f96146102ec575b600080fd5b610297610292366004612c9d565b6105d9565b6040516102a491906133f7565b60405180910390f35b6102c06102bb366004612b12565b61064f565b005b6102ca610709565b6040516102a49190612f19565b6102df61070f565b6040516102a49190612d88565b6102c061071e565b6102fc61078b565b6040516102a49190612df3565b6103116108cd565b6040516102a49190612e61565b61032661095b565b6040516102a4929190612f0b565b6102ca6109ee565b6102ca61034a366004612ba1565b610a3d565b6102c0610a5a565b6102c0610b3b565b6102c061036d366004612ccd565b610c45565b6102c0610380366004612c9d565b610f61565b6102ca611060565b6102ca611066565b6103266103a3366004612ba1565b61106c565b6102ca611090565b6103266103be366004612cff565b611096565b6102df6103d1366004612c9d565b6110c0565b6102ca6103e4366004612c9d565b6110db565b6103fc6103f7366004612bc2565b6110ed565b6040516102a49190612e94565b6102df61122d565b6102df61123c565b6102df610427366004612c9d565b61124b565b61029761043a366004612c9d565b611275565b61045261044d366004612aeb565b6112bc565b6040516102a491906132d1565b6102ca61046d366004612c9d565b611682565b610485610480366004612ba1565b61171e565b6040516102a4919061333a565b6102ca6104a0366004612cff565b6117b1565b6104b86104b3366004612aeb565b61187d565b6040516102a495949392919061347c565b6102ca6118ac565b6102c06118b1565b6104e1611988565b6040516102a49190612ed8565b6102c06104fc366004612bfc565b611991565b61051461050f366004612c9d565b6119b1565b6040516102a49190613351565b61053461052f366004612c9d565b611b78565b6040516102a49a99989796959493929190613437565b6102c0610558366004612ba1565b611bcc565b61057061056b366004612aeb565b611def565b6040516102a49190612f22565b6102c061058b366004612c9d565b611e89565b6102ca61059e366004612aeb565b611eb8565b6102df611eca565b6104e16105b9366004612aeb565b611ed9565b6102ca6105cc366004612ba1565b611eee565b6102ca612045565b6105e1612913565b60006105eb6109ee565b60008481526010602052604090205490915081101561061557506000828152601060205260409020545b604080516060810182529182526000848152601360208181528383206002810154828701529287905252600301549082015290505b919050565b6000546001600160a01b031633146106825760405162461bcd60e51b815260040161067990613039565b60405180910390fd5b8060005b81811015610703576001600e60008686858181106106b457634e487b7160e01b600052603260045260246000fd5b90506020020160208101906106c99190612aeb565b6001600160a01b031681526020810191909152604001600020805460ff1916911515919091179055806106fb816137b7565b915050610686565b50505050565b60065481565b6001546001600160a01b031681565b6107266109ee565b156107435760405162461bcd60e51b815260040161067990613250565b336000908152600e602052604090205460ff166107725760405162461bcd60e51b815260040161067990612f93565b600061077c61095b565b5090506107888161204a565b50565b600a5460609060009067ffffffffffffffff8111156107ba57634e487b7160e01b600052604160045260246000fd5b6040519080825280602002602001820160405280156107f357816020015b6107e0612934565b8152602001906001900390816107d85790505b50905060005b600a548110156108c65760146000600a838154811061082857634e487b7160e01b600052603260045260246000fd5b60009182526020808320909101546001600160a01b031683528281019390935260409182019020815160a081018352815481526001820154938101939093526002810154918301919091526003810154606083015260040154608082015282518390839081106108a857634e487b7160e01b600052603260045260246000fd5b602002602001018190525080806108be906137b7565b9150506107f9565b5090505b90565b6108d5612963565b6108dd612963565b60005b61029b8110156108c6576108f861046d8260016134e0565b601360006109078460016134e0565b81526020019081526020016000206005015461092391906134e0565b828261029b811061094457634e487b7160e01b600052603260045260246000fd5b602002015280610953816137b7565b9150506108e0565b600080600281805b61029b83116109a1576000838152600b60205260409020546001600160a01b031661098f5750816109a1565b61099a8360026134e0565b9250610963565b600392505b61029b83116109e5576000838152600b60205260409020546001600160a01b03166109d3578291506109e5565b6109de8360026134e0565b92506109a6565b93509150509091565b600060045460001480610a02575043600454115b15610a0f575060006108ca565b600060065460045443610a22919061374b565b610a2c9190613526565b610a379060016134e0565b91505090565b601560209081526000928352604080842090915290825290205481565b610a626109ee565b15610a7f5760405162461bcd60e51b815260040161067990613250565b6001546040516370a0823160e01b81526001600160a01b039091169060009082906370a0823190610ab4903390600401612d88565b60206040518083038186803b158015610acc57600080fd5b505afa158015610ae0573d6000803e3d6000fd5b505050506040513d601f19601f82011682018060405250810190610b049190612cb5565b11610b215760405162461bcd60e51b815260040161067990613070565b6000610b2b61095b565b915050610b378161204a565b5050565b336000908152600c602052604090205480610b685760405162461bcd60e51b8152600401610679906132a9565b6000610b726109ee565b90506000610b80838361171e565b8051909150610b919060029061364e565b6102711480610bb1575060028160200151610bac919061364e565b610271145b610bcd5760405162461bcd60e51b815260040161067990613186565b600083815260136020526040902060050154610bea903390612148565b600083815260136020526040812060050155610c058361230c565b50506000818152600b6020818152604080842080546001600160a01b03168552600c835290842084905593909252905280546001600160a01b0319169055565b336000908152600c60205260409020548214610c735760405162461bcd60e51b8152600401610679906131ea565b60008211610c935760405162461bcd60e51b8152600401610679906132a9565b6000610c9d6109ee565b600084815260106020526040902054909150811115610cc85760008381526010602052604090208190555b60008381526010602090815260408083205460139092529091206002810154600390910154610cf68661230c565b610d0286848484612386565b6001856008811115610d2457634e487b7160e01b600052602160045260246000fd5b1415610d4a57610d4a86610d3960018561370c565b83610d458760016134e0565b612412565b6002856008811115610d6c57634e487b7160e01b600052602160045260246000fd5b1415610d8157610d8186610d3984600161349f565b6003856008811115610da357634e487b7160e01b600052602160045260246000fd5b1415610dc457610dc48683610db984600161349f565b610d458760016134e0565b6004856008811115610de657634e487b7160e01b600052602160045260246000fd5b1415610dfc57610dfc8683610db960018561370c565b6005856008811115610e1e57634e487b7160e01b600052602160045260246000fd5b1415610e3e57610e3e86610e3360018561370c565b610db984600161349f565b6006856008811115610e6057634e487b7160e01b600052602160045260246000fd5b1415610e8057610e8086610e7560018561370c565b610db960018561370c565b6007856008811115610ea257634e487b7160e01b600052602160045260246000fd5b1415610eb757610eb786610e3384600161349f565b6008856008811115610ed957634e487b7160e01b600052602160045260246000fd5b1415610eee57610eee86610e7584600161349f565b6000868152601060205260408120805491610f08836137b7565b91905055506010600087815260200190815260200160002054867f6a2d17d8c21b88f2e1a453533160575a5702bd8b1f6492daff557c2ae2a34a5687604051610f519190612ee3565b60405180910390a3505050505050565b6002546040516323b872dd60e01b81526001600160a01b039091169081906323b872dd90610f989033903090600190600401612db6565b602060405180830381600087803b158015610fb257600080fd5b505af1158015610fc6573d6000803e3d6000fd5b505050506040513d601f19601f82011682018060405250810190610fea9190612b81565b6110065760405162461bcd60e51b8152600401610679906130a7565b60008281526013602052604081206007018054600a92906110289084906134e0565b9091555050600082815260136020526040902060070154600f1015610b3757506000908152601360205260409020600f600790910155565b60045481565b60095481565b600f6020908152600092835260408084209091529082529020805460019091015482565b60075481565b60166020908152600093845260408085208252928452828420905282529020805460019091015482565b600b602052600090815260409020546001600160a01b031681565b60106020526000908152604090205481565b60608584121580156110ff5750848312155b61111b5760405162461bcd60e51b815260040161067990612f35565b6000611127868561370c565b61113290600161349f565b61113c888761370c565b61114790600161349f565b611151919061366a565b67ffffffffffffffff81111561117757634e487b7160e01b600052604160045260246000fd5b6040519080825280602002602001820160405280156111a0578160200160208202803683370190505b5090506000875b86811361122057875b86811361120d576111c28683836117b1565b8484815181106111e257634e487b7160e01b600052603260045260246000fd5b6020908102919091010152826111f7816137b7565b935050808061120590613797565b9150506111b0565b508061121881613797565b9150506111a7565b5090979650505050505050565b6002546001600160a01b031681565b6000546001600160a01b031681565b600a818154811061125b57600080fd5b6000918252602090912001546001600160a01b0316905081565b61127d612913565b60006112876109ee565b90506000611295848361171e565b60408051606081018252938452815160208086019190915290910151908301525092915050565b6112c4612983565b6000806112cf61095b565b9150915060006112dd6109ee565b11156112ec575050600a546000905b6003546040516370a0823160e01b81526001600160a01b039091169060009082906370a0823190611321903090600401612d88565b60206040518083038186803b15801561133957600080fd5b505afa15801561134d573d6000803e3d6000fd5b505050506040513d601f19601f820116820180604052508101906113719190612cb5565b90506000826001600160a01b03166370a08231886040518263ffffffff1660e01b81526004016113a19190612d88565b60206040518083038186803b1580156113b957600080fd5b505afa1580156113cd573d6000803e3d6000fd5b505050506040513d601f19601f820116820180604052508101906113f19190612cb5565b90506000836001600160a01b031663dd62ed3e89306040518363ffffffff1660e01b8152600401611423929190612d9c565b60206040518083038186803b15801561143b57600080fd5b505afa15801561144f573d6000803e3d6000fd5b505050506040513d601f19601f820116820180604052508101906114739190612cb5565b6002546040516370a0823160e01b81529192506001600160a01b03169060009082906370a08231906114a9908d90600401612d88565b60206040518083038186803b1580156114c157600080fd5b505afa1580156114d5573d6000803e3d6000fd5b505050506040513d601f19601f820116820180604052508101906114f99190612cb5565b90506000826001600160a01b031663dd62ed3e8c306040518363ffffffff1660e01b815260040161152b929190612d9c565b60206040518083038186803b15801561154357600080fd5b505afa158015611557573d6000803e3d6000fd5b505050506040513d601f19601f8201168201806040525081019061157b9190612cb5565b90506000600160009054906101000a90046001600160a01b031690506000816001600160a01b03166370a082318e6040518263ffffffff1660e01b81526004016115c59190612d88565b60206040518083038186803b1580156115dd57600080fd5b505afa1580156115f1573d6000803e3d6000fd5b505050506040513d601f19601f820116820180604052508101906116159190612cb5565b6001600160a01b038e166000908152600e6020908152604091829020548251610120810184529e8f52908e019c909c528c01989098525050606089019490945260808801929092525060a086015260c0850152151560e08401525060ff1615156101008201529050919050565b60008061168d6109ee565b60008481526013602052604090206004015490915081111561170e57600083815260136020526040812060028101546003909101546116cc9190611eee565b6007546000868152601360205260409020600401549192509082906116f1908561374b565b6116fb91906136ed565b61170591906136ed565b9250505061064a565b600091505061064a565b50919050565b6117266129d3565b60008381526010602052604090205482101561177957506040805180820182526000848152600f6020908152838220858352808252938220805484529185905292835260010154918101919091526117ab565b506040805180820182526000848152601360208181529382206002810154845291869052835260030154918101919091525b92915050565b6000828152601560209081526040808320848452909152812054158015906117ff57506000838152601560209081526040808320858452825280832054835260139091529020600401548410155b1561182457506000828152601560209081526040808320848452909152902054611876565b600084815260166020908152604080832086845282528083208584528083528184208054808652601385529285206008015494879052925260019091015490911415611871579050611876565b505060005b9392505050565b601460205260009081526040902080546001820154600283015460038401546004909401549293919290919085565b600981565b6003546040516323b872dd60e01b81526001600160a01b039091169081906323b872dd906118ef9033903090670de0b6b3a764000090600401612db6565b602060405180830381600087803b15801561190957600080fd5b505af115801561191d573d6000803e3d6000fd5b505050506040513d601f19601f820116820180604052508101906119419190612b81565b61195d5760405162461bcd60e51b815260040161067990612fca565b60008061196861095b565b91509150600081831061197b578161197d565b825b90506107038161204a565b60085460ff1681565b336000908152600d602090815260409091208251610b37928401906129ed565b6119b9612a71565b60006119c36109ee565b905060006119d1848361171e565b6000858152600b60205260408120549192506001600160a01b03909116906119f886611682565b600087815260136020526040902060050154611a1491906134e0565b60008781526013602052604081206008015491925090851480611a47575060008781526013602052604090206004015485105b604080516101608101825260008a815260136020818152848320805485528d8452918152600182015481850152895184860152898101516060850152851515608085015260a08401889052600782015460c085015260099091015460e08401528b825260128152838220546101008401526001600160a01b03881661012084018190528252600d9052919091208054929350909161014083019190611aeb90613762565b80601f0160208091040260200160405190810160405280929190818152602001828054611b1790613762565b8015611b645780601f10611b3957610100808354040283529160200191611b64565b820191906000526020600020905b815481529060010190602001808311611b4757829003601f168201915b505050505081525095505050505050919050565b6013602052806000526040600020600091509050806000015490806001015490806002015490806003015490806004015490806005015490806006015490806007015490806008015490806009015490508a565b336000908152600c60205260409020548214611bfa5760405162461bcd60e51b8152600401610679906131ea565b600082118015611c0a5750600081115b611c265760405162461bcd60e51b8152600401610679906132a9565b6000818152600b60205260409020546001600160a01b0316611c5a5760405162461bcd60e51b81526004016106799061314f565b6000611c646109ee565b90506000611c72848361171e565b90506000611c80848461171e565b600085815260136020526040902060040154909150831015611cb45760405162461bcd60e51b815260040161067990613125565b6000848152601360205260409020600801548311611ce45760405162461bcd60e51b8152600401610679906130d2565b80518251600191600291611cf8919061370c565b611d02919061364e565b13158015611d3057506001600282602001518460200151611d23919061370c565b611d2d919061364e565b13155b611d4c5760405162461bcd60e51b815260040161067990612f5c565b6000858152601360205260409020600601548414611d795760008581526013602052604090206006018490555b611d8385856124cc565b600084815260136020526040902060070154611db357611dae8585858460000151856020015161265c565b611de8565b611dbd84866124cc565b600085815260136020526040902060070154611de857611de88486858560000151866020015161265c565b5050505050565b600d6020526000908152604090208054611e0890613762565b80601f0160208091040260200160405190810160405280929190818152602001828054611e3490613762565b8015611e815780601f10611e5657610100808354040283529160200191611e81565b820191906000526020600020905b815481529060010190602001808311611e6457829003601f168201915b505050505081565b6000546001600160a01b03163314611eb35760405162461bcd60e51b815260040161067990613219565b600455565b600c6020526000908152604090205481565b6003546001600160a01b031681565b600e6020526000908152604090205460ff1681565b600082158015611efc575081155b15611f09575060646117ab565b6001611f1660028561364e565b13158015611f2f57506001611f2c60028461364e565b13155b15611f3c575060196117ab565b6009611f4960028561364e565b13158015611f6257506009611f5f60028461364e565b13155b15611f6f5750600a6117ab565b6024611f7c60028561364e565b13158015611f9557506024611f9260028461364e565b13155b15611fa2575060056117ab565b6064611faf60028561364e565b13158015611fc857506064611fc560028461364e565b13155b15611fd5575060036117ab565b60e1611fe260028561364e565b13158015611ffb575060e1611ff860028461364e565b13155b15612008575060026117ab565b61024061201660028561364e565b13158015612030575061024061202d60028461364e565b13155b1561203d575060016117ab565b5060006117ab565b600581565b60085460ff161561206d5760405162461bcd60e51b8152600401610679906131c7565b336000908152600c60205260409020541561209a5760405162461bcd60e51b815260040161067990613100565b61029b8111156120bc5760405162461bcd60e51b81526004016106799061300c565b6000818152600b6020908152604080832080546001600160a01b03191633908117909155808452600c835292819020849055600554905161210293429390929101613418565b60408051601f198184030181529181528151602092830120600084815260129093529120556121308161281f565b60098054906000612140836137b7565b919050555050565b60085460ff161561216b5760405162461bcd60e51b8152600401610679906131c7565b6003546040516370a0823160e01b81526001600160a01b039091169060009082906370a08231906121a0903090600401612d88565b60206040518083038186803b1580156121b857600080fd5b505afa1580156121cc573d6000803e3d6000fd5b505050506040513d601f19601f820116820180604052508101906121f09190612cb5565b905082811161228c5760405163a9059cbb60e01b81526001600160a01b0383169063a9059cbb906122279087908590600401612dda565b602060405180830381600087803b15801561224157600080fd5b505af1158015612255573d6000803e3d6000fd5b505050506040513d601f19601f820116820180604052508101906122799190612b81565b506008805460ff19166001179055610703565b60405163a9059cbb60e01b81526001600160a01b0383169063a9059cbb906122ba9087908790600401612dda565b602060405180830381600087803b1580156122d457600080fd5b505af11580156122e8573d6000803e3d6000fd5b505050506040513d601f19601f82011682018060405250810190611de89190612b81565b600081815260136020526040902080546001820154600283015460039093015491929091831561234f57600084815260136020526040902060010183905561236c565b600082815260156020908152604080832084845290915290208390555b8215611de857505060009081526013602052604090205550565b6000838152601660209081526040808320858452825280832084845282528083208781558784526013835281842060080154600191820155600f83528184208785529092528220848155018290556123dd85611682565b90508015611de857600085815260136020526040812060050180548392906124069084906134e0565b90915550505050505050565b61241d8184846117b1565b1580612434575061242f60028461364e565b610271145b8061244a575061244560028361364e565b610271145b6124665760405162461bcd60e51b815260040161067990613272565b600083815260156020908152604080832085845282528083208054908890558784526013909252822091825560018201819055600282018590556003820184905560049091018290558015611de857600090815260136020526040902093909355505050565b8160126000838152602001908152602001600020546040516020016124f2929190612f0b565b60408051601f19818403018152918152815160209283012060008481526012909352908220819055612526906064906137cb565b90506125346009600a6134e0565b61253f600583613526565b61254a9060016134e0565b101561261c5761255b6005826137cb565b6125669060016134e0565b600083815260136020526040902060070154106125b4576125886005826137cb565b6125939060016134e0565b6000838152601360205260409020600701546125af919061374b565b6125b7565b60005b60008381526013602052604090206007015581837fba2c1e89a773b1234ed614b22747890d7abe2dc00dea2aac7a5bc913d1b3fd106125f76005856137cb565b6126029060016134e0565b60405161260f9190612f19565b60405180910390a3612657565b81837fba2c1e89a773b1234ed614b22747890d7abe2dc00dea2aac7a5bc913d1b3fd10600060405161264e9190612f19565b60405180910390a35b505050565b6126658461230c565b6040805160a0810182528681526020808201878152828401878152606084018781526080850187815260008b8152600b80875288822080546001600160a01b039081168452601489528a842099518a5596516001808b0191909155955160028a01559351600389015591516004909701969096558154600a805494850190557fc65a7bb8d6351c1cf70c95a316cc6a92839c986682d98bc35f958f4883f9d2a890930180549385166001600160a01b031994851617905581549093168552600c8452948420849055928890529052815416905561274184611682565b60008581526013602052604090206005015461275d91906134e0565b6000868152601360205260408120600501805490919061277e9084906134e0565b90915550506000848152601360205260408082206005810183905587835290822060068082018490559091018290556009018054916127bc836137b7565b90915550506000858152600b60205260409020546127eb906001600160a01b03166702c68af0bb140000612148565b604051849086907f2be144f485b9e81b714c43c261dbd828d6bfcaf7a2099bedac01808694096a3390600090a35050505050565b60006128296109ee565b600083815260106020908152604080832084905560139091528120600f6007820155600881018390556009018190559091506018600261286a6064866137cb565b61287491906134f8565b61287e919061370c565b905061288b6004846137cb565b6128a15761289c8382601985612412565b612657565b6128ac6004846137cb565b600114156128ca5761289c836128c1836137df565b60181985612412565b6128d56004846137cb565b600214156128f25761289c8360196128ec846137df565b85612412565b6128fd6004846137cb565b6003141561265757612657836018198385612412565b60405180606001604052806000815260200160008152602001600081525090565b6040518060a0016040528060008152602001600081526020016000815260200160008152602001600081525090565b60405180615360016040528061029b906020820280368337509192915050565b604051806101200160405280600081526020016000815260200160008152602001600081526020016000815260200160008152602001600081526020016000151581526020016000151581525090565b604051806040016040528060008152602001600081525090565b8280546129f990613762565b90600052602060002090601f016020900481019282612a1b5760008555612a61565b82601f10612a3457805160ff1916838001178555612a61565b82800160010185558215612a61579182015b82811115612a61578251825591602001919060010190612a46565b50612a6d929150612ad6565b5090565b604051806101600160405280600081526020016000815260200160008152602001600081526020016000151581526020016000815260200160008152602001600081526020016000815260200160006001600160a01b03168152602001606081525090565b5b80821115612a6d5760008155600101612ad7565b600060208284031215612afc578081fd5b81356001600160a01b0381168114611876578182fd5b60008060208385031215612b24578081fd5b823567ffffffffffffffff80821115612b3b578283fd5b818501915085601f830112612b4e578283fd5b813581811115612b5c578384fd5b8660208083028501011115612b6f578384fd5b60209290920196919550909350505050565b600060208284031215612b92578081fd5b81518015158114611876578182fd5b60008060408385031215612bb3578182fd5b50508035926020909101359150565b600080600080600060a08688031215612bd9578081fd5b505083359560208501359550604085013594606081013594506080013592509050565b60006020808385031215612c0e578182fd5b823567ffffffffffffffff80821115612c25578384fd5b818501915085601f830112612c38578384fd5b813581811115612c4a57612c4a613825565b604051601f8201601f1916810185018381118282101715612c6d57612c6d613825565b6040528181528382018501881015612c83578586fd5b818585018683013790810190930193909352509392505050565b600060208284031215612cae578081fd5b5035919050565b600060208284031215612cc6578081fd5b5051919050565b60008060408385031215612cdf578182fd5b82359150602083013560098110612cf4578182fd5b809150509250929050565b600080600060608486031215612d13578283fd5b505081359360208301359350604090920135919050565b6001600160a01b03169052565b15159052565b60008151808452815b81811015612d6257602081850181015186830182015201612d46565b81811115612d735782602083870101525b50601f01601f19169290920160200192915050565b6001600160a01b0391909116815260200190565b6001600160a01b0392831681529116602082015260400190565b6001600160a01b039384168152919092166020820152604081019190915260600190565b6001600160a01b03929092168252602082015260400190565b602080825282518282018190526000919060409081850190868401855b82811015612e545781518051855286810151878601528581015186860152606080820151908601526080908101519085015260a09093019290850190600101612e10565b5091979650505050505050565b6153608101818360005b61029b811015612e8b578151835260209283019290910190600101612e6b565b50505092915050565b6020808252825182820181905260009190848201906040850190845b81811015612ecc57835183529284019291840191600101612eb0565b50909695505050505050565b901515815260200190565b6020810160098310612f0557634e487b7160e01b600052602160045260246000fd5b91905290565b918252602082015260400190565b90815260200190565b6000602082526118766020830184612d3d565b6020808252600d908201526c092dcecc2d8d2c840d2dcc8caf609b1b604082015260600190565b60208082526019908201527f63616e206f6e6c792061747461636b206e65696768626f727300000000000000604082015260600190565b6020808252601a908201527f596f7520646f206e6f742068617665206c6f7365722070756e6b000000000000604082015260600190565b60208082526022908201527f4661696c656420746f207472616e736665722074686520737175696420746f6b60408201526132b760f11b606082015260800190565b6020808252601390820152726e6f20706f736974696f6e20666f72206e6f7760681b604082015260600190565b60208082526018908201527f4f6e6c792061646d696e2063616e2073657420564950732e0000000000000000604082015260600190565b6020808252601a908201527f596f7520646f206e6f74206861766520636865727279204e4654000000000000604082015260600190565b60208082526011908201527004661696c656420746f207573652068657607c1b604082015260600190565b60208082526014908201527370756e6b2042206973206a75737420626f726e2160601b604082015260600190565b6020808252600b908201526a726567697374657265642160a81b604082015260600190565b60208082526010908201526f70756e6b2042206973206d6f76696e6760801b604082015260600190565b60208082526017908201527f596f752061747461636b206120646561642070756e6b21000000000000000000604082015260600190565b60208082526021908201527f676f20746f20626f7264657220746f20636c61696d20796f75722072657761726040820152601960fa1b606082015260800190565b60208082526009908201526833b0b6b29037bb32b960b91b604082015260600190565b60208082526015908201527447657420617574686f72697a65642066697273742160581b604082015260600190565b6020808252601e908201527f4f6e6c792061646d696e2063616e207374617274207468652067616d652e0000604082015260600190565b602080825260089082015267746f6f206c61746560c01b604082015260600190565b60208082526019908201527f6f746865722070756e6b20616c7265616479206f6e2069742100000000000000604082015260600190565b6020808252600e908201526d50756e6b206e6f7420657869742160901b604082015260600190565b600061012082019050825182526020830151602083015260408301516040830152606083015160608301526080830151608083015260a083015160a083015260c083015160c083015260e0830151151560e0830152610100808401511515818401525092915050565b815181526020918201519181019190915260400190565b60006020825282516020830152602083015160408301526040830151606083015260608301516080830152608083015161338e60a0840182612d37565b5060a083015160c083015260c083015160e083015260e08301516101008181850152808501519150506101208181850152808501519150506101406133d581850183612d2a565b8401516101608481015290506133ef610180840182612d3d565b949350505050565b81518152602080830151908201526040918201519181019190915260600190565b9283526001600160a01b03919091166020830152604082015260600190565b998a5260208a019890985260408901969096526060880194909452608087019290925260a086015260c085015260e08401526101008301526101208201526101400190565b948552602085019390935260408401919091526060830152608082015260a00190565b600080821280156001600160ff1b03849003851316156134c1576134c16137f9565b600160ff1b83900384128116156134da576134da6137f9565b50500190565b600082198211156134f3576134f36137f9565b500190565b6000826135075761350761380f565b600160ff1b821460001984141615613521576135216137f9565b500590565b6000826135355761353561380f565b500490565b80825b600180861161354c5750613577565b81870482111561355e5761355e6137f9565b8086161561356b57918102915b9490941c93800261353d565b94509492505050565b600082801561359657600181146135a0576135a9565b60019150506133ef565b829150506133ef565b50816135b7575060006133ef565b506001600082138082146135d05780156135e7576135f9565b8286048311156135e2576135e26137f9565b6135f9565b8286058312156135f9576135f96137f9565b50808316156136055750805b613616858460011c8485028461353a565b808704821160008313161561362d5761362d6137f9565b8086058212600083121615613644576136446137f9565b0295945050505050565b60006118766001600160ff1b03600160ff1b60ff861685613580565b60006001600160ff1b0381841382841380821686840486111615613690576136906137f9565b600160ff1b848712828116878305891216156136ae576136ae6137f9565b8587129250878205871284841616156136c9576136c96137f9565b878505871281841616156136df576136df6137f9565b505050929093029392505050565b6000816000190483118215151615613707576137076137f9565b500290565b60008083128015600160ff1b85018412161561372a5761372a6137f9565b6001600160ff1b0384018313811615613745576137456137f9565b50500390565b60008282101561375d5761375d6137f9565b500390565b60028104600182168061377657607f821691505b6020821081141561171857634e487b7160e01b600052602260045260246000fd5b60006001600160ff1b038214156137b0576137b06137f9565b5060010190565b60006000198214156137b0576137b06137f9565b6000826137da576137da61380f565b500690565b6000600160ff1b8214156137f5576137f56137f9565b0390565b634e487b7160e01b600052601160045260246000fd5b634e487b7160e01b600052601260045260246000fd5b634e487b7160e01b600052604160045260246000fdfea2646970667358221220f159418609dc46fd5cb826865840dd9a4311a2c143538acf19acada670acf6ae64736f6c63430008000033",
  "immutableReferences": {},
  "source": "// SPDX-License-Identifier: MIT\r\npragma solidity ^0.8.0;\r\n\r\nimport \"@openzeppelin/contracts/token/ERC721/IERC721.sol\";\r\nimport \"@openzeppelin/contracts/token/ERC20/IERC20.sol\";\r\n\r\ncontract RogueLand {\r\n    \r\n    enum ActionChoices { SitStill, GoLeft, GoRight, GoUp, GoDown, GoLeftUp, GoLeftDown, GoRightUp, GoRightDown }\r\n\t\r\n    struct MovingPunk {\r\n      uint punkId;\r\n      uint punkNonce;\r\n    }\r\n\r\n    struct KillEvent {\r\n      uint A;\r\n      uint B;\r\n      uint t;\r\n      int x;\r\n      int y;\r\n    }\r\n\r\n    struct TimeSpace {\r\n      uint t;\r\n      int x;\r\n      int y;\r\n    }\r\n\r\n    struct Position {\r\n      int x;\r\n      int y;\r\n    }\r\n\r\n    struct StillPunk {\r\n      uint oldNeighbor;\r\n      uint newNeighbor;\r\n      int x;\r\n      int y;\r\n      uint showtime;\r\n      uint gold;\r\n      uint enemy;\r\n      uint hp;\r\n      uint nonce; // \r\n      uint evil; // \r\n    }\r\n    \r\n    struct PunkInfo {      \r\n      uint oldNeighbor;\r\n      uint newNeighbor;\r\n      int x;\r\n      int y;\r\n      bool isMoving;\r\n      uint totalGold;\r\n      uint hp;\r\n      uint evil;\r\n      uint seed;\r\n      address player;\r\n      string name;\r\n    }\r\n\r\n    struct GameInfo {\r\n      uint evenPunk;\r\n      uint oddPunk;\r\n      uint pool;\r\n      uint squidBalance;\r\n      uint squidApproved;\r\n      uint hepBalance;\r\n      uint hepApproved;\r\n      bool hasNFT;\r\n      bool hasPunk;\r\n    }\r\n\r\n    uint public constant AC = 9; // \r\n    uint public constant BAREHAND = 5; // \r\n    \r\n    address public owner;\r\n    address public cherryNFTAddress;\r\n    address public hepAddress;\r\n    address public squidAddress;\r\n    uint public startBlock; // \r\n    uint private _randNonce;\r\n    uint public blockPerRound = 500;\r\n    uint public rewardsPerRound = 5e15;\r\n    bool public gameOver;\r\n    uint public totalPunk; // \r\n    address[] public deadPunk; // \r\n\r\n  \r\n    // \r\n    mapping (uint => address) public punkMaster;\r\n    mapping (address => uint) public punkOf;\r\n    mapping (address => string) public nickNameOf;\r\n    mapping (address => bool) public isVIP;\r\n\r\n    // punk\r\n    mapping (uint => mapping (uint => Position)) public movingPunks;\r\n\r\n    // punk\r\n    mapping (uint => uint) public lastScheduleOf;\r\n\r\n    // \r\n    mapping (uint => uint) private _randseedOfRound;\r\n    mapping (uint => uint) private _randseedOfPunk;\r\n\r\n    // punk\r\n    mapping (uint => StillPunk) public stillPunks;\r\n\r\n    // punk\r\n    mapping (address => KillEvent) public lastKilled;\r\n\r\n    // punk\r\n    mapping (int => mapping (int => uint)) public stillPunkOn;\r\n  \r\n    // \r\n    mapping (uint => mapping (int => mapping (int => MovingPunk))) public movingPunksOn;\r\n\r\n\r\n    event ActionCommitted(uint indexed punkId, uint indexed time, ActionChoices action);\r\n    event Attacked(uint indexed punkA, uint indexed punkB, uint damage);\r\n    event Killed(uint indexed punkA, uint indexed punkB);\r\n  \r\n    constructor(address cherryNFTAddress_, address hepAddress_, address squidAddress_) {\r\n        owner = msg.sender;\r\n        cherryNFTAddress = cherryNFTAddress_;\r\n        hepAddress = hepAddress_;\r\n        squidAddress = squidAddress_;\r\n        _randNonce = uint(keccak256(abi.encode(block.timestamp, msg.sender)));\r\n        _randseedOfRound[0] = _randNonce;\r\n    }\r\n\r\n    // \r\n    function getEvents(int x1, int y1, int x2, int y2, uint t) public view returns (uint[] memory) {\r\n        require(x2 >= x1 && y2 >= y1, \"Invalid index\");\r\n        uint[] memory selectEvents = new uint[](uint((x2-x1+1)*(y2-y1+1)));\r\n        uint i = 0;\r\n        for (int x=x1; x<=x2; x++) {\r\n          for (int y=y1; y<=y2; y++) {\r\n            selectEvents[i] = getPunkOn(t, x, y);\r\n            i ++;\r\n          }\r\n        }\r\n        return selectEvents;\r\n    }\r\n\r\n    function getDeadPunk() public view returns (KillEvent[] memory) {\r\n        KillEvent[] memory _deadPunks = new KillEvent[](deadPunk.length);\r\n        for (uint i=0; i<deadPunk.length; i++) {\r\n          _deadPunks[i] = lastKilled[deadPunk[i]];\r\n        }\r\n        return _deadPunks;\r\n    }\r\n\r\n    function _resetPunk(uint id) private {\r\n      uint t = getCurrentTime();\r\n      lastScheduleOf[id] = t;\r\n      stillPunks[id].hp = 15; // 15\r\n      stillPunks[id].nonce = t;\r\n      stillPunks[id].evil = 0;\r\n\r\n      int n = int(id%100) / 2 - 24; // punk4\r\n      if (id % 4 == 0) {\r\n        _addStillPunk(id, n, 25, t);\r\n      }\r\n      else if (id % 4 == 1) {\r\n        _addStillPunk(id, -n, -25, t);\r\n      }\r\n      else if (id % 4 == 2) {\r\n        _addStillPunk(id, 25, -n, t);\r\n      }\r\n      else if (id % 4 == 3) {\r\n        _addStillPunk(id, -25, n, t);\r\n      }\r\n      \r\n    }\r\n\r\n    // \r\n    function setNickName(string memory name) public {\r\n        nickNameOf[msg.sender] = name;\r\n    }\r\n\r\n    function setVIP(address[] calldata vips) public {\r\n        require(msg.sender == owner, \"Only admin can set VIPs.\");\r\n        uint length = vips.length;\r\n        // batch set\r\n        for (uint i=0; i<length; i++) {\r\n            isVIP[vips[i]] = true;\r\n        }\r\n    }\r\n\r\n    function freePunk() public view returns (uint, uint) {\r\n        uint i;\r\n        uint odd;\r\n        uint even;\r\n        for (i=2; i<=667; i=i+2) {\r\n          if (punkMaster[i] == address(0)) {\r\n            even = i;\r\n            break;\r\n          }\r\n        }\r\n        for (i=3; i<=667; i=i+2) {\r\n          if (punkMaster[i] == address(0)) {\r\n            odd = i;\r\n            break;\r\n          }\r\n        }\r\n        return (even, odd);\r\n    }\r\n\r\n    function gameInfo(address player) public view returns (GameInfo memory) {\r\n        (uint even, uint odd) = freePunk();\r\n        if (getCurrentTime() > 0) {\r\n          even = 0;\r\n          odd = deadPunk.length;\r\n        }\r\n        IERC20 squid = IERC20(squidAddress);\r\n        uint pool = squid.balanceOf(address(this));\r\n        uint squidBalance = squid.balanceOf(player);\r\n        uint squidApproved = squid.allowance(player, address(this));\r\n        IERC20 hep = IERC20(hepAddress);\r\n        uint hepBalance = hep.balanceOf(player);\r\n        uint hepApproved = hep.allowance(player, address(this));\r\n        IERC721 cherryNFT = IERC721(cherryNFTAddress);\r\n        uint nfts = cherryNFT.balanceOf(player);\r\n        bool vip = isVIP[player];\r\n        return GameInfo(even, odd, pool, squidBalance, squidApproved, hepBalance, hepApproved, nfts>0, vip);\r\n    }\r\n    \r\n    // \r\n    function _register(uint id) private {\r\n        require(!gameOver, 'game over');\r\n        require(punkOf[msg.sender] == 0, \"registered!\");\r\n        require(id <= 667, 'no position for now');\r\n        punkMaster[id] = msg.sender;\r\n        punkOf[msg.sender] = id;\r\n        _randseedOfPunk[id] = uint(keccak256(abi.encode(block.timestamp, msg.sender, _randNonce)));\r\n        _resetPunk(id);\r\n        totalPunk ++;\r\n    }\r\n\r\n    function registerWithPunk() public {\r\n        require(getCurrentTime() == 0, 'too late');\r\n        require(isVIP[msg.sender], 'You do not have loser punk');\r\n        (uint id, ) = freePunk();\r\n        _register(id);\r\n    }\r\n\r\n    function registerWithNFT() public {\r\n        require(getCurrentTime() == 0, 'too late');\r\n        IERC721 cherryNFT = IERC721(cherryNFTAddress);\r\n        require(cherryNFT.balanceOf(msg.sender) > 0, 'You do not have cherry NFT');\r\n        ( , uint id) = freePunk();\r\n        _register(id);\r\n    }\r\n\r\n    function registerWithSquid() public {\r\n        IERC20 squid = IERC20(squidAddress);\r\n        require(squid.transferFrom(msg.sender, address(this), 1e18), 'Failed to transfer the squid token');\r\n        (uint even, uint odd) = freePunk();\r\n        uint id = even < odd? even : odd;\r\n        _register(id);\r\n    }\r\n\r\n    // \r\n    function startGame(uint startBlock_) public {\r\n        require(msg.sender == owner, \"Only admin can start the game.\");\r\n        startBlock = startBlock_;\r\n    }\r\n\r\n\r\n    // punkApunkB\r\n    function _kill(uint A, uint B, uint t, int x, int y) private {\r\n      // B\r\n      _removeStillPunk(B);\r\n      // \r\n      lastKilled[punkMaster[B]] = KillEvent(A, B, t, x, y);\r\n      deadPunk.push(punkMaster[B]);\r\n      punkOf[punkMaster[B]] = 0;\r\n      punkMaster[B] = address(0);\r\n      // AB\r\n      stillPunks[A].gold += (stillPunks[B].gold + pendingGold(B));\r\n      stillPunks[B].gold = 0;\r\n      stillPunks[A].enemy = 0;\r\n      stillPunks[B].enemy = 0;\r\n      // A\r\n      stillPunks[A].evil ++;\r\n      _reward(punkMaster[A], 2e17);\r\n      \r\n\t    emit Killed(A, B);\r\n    }\r\n    \r\n    // punkApunkB\r\n    function _attack(uint A, uint B) private {\r\n      // 1d201d5\r\n      _randseedOfPunk[B] = uint(keccak256(abi.encode(A, _randseedOfPunk[B])));\r\n      uint dice = _randseedOfPunk[B] % 100;\r\n      //  10+AC \r\n      if (dice/5+1 < 10+AC) {\r\n        // 1d5\r\n        stillPunks[B].hp = (stillPunks[B].hp < (dice%5+1)? 0 : stillPunks[B].hp-(dice%5+1));\r\n\t\t    emit Attacked(A, B, dice%5+1);\r\n      }\r\n\t    else {\r\n\t\t    emit Attacked(A, B, 0);\r\n\t    }\r\n    }\r\n\r\n    // punkApunkB\r\n    function attack(uint A, uint B) public {\r\n      require(punkOf[msg.sender] == A, \"Get authorized first!\");\r\n      require(A > 0 && B > 0, \"Punk not exit!\");\r\n      require(punkMaster[B] != address(0), \"You attack a dead punk!\");\r\n      uint t = getCurrentTime();\r\n      Position memory posA = getPostion(A, t);\r\n      Position memory posB = getPostion(B, t);\r\n\t    require(stillPunks[B].showtime <= t, \"punk B is moving\");\r\n      require(t > stillPunks[B].nonce, \"punk B is just born!\");\r\n      //require(posA.x**2 < 625 && posA.y**2 < 625 && posB.x**2 < 625 && posB.y**2 < 625, \"cannot attack punks outside the game area\");\r\n      require((posA.x-posB.x)**2 <=1  &&  (posA.y-posB.y)**2 <=1, \"can only attack neighbors\");\r\n\r\n      if (stillPunks[A].enemy != B) {\r\n        stillPunks[A].enemy = B;\r\n      }\r\n\r\n      _attack(A, B);\r\n      if (stillPunks[B].hp == 0) {\r\n        _kill(A, B, t, posB.x, posB.y);\r\n      }\r\n      else {\r\n        // punkB\r\n        _attack(B, A);\r\n        if (stillPunks[A].hp == 0) {\r\n          _kill(B, A, t, posA.x, posA.y);\r\n        }\r\n      }\r\n    }\r\n\r\n    // HEP\r\n    function useHEP(uint id) public {\r\n      IERC20 hep = IERC20(hepAddress);\r\n      require(hep.transferFrom(msg.sender, address(this), 1), 'Failed to use hep');\r\n\r\n      // \r\n      //if (stillPunks[id].enemy != 0) {\r\n      //  leaveBattle(id);\r\n      //}\r\n\r\n      stillPunks[id].hp += 10;\r\n      if (stillPunks[id].hp > 15) {\r\n        stillPunks[id].hp = 15;\r\n      }\r\n    }\r\n\r\n    function _removeStillPunk(uint id) private {\r\n        uint oldNeighbor = stillPunks[id].oldNeighbor;\r\n        uint newNeighbor = stillPunks[id].newNeighbor;\r\n        int x = stillPunks[id].x;\r\n        int y = stillPunks[id].y;\r\n        if (oldNeighbor > 0) {\r\n          stillPunks[oldNeighbor].newNeighbor = newNeighbor;\r\n        }\r\n        else {\r\n          stillPunkOn[x][y] = newNeighbor;\r\n        }\r\n        if (newNeighbor > 0) {\r\n          stillPunks[newNeighbor].oldNeighbor = oldNeighbor;\r\n        }\r\n    }\r\n\r\n    function _addStillPunk(uint id, int x, int y, uint t) private {\r\n        require (getPunkOn(t, x, y) == 0 || x**2 == 625  ||  y**2 == 625, 'other punk already on it!');\r\n        uint latestNeighbor = stillPunkOn[x][y];\r\n        stillPunkOn[x][y] = id;\r\n        stillPunks[id].oldNeighbor = 0;\r\n        stillPunks[id].newNeighbor = latestNeighbor;\r\n        stillPunks[id].x = x;\r\n        stillPunks[id].y = y;\r\n        stillPunks[id].showtime = t;\r\n        if (latestNeighbor > 0) {\r\n          stillPunks[latestNeighbor].oldNeighbor = id;\r\n        }\r\n    }\r\n\r\n    function _addMovingPunk(uint id, uint t, int x, int y) private {\r\n        movingPunksOn[t][x][y].punkId = id;\r\n        movingPunksOn[t][x][y].punkNonce = stillPunks[id].nonce;\r\n        movingPunks[id][t].x = x;\r\n        movingPunks[id][t].y = y;\r\n        // \r\n        uint gold = pendingGold(id);\r\n        if (gold > 0) {\r\n          stillPunks[id].gold += gold;\r\n        }\r\n    }\r\n\r\n\r\n\r\n    // punk\r\n    function scheduleAction(uint id, ActionChoices action) public {\r\n        require(punkOf[msg.sender] == id, \"Get authorized first!\");\r\n        require(id > 0, \"Punk not exit!\");\r\n        uint currentTime = getCurrentTime();\r\n        if (lastScheduleOf[id] < currentTime) {\r\n          lastScheduleOf[id] = currentTime;\r\n        }\r\n        uint t = lastScheduleOf[id];\r\n        int x = stillPunks[id].x;\r\n        int y = stillPunks[id].y;\r\n        // remove this punk from still punks in (x, y) \r\n        _removeStillPunk(id);\r\n        _addMovingPunk(id, t, x, y);\r\n        if (action == ActionChoices.GoLeft) {\r\n          _addStillPunk(id, x-1, y, t+1);\r\n        }\r\n        if (action == ActionChoices.GoRight) {\r\n          _addStillPunk(id, x+1, y, t+1);\r\n        }\r\n        if (action == ActionChoices.GoUp) {\r\n          _addStillPunk(id, x, y+1, t+1);\r\n        }\r\n        if (action == ActionChoices.GoDown) {\r\n          _addStillPunk(id, x, y-1, t+1);\r\n        }\r\n        if (action == ActionChoices.GoLeftUp) {\r\n          _addStillPunk(id, x-1, y+1, t+1);\r\n        }\r\n        if (action == ActionChoices.GoLeftDown) {\r\n          _addStillPunk(id, x-1, y-1, t+1);\r\n        }\r\n        if (action == ActionChoices.GoRightUp) {\r\n          _addStillPunk(id, x+1, y+1, t+1);\r\n        }\r\n        if (action == ActionChoices.GoRightDown) {\r\n          _addStillPunk(id, x+1, y-1, t+1);\r\n        }\r\n        lastScheduleOf[id] ++;\r\n        emit ActionCommitted(id, lastScheduleOf[id], action);\r\n    }\r\n\r\n    function getCurrentTime() public view returns (uint) {\r\n      if (startBlock == 0 || startBlock > block.number) {\r\n        return 0;\r\n      }\r\n      uint time = (block.number - startBlock) / blockPerRound + 1;\r\n      return time;\r\n    }\r\n\r\n    function getPunkInfo(uint id) public view returns (PunkInfo memory) {\r\n      uint t = getCurrentTime();\r\n      Position memory pos = getPostion(id, t);\r\n      address player = punkMaster[id];\r\n      uint totalGold = stillPunks[id].gold + pendingGold(id);\r\n      bool isMoving = (t == stillPunks[id].nonce) || (stillPunks[id].showtime > t);\r\n      return PunkInfo(stillPunks[id].oldNeighbor, stillPunks[id].newNeighbor, pos.x, pos.y, isMoving, totalGold, stillPunks[id].hp, stillPunks[id].evil, _randseedOfPunk[id], player, nickNameOf[player]);\r\n    }\r\n\r\n    function getPunkOn(uint t, int x, int y) public view returns (uint) {\r\n      if (stillPunkOn[x][y] != 0  && stillPunks[stillPunkOn[x][y]].showtime <= t) {\r\n        return stillPunkOn[x][y];\r\n      }\r\n      else {\r\n        uint id = movingPunksOn[t][x][y].punkId;\r\n        if (movingPunksOn[t][x][y].punkNonce == stillPunks[id].nonce) {\r\n          return id;\r\n        }\r\n      }\r\n      return 0;\r\n    }\r\n\r\n    function getPostion(uint id, uint t) public view returns (Position memory) {\r\n      if (lastScheduleOf[id] > t) {\r\n        return Position(movingPunks[id][t].x, movingPunks[id][t].y);\r\n      }\r\n      else {\r\n        return Position(stillPunks[id].x, stillPunks[id].y);\r\n      }\r\n    }\r\n\r\n    function getCurrentStatus(uint id) public view returns (TimeSpace memory) {\r\n      uint time = getCurrentTime();\r\n      Position memory pos = getPostion(id, time);\r\n      return TimeSpace(time, pos.x, pos.y);\r\n    }\r\n\r\n    function getScheduleInfo(uint id) public view returns (TimeSpace memory) {\r\n      uint time = getCurrentTime();\r\n      if (lastScheduleOf[id] > time) {\r\n        time = lastScheduleOf[id];\r\n      }\r\n      return TimeSpace(time, stillPunks[id].x, stillPunks[id].y);\r\n    }\r\n\r\n    function getGoldsofAllPunk() public view returns (uint[667] memory) {\r\n      uint[667] memory golds;\r\n      for (uint i=0; i<667; i++) {\r\n        golds[i] = stillPunks[i+1].gold + pendingGold(i+1);\r\n      }\r\n      return golds;\r\n    }\r\n\r\n    function getProductivity(int x, int y) public pure returns (uint) {\r\n      if (x == 0 && y == 0) {\r\n        return 100;\r\n      }\r\n      else if (x**2 <= 1  &&  y**2 <= 1) {\r\n        return 25;\r\n      }\r\n      else if (x**2 <= 9  &&  y**2 <= 9) {\r\n        return 10;\r\n      }\r\n      else if (x**2 <= 36  &&  y**2 <= 36) {\r\n        return 5;\r\n      }\r\n      else if (x**2 <= 100  &&  y**2 <= 100) {\r\n        return 3;\r\n      }\r\n      else if (x**2 <= 225  &&  y**2 <= 225) {\r\n        return 2;\r\n      }\r\n      else if (x**2 <= 576  &&  y**2 <= 576) {\r\n        return 1;\r\n      }\r\n      else {\r\n        return 0;\r\n      }\r\n    }\r\n\r\n    function pendingGold(uint id) public view returns (uint) {\r\n      uint time = getCurrentTime();\r\n      if (stillPunks[id].showtime < time) {\r\n        uint productivity = getProductivity(stillPunks[id].x, stillPunks[id].y);\r\n        return (time - stillPunks[id].showtime) * productivity * rewardsPerRound;\r\n      }\r\n      else {\r\n        return 0;\r\n      }\r\n    }\r\n\r\n\r\n    function _reward(address player, uint amount) private {\r\n        require(!gameOver, 'game over');\r\n        IERC20 squid = IERC20(squidAddress);\r\n        uint balance = squid.balanceOf(address(this));\r\n        if (balance <= amount) {\r\n          squid.transfer(player, balance);\r\n          gameOver = true;\r\n        }\r\n        else {\r\n          squid.transfer(player, amount);\r\n        }\r\n    }\r\n\r\n    // \r\n    function claimRewards() public {\r\n        uint id = punkOf[msg.sender];\r\n        require(id > 0, \"Punk not exit!\");\r\n        uint t = getCurrentTime();\r\n        Position memory pos = getPostion(id, t);\r\n        require(pos.x**2 == 625  ||  pos.y**2 == 625, 'go to border to claim your reward');\r\n        _reward(msg.sender, stillPunks[id].gold);\r\n        stillPunks[id].gold = 0;\r\n        // \r\n        _removeStillPunk(id);\r\n        punkOf[punkMaster[id]] = 0;\r\n        punkMaster[id] = address(0);\r\n    }\r\n\r\n}\r\n",
  "sourcePath": "C:/Users/Weixuan/Documents/github/RogueLand/contracts/RogueLand.sol",
  "compiler": {
    "name": "solc",
    "version": "0.8.0+commit.c7dfd78e.Emscripten.clang"
  },
  "schemaVersion": "3.4.0",
  "updatedAt": "2021-11-17T06:25:19.679Z",
  "networkType": "ethereum",
  "devdoc": {
    "kind": "dev",
    "methods": {},
    "version": 1
  },
  "userdoc": {
    "kind": "user",
    "methods": {},
    "version": 1
  }
}