{
  "contractName": "RogueLand",
  "abi": [
    {
      "inputs": [
        {
          "internalType": "address",
          "name": "nftAddress_",
          "type": "address"
        }
      ],
      "stateMutability": "nonpayable",
      "type": "constructor"
    },
    {
      "anonymous": false,
      "inputs": [
        {
          "indexed": true,
          "internalType": "uint256",
          "name": "punkId",
          "type": "uint256"
        },
        {
          "indexed": true,
          "internalType": "uint256",
          "name": "time",
          "type": "uint256"
        },
        {
          "indexed": false,
          "internalType": "enum RogueLand.ActionChoices",
          "name": "action",
          "type": "uint8"
        }
      ],
      "name": "ActionCommitted",
      "type": "event"
    },
    {
      "inputs": [],
      "name": "activeRound",
      "outputs": [
        {
          "internalType": "uint256",
          "name": "",
          "type": "uint256"
        }
      ],
      "stateMutability": "view",
      "type": "function",
      "constant": true
    },
    {
      "inputs": [
        {
          "internalType": "address",
          "name": "",
          "type": "address"
        }
      ],
      "name": "authorizerOf",
      "outputs": [
        {
          "internalType": "uint256",
          "name": "id",
          "type": "uint256"
        },
        {
          "internalType": "string",
          "name": "name",
          "type": "string"
        },
        {
          "internalType": "address",
          "name": "holder",
          "type": "address"
        }
      ],
      "stateMutability": "view",
      "type": "function",
      "constant": true
    },
    {
      "inputs": [],
      "name": "blockPerRound",
      "outputs": [
        {
          "internalType": "uint256",
          "name": "",
          "type": "uint256"
        }
      ],
      "stateMutability": "view",
      "type": "function",
      "constant": true
    },
    {
      "inputs": [
        {
          "internalType": "uint256",
          "name": "",
          "type": "uint256"
        },
        {
          "internalType": "int256",
          "name": "",
          "type": "int256"
        },
        {
          "internalType": "int256",
          "name": "",
          "type": "int256"
        }
      ],
      "name": "events",
      "outputs": [
        {
          "internalType": "uint256",
          "name": "movingPunk",
          "type": "uint256"
        },
        {
          "internalType": "uint256",
          "name": "monster",
          "type": "uint256"
        }
      ],
      "stateMutability": "view",
      "type": "function",
      "constant": true
    },
    {
      "inputs": [
        {
          "internalType": "int256",
          "name": "",
          "type": "int256"
        },
        {
          "internalType": "int256",
          "name": "",
          "type": "int256"
        }
      ],
      "name": "goldOn",
      "outputs": [
        {
          "internalType": "uint256",
          "name": "amount",
          "type": "uint256"
        },
        {
          "internalType": "uint256",
          "name": "vaildTime",
          "type": "uint256"
        },
        {
          "internalType": "uint256",
          "name": "punkNumber",
          "type": "uint256"
        }
      ],
      "stateMutability": "view",
      "type": "function",
      "constant": true
    },
    {
      "inputs": [
        {
          "internalType": "uint256",
          "name": "",
          "type": "uint256"
        }
      ],
      "name": "lastScheduleOf",
      "outputs": [
        {
          "internalType": "uint256",
          "name": "",
          "type": "uint256"
        }
      ],
      "stateMutability": "view",
      "type": "function",
      "constant": true
    },
    {
      "inputs": [
        {
          "internalType": "uint256",
          "name": "",
          "type": "uint256"
        },
        {
          "internalType": "uint256",
          "name": "",
          "type": "uint256"
        }
      ],
      "name": "movingPunks",
      "outputs": [
        {
          "internalType": "uint256",
          "name": "newNeighbor",
          "type": "uint256"
        },
        {
          "internalType": "enum RogueLand.ActionChoices",
          "name": "action",
          "type": "uint8"
        },
        {
          "internalType": "int256",
          "name": "x",
          "type": "int256"
        },
        {
          "internalType": "int256",
          "name": "y",
          "type": "int256"
        }
      ],
      "stateMutability": "view",
      "type": "function",
      "constant": true
    },
    {
      "inputs": [],
      "name": "nftAddress",
      "outputs": [
        {
          "internalType": "address",
          "name": "",
          "type": "address"
        }
      ],
      "stateMutability": "view",
      "type": "function",
      "constant": true
    },
    {
      "inputs": [],
      "name": "owner",
      "outputs": [
        {
          "internalType": "address",
          "name": "",
          "type": "address"
        }
      ],
      "stateMutability": "view",
      "type": "function",
      "constant": true
    },
    {
      "inputs": [
        {
          "internalType": "int256",
          "name": "",
          "type": "int256"
        },
        {
          "internalType": "int256",
          "name": "",
          "type": "int256"
        }
      ],
      "name": "stillPunkOn",
      "outputs": [
        {
          "internalType": "uint256",
          "name": "",
          "type": "uint256"
        }
      ],
      "stateMutability": "view",
      "type": "function",
      "constant": true
    },
    {
      "inputs": [
        {
          "internalType": "uint256",
          "name": "",
          "type": "uint256"
        }
      ],
      "name": "stillPunks",
      "outputs": [
        {
          "internalType": "uint256",
          "name": "oldNeighbor",
          "type": "uint256"
        },
        {
          "internalType": "uint256",
          "name": "newNeighbor",
          "type": "uint256"
        },
        {
          "internalType": "int256",
          "name": "x",
          "type": "int256"
        },
        {
          "internalType": "int256",
          "name": "y",
          "type": "int256"
        },
        {
          "internalType": "uint256",
          "name": "showtime",
          "type": "uint256"
        },
        {
          "internalType": "uint256",
          "name": "gold",
          "type": "uint256"
        }
      ],
      "stateMutability": "view",
      "type": "function",
      "constant": true
    },
    {
      "inputs": [
        {
          "internalType": "int256",
          "name": "x1",
          "type": "int256"
        },
        {
          "internalType": "int256",
          "name": "y1",
          "type": "int256"
        },
        {
          "internalType": "int256",
          "name": "x2",
          "type": "int256"
        },
        {
          "internalType": "int256",
          "name": "y2",
          "type": "int256"
        },
        {
          "internalType": "uint256",
          "name": "t",
          "type": "uint256"
        }
      ],
      "name": "getEvents",
      "outputs": [
        {
          "components": [
            {
              "internalType": "uint256",
              "name": "movingPunk",
              "type": "uint256"
            },
            {
              "internalType": "uint256",
              "name": "monster",
              "type": "uint256"
            }
          ],
          "internalType": "struct RogueLand.Event[]",
          "name": "",
          "type": "tuple[]"
        }
      ],
      "stateMutability": "view",
      "type": "function",
      "constant": true
    },
    {
      "inputs": [
        {
          "internalType": "address",
          "name": "player_",
          "type": "address"
        },
        {
          "internalType": "uint256",
          "name": "id_",
          "type": "uint256"
        },
        {
          "internalType": "string",
          "name": "name_",
          "type": "string"
        }
      ],
      "name": "authorize",
      "outputs": [],
      "stateMutability": "nonpayable",
      "type": "function"
    },
    {
      "inputs": [
        {
          "internalType": "int256",
          "name": "x",
          "type": "int256"
        },
        {
          "internalType": "int256",
          "name": "y",
          "type": "int256"
        }
      ],
      "name": "isValidToPutGold",
      "outputs": [
        {
          "internalType": "bool",
          "name": "",
          "type": "bool"
        }
      ],
      "stateMutability": "view",
      "type": "function",
      "constant": true
    },
    {
      "inputs": [
        {
          "internalType": "int256",
          "name": "x",
          "type": "int256"
        },
        {
          "internalType": "int256",
          "name": "y",
          "type": "int256"
        },
        {
          "internalType": "uint256",
          "name": "amount",
          "type": "uint256"
        }
      ],
      "name": "putGold",
      "outputs": [],
      "stateMutability": "nonpayable",
      "type": "function"
    },
    {
      "inputs": [
        {
          "internalType": "int256",
          "name": "x",
          "type": "int256"
        },
        {
          "internalType": "int256",
          "name": "y",
          "type": "int256"
        }
      ],
      "name": "getGold",
      "outputs": [],
      "stateMutability": "nonpayable",
      "type": "function"
    },
    {
      "inputs": [
        {
          "internalType": "uint256",
          "name": "id",
          "type": "uint256"
        }
      ],
      "name": "getEvent",
      "outputs": [
        {
          "components": [
            {
              "internalType": "uint256",
              "name": "t",
              "type": "uint256"
            },
            {
              "internalType": "int256",
              "name": "x",
              "type": "int256"
            },
            {
              "internalType": "int256",
              "name": "y",
              "type": "int256"
            }
          ],
          "internalType": "struct RogueLand.StatusInfo",
          "name": "",
          "type": "tuple"
        }
      ],
      "stateMutability": "view",
      "type": "function",
      "constant": true
    },
    {
      "inputs": [
        {
          "internalType": "uint256",
          "name": "id",
          "type": "uint256"
        },
        {
          "internalType": "enum RogueLand.ActionChoices",
          "name": "action",
          "type": "uint8"
        }
      ],
      "name": "scheduleAction",
      "outputs": [],
      "stateMutability": "nonpayable",
      "type": "function"
    },
    {
      "inputs": [],
      "name": "getCurrentTime",
      "outputs": [
        {
          "internalType": "uint256",
          "name": "",
          "type": "uint256"
        }
      ],
      "stateMutability": "view",
      "type": "function",
      "constant": true
    },
    {
      "inputs": [
        {
          "internalType": "uint256",
          "name": "id",
          "type": "uint256"
        }
      ],
      "name": "getCurrentStatus",
      "outputs": [
        {
          "components": [
            {
              "internalType": "uint256",
              "name": "t",
              "type": "uint256"
            },
            {
              "internalType": "int256",
              "name": "x",
              "type": "int256"
            },
            {
              "internalType": "int256",
              "name": "y",
              "type": "int256"
            }
          ],
          "internalType": "struct RogueLand.StatusInfo",
          "name": "",
          "type": "tuple"
        }
      ],
      "stateMutability": "view",
      "type": "function",
      "constant": true
    },
    {
      "inputs": [
        {
          "internalType": "uint256",
          "name": "id",
          "type": "uint256"
        }
      ],
      "name": "getScheduleInfo",
      "outputs": [
        {
          "components": [
            {
              "internalType": "uint256",
              "name": "t",
              "type": "uint256"
            },
            {
              "internalType": "int256",
              "name": "x",
              "type": "int256"
            },
            {
              "internalType": "int256",
              "name": "y",
              "type": "int256"
            }
          ],
          "internalType": "struct RogueLand.StatusInfo",
          "name": "",
          "type": "tuple"
        }
      ],
      "stateMutability": "view",
      "type": "function",
      "constant": true
    },
    {
      "inputs": [
        {
          "internalType": "address",
          "name": "player_",
          "type": "address"
        }
      ],
      "name": "getAuthorizedId",
      "outputs": [
        {
          "internalType": "uint256",
          "name": "",
          "type": "uint256"
        }
      ],
      "stateMutability": "view",
      "type": "function",
      "constant": true
    },
    {
      "inputs": [
        {
          "internalType": "address",
          "name": "player_",
          "type": "address"
        }
      ],
      "name": "getPlayerInfo",
      "outputs": [
        {
          "components": [
            {
              "internalType": "uint256",
              "name": "id",
              "type": "uint256"
            },
            {
              "internalType": "string",
              "name": "name",
              "type": "string"
            },
            {
              "internalType": "string",
              "name": "uri",
              "type": "string"
            }
          ],
          "internalType": "struct RogueLand.PlayerInfo",
          "name": "",
          "type": "tuple"
        }
      ],
      "stateMutability": "view",
      "type": "function",
      "constant": true
    }
  ],
  "bytecode": "0x608060405260966003556101f46004553480156200001c57600080fd5b5060405162003bba38038062003bba8339818101604052810190620000429190620000e8565b336000806101000a81548173ffffffffffffffffffffffffffffffffffffffff021916908373ffffffffffffffffffffffffffffffffffffffff16021790555080600160006101000a81548173ffffffffffffffffffffffffffffffffffffffff021916908373ffffffffffffffffffffffffffffffffffffffff160217905550436002819055505062000162565b600081519050620000e28162000148565b92915050565b600060208284031215620000fb57600080fd5b60006200010b84828501620000d1565b91505092915050565b6000620001218262000128565b9050919050565b600073ffffffffffffffffffffffffffffffffffffffff82169050919050565b620001538162000114565b81146200015f57600080fd5b50565b613a4880620001726000396000f3fe608060405234801561001057600080fd5b506004361061014d5760003560e01c806359d103f8116100c35780638da5cb5b1161007c5780638da5cb5b1461040457806394b8763414610422578063a0aa13c614610452578063de4f8f1f14610482578063e727c817146104b7578063fb1677b1146104d35761014d565b806359d103f81461030a5780635bf8633a1461033a578063671a8b1a146103585780636d1884e0146103885780637336ffac146103b857806386ea9293146103e85761014d565b80632a166de3116101155780632a166de3146101f85780633c9aaf3f1461022857806340d68c111461025a5780634d71e725146102765780635288a86c146102a957806359328401146102da5761014d565b8063033d5e4d1461015257806311f0281e1461018257806312340473146101a0578063186b1bd1146101be57806329cb924d146101da575b600080fd5b61016c60048036038101906101679190612b0b565b610505565b60405161017991906131f5565b60405180910390f35b61018a61059a565b6040516101979190613210565b60405180910390f35b6101a86105a0565b6040516101b59190613210565b60405180910390f35b6101d860048036038101906101d39190612961565b6105a6565b005b6101e26107f9565b6040516101ef9190613210565b60405180910390f35b610212600480360381019061020d91906129c8565b610820565b60405161021f9190613210565b60405180910390f35b610242600480360381019061023d91906129c8565b610845565b60405161025193929190613338565b60405180910390f35b610274600480360381019061026f9190612b34565b61087c565b005b610290600480360381019061028b9190612bbf565b610f42565b6040516102a0949392919061322b565b60405180910390f35b6102c360048036038101906102be9190612b70565b610f8c565b6040516102d19291906132ae565b60405180910390f35b6102f460048036038101906102ef919061290f565b610fca565b60405161030191906131d3565b60405180910390f35b610324600480360381019061031f91906129c8565b611212565b604051610331919061309d565b60405180910390f35b610342611305565b60405161034f9190613060565b60405180910390f35b610372600480360381019061036d9190612b0b565b61132b565b60405161037f9190613210565b60405180910390f35b6103a2600480360381019061039d9190612b0b565b611343565b6040516103af91906131f5565b60405180910390f35b6103d260048036038101906103cd9190612a04565b611578565b6040516103df919061307b565b60405180910390f35b61040260048036038101906103fd91906129c8565b611941565b005b61040c611c7d565b6040516104199190613060565b60405180910390f35b61043c6004803603810190610437919061290f565b611ca1565b6040516104499190613210565b60405180910390f35b61046c60048036038101906104679190612b0b565b611f19565b60405161047991906131f5565b60405180910390f35b61049c60048036038101906104979190612b0b565b612009565b6040516104ae969594939291906132d7565b60405180910390f35b6104d160048036038101906104cc9190612a7b565b612045565b005b6104ed60048036038101906104e8919061290f565b6121a7565b6040516104fc93929190613270565b60405180910390f35b61050d6126d7565b60006105176107f9565b9050806007600085815260200190815260200160002054111561054b57600760008481526020019081526020016000205490505b6040518060600160405280828152602001600860008681526020019081526020016000206002015481526020016008600086815260200190815260200160002060030154815250915050919050565b60035481565b60045481565b6000600160009054906101000a900473ffffffffffffffffffffffffffffffffffffffff1690508073ffffffffffffffffffffffffffffffffffffffff16636352211e846040518263ffffffff1660e01b81526004016106069190613210565b60206040518083038186803b15801561061e57600080fd5b505afa158015610632573d6000803e3d6000fd5b505050506040513d601f19601f820116820180604052508101906106569190612938565b73ffffffffffffffffffffffffffffffffffffffff163373ffffffffffffffffffffffffffffffffffffffff16146106c3576040517f08c379a00000000000000000000000000000000000000000000000000000000081526004016106ba906131b3565b60405180910390fd5b60405180606001604052808481526020018381526020013373ffffffffffffffffffffffffffffffffffffffff16815250600560008673ffffffffffffffffffffffffffffffffffffffff1673ffffffffffffffffffffffffffffffffffffffff1681526020019081526020016000206000820151816000015560208201518160010190805190602001906107599291906126f8565b5060408201518160020160006101000a81548173ffffffffffffffffffffffffffffffffffffffff021916908373ffffffffffffffffffffffffffffffffffffffff1602179055509050506000600760008581526020019081526020016000205414156107f35760006107ca6107f9565b90508060076000868152602001908152602001600020819055506107f18460008084612279565b505b50505050565b6000806004546002544361080d91906136fc565b6108179190613520565b90508091505090565b6009602052816000526040600020602052806000526040600020600091509150505481565b600a602052816000526040600020602052806000526040600020600091509150508060000154908060010154908060020154905083565b81600560003373ffffffffffffffffffffffffffffffffffffffff1673ffffffffffffffffffffffffffffffffffffffff1681526020019081526020016000206000015414610900576040517f08c379a00000000000000000000000000000000000000000000000000000000081526004016108f790613153565b60405180910390fd5b600061090a6107f9565b90508060076000858152602001908152602001600020541015610940578060076000858152602001908152602001600020819055505b6000600760008581526020019081526020016000205490506000600860008681526020019081526020016000206002015490506000600860008781526020019081526020016000206003015490506109998683836124ad565b6109a68684848489612562565b600160088111156109e0577f4e487b7100000000000000000000000000000000000000000000000000000000600052602160045260246000fd5b856008811115610a19577f4e487b7100000000000000000000000000000000000000000000000000000000600052602160045260246000fd5b1415610a4457610a4386600184610a309190613668565b83600187610a3e91906134ca565b612279565b5b60026008811115610a7e577f4e487b7100000000000000000000000000000000000000000000000000000000600052602160045260246000fd5b856008811115610ab7577f4e487b7100000000000000000000000000000000000000000000000000000000600052602160045260246000fd5b1415610ae257610ae186600184610ace9190613436565b83600187610adc91906134ca565b612279565b5b60036008811115610b1c577f4e487b7100000000000000000000000000000000000000000000000000000000600052602160045260246000fd5b856008811115610b55577f4e487b7100000000000000000000000000000000000000000000000000000000600052602160045260246000fd5b1415610b8057610b7f8683600184610b6d9190613436565b600187610b7a91906134ca565b612279565b5b60046008811115610bba577f4e487b7100000000000000000000000000000000000000000000000000000000600052602160045260246000fd5b856008811115610bf3577f4e487b7100000000000000000000000000000000000000000000000000000000600052602160045260246000fd5b1415610c1e57610c1d8683600184610c0b9190613668565b600187610c1891906134ca565b612279565b5b60056008811115610c58577f4e487b7100000000000000000000000000000000000000000000000000000000600052602160045260246000fd5b856008811115610c91577f4e487b7100000000000000000000000000000000000000000000000000000000600052602160045260246000fd5b1415610cc857610cc786600184610ca89190613668565b600184610cb59190613436565b600187610cc291906134ca565b612279565b5b60066008811115610d02577f4e487b7100000000000000000000000000000000000000000000000000000000600052602160045260246000fd5b856008811115610d3b577f4e487b7100000000000000000000000000000000000000000000000000000000600052602160045260246000fd5b1415610d7257610d7186600184610d529190613668565b600184610d5f9190613668565b600187610d6c91906134ca565b612279565b5b60076008811115610dac577f4e487b7100000000000000000000000000000000000000000000000000000000600052602160045260246000fd5b856008811115610de5577f4e487b7100000000000000000000000000000000000000000000000000000000600052602160045260246000fd5b1415610e1c57610e1b86600184610dfc9190613436565b600184610e099190613436565b600187610e1691906134ca565b612279565b5b600880811115610e55577f4e487b7100000000000000000000000000000000000000000000000000000000600052602160045260246000fd5b856008811115610e8e577f4e487b7100000000000000000000000000000000000000000000000000000000600052602160045260246000fd5b1415610ec557610ec486600184610ea59190613436565b600184610eb29190613668565b600187610ebf91906134ca565b612279565b5b600760008781526020019081526020016000206000815480929190610ee990613864565b91905055506007600087815260200190815260200160002054867f6a2d17d8c21b88f2e1a453533160575a5702bd8b1f6492daff557c2ae2a34a5687604051610f3291906130b8565b60405180910390a3505050505050565b6006602052816000526040600020602052806000526040600020600091509150508060000154908060010160009054906101000a900460ff16908060020154908060030154905084565b600b60205282600052604060002060205281600052604060002060205280600052604060002060009250925050508060000154908060010154905082565b610fd261277e565b6000610fdd83611ca1565b1161101d576040517f08c379a000000000000000000000000000000000000000000000000000000000815260040161101490613133565b60405180910390fd5b6000600160009054906101000a900473ffffffffffffffffffffffffffffffffffffffff1690506000600560008573ffffffffffffffffffffffffffffffffffffffff1673ffffffffffffffffffffffffffffffffffffffff1681526020019081526020016000206000015490506000600560008673ffffffffffffffffffffffffffffffffffffffff1673ffffffffffffffffffffffffffffffffffffffff16815260200190815260200160002060010180546110da906137e9565b80601f0160208091040260200160405190810160405280929190818152602001828054611106906137e9565b80156111535780601f1061112857610100808354040283529160200191611153565b820191906000526020600020905b81548152906001019060200180831161113657829003601f168201915b5050505050905060008373ffffffffffffffffffffffffffffffffffffffff1663c87b56dd846040518263ffffffff1660e01b81526004016111959190613210565b60006040518083038186803b1580156111ad57600080fd5b505afa1580156111c1573d6000803e3d6000fd5b505050506040513d6000823e3d601f19601f820116820180604052508101906111ea9190612aca565b9050604051806060016040528084815260200183815260200182815250945050505050919050565b60008061121d6107f9565b905060006009600086815260200190815260200160002060008581526020019081526020016000205414801561128b57506000600b60008381526020019081526020016000206000868152602001908152602001600020600085815260200190815260200160002060000154145b80156112fc57506000600a600086815260200190815260200160002060008581526020019081526020016000206001015414806112fb5750600354600a60008681526020019081526020016000206000858152602001908152602001600020600101546112f891906134ca565b81115b5b91505092915050565b600160009054906101000a900473ffffffffffffffffffffffffffffffffffffffff1681565b60076020528060005260406000206000915090505481565b61134b6126d7565b60006113556107f9565b9050600060968211611368576000611376565b60968261137591906136fc565b5b905060006001600760008781526020019081526020016000205461139a91906136fc565b83106113c557600160076000878152602001908152602001600020546113c091906136fc565b6113c7565b825b905060008290505b81811161149a576000600660008881526020019081526020016000206000838152602001908152602001600020600201549050600060066000898152602001908152602001600020600084815260200190815260200160002060030154905082600a60008481526020019081526020016000206000838152602001908152602001600020600101541415611485576040518060600160405280848152602001838152602001828152509650505050505050611573565b5050808061149290613864565b9150506113cf565b506000600860008781526020019081526020016000206002015490506000600860008881526020019081526020016000206003015490506007600088815260200190815260200160002054600a6000848152602001908152602001600020600083815260200190815260200160002060010154141561154d576040518060600160405280600760008a81526020019081526020016000205481526020018381526020018281525095505050505050611573565b604051806060016040528060008152602001600081526020016000815250955050505050505b919050565b606085841215801561158a5750848312155b6115c9576040517f08c379a00000000000000000000000000000000000000000000000000000000081526004016115c0906130f3565b60405180910390fd5b6000600186856115d99190613668565b6115e39190613436565b600188876115f19190613668565b6115fb9190613436565b6116059190613551565b67ffffffffffffffff811115611644577f4e487b7100000000000000000000000000000000000000000000000000000000600052604160045260246000fd5b60405190808252806020026020018201604052801561167d57816020015b61166a61279f565b8152602001906001900390816116625790505b5090506000808890505b8681136119325760008890505b86811361191e57600b60008781526020019081526020016000206000838152602001908152602001600020600082815260200190815260200160002060405180604001604052908160008201548152602001600182015481525050848481518110611728577f4e487b7100000000000000000000000000000000000000000000000000000000600052603260045260246000fd5b60200260200101819052506000600b600088815260200190815260200160002060008481526020019081526020016000206000838152602001908152602001600020600001541480156117b5575085600860006009600086815260200190815260200160002060008581526020019081526020016000205481526020019081526020016000206004015411155b156118295760096000838152602001908152602001600020600082815260200190815260200160002054848481518110611818577f4e487b7100000000000000000000000000000000000000000000000000000000600052603260045260246000fd5b602002602001015160000181815250505b6000600a60008481526020019081526020016000206000838152602001908152602001600020600101541480611886575085600a600084815260200190815260200160002060008381526020019081526020016000206001015410155b156118fd57600a60008381526020019081526020016000206000828152602001908152602001600020600001548484815181106118ec577f4e487b7100000000000000000000000000000000000000000000000000000000600052603260045260246000fd5b602002602001015160200181815250505b828061190890613864565b93505080806119169061381b565b915050611694565b50808061192a9061381b565b915050611687565b50819250505095945050505050565b6000600a6000848152602001908152602001600020600083815260200190815260200160002060020154116119ab576040517f08c379a00000000000000000000000000000000000000000000000000000000081526004016119a2906130d3565b60405180910390fd5b6000600a60008481526020019081526020016000206000838152602001908152602001600020600101549050806119e06107f9565b1015611a21576040517f08c379a0000000000000000000000000000000000000000000000000000000008152600401611a1890613193565b60405180910390fd5b60006009600085815260200190815260200160002060008481526020019081526020016000205490505b60008114611af757600a6000858152602001908152602001600020600084815260200190815260200160002060020154600a6000868152602001908152602001600020600085815260200190815260200160002060000154611aad9190613520565b600860008381526020019081526020016000206005016000828254611ad291906134ca565b9250508190555060086000828152602001908152602001600020600101549050611a4b565b600b6000838152602001908152602001600020600085815260200190815260200160002060008481526020019081526020016000206000015490505b60008114611bf057600a6000858152602001908152602001600020600084815260200190815260200160002060020154600a6000868152602001908152602001600020600085815260200190815260200160002060000154611b959190613520565b600860008381526020019081526020016000206005016000828254611bba91906134ca565b92505081905550600660008281526020019081526020016000206000838152602001908152602001600020600001549050611b33565b6000600a60008681526020019081526020016000206000858152602001908152602001600020600101819055506000600a60008681526020019081526020016000206000858152602001908152602001600020600201819055506000600a600086815260200190815260200160002060008581526020019081526020016000206000018190555050505050565b60008054906101000a900473ffffffffffffffffffffffffffffffffffffffff1681565b600080600160009054906101000a900473ffffffffffffffffffffffffffffffffffffffff169050600073ffffffffffffffffffffffffffffffffffffffff16600560008573ffffffffffffffffffffffffffffffffffffffff1673ffffffffffffffffffffffffffffffffffffffff16815260200190815260200160002060020160009054906101000a900473ffffffffffffffffffffffffffffffffffffffff1673ffffffffffffffffffffffffffffffffffffffff161480611ebe57508073ffffffffffffffffffffffffffffffffffffffff16636352211e600560008673ffffffffffffffffffffffffffffffffffffffff1673ffffffffffffffffffffffffffffffffffffffff168152602001908152602001600020600001546040518263ffffffff1660e01b8152600401611ddc9190613210565b60206040518083038186803b158015611df457600080fd5b505afa158015611e08573d6000803e3d6000fd5b505050506040513d601f19601f82011682018060405250810190611e2c9190612938565b73ffffffffffffffffffffffffffffffffffffffff16600560008573ffffffffffffffffffffffffffffffffffffffff1673ffffffffffffffffffffffffffffffffffffffff16815260200190815260200160002060020160009054906101000a900473ffffffffffffffffffffffffffffffffffffffff1673ffffffffffffffffffffffffffffffffffffffff1614155b15611ecd576000915050611f14565b600560008473ffffffffffffffffffffffffffffffffffffffff1673ffffffffffffffffffffffffffffffffffffffff168152602001908152602001600020600001549150505b919050565b611f216126d7565b6000611f2b6107f9565b90508060076000858152602001908152602001600020541115611fb957604051806060016040528082815260200160066000868152602001908152602001600020600084815260200190815260200160002060020154815260200160066000868152602001908152602001600020600084815260200190815260200160002060030154815250915050612004565b60405180606001604052808281526020016008600086815260200190815260200160002060020154815260200160086000868152602001908152602001600020600301548152509150505b919050565b60086020528060005260406000206000915090508060000154908060010154908060020154908060030154908060040154908060050154905086565b61204f8383611212565b61208e576040517f08c379a000000000000000000000000000000000000000000000000000000000815260040161208590613113565b60405180910390fd5b60008054906101000a900473ffffffffffffffffffffffffffffffffffffffff1673ffffffffffffffffffffffffffffffffffffffff163373ffffffffffffffffffffffffffffffffffffffff161461211c576040517f08c379a000000000000000000000000000000000000000000000000000000000815260040161211390613173565b60405180910390fd5b6000600a60008581526020019081526020016000206000848152602001908152602001600020600101819055506000600a600085815260200190815260200160002060008481526020019081526020016000206002018190555080600a6000858152602001908152602001600020600084815260200190815260200160002060000181905550505050565b60056020528060005260406000206000915090508060000154908060010180546121d0906137e9565b80601f01602080910402602001604051908101604052809291908181526020018280546121fc906137e9565b80156122495780601f1061221e57610100808354040283529160200191612249565b820191906000526020600020905b81548152906001019060200180831161222c57829003601f168201915b5050505050908060020160009054906101000a900473ffffffffffffffffffffffffffffffffffffffff16905083565b60006009600085815260200190815260200160002060008481526020019081526020016000205490508460096000868152602001908152602001600020600085815260200190815260200160002081905550600060086000878152602001908152602001600020600001819055508060086000878152602001908152602001600020600101819055508360086000878152602001908152602001600020600201819055508260086000878152602001908152602001600020600301819055508160086000878152602001908152602001600020600401819055506000811115612378578460086000838152602001908152602001600020600001819055505b6000600a600086815260200190815260200160002060008581526020019081526020016000206001015414806123d5575081600a600086815260200190815260200160002060008581526020019081526020016000206001015410155b156124a65781600a6000868152602001908152602001600020600085815260200190815260200160002060010154141561244b57600a60008581526020019081526020016000206000848152602001908152602001600020600201600081548092919061244190613864565b9190505550612479565b6001600a60008681526020019081526020016000206000858152602001908152602001600020600201819055505b81600a60008681526020019081526020016000206000858152602001908152602001600020600101819055505b5050505050565b600060086000858152602001908152602001600020600001549050600060086000868152602001908152602001600020600101549050600082111561250c57806008600084815260200190815260200160002060010181905550612536565b80600960008681526020019081526020016000206000858152602001908152602001600020819055505b600081111561255b578160086000838152602001908152602001600020600001819055505b5050505050565b600b600085815260200190815260200160002060008481526020019081526020016000206000838152602001908152602001600020600001546006600087815260200190815260200160002060008681526020019081526020016000206000018190555084600b600086815260200190815260200160002060008581526020019081526020016000206000848152602001908152602001600020600001819055508060066000878152602001908152602001600020600086815260200190815260200160002060010160006101000a81548160ff02191690836008811115612673577f4e487b7100000000000000000000000000000000000000000000000000000000600052602160045260246000fd5b0217905550826006600087815260200190815260200160002060008681526020019081526020016000206002018190555081600660008781526020019081526020016000206000868152602001908152602001600020600301819055505050505050565b60405180606001604052806000815260200160008152602001600081525090565b828054612704906137e9565b90600052602060002090601f016020900481019282612726576000855561276d565b82601f1061273f57805160ff191683800117855561276d565b8280016001018555821561276d579182015b8281111561276c578251825591602001919060010190612751565b5b50905061277a91906127b9565b5090565b60405180606001604052806000815260200160608152602001606081525090565b604051806040016040528060008152602001600081525090565b5b808211156127d25760008160009055506001016127ba565b5090565b60006127e96127e4846133a0565b61336f565b90508281526020810184848401111561280157600080fd5b61280c8482856137a7565b509392505050565b6000612827612822846133a0565b61336f565b90508281526020810184848401111561283f57600080fd5b61284a8482856137b6565b509392505050565b600081359050612861816139bd565b92915050565b600081519050612876816139bd565b92915050565b60008135905061288b816139d4565b92915050565b6000813590506128a0816139e4565b92915050565b600082601f8301126128b757600080fd5b81356128c78482602086016127d6565b91505092915050565b600082601f8301126128e157600080fd5b81516128f1848260208601612814565b91505092915050565b600081359050612909816139fb565b92915050565b60006020828403121561292157600080fd5b600061292f84828501612852565b91505092915050565b60006020828403121561294a57600080fd5b600061295884828501612867565b91505092915050565b60008060006060848603121561297657600080fd5b600061298486828701612852565b9350506020612995868287016128fa565b925050604084013567ffffffffffffffff8111156129b257600080fd5b6129be868287016128a6565b9150509250925092565b600080604083850312156129db57600080fd5b60006129e985828601612891565b92505060206129fa85828601612891565b9150509250929050565b600080600080600060a08688031215612a1c57600080fd5b6000612a2a88828901612891565b9550506020612a3b88828901612891565b9450506040612a4c88828901612891565b9350506060612a5d88828901612891565b9250506080612a6e888289016128fa565b9150509295509295909350565b600080600060608486031215612a9057600080fd5b6000612a9e86828701612891565b9350506020612aaf86828701612891565b9250506040612ac0868287016128fa565b9150509250925092565b600060208284031215612adc57600080fd5b600082015167ffffffffffffffff811115612af657600080fd5b612b02848285016128d0565b91505092915050565b600060208284031215612b1d57600080fd5b6000612b2b848285016128fa565b91505092915050565b60008060408385031215612b4757600080fd5b6000612b55858286016128fa565b9250506020612b668582860161287c565b9150509250929050565b600080600060608486031215612b8557600080fd5b6000612b93868287016128fa565b9350506020612ba486828701612891565b9250506040612bb586828701612891565b9150509250925092565b60008060408385031215612bd257600080fd5b6000612be0858286016128fa565b9250506020612bf1858286016128fa565b9150509250929050565b6000612c078383612f7a565b60408301905092915050565b612c1c81613730565b82525050565b6000612c2d826133e0565b612c378185613403565b9350612c42836133d0565b8060005b83811015612c73578151612c5a8882612bfb565b9750612c65836133f6565b925050600181019050612c46565b5085935050505092915050565b612c8981613742565b82525050565b612c9881613795565b82525050565b612ca781613761565b82525050565b612cb681613761565b82525050565b6000612cc7826133eb565b612cd18185613414565b9350612ce18185602086016137b6565b612cea81613998565b840191505092915050565b6000612d00826133eb565b612d0a8185613425565b9350612d1a8185602086016137b6565b612d2381613998565b840191505092915050565b6000612d3b600e83613425565b91507f4e6f7468696e6720746f20646f2e0000000000000000000000000000000000006000830152602082019050919050565b6000612d7b600d83613425565b91507f496e76616c696420696e646578000000000000000000000000000000000000006000830152602082019050919050565b6000612dbb602183613425565b91507f5468697320706c61636520616c72656164792068616420736f6d6520676f6c6460008301527f2e000000000000000000000000000000000000000000000000000000000000006020830152604082019050919050565b6000612e21600e83613425565b91507f6e6f7420617574686f72697a65640000000000000000000000000000000000006000830152602082019050919050565b6000612e61601583613425565b91507f47657420617574686f72697a65642066697273742100000000000000000000006000830152602082019050919050565b6000612ea1601883613425565b91507f4f6e6c792061646d696e2063616e2070757420676f6c642e00000000000000006000830152602082019050919050565b6000612ee1601883613425565b91507f576169742c2069742773206e6f74207468652074696d652e00000000000000006000830152602082019050919050565b6000612f21602283613425565b91507f4f6e6c79206f776e65722063616e20617574686f72697a65206869732070756e60008301527f6b210000000000000000000000000000000000000000000000000000000000006020830152604082019050919050565b604082016000820151612f906000850182613042565b506020820151612fa36020850182613042565b50505050565b6000606083016000830151612fc16000860182613042565b5060208301518482036020860152612fd98282612cbc565b91505060408301518482036040860152612ff38282612cbc565b9150508091505092915050565b6060820160008201516130166000850182613042565b5060208201516130296020850182612c9e565b50604082015161303c6040850182612c9e565b50505050565b61304b8161378b565b82525050565b61305a8161378b565b82525050565b60006020820190506130756000830184612c13565b92915050565b600060208201905081810360008301526130958184612c22565b905092915050565b60006020820190506130b26000830184612c80565b92915050565b60006020820190506130cd6000830184612c8f565b92915050565b600060208201905081810360008301526130ec81612d2e565b9050919050565b6000602082019050818103600083015261310c81612d6e565b9050919050565b6000602082019050818103600083015261312c81612dae565b9050919050565b6000602082019050818103600083015261314c81612e14565b9050919050565b6000602082019050818103600083015261316c81612e54565b9050919050565b6000602082019050818103600083015261318c81612e94565b9050919050565b600060208201905081810360008301526131ac81612ed4565b9050919050565b600060208201905081810360008301526131cc81612f14565b9050919050565b600060208201905081810360008301526131ed8184612fa9565b905092915050565b600060608201905061320a6000830184613000565b92915050565b60006020820190506132256000830184613051565b92915050565b60006080820190506132406000830187613051565b61324d6020830186612c8f565b61325a6040830185612cad565b6132676060830184612cad565b95945050505050565b60006060820190506132856000830186613051565b81810360208301526132978185612cf5565b90506132a66040830184612c13565b949350505050565b60006040820190506132c36000830185613051565b6132d06020830184613051565b9392505050565b600060c0820190506132ec6000830189613051565b6132f96020830188613051565b6133066040830187612cad565b6133136060830186612cad565b6133206080830185613051565b61332d60a0830184613051565b979650505050505050565b600060608201905061334d6000830186613051565b61335a6020830185613051565b6133676040830184613051565b949350505050565b6000604051905081810181811067ffffffffffffffff8211171561339657613395613969565b5b8060405250919050565b600067ffffffffffffffff8211156133bb576133ba613969565b5b601f19601f8301169050602081019050919050565b6000819050602082019050919050565b600081519050919050565b600081519050919050565b6000602082019050919050565b600082825260208201905092915050565b600082825260208201905092915050565b600082825260208201905092915050565b600061344182613761565b915061344c83613761565b9250817f7fffffffffffffffffffffffffffffffffffffffffffffffffffffffffffffff03831360008312151615613487576134866138ad565b5b817f80000000000000000000000000000000000000000000000000000000000000000383126000831216156134bf576134be6138ad565b5b828201905092915050565b60006134d58261378b565b91506134e08361378b565b9250827fffffffffffffffffffffffffffffffffffffffffffffffffffffffffffffffff03821115613515576135146138ad565b5b828201905092915050565b600061352b8261378b565b91506135368361378b565b925082613546576135456138dc565b5b828204905092915050565b600061355c82613761565b915061356783613761565b9250827f7fffffffffffffffffffffffffffffffffffffffffffffffffffffffffffffff04821160008413600084131616156135a6576135a56138ad565b5b817f800000000000000000000000000000000000000000000000000000000000000005831260008412600084131616156135e3576135e26138ad565b5b827f800000000000000000000000000000000000000000000000000000000000000005821260008413600084121616156136205761361f6138ad565b5b827f7fffffffffffffffffffffffffffffffffffffffffffffffffffffffffffffff058212600084126000841216161561365d5761365c6138ad565b5b828202905092915050565b600061367382613761565b915061367e83613761565b9250827f8000000000000000000000000000000000000000000000000000000000000000018212600084121516156136b9576136b86138ad565b5b827f7fffffffffffffffffffffffffffffffffffffffffffffffffffffffffffffff0182136000841216156136f1576136f06138ad565b5b828203905092915050565b60006137078261378b565b91506137128361378b565b925082821015613725576137246138ad565b5b828203905092915050565b600061373b8261376b565b9050919050565b60008115159050919050565b600081905061375c826139a9565b919050565b6000819050919050565b600073ffffffffffffffffffffffffffffffffffffffff82169050919050565b6000819050919050565b60006137a08261374e565b9050919050565b82818337600083830152505050565b60005b838110156137d45780820151818401526020810190506137b9565b838111156137e3576000848401525b50505050565b6000600282049050600182168061380157607f821691505b602082108114156138155761381461393a565b5b50919050565b600061382682613761565b91507f7fffffffffffffffffffffffffffffffffffffffffffffffffffffffffffffff821415613859576138586138ad565b5b600182019050919050565b600061386f8261378b565b91507fffffffffffffffffffffffffffffffffffffffffffffffffffffffffffffffff8214156138a2576138a16138ad565b5b600182019050919050565b7f4e487b7100000000000000000000000000000000000000000000000000000000600052601160045260246000fd5b7f4e487b7100000000000000000000000000000000000000000000000000000000600052601260045260246000fd5b7f4e487b7100000000000000000000000000000000000000000000000000000000600052602160045260246000fd5b7f4e487b7100000000000000000000000000000000000000000000000000000000600052602260045260246000fd5b7f4e487b7100000000000000000000000000000000000000000000000000000000600052604160045260246000fd5b6000601f19601f8301169050919050565b600981106139ba576139b961390b565b5b50565b6139c681613730565b81146139d157600080fd5b50565b600981106139e157600080fd5b50565b6139ed81613761565b81146139f857600080fd5b50565b613a048161378b565b8114613a0f57600080fd5b5056fea264697066735822122057690bdfd1ad8fe6448b8c7ec1ed1c094f316a55e047790bdeefa46db63dce4e64736f6c63430008000033",
  "immutableReferences": {},
  "source": "// SPDX-License-Identifier: MIT\r\npragma solidity ^0.8.0;\r\n\r\nimport \"@openzeppelin/contracts/token/ERC721/extensions/IERC721Metadata.sol\";\r\n\r\ncontract RogueLand {\r\n    \r\n    enum ActionChoices { SitStill, GoLeft, GoRight, GoUp, GoDown, GoLeftUp, GoLeftDown, GoRightUp, GoRightDown }\r\n\t\r\n    struct Event {\r\n      uint movingPunk;\r\n      uint monster;\r\n    }\r\n\r\n    struct Gold {\r\n      uint amount;\r\n      uint vaildTime;\r\n      uint punkNumber;\r\n    }\r\n  \r\n    struct Authorizer {\r\n      uint id;\r\n      string name;\r\n      address holder;\r\n    }\r\n\r\n    struct PlayerInfo {\r\n      uint id;\r\n      string name;\r\n      string uri;\r\n    }\r\n\r\n    struct StatusInfo {\r\n      uint t;\r\n      int x;\r\n      int y;\r\n    }\r\n\r\n    struct MovingPunk {\r\n      uint newNeighbor;\r\n      ActionChoices action;\r\n      int x;\r\n      int y;\r\n    }\r\n\r\n    struct StillPunk {\r\n      uint oldNeighbor;\r\n      uint newNeighbor;\r\n      int x;\r\n      int y;\r\n      uint showtime;\r\n      uint gold;\r\n    }\r\n\r\n    address public owner;\r\n    address public nftAddress;\r\n\r\n    uint private _startBlock; // \r\n    uint public activeRound = 150;\r\n    uint public blockPerRound = 500;\r\n  \r\n    // \r\n    mapping (address => Authorizer) public authorizerOf;\r\n\r\n    // punk\r\n    mapping (uint => mapping (uint => MovingPunk)) public movingPunks;\r\n\r\n    // punk\r\n    mapping (uint => uint) public lastScheduleOf;\r\n\r\n    // punk\r\n    mapping (uint => StillPunk) public stillPunks;\r\n\r\n    // punk\r\n    mapping (int => mapping (int => uint)) public stillPunkOn;\r\n\r\n    // \r\n    mapping (int => mapping (int => Gold)) public goldOn;\r\n  \r\n    // \r\n    mapping (uint => mapping (int => mapping (int => Event))) public events;\r\n\r\n    event ActionCommitted(uint indexed punkId, uint indexed time, ActionChoices action);\r\n  \r\n    constructor(address nftAddress_) {\r\n        owner = msg.sender;\r\n        nftAddress = nftAddress_;\r\n        _startBlock = block.number;\r\n    }\r\n\r\n    function getEvents(int x1, int y1, int x2, int y2, uint t) public view returns (Event[] memory) {\r\n        require(x2 >= x1 && y2 >= y1, \"Invalid index\");\r\n        Event[] memory selectEvents = new Event[](uint((x2-x1+1)*(y2-y1+1)));\r\n        uint i = 0;\r\n        for (int x=x1; x<=x2; x++) {\r\n          for (int y=y1; y<=y2; y++) {\r\n            selectEvents[i] = events[t][x][y];\r\n            if (events[t][x][y].movingPunk == 0 && stillPunks[stillPunkOn[x][y]].showtime <= t) {\r\n              selectEvents[i].movingPunk = stillPunkOn[x][y];\r\n            }\r\n            if (goldOn[x][y].vaildTime == 0 || goldOn[x][y].vaildTime >= t) {\r\n              selectEvents[i].monster = goldOn[x][y].amount;\r\n            }\r\n            i ++;\r\n          }\r\n        }\r\n        return selectEvents;\r\n    }\r\n\r\n    // punk\r\n    function authorize(address player_, uint id_, string memory name_) public {\r\n        IERC721Metadata nft = IERC721Metadata(nftAddress);\r\n        require(msg.sender == nft.ownerOf(id_), \"Only owner can authorize his punk!\");\r\n        authorizerOf[player_] = Authorizer(id_, name_, msg.sender);\r\n        if (lastScheduleOf[id_] == 0) {\r\n          uint t = getCurrentTime();\r\n          lastScheduleOf[id_] = t;\r\n          _addStillPunk(id_, 0, 0, t);\r\n        }\r\n    }\r\n\r\n    function isValidToPutGold(int x, int y) public view returns (bool) {\r\n      uint time = getCurrentTime();\r\n      return stillPunkOn[x][y] == 0 && events[time][x][y].movingPunk == 0 && (goldOn[x][y].vaildTime == 0 || time > goldOn[x][y].vaildTime + activeRound);\r\n    }\r\n\r\n    // \r\n    function putGold(int x, int y, uint amount) public {\r\n        require(isValidToPutGold(x, y), \"This place already had some gold.\");\r\n        require(msg.sender == owner, \"Only admin can put gold.\");\r\n        goldOn[x][y].vaildTime = 0;\r\n        goldOn[x][y].punkNumber = 0;\r\n        goldOn[x][y].amount = amount;\r\n    }\r\n\r\n    // \r\n    function getGold(int x, int y) public {\r\n        require(goldOn[x][y].punkNumber > 0 , \"Nothing to do.\");\r\n        uint t = goldOn[x][y].vaildTime;\r\n        require(getCurrentTime() >= t, \"Wait, it's not the time.\");\r\n        uint id = stillPunkOn[x][y];\r\n        while (id != 0) {\r\n          stillPunks[id].gold += goldOn[x][y].amount / goldOn[x][y].punkNumber;\r\n          id = stillPunks[id].newNeighbor;\r\n        }\r\n        id = events[t][x][y].movingPunk;\r\n        while (id != 0) {\r\n          stillPunks[id].gold += goldOn[x][y].amount / goldOn[x][y].punkNumber;\r\n          id = movingPunks[id][t].newNeighbor;\r\n        }\r\n        goldOn[x][y].vaildTime = 0;\r\n        goldOn[x][y].punkNumber = 0;\r\n        goldOn[x][y].amount = 0;\r\n    }\r\n\r\n    function getEvent(uint id) public view returns (StatusInfo memory) {\r\n      uint time = getCurrentTime();\r\n      uint start = time > 150? time-150: 0;\r\n      uint end = time < lastScheduleOf[id]-1? time: lastScheduleOf[id]-1;\r\n      for (uint t=start; t<=end; t++) {\r\n        int x_ = movingPunks[id][t].x;\r\n        int y_ = movingPunks[id][t].y;\r\n        if (goldOn[x_][y_].vaildTime == t) {\r\n          return StatusInfo(t, x_, y_);\r\n        }\r\n      }\r\n      int x = stillPunks[id].x;\r\n      int y = stillPunks[id].y;\r\n      if (goldOn[x][y].vaildTime == lastScheduleOf[id]) {\r\n        return StatusInfo(lastScheduleOf[id], x, y);\r\n      }\r\n      return StatusInfo(0, 0, 0);\r\n    }\r\n\r\n    function _removeStillPunk(uint id, int x, int y) private {\r\n        uint oldNeighbor = stillPunks[id].oldNeighbor;\r\n        uint newNeighbor = stillPunks[id].newNeighbor;\r\n        if (oldNeighbor > 0) {\r\n          stillPunks[oldNeighbor].newNeighbor = newNeighbor;\r\n        }\r\n        else {\r\n          stillPunkOn[x][y] = newNeighbor;\r\n        }\r\n        if (newNeighbor > 0) {\r\n          stillPunks[newNeighbor].oldNeighbor = oldNeighbor;\r\n        }\r\n    }\r\n\r\n    function _addStillPunk(uint id, int x, int y, uint t) private {\r\n        uint latestNeighbor = stillPunkOn[x][y];\r\n        stillPunkOn[x][y] = id;\r\n        stillPunks[id].oldNeighbor = 0;\r\n        stillPunks[id].newNeighbor = latestNeighbor;\r\n        stillPunks[id].x = x;\r\n        stillPunks[id].y = y;\r\n        stillPunks[id].showtime = t;\r\n        if (latestNeighbor > 0) {\r\n          stillPunks[latestNeighbor].oldNeighbor = id;\r\n        }\r\n        // \r\n        if (goldOn[x][y].vaildTime == 0 || goldOn[x][y].vaildTime >= t) {\r\n          if (goldOn[x][y].vaildTime == t) {\r\n            goldOn[x][y].punkNumber ++;\r\n          }\r\n          else {\r\n            goldOn[x][y].punkNumber = 1;\r\n          }\r\n          goldOn[x][y].vaildTime = t;\r\n        }\r\n    }\r\n\r\n    function _addMovingPunk(uint id, uint t, int x, int y, ActionChoices action) private {\r\n        movingPunks[id][t].newNeighbor = events[t][x][y].movingPunk;\r\n        events[t][x][y].movingPunk = id;\r\n        movingPunks[id][t].action = action;\r\n        movingPunks[id][t].x = x;\r\n        movingPunks[id][t].y = y;\r\n    }\r\n\r\n    // punk\r\n    function scheduleAction(uint id, ActionChoices action) public {\r\n        require(authorizerOf[msg.sender].id == id, \"Get authorized first!\");\r\n        uint currentTime = getCurrentTime();\r\n        if (lastScheduleOf[id] < currentTime) {\r\n          lastScheduleOf[id] = currentTime;\r\n        }\r\n        uint t = lastScheduleOf[id];\r\n        int x = stillPunks[id].x;\r\n        int y = stillPunks[id].y;\r\n        // remove this punk from still punks in (x, y) \r\n        _removeStillPunk(id, x, y);\r\n        _addMovingPunk(id, t, x, y, action);\r\n        if (action == ActionChoices.GoLeft) {\r\n          _addStillPunk(id, x-1, y, t+1);\r\n        }\r\n        if (action == ActionChoices.GoRight) {\r\n          _addStillPunk(id, x+1, y, t+1);\r\n        }\r\n        if (action == ActionChoices.GoUp) {\r\n          _addStillPunk(id, x, y+1, t+1);\r\n        }\r\n        if (action == ActionChoices.GoDown) {\r\n          _addStillPunk(id, x, y-1, t+1);\r\n        }\r\n        if (action == ActionChoices.GoLeftUp) {\r\n          _addStillPunk(id, x-1, y+1, t+1);\r\n        }\r\n        if (action == ActionChoices.GoLeftDown) {\r\n          _addStillPunk(id, x-1, y-1, t+1);\r\n        }\r\n        if (action == ActionChoices.GoRightUp) {\r\n          _addStillPunk(id, x+1, y+1, t+1);\r\n        }\r\n        if (action == ActionChoices.GoRightDown) {\r\n          _addStillPunk(id, x+1, y-1, t+1);\r\n        }\r\n        lastScheduleOf[id] ++;\r\n        emit ActionCommitted(id, lastScheduleOf[id], action);\r\n    }\r\n\r\n    function getCurrentTime() public view returns (uint) {\r\n      uint time = (block.number - _startBlock) / blockPerRound;\r\n      return time;\r\n    }\r\n\r\n    function getCurrentStatus(uint id) public view returns (StatusInfo memory) {\r\n      uint time = getCurrentTime();\r\n      if (lastScheduleOf[id] > time) {\r\n        return StatusInfo(time, movingPunks[id][time].x, movingPunks[id][time].y);\r\n      }\r\n      else {\r\n        return StatusInfo(time, stillPunks[id].x, stillPunks[id].y);\r\n      }\r\n      \r\n    }\r\n\r\n    function getScheduleInfo(uint id) public view returns (StatusInfo memory) {\r\n      uint time = getCurrentTime();\r\n      if (lastScheduleOf[id] > time) {\r\n        time = lastScheduleOf[id];\r\n      }\r\n      return StatusInfo(time, stillPunks[id].x, stillPunks[id].y);\r\n    }\r\n\r\n    function getAuthorizedId(address player_) public view returns (uint) {\r\n      IERC721 nft = IERC721(nftAddress);\r\n      if (authorizerOf[player_].holder == address(0) || authorizerOf[player_].holder != nft.ownerOf(authorizerOf[player_].id)) {\r\n        return 0;\r\n      }\r\n      else {\r\n        return authorizerOf[player_].id;\r\n      }\r\n    }\r\n\r\n    function getPlayerInfo(address player_) public view returns (PlayerInfo memory) {\r\n      require (getAuthorizedId(player_) > 0, \"not authorized\");\r\n      IERC721Metadata nft = IERC721Metadata(nftAddress);\r\n      uint id = authorizerOf[player_].id;\r\n      string memory name = authorizerOf[player_].name;\r\n      string memory uri = nft.tokenURI(id);\r\n      return PlayerInfo(id, name, uri);\r\n    }\r\n\r\n}\r\n",
  "sourcePath": "C:/Users/Weixuan/Documents/github/RogueLand/contracts/RogueLand.sol",
  "compiler": {
    "name": "solc",
    "version": "0.8.0+commit.c7dfd78e.Emscripten.clang"
  },
  "schemaVersion": "3.4.0",
  "updatedAt": "2021-08-24T11:20:41.111Z",
  "networkType": "ethereum",
  "devdoc": {
    "kind": "dev",
    "methods": {},
    "version": 1
  },
  "userdoc": {
    "kind": "user",
    "methods": {},
    "version": 1
  }
}