{
  "contractName": "RogueLand",
  "abi": [
    {
      "inputs": [
        {
          "internalType": "address",
          "name": "buildingAddress_",
          "type": "address"
        },
        {
          "internalType": "address",
          "name": "hepAddress_",
          "type": "address"
        },
        {
          "internalType": "address",
          "name": "squidAddress_",
          "type": "address"
        }
      ],
      "stateMutability": "nonpayable",
      "type": "constructor"
    },
    {
      "anonymous": false,
      "inputs": [
        {
          "indexed": true,
          "internalType": "uint256",
          "name": "punkId",
          "type": "uint256"
        },
        {
          "indexed": true,
          "internalType": "uint256",
          "name": "time",
          "type": "uint256"
        },
        {
          "indexed": false,
          "internalType": "enum RogueLand.ActionChoices",
          "name": "action",
          "type": "uint8"
        }
      ],
      "name": "ActionCommitted",
      "type": "event"
    },
    {
      "anonymous": false,
      "inputs": [
        {
          "indexed": true,
          "internalType": "uint256",
          "name": "punkA",
          "type": "uint256"
        },
        {
          "indexed": true,
          "internalType": "uint256",
          "name": "punkB",
          "type": "uint256"
        },
        {
          "indexed": false,
          "internalType": "uint256",
          "name": "damage",
          "type": "uint256"
        }
      ],
      "name": "Attacked",
      "type": "event"
    },
    {
      "anonymous": false,
      "inputs": [
        {
          "indexed": true,
          "internalType": "uint256",
          "name": "id",
          "type": "uint256"
        },
        {
          "indexed": false,
          "internalType": "int256",
          "name": "x",
          "type": "int256"
        },
        {
          "indexed": false,
          "internalType": "int256",
          "name": "y",
          "type": "int256"
        },
        {
          "indexed": false,
          "internalType": "uint256",
          "name": "gold",
          "type": "uint256"
        }
      ],
      "name": "Fishing",
      "type": "event"
    },
    {
      "anonymous": false,
      "inputs": [
        {
          "indexed": true,
          "internalType": "uint256",
          "name": "punkA",
          "type": "uint256"
        },
        {
          "indexed": true,
          "internalType": "uint256",
          "name": "punkB",
          "type": "uint256"
        }
      ],
      "name": "Killed",
      "type": "event"
    },
    {
      "anonymous": false,
      "inputs": [
        {
          "indexed": true,
          "internalType": "uint256",
          "name": "id",
          "type": "uint256"
        },
        {
          "indexed": false,
          "internalType": "uint256",
          "name": "restore",
          "type": "uint256"
        }
      ],
      "name": "UseHEP",
      "type": "event"
    },
    {
      "inputs": [],
      "name": "AC",
      "outputs": [
        {
          "internalType": "uint256",
          "name": "",
          "type": "uint256"
        }
      ],
      "stateMutability": "view",
      "type": "function",
      "constant": true
    },
    {
      "inputs": [],
      "name": "BAREHAND",
      "outputs": [
        {
          "internalType": "uint256",
          "name": "",
          "type": "uint256"
        }
      ],
      "stateMutability": "view",
      "type": "function",
      "constant": true
    },
    {
      "inputs": [],
      "name": "blockPerRound",
      "outputs": [
        {
          "internalType": "uint256",
          "name": "",
          "type": "uint256"
        }
      ],
      "stateMutability": "view",
      "type": "function",
      "constant": true
    },
    {
      "inputs": [],
      "name": "buildingAddress",
      "outputs": [
        {
          "internalType": "address",
          "name": "",
          "type": "address"
        }
      ],
      "stateMutability": "view",
      "type": "function",
      "constant": true
    },
    {
      "inputs": [
        {
          "internalType": "uint256",
          "name": "",
          "type": "uint256"
        }
      ],
      "name": "deadPunk",
      "outputs": [
        {
          "internalType": "address",
          "name": "",
          "type": "address"
        }
      ],
      "stateMutability": "view",
      "type": "function",
      "constant": true
    },
    {
      "inputs": [],
      "name": "hepAddress",
      "outputs": [
        {
          "internalType": "address",
          "name": "",
          "type": "address"
        }
      ],
      "stateMutability": "view",
      "type": "function",
      "constant": true
    },
    {
      "inputs": [
        {
          "internalType": "address",
          "name": "",
          "type": "address"
        }
      ],
      "name": "lastKilled",
      "outputs": [
        {
          "internalType": "uint256",
          "name": "A",
          "type": "uint256"
        },
        {
          "internalType": "uint256",
          "name": "B",
          "type": "uint256"
        },
        {
          "internalType": "uint256",
          "name": "t",
          "type": "uint256"
        },
        {
          "internalType": "int256",
          "name": "x",
          "type": "int256"
        },
        {
          "internalType": "int256",
          "name": "y",
          "type": "int256"
        }
      ],
      "stateMutability": "view",
      "type": "function",
      "constant": true
    },
    {
      "inputs": [
        {
          "internalType": "uint256",
          "name": "",
          "type": "uint256"
        }
      ],
      "name": "lastScheduleOf",
      "outputs": [
        {
          "internalType": "uint256",
          "name": "",
          "type": "uint256"
        }
      ],
      "stateMutability": "view",
      "type": "function",
      "constant": true
    },
    {
      "inputs": [
        {
          "internalType": "uint256",
          "name": "",
          "type": "uint256"
        },
        {
          "internalType": "uint256",
          "name": "",
          "type": "uint256"
        }
      ],
      "name": "movingPunks",
      "outputs": [
        {
          "internalType": "int256",
          "name": "x",
          "type": "int256"
        },
        {
          "internalType": "int256",
          "name": "y",
          "type": "int256"
        }
      ],
      "stateMutability": "view",
      "type": "function",
      "constant": true
    },
    {
      "inputs": [
        {
          "internalType": "uint256",
          "name": "",
          "type": "uint256"
        },
        {
          "internalType": "int256",
          "name": "",
          "type": "int256"
        },
        {
          "internalType": "int256",
          "name": "",
          "type": "int256"
        }
      ],
      "name": "movingPunksOn",
      "outputs": [
        {
          "internalType": "uint256",
          "name": "punkId",
          "type": "uint256"
        },
        {
          "internalType": "uint256",
          "name": "punkNonce",
          "type": "uint256"
        }
      ],
      "stateMutability": "view",
      "type": "function",
      "constant": true
    },
    {
      "inputs": [
        {
          "internalType": "address",
          "name": "",
          "type": "address"
        }
      ],
      "name": "nickNameOf",
      "outputs": [
        {
          "internalType": "string",
          "name": "",
          "type": "string"
        }
      ],
      "stateMutability": "view",
      "type": "function",
      "constant": true
    },
    {
      "inputs": [],
      "name": "owner",
      "outputs": [
        {
          "internalType": "address",
          "name": "",
          "type": "address"
        }
      ],
      "stateMutability": "view",
      "type": "function",
      "constant": true
    },
    {
      "inputs": [
        {
          "internalType": "uint256",
          "name": "",
          "type": "uint256"
        }
      ],
      "name": "punkMaster",
      "outputs": [
        {
          "internalType": "address",
          "name": "",
          "type": "address"
        }
      ],
      "stateMutability": "view",
      "type": "function",
      "constant": true
    },
    {
      "inputs": [
        {
          "internalType": "address",
          "name": "",
          "type": "address"
        }
      ],
      "name": "punkOf",
      "outputs": [
        {
          "internalType": "uint256",
          "name": "",
          "type": "uint256"
        }
      ],
      "stateMutability": "view",
      "type": "function",
      "constant": true
    },
    {
      "inputs": [],
      "name": "rewardsPerRound",
      "outputs": [
        {
          "internalType": "uint256",
          "name": "",
          "type": "uint256"
        }
      ],
      "stateMutability": "view",
      "type": "function",
      "constant": true
    },
    {
      "inputs": [],
      "name": "squidAddress",
      "outputs": [
        {
          "internalType": "address",
          "name": "",
          "type": "address"
        }
      ],
      "stateMutability": "view",
      "type": "function",
      "constant": true
    },
    {
      "inputs": [],
      "name": "startBlock",
      "outputs": [
        {
          "internalType": "uint256",
          "name": "",
          "type": "uint256"
        }
      ],
      "stateMutability": "view",
      "type": "function",
      "constant": true
    },
    {
      "inputs": [
        {
          "internalType": "int256",
          "name": "",
          "type": "int256"
        },
        {
          "internalType": "int256",
          "name": "",
          "type": "int256"
        }
      ],
      "name": "stillPunkOn",
      "outputs": [
        {
          "internalType": "uint256",
          "name": "",
          "type": "uint256"
        }
      ],
      "stateMutability": "view",
      "type": "function",
      "constant": true
    },
    {
      "inputs": [
        {
          "internalType": "uint256",
          "name": "",
          "type": "uint256"
        }
      ],
      "name": "stillPunks",
      "outputs": [
        {
          "internalType": "uint256",
          "name": "oldNeighbor",
          "type": "uint256"
        },
        {
          "internalType": "uint256",
          "name": "newNeighbor",
          "type": "uint256"
        },
        {
          "internalType": "int256",
          "name": "x",
          "type": "int256"
        },
        {
          "internalType": "int256",
          "name": "y",
          "type": "int256"
        },
        {
          "internalType": "uint256",
          "name": "showtime",
          "type": "uint256"
        },
        {
          "internalType": "uint256",
          "name": "gold",
          "type": "uint256"
        },
        {
          "internalType": "uint256",
          "name": "enemy",
          "type": "uint256"
        },
        {
          "internalType": "uint256",
          "name": "hp",
          "type": "uint256"
        },
        {
          "internalType": "uint256",
          "name": "nonce",
          "type": "uint256"
        },
        {
          "internalType": "uint256",
          "name": "evil",
          "type": "uint256"
        }
      ],
      "stateMutability": "view",
      "type": "function",
      "constant": true
    },
    {
      "inputs": [
        {
          "internalType": "address",
          "name": "",
          "type": "address"
        },
        {
          "internalType": "uint256",
          "name": "",
          "type": "uint256"
        }
      ],
      "name": "takeAction",
      "outputs": [
        {
          "internalType": "bool",
          "name": "",
          "type": "bool"
        }
      ],
      "stateMutability": "view",
      "type": "function",
      "constant": true
    },
    {
      "inputs": [],
      "name": "totalPunk",
      "outputs": [
        {
          "internalType": "uint256",
          "name": "",
          "type": "uint256"
        }
      ],
      "stateMutability": "view",
      "type": "function",
      "constant": true
    },
    {
      "inputs": [
        {
          "internalType": "int256",
          "name": "x1",
          "type": "int256"
        },
        {
          "internalType": "int256",
          "name": "y1",
          "type": "int256"
        },
        {
          "internalType": "int256",
          "name": "x2",
          "type": "int256"
        },
        {
          "internalType": "int256",
          "name": "y2",
          "type": "int256"
        },
        {
          "internalType": "uint256",
          "name": "t",
          "type": "uint256"
        }
      ],
      "name": "getEvents",
      "outputs": [
        {
          "internalType": "uint256[]",
          "name": "",
          "type": "uint256[]"
        }
      ],
      "stateMutability": "view",
      "type": "function",
      "constant": true
    },
    {
      "inputs": [],
      "name": "getDeadPunk",
      "outputs": [
        {
          "components": [
            {
              "internalType": "uint256",
              "name": "A",
              "type": "uint256"
            },
            {
              "internalType": "uint256",
              "name": "B",
              "type": "uint256"
            },
            {
              "internalType": "uint256",
              "name": "t",
              "type": "uint256"
            },
            {
              "internalType": "int256",
              "name": "x",
              "type": "int256"
            },
            {
              "internalType": "int256",
              "name": "y",
              "type": "int256"
            }
          ],
          "internalType": "struct RogueLand.KillEvent[]",
          "name": "",
          "type": "tuple[]"
        }
      ],
      "stateMutability": "view",
      "type": "function",
      "constant": true
    },
    {
      "inputs": [
        {
          "internalType": "string",
          "name": "name",
          "type": "string"
        }
      ],
      "name": "setNickName",
      "outputs": [],
      "stateMutability": "nonpayable",
      "type": "function"
    },
    {
      "inputs": [],
      "name": "freePunk",
      "outputs": [
        {
          "internalType": "uint256",
          "name": "",
          "type": "uint256"
        }
      ],
      "stateMutability": "view",
      "type": "function",
      "constant": true
    },
    {
      "inputs": [
        {
          "internalType": "address",
          "name": "player",
          "type": "address"
        }
      ],
      "name": "gameInfo",
      "outputs": [
        {
          "components": [
            {
              "internalType": "uint256",
              "name": "total",
              "type": "uint256"
            },
            {
              "internalType": "uint256",
              "name": "dead",
              "type": "uint256"
            },
            {
              "internalType": "uint256",
              "name": "pool",
              "type": "uint256"
            },
            {
              "internalType": "uint256",
              "name": "squidBalance",
              "type": "uint256"
            },
            {
              "internalType": "uint256",
              "name": "squidApproved",
              "type": "uint256"
            },
            {
              "internalType": "uint256",
              "name": "hepBalance",
              "type": "uint256"
            },
            {
              "internalType": "uint256",
              "name": "hepApproved",
              "type": "uint256"
            }
          ],
          "internalType": "struct RogueLand.GameInfo",
          "name": "",
          "type": "tuple"
        }
      ],
      "stateMutability": "view",
      "type": "function",
      "constant": true
    },
    {
      "inputs": [
        {
          "internalType": "uint256",
          "name": "id",
          "type": "uint256"
        }
      ],
      "name": "register",
      "outputs": [],
      "stateMutability": "nonpayable",
      "type": "function"
    },
    {
      "inputs": [
        {
          "internalType": "uint256",
          "name": "startBlock_",
          "type": "uint256"
        }
      ],
      "name": "startGame",
      "outputs": [],
      "stateMutability": "nonpayable",
      "type": "function"
    },
    {
      "inputs": [
        {
          "internalType": "uint256",
          "name": "rewards",
          "type": "uint256"
        }
      ],
      "name": "setRewards",
      "outputs": [],
      "stateMutability": "nonpayable",
      "type": "function"
    },
    {
      "inputs": [
        {
          "internalType": "uint256",
          "name": "A",
          "type": "uint256"
        },
        {
          "internalType": "uint256",
          "name": "B",
          "type": "uint256"
        }
      ],
      "name": "attack",
      "outputs": [],
      "stateMutability": "nonpayable",
      "type": "function"
    },
    {
      "inputs": [
        {
          "internalType": "uint256",
          "name": "id",
          "type": "uint256"
        }
      ],
      "name": "useHEP",
      "outputs": [],
      "stateMutability": "nonpayable",
      "type": "function"
    },
    {
      "inputs": [
        {
          "internalType": "uint256",
          "name": "id",
          "type": "uint256"
        },
        {
          "internalType": "enum RogueLand.ActionChoices",
          "name": "action",
          "type": "uint8"
        }
      ],
      "name": "scheduleAction",
      "outputs": [],
      "stateMutability": "nonpayable",
      "type": "function"
    },
    {
      "inputs": [],
      "name": "getCurrentTime",
      "outputs": [
        {
          "internalType": "uint256",
          "name": "",
          "type": "uint256"
        }
      ],
      "stateMutability": "view",
      "type": "function",
      "constant": true
    },
    {
      "inputs": [
        {
          "internalType": "uint256",
          "name": "id",
          "type": "uint256"
        }
      ],
      "name": "getPunkInfo",
      "outputs": [
        {
          "components": [
            {
              "internalType": "uint256",
              "name": "oldNeighbor",
              "type": "uint256"
            },
            {
              "internalType": "uint256",
              "name": "newNeighbor",
              "type": "uint256"
            },
            {
              "internalType": "int256",
              "name": "x",
              "type": "int256"
            },
            {
              "internalType": "int256",
              "name": "y",
              "type": "int256"
            },
            {
              "internalType": "uint256",
              "name": "showTime",
              "type": "uint256"
            },
            {
              "internalType": "uint256",
              "name": "totalGold",
              "type": "uint256"
            },
            {
              "internalType": "uint256",
              "name": "hp",
              "type": "uint256"
            },
            {
              "internalType": "uint256",
              "name": "evil",
              "type": "uint256"
            },
            {
              "internalType": "uint256",
              "name": "seed",
              "type": "uint256"
            },
            {
              "internalType": "address",
              "name": "player",
              "type": "address"
            },
            {
              "internalType": "string",
              "name": "name",
              "type": "string"
            },
            {
              "internalType": "uint256",
              "name": "blockNumber",
              "type": "uint256"
            }
          ],
          "internalType": "struct RogueLand.PunkInfo",
          "name": "",
          "type": "tuple"
        }
      ],
      "stateMutability": "view",
      "type": "function",
      "constant": true
    },
    {
      "inputs": [
        {
          "internalType": "uint256",
          "name": "t",
          "type": "uint256"
        },
        {
          "internalType": "int256",
          "name": "x",
          "type": "int256"
        },
        {
          "internalType": "int256",
          "name": "y",
          "type": "int256"
        }
      ],
      "name": "getPunkOn",
      "outputs": [
        {
          "internalType": "uint256",
          "name": "",
          "type": "uint256"
        }
      ],
      "stateMutability": "view",
      "type": "function",
      "constant": true
    },
    {
      "inputs": [
        {
          "internalType": "uint256",
          "name": "id",
          "type": "uint256"
        },
        {
          "internalType": "uint256",
          "name": "t",
          "type": "uint256"
        }
      ],
      "name": "getPostion",
      "outputs": [
        {
          "components": [
            {
              "internalType": "int256",
              "name": "x",
              "type": "int256"
            },
            {
              "internalType": "int256",
              "name": "y",
              "type": "int256"
            }
          ],
          "internalType": "struct RogueLand.Position",
          "name": "",
          "type": "tuple"
        }
      ],
      "stateMutability": "view",
      "type": "function",
      "constant": true
    },
    {
      "inputs": [
        {
          "internalType": "uint256",
          "name": "id",
          "type": "uint256"
        }
      ],
      "name": "getCurrentStatus",
      "outputs": [
        {
          "components": [
            {
              "internalType": "uint256",
              "name": "t",
              "type": "uint256"
            },
            {
              "internalType": "int256",
              "name": "x",
              "type": "int256"
            },
            {
              "internalType": "int256",
              "name": "y",
              "type": "int256"
            }
          ],
          "internalType": "struct RogueLand.TimeSpace",
          "name": "",
          "type": "tuple"
        }
      ],
      "stateMutability": "view",
      "type": "function",
      "constant": true
    },
    {
      "inputs": [
        {
          "internalType": "uint256",
          "name": "id",
          "type": "uint256"
        }
      ],
      "name": "getScheduleInfo",
      "outputs": [
        {
          "components": [
            {
              "internalType": "uint256",
              "name": "t",
              "type": "uint256"
            },
            {
              "internalType": "int256",
              "name": "x",
              "type": "int256"
            },
            {
              "internalType": "int256",
              "name": "y",
              "type": "int256"
            }
          ],
          "internalType": "struct RogueLand.TimeSpace",
          "name": "",
          "type": "tuple"
        }
      ],
      "stateMutability": "view",
      "type": "function",
      "constant": true
    },
    {
      "inputs": [],
      "name": "getGoldsofAllPunk",
      "outputs": [
        {
          "internalType": "uint256[667]",
          "name": "",
          "type": "uint256[667]"
        }
      ],
      "stateMutability": "view",
      "type": "function",
      "constant": true
    },
    {
      "inputs": [
        {
          "internalType": "uint256",
          "name": "id",
          "type": "uint256"
        }
      ],
      "name": "pendingGold",
      "outputs": [
        {
          "internalType": "uint256",
          "name": "",
          "type": "uint256"
        }
      ],
      "stateMutability": "view",
      "type": "function",
      "constant": true
    },
    {
      "inputs": [
        {
          "internalType": "int256",
          "name": "x",
          "type": "int256"
        },
        {
          "internalType": "int256",
          "name": "y",
          "type": "int256"
        }
      ],
      "name": "fish",
      "outputs": [],
      "stateMutability": "nonpayable",
      "type": "function"
    },
    {
      "inputs": [
        {
          "internalType": "uint256",
          "name": "A",
          "type": "uint256"
        },
        {
          "internalType": "uint256",
          "name": "B",
          "type": "uint256"
        },
        {
          "internalType": "bool",
          "name": "getOut",
          "type": "bool"
        }
      ],
      "name": "charge",
      "outputs": [],
      "stateMutability": "nonpayable",
      "type": "function"
    },
    {
      "inputs": [],
      "name": "claimRewards",
      "outputs": [],
      "stateMutability": "nonpayable",
      "type": "function"
    }
  ],
  "bytecode": "0x60806040526101f46006556611c37937e080006007553480156200002257600080fd5b5060405162004769380380620047698339810160408190526200004591620000e1565b60008054336001600160a01b031991821681179092556003805482166001600160a01b0387811691909117909155600180548316868316179055600280549092169084161790556040516200009f9142916020016200012a565b60408051601f1981840301815291905280516020909101206005555062000141915050565b80516001600160a01b0381168114620000dc57600080fd5b919050565b600080600060608486031215620000f6578283fd5b6200010184620000c4565b92506200011160208501620000c4565b91506200012160408501620000c4565b90509250925092565b9182526001600160a01b0316602082015260400190565b61461880620001516000396000f3fe608060405234801561001057600080fd5b50600436106102695760003560e01c80638723e24b11610151578063c73ea367116100c3578063e2d1990311610087578063e2d1990314610560578063e5ed1d5914610580578063ecf17e4014610593578063efcd908e146105a6578063f207564e146105ae578063f705fc49146105c157610269565b8063c73ea367146104de578063c7a29c6f146104f1578063ccf8b09714610504578063de4f8f1f14610524578063e1fa76381461054d57610269565b8063a6e3419011610115578063a6e341901461044c578063a9e76a8e1461046c578063adca04be1461047f578063aeec3acd1461049f578063b06765ea146104b2578063bcf0196b146104d657610269565b80638723e24b146103eb5780638da5cb5b146103fe578063934f84f714610406578063a02498ca14610426578063a0aa13c61461043957610269565b806340d68c11116101ea57806351c18326116101ae57806351c183261461038257806360e96ed71461038a57806362e026de1461039d578063671a8b1a146103b05780637336ffac146103c357806379d618e3146103e357610269565b806340d68c111461032b578063432230251461033e57806348cd4cb1146103515780634b5cf775146103595780634d71e7251461036157610269565b8063238c18a111610231578063238c18a1146102eb57806325eb64c7146102f357806329cb924d146103085780632a166de314610310578063372500ab1461032357610269565b8063033d5e4d1461026e5780630f3e624b1461029757806312340473146102ac5780631dbd05a6146102c15780631fda9cb4146102d6575b600080fd5b61028161027c36600461390a565b6105c9565b60405161028e919061419f565b60405180910390f35b6102aa6102a53660046137eb565b61063f565b005b6102b4610a09565b60405161028e9190613c37565b6102c9610a0f565b60405161028e9190613afb565b6102de610b51565b60405161028e9190613b69565b6102b4610bfe565b6102fb610c44565b60405161028e9190613a90565b6102b4610c53565b6102b461031e3660046137eb565b610ca2565b6102aa610cbf565b6102aa61033936600461393a565b610e43565b6102aa61034c36600461390a565b61119f565b6102b46113c5565b6102b46113cb565b61037461036f3660046137eb565b6113d1565b60405161028e929190613c13565b6102b46113f5565b61037461039836600461396c565b6113fb565b6102fb6103ab36600461390a565b611425565b6102b46103be36600461390a565b611440565b6103d66103d136600461382f565b611452565b60405161028e9190613b9c565b6102fb611592565b6102aa6103f9366004613997565b6115a1565b6102fb611b00565b6104196104143660046137a4565b611b0f565b60405161028e9190613be0565b6102fb61043436600461390a565b611b2f565b61028161044736600461390a565b611b59565b61045f61045a36600461376c565b611ba0565b60405161028e919061408f565b6102b461047a36600461390a565b611e82565b61049261048d3660046137eb565b611f95565b60405161028e91906140dd565b6102b46104ad36600461396c565b612028565b6104c56104c036600461376c565b6120f4565b60405161028e959493929190614243565b6102b4612123565b6102aa6104ec366004613869565b612128565b6102aa6104ff36600461390a565b612148565b61051761051236600461390a565b612177565b60405161028e91906140f4565b61053761053236600461390a565b612312565b60405161028e9a999897969594939291906141fe565b6102aa61055b3660046137eb565b612366565b61057361056e36600461376c565b612669565b60405161028e9190613c40565b6102aa61058e36600461390a565b612703565b6102b46105a136600461376c565b612732565b6102fb612744565b6102aa6105bc36600461390a565b612753565b6102b4612a98565b6105d16135a2565b60006105db610c53565b6000848152600e602052604090205490915081101561060557506000828152600e60205260409020545b604080516060810182529182526000848152601060208181528383206002810154828701529287905252600301549082015290505b919050565b336000908152600b6020526040902054806106755760405162461bcd60e51b815260040161066c90614023565b60405180910390fd5b600061067f610c53565b9050600061068d8383611f95565b9050600160028683600001516106a391906144a7565b6106ad91906143e9565b131580156106d75750600160028583602001516106ca91906144a7565b6106d491906143e9565b13155b6106f35760405162461bcd60e51b815260040161066c90613f1f565b6003805460405163342f25ab60e11b81526001600160a01b039091169190829063685e4b5690610729908a908a90600401613c13565b60206040518083038186803b15801561074157600080fd5b505afa158015610755573d6000803e3d6000fd5b505050506040513d601f19601f820116820180604052508101906107799190613922565b61078391906142bf565b6002146107a25760405162461bcd60e51b815260040161066c90613d3c565b6000848152601060205260409020600401548310156107d35760405162461bcd60e51b815260040161066c90613fc4565b60055442336040516020016107ea939291906141df565b60408051601f1981840301815291815281516020928301206005556000868152601090925290206004015461081f90846144e6565b602860055461082e9190614566565b10156109b25760006003826001600160a01b031663685e4b5689896040518363ffffffff1660e01b8152600401610866929190613c13565b60206040518083038186803b15801561087e57600080fd5b505afa158015610892573d6000803e3d6000fd5b505050506040513d601f19601f820116820180604052508101906108b69190613922565b6108c09190614566565b6108cb9060016142a7565b604051630f3e624b60e01b81529091506001600160a01b03831690630f3e624b906108fc908a908a90600401613c13565b600060405180830381600087803b15801561091657600080fd5b505af115801561092a573d6000803e3d6000fd5b5050505060075481601461093e9190614488565b6109489190614488565b600086815260106020526040812060050180549091906109699084906142a7565b92505081905550847f0fe865a7606864ed27a93231041a4952a7ce16935bf7ab2569a2a111192daf7b8888846040516109a493929190613c21565b60405180910390a2506109f0565b837f0fe865a7606864ed27a93231041a4952a7ce16935bf7ab2569a2a111192daf7b878760006040516109e793929190613c21565b60405180910390a25b5050600091825260106020526040909120600401555050565b60065481565b60095460609060009067ffffffffffffffff811115610a3e57634e487b7160e01b600052604160045260246000fd5b604051908082528060200260200182016040528015610a7757816020015b610a646135c3565b815260200190600190039081610a5c5790505b50905060005b600954811015610b4a576011600060098381548110610aac57634e487b7160e01b600052603260045260246000fd5b60009182526020808320909101546001600160a01b031683528281019390935260409182019020815160a08101835281548152600182015493810193909352600281015491830191909152600381015460608301526004015460808201528251839083908110610b2c57634e487b7160e01b600052603260045260246000fd5b60200260200101819052508080610b4290614552565b915050610a7d565b5090505b90565b610b596135f2565b610b616135f2565b60005b61029b811015610b4a576000600a81610b7e8460016142a7565b81526020810191909152604001600020546001600160a01b031614610bc35760106000610bac8360016142a7565b815260200190815260200160002060050154610bc6565b60005b828261029b8110610be757634e487b7160e01b600052603260045260246000fd5b602002015280610bf681614552565b915050610b64565b600060025b61029b8111610c3f576000818152600a60205260409020546001600160a01b0316610c2d57610c3f565b80610c3781614552565b915050610c03565b905090565b6003546001600160a01b031681565b600060045460001480610c67575043600454115b15610c7457506000610b4e565b600060065460045443610c8791906144e6565b610c9191906142bf565b610c9c9060016142a7565b91505090565b601360209081526000928352604080842090915290825290205481565b336000908152600b602052604090205480610cec5760405162461bcd60e51b815260040161066c90614023565b6000610cf6610c53565b90506000610d048383611f95565b600380548251602084015160405163342f25ab60e11b81529495506001600160a01b0390921693849263685e4b5692610d4292909190600401613c13565b60206040518083038186803b158015610d5a57600080fd5b505afa158015610d6e573d6000803e3d6000fd5b505050506040513d601f19601f82011682018060405250810190610d929190613922565b610d9c91906142bf565b600314610dbb5760405162461bcd60e51b815260040161066c90613eb3565b60008481526010602052604090819020600501549051632ec53bb760e11b81526001600160a01b03831691635d8a776e91610dfa913391600401613ae2565b600060405180830381600087803b158015610e1457600080fd5b505af1158015610e28573d6000803e3d6000fd5b50505060009485525050601060205250506040812060050155565b336000908152600b60205260409020548214610e715760405162461bcd60e51b815260040161066c90613e84565b60008211610e915760405162461bcd60e51b815260040161066c90614023565b6000816008811115610eb357634e487b7160e01b600052602160045260246000fd5b1415610ed15760405162461bcd60e51b815260040161066c90613e5e565b6000610edb610c53565b6000848152600e6020526040902054909150811115610f06576000838152600e602052604090208190555b6000838152600e602090815260408083205460109092529091206002810154600390910154610f3486612a9d565b610f4086848484612bf7565b6001856008811115610f6257634e487b7160e01b600052602160045260246000fd5b1415610f8857610f8886610f776001856144a7565b83610f838760016142a7565b612c49565b6002856008811115610faa57634e487b7160e01b600052602160045260246000fd5b1415610fbf57610fbf86610f77846001614266565b6003856008811115610fe157634e487b7160e01b600052602160045260246000fd5b1415611002576110028683610ff7846001614266565b610f838760016142a7565b600485600881111561102457634e487b7160e01b600052602160045260246000fd5b141561103a5761103a8683610ff76001856144a7565b600585600881111561105c57634e487b7160e01b600052602160045260246000fd5b141561107c5761107c866110716001856144a7565b610ff7846001614266565b600685600881111561109e57634e487b7160e01b600052602160045260246000fd5b14156110be576110be866110b36001856144a7565b610ff76001856144a7565b60078560088111156110e057634e487b7160e01b600052602160045260246000fd5b14156110f5576110f586611071846001614266565b600885600881111561111757634e487b7160e01b600052602160045260246000fd5b141561112c5761112c866110b3846001614266565b6000868152600e6020526040812080549161114683614552565b9190505550600e600087815260200190815260200160002054867f6a2d17d8c21b88f2e1a453533160575a5702bd8b1f6492daff557c2ae2a34a568760405161118f9190613beb565b60405180910390a3505050505050565b600180546040516323b872dd60e01b81526001600160a01b039091169182916323b872dd916111d49133913091600401613abe565b602060405180830381600087803b1580156111ee57600080fd5b505af1158015611202573d6000803e3d6000fd5b505050506040513d601f19601f8201168201806040525081019061122691906137cf565b6112425760405162461bcd60e51b815260040161066c90613d65565b3360009081526012602052604081209061125d600a436142bf565b815260208101919091526040016000205460ff161561128e5760405162461bcd60e51b815260040161066c90613d90565b3360009081526012602052604081206001916112ab600a436142bf565b815260200190815260200160002060006101000a81548160ff021916908315150217905550600a6010600084815260200190815260200160002060070160008282546112f791906142a7565b9091555050600082815260106020526040902060070154600f10156113875760008281526010602052604090206007015482907f328abd116309811e0eedf089b1f3a12b5852968f70e6d29db9bd46ab1976ebe4906113579060196144e6565b6040516113649190613c37565b60405180910390a26000828152601060205260409020600f6007909101556113c1565b817f328abd116309811e0eedf089b1f3a12b5852968f70e6d29db9bd46ab1976ebe4600a6040516113b89190613c37565b60405180910390a25b5050565b60045481565b60085481565b600d6020908152600092835260408084209091529082529020805460019091015482565b60075481565b60146020908152600093845260408085208252928452828420905282529020805460019091015482565b600a602052600090815260409020546001600160a01b031681565b600e6020526000908152604090205481565b60608584121580156114645750848312155b6114805760405162461bcd60e51b815260040161066c90613cb1565b600061148c86856144a7565b611497906001614266565b6114a188876144a7565b6114ac906001614266565b6114b69190614405565b67ffffffffffffffff8111156114dc57634e487b7160e01b600052604160045260246000fd5b604051908082528060200260200182016040528015611505578160200160208202803683370190505b5090506000875b86811361158557875b86811361157257611527868383612028565b84848151811061154757634e487b7160e01b600052603260045260246000fd5b60209081029190910101528261155c81614552565b935050808061156a90614532565b915050611515565b508061157d81614532565b91505061150c565b5090979650505050505050565b6001546001600160a01b031681565b336000908152600b602052604090205483146115cf5760405162461bcd60e51b815260040161066c90613e84565b6000831180156115df5750600082115b6115fb5760405162461bcd60e51b815260040161066c90614023565b6000828152600a60205260409020546001600160a01b031661162f5760405162461bcd60e51b815260040161066c90613f8d565b6000611639610c53565b905060006116478583611f95565b905060006116558584611f95565b600380548251602084015160405163342f25ab60e11b81529495506001600160a01b0390921693849263685e4b569261169392909190600401613c13565b60206040518083038186803b1580156116ab57600080fd5b505afa1580156116bf573d6000803e3d6000fd5b505050506040513d601f19601f820116820180604052508101906116e39190613922565b6116ed91906142bf565b60031461170c5760405162461bcd60e51b815260040161066c90613e0e565b6000816001600160a01b0316636eaf88026040518163ffffffff1660e01b815260040160206040518083038186803b15801561174757600080fd5b505afa15801561175b573d6000803e3d6000fd5b505050506040513d601f19601f8201168201806040525081019061177f9190613788565b8351602085015160405163125fed9760e21b81529293506000926001600160a01b0385169263497fb65c926117b692600401613c13565b60206040518083038186803b1580156117ce57600080fd5b505afa1580156117e2573d6000803e3d6000fd5b505050506040513d601f19601f820116820180604052508101906118069190613788565b90506001600160a01b03811633146118305760405162461bcd60e51b815260040161066c9061404b565b60008881526010602052604090206004015460059061184f90886144e6565b1161186c5760405162461bcd60e51b815260040161066c9061406e565b861561194a576000898152601060205260409020600401548610156118a35760405162461bcd60e51b815260040161066c90613e34565b835185516001916002916118b791906144a7565b6118c191906143e9565b131580156118ef575060016002856020015187602001516118e291906144a7565b6118ec91906143e9565b13155b61190b5760405162461bcd60e51b815260040161066c90613ee8565b61191488612a9d565b61191d89612a9d565b611931898560000151866020015189612c49565b611945888660000151876020015189612c49565b611af5565b60008881526010602052604081206004015461196690886144e6565b8551602087015160405163342f25ab60e11b81526003926001600160a01b0389169263685e4b569261199c929190600401613c13565b60206040518083038186803b1580156119b457600080fd5b505afa1580156119c8573d6000803e3d6000fd5b505050506040513d601f19601f820116820180604052508101906119ec9190613922565b6119f69190614566565b611a019060016142a7565b611a0b9190614488565b611a1c90662386f26fc10000614488565b6040516372746eaf60e01b81529091506001600160a01b038516906372746eaf90611a4d9033908590600401613ae2565b600060405180830381600087803b158015611a6757600080fd5b505af1158015611a7b573d6000803e3d6000fd5b5050604051632ec53bb760e11b81526001600160a01b0387169250635d8a776e9150611aad9085908590600401613ae2565b600060405180830381600087803b158015611ac757600080fd5b505af1158015611adb573d6000803e3d6000fd5b50505060008a815260106020526040902060040188905550505b505050505050505050565b6000546001600160a01b031681565b601260209081526000928352604080842090915290825290205460ff1681565b60098181548110611b3f57600080fd5b6000918252602090912001546001600160a01b0316905081565b611b616135a2565b6000611b6b610c53565b90506000611b798483611f95565b60408051606081018252938452815160208086019190915290910151908301525092915050565b611ba8613612565b6008546009546002546003546040516370a0823160e01b81526001600160a01b039283169260009284926370a0823192611be6921690600401613a90565b60206040518083038186803b158015611bfe57600080fd5b505afa158015611c12573d6000803e3d6000fd5b505050506040513d601f19601f82011682018060405250810190611c369190613922565b90506000826001600160a01b03166370a08231886040518263ffffffff1660e01b8152600401611c669190613a90565b60206040518083038186803b158015611c7e57600080fd5b505afa158015611c92573d6000803e3d6000fd5b505050506040513d601f19601f82011682018060405250810190611cb69190613922565b600354604051636eb1769f60e11b81529192506000916001600160a01b038087169263dd62ed3e92611cee928d921690600401613aa4565b60206040518083038186803b158015611d0657600080fd5b505afa158015611d1a573d6000803e3d6000fd5b505050506040513d601f19601f82011682018060405250810190611d3e9190613922565b6001546040516370a0823160e01b81529192506001600160a01b03169060009082906370a0823190611d74908d90600401613a90565b60206040518083038186803b158015611d8c57600080fd5b505afa158015611da0573d6000803e3d6000fd5b505050506040513d601f19601f82011682018060405250810190611dc49190613922565b90506000826001600160a01b031663dd62ed3e8c306040518363ffffffff1660e01b8152600401611df6929190613aa4565b60206040518083038186803b158015611e0e57600080fd5b505afa158015611e22573d6000803e3d6000fd5b505050506040513d601f19601f82011682018060405250810190611e469190613922565b6040805160e0810182529a8b5260208b019990995297890195909552606088019390935250608086015260a0850152505060c082015292915050565b600080611e8d610c53565b600084815260106020526040902060040154909150811115611f8557600380546000858152601060205260408082206002810154940154905163f42a527560e01b81526001600160a01b03909316939192849263f42a527592611ef292600401613c13565b60206040518083038186803b158015611f0a57600080fd5b505afa158015611f1e573d6000803e3d6000fd5b505050506040513d601f19601f82011682018060405250810190611f429190613922565b600754600087815260106020526040902060040154919250908290611f6790866144e6565b611f719190614488565b611f7b9190614488565b935050505061063a565b600091505061063a565b50919050565b611f9d61364f565b6000838152600e6020526040902054821015611ff057506040805180820182526000848152600d602090815283822085835280825293822080548452918590529283526001015491810191909152612022565b506040805180820182526000848152601060208181529382206002810154845291869052835260030154918101919091525b92915050565b60008281526013602090815260408083208484529091528120541580159061207657506000838152601360209081526040808320858452825280832054835260109091529020600401548410155b1561209b575060008281526013602090815260408083208484529091529020546120ed565b6000848152601460209081526040808320868452825280832085845280835281842080548086526010855292852060080154948790529252600190910154909114156120e85790506120ed565b505060005b9392505050565b601160205260009081526040902080546001820154600283015460038401546004909401549293919290919085565b600981565b336000908152600c6020908152604090912082516113c192840190613669565b6000546001600160a01b031633146121725760405162461bcd60e51b815260040161066c90613f56565b600755565b61217f6136ed565b6000612189610c53565b905060006121978483611f95565b6000858152600a60205260408120549192506001600160a01b03909116906121be86611e82565b6000878152601060205260409020600501546121da91906142a7565b6040805161018081018252600089815260106020818152848320805485528c84529181526001820154818501528851848601528881015160608501526004820154608085015260a08401869052600782015460c085015260099091015460e08401528a8252600f8152838220546101008401526001600160a01b03871661012084018190528252600c9052919091208054929350909161014083019190612280906144fd565b80601f01602080910402602001604051908101604052809291908181526020018280546122ac906144fd565b80156122f95780601f106122ce576101008083540402835291602001916122f9565b820191906000526020600020905b8154815290600101906020018083116122dc57829003601f168201915b5050505050815260200143815250945050505050919050565b6010602052806000526040600020600091509050806000015490806001015490806002015490806003015490806004015490806005015490806006015490806007015490806008015490806009015490508a565b336000908152600b602052604090205482146123945760405162461bcd60e51b815260040161066c90613e84565b6000821180156123a45750600081115b6123c05760405162461bcd60e51b815260040161066c90614023565b6000818152600a60205260409020546001600160a01b03166123f45760405162461bcd60e51b815260040161066c90613dd7565b3360009081526012602052604081209061240f600a436142bf565b815260208101919091526040016000205460ff16156124405760405162461bcd60e51b815260040161066c90613d90565b33600090815260126020526040812060019161245d600a436142bf565b815260200190815260200160002060006101000a81548160ff021916908315150217905550600061248c610c53565b9050600061249a8483611f95565b905060006124a88484611f95565b805183519192506001916002916124be916144a7565b6124c891906143e9565b131580156124f6575060016002826020015184602001516124e991906144a7565b6124f391906143e9565b13155b6125125760405162461bcd60e51b815260040161066c90613cd8565b600380548251602084015160405163342f25ab60e11b81526001600160a01b039093169392849263685e4b569261254b92600401613c13565b60206040518083038186803b15801561256357600080fd5b505afa158015612577573d6000803e3d6000fd5b505050506040513d601f19601f8201168201806040525081019061259b9190613922565b6125a591906142bf565b600314156125c55760405162461bcd60e51b815260040161066c90613c53565b60008681526010602052604090206006015485146125f25760008681526010602052604090206006018590555b6125fc86866131d4565b60008581526010602052604090206007015461262c5761262786868685600001518660200151613364565b612661565b61263685876131d4565b6000868152601060205260409020600701546126615761266185878686600001518760200151613364565b505050505050565b600c6020526000908152604090208054612682906144fd565b80601f01602080910402602001604051908101604052809291908181526020018280546126ae906144fd565b80156126fb5780601f106126d0576101008083540402835291602001916126fb565b820191906000526020600020905b8154815290600101906020018083116126de57829003601f168201915b505050505081565b6000546001600160a01b0316331461272d5760405162461bcd60e51b815260040161066c90613f56565b600455565b600b6020526000908152604090205481565b6002546001600160a01b031681565b8061276357612760610bfe565b90505b60028110158015612776575061029b8111155b6127925760405162461bcd60e51b815260040161066c9061406e565b6000818152600a60205260409020546001600160a01b0316156127c75760405162461bcd60e51b815260040161066c90613c8a565b336000908152600b6020526040902054156127f45760405162461bcd60e51b815260040161066c90613db2565b6003546040516366ca9b6160e01b81526001600160a01b0390911690600090819083906366ca9b619061282b903390600401613a90565b604080518083038186803b15801561284257600080fd5b505afa158015612856573d6000803e3d6000fd5b505050506040513d601f19601f8201168201806040525081019061287a919061380c565b9150915081600014158061288d57508015155b6128a95760405162461bcd60e51b815260040161066c90613d0f565b60405163edd4bd0160e01b81526000906001600160a01b0385169063edd4bd01906128da9086908690600401613c13565b60e06040518083038186803b1580156128f257600080fd5b505afa158015612906573d6000803e3d6000fd5b505050506040513d601f19601f8201168201806040525081019061292a91906139cf565b509550505050505080156129a5576040516372746eaf60e01b81526001600160a01b038516906372746eaf9061296e903390670de0b6b3a764000090600401613ae2565b600060405180830381600087803b15801561298857600080fd5b505af115801561299c573d6000803e3d6000fd5b50505050612a06565b6040516310366f0760e21b81526001600160a01b038516906340d9bc1c906129d39086908690600401613c13565b600060405180830381600087803b1580156129ed57600080fd5b505af1158015612a01573d6000803e3d6000fd5b505050505b6000858152600a6020908152604080832080546001600160a01b03191633908117909155808452600b8352928190208890556005549051612a4c934293909291016141c0565b60408051601f1981840301815291815281516020928301206000888152600f909352912055612a7c858484613546565b60088054906000612a8c83614552565b91905055505050505050565b600581565b6000818152601060205260409020805460018201546002830154600390930154919290918315612ae0576000848152601060205260409020600101839055612afd565b600082815260136020908152604080832084845290915290208390555b8215612b155760008381526010602052604090208490555b6000600754612b2387611e82565b612b2d91906142bf565b90508015612661576003546007546040516248acf160e11b81526001600160a01b03909216918290629159e290612b6c90889088908890600401613c21565b602060405180830381600087803b158015612b8657600080fd5b505af1158015612b9a573d6000803e3d6000fd5b505050506040513d601f19601f82011682018060405250810190612bbe9190613922565b612bc89190614488565b60008881526010602052604081206005018054909190612be99084906142a7565b909155505050505050505050565b6000838152601460209081526040808320858452825280832084845282528083208781559683526010825280832060080154600197880155600d82528083209583529490529290922090815590910155565b60035460408051633757c40160e11b815290516001600160a01b03909216916000918391636eaf880291600480820192602092909190829003018186803b158015612c9357600080fd5b505afa158015612ca7573d6000803e3d6000fd5b505050506040513d601f19601f82011682018060405250810190612ccb9190613788565b90506000816001600160a01b031663497fb65c87876040518363ffffffff1660e01b8152600401612cfd929190613c13565b60206040518083038186803b158015612d1557600080fd5b505afa158015612d29573d6000803e3d6000fd5b505050506040513d601f19601f82011682018060405250810190612d4d9190613788565b90506003836001600160a01b031663685e4b5688886040518363ffffffff1660e01b8152600401612d7f929190613c13565b60206040518083038186803b158015612d9757600080fd5b505afa158015612dab573d6000803e3d6000fd5b505050506040513d601f19601f82011682018060405250810190612dcf9190613922565b612dd991906142bf565b6003148015612df15750336001600160a01b03821614155b1561300157826001600160a01b03166372746eaf336003866001600160a01b031663685e4b568b8b6040518363ffffffff1660e01b8152600401612e36929190613c13565b60206040518083038186803b158015612e4e57600080fd5b505afa158015612e62573d6000803e3d6000fd5b505050506040513d601f19601f82011682018060405250810190612e869190613922565b612e909190614566565b612e9b9060016142a7565b612eac9066b1a2bc2ec50000614488565b6040518363ffffffff1660e01b8152600401612ec9929190613ae2565b600060405180830381600087803b158015612ee357600080fd5b505af1158015612ef7573d6000803e3d6000fd5b50505050826001600160a01b0316635d8a776e826003866001600160a01b031663685e4b568b8b6040518363ffffffff1660e01b8152600401612f3b929190613c13565b60206040518083038186803b158015612f5357600080fd5b505afa158015612f67573d6000803e3d6000fd5b505050506040513d601f19601f82011682018060405250810190612f8b9190613922565b612f959190614566565b612fa09060016142a7565b612fb19066b1a2bc2ec50000614488565b6040518363ffffffff1660e01b8152600401612fce929190613ae2565b600060405180830381600087803b158015612fe857600080fd5b505af1158015612ffc573d6000803e3d6000fd5b505050505b61300c848787612028565b15806130a2575060405163342f25ab60e11b81526003906001600160a01b0385169063685e4b5690613044908a908a90600401613c13565b60206040518083038186803b15801561305c57600080fd5b505afa158015613070573d6000803e3d6000fd5b505050506040513d601f19601f820116820180604052508101906130949190613922565b61309e91906142bf565b6003145b6130be5760405162461bcd60e51b815260040161066c90613fec565b60405163342f25ab60e11b81526003906001600160a01b0385169063685e4b56906130ef908a908a90600401613c13565b60206040518083038186803b15801561310757600080fd5b505afa15801561311b573d6000803e3d6000fd5b505050506040513d601f19601f8201168201806040525081019061313f9190613922565b61314991906142bf565b600214156131695760405162461bcd60e51b815260040161066c90613d3c565b600086815260136020908152604080832088845282528083208054908b90558a845260109092528220918255600182018190556002820188905560038201879055600490910185905580156131ca5760008181526010602052604090208890555b5050505050505050565b81600f6000838152602001908152602001600020546040516020016131fa929190613c13565b60408051601f1981840301815291815281516020928301206000848152600f90935290822081905561322e90606490614566565b905061323c6009600a6142a7565b6132476005836142bf565b6132529060016142a7565b101561332457613263600582614566565b61326e9060016142a7565b600083815260106020526040902060070154106132bc57613290600582614566565b61329b9060016142a7565b6000838152601060205260409020600701546132b791906144e6565b6132bf565b60005b60008381526010602052604090206007015581837fba2c1e89a773b1234ed614b22747890d7abe2dc00dea2aac7a5bc913d1b3fd106132ff600585614566565b61330a9060016142a7565b6040516133179190613c37565b60405180910390a361335f565b81837fba2c1e89a773b1234ed614b22747890d7abe2dc00dea2aac7a5bc913d1b3fd1060006040516133569190613c37565b60405180910390a35b505050565b61336d84612a9d565b6040805160a0810182528681526020808201878152828401878152606084018781526080850187815260008b8152600a865287812080546001600160a01b039081168352601188528983209851895595516001808a01919091559451600289015592516003880155905160049096019590955580546009805493840190557f6e1540171b6c0c960b71a7020d9f60077f6af931a8bbf590da0223dacf75c7af90920180549284166001600160a01b031993841617905580549092168452600b83528484208490558884528154169055601090528181206005908101548883529282200180549091906134609084906142a7565b909155505060008481526010602052604080822060058101839055878352908220600680820184905590910182905560090180549161349e83614552565b9091555050600354604051632ec53bb760e11b81526001600160a01b03909116908190635d8a776e906134df9033906702c68af0bb14000090600401613ae2565b600060405180830381600087803b1580156134f957600080fd5b505af115801561350d573d6000803e3d6000fd5b50506040518792508891507f2be144f485b9e81b714c43c261dbd828d6bfcaf7a2099bedac01808694096a3390600090a3505050505050565b6000613550610c53565b6000858152600e6020908152604080832084905560109091528120600f600782015560088101839055600981018290556005810191909155600401819055905061359c84848484612c49565b50505050565b60405180606001604052806000815260200160008152602001600081525090565b6040518060a0016040528060008152602001600081526020016000815260200160008152602001600081525090565b60405180615360016040528061029b906020820280368337509192915050565b6040518060e00160405280600081526020016000815260200160008152602001600081526020016000815260200160008152602001600081525090565b604051806040016040528060008152602001600081525090565b828054613675906144fd565b90600052602060002090601f01602090048101928261369757600085556136dd565b82601f106136b057805160ff19168380011785556136dd565b828001600101855582156136dd579182015b828111156136dd5782518255916020019190600101906136c2565b506136e9929150613757565b5090565b60405180610180016040528060008152602001600081526020016000815260200160008152602001600081526020016000815260200160008152602001600081526020016000815260200160006001600160a01b0316815260200160608152602001600081525090565b5b808211156136e95760008155600101613758565b60006020828403121561377d578081fd5b81356120ed816145bc565b600060208284031215613799578081fd5b81516120ed816145bc565b600080604083850312156137b6578081fd5b82356137c1816145bc565b946020939093013593505050565b6000602082840312156137e0578081fd5b81516120ed816145d4565b600080604083850312156137fd578182fd5b50508035926020909101359150565b6000806040838503121561381e578182fd5b505080516020909101519092909150565b600080600080600060a08688031215613846578081fd5b505083359560208501359550604085013594606081013594506080013592509050565b6000602080838503121561387b578182fd5b823567ffffffffffffffff80821115613892578384fd5b818501915085601f8301126138a5578384fd5b8135818111156138b7576138b76145a6565b604051601f8201601f19168101850183811182821017156138da576138da6145a6565b60405281815283820185018810156138f0578586fd5b818585018683013790810190930193909352509392505050565b60006020828403121561391b578081fd5b5035919050565b600060208284031215613933578081fd5b5051919050565b6000806040838503121561394c578182fd5b82359150602083013560098110613961578182fd5b809150509250929050565b600080600060608486031215613980578283fd5b505081359360208301359350604090920135919050565b6000806000606084860312156139ab578081fd5b833592506020840135915060408401356139c4816145d4565b809150509250925092565b600080600080600080600060e0888a0312156139e9578485fd5b875196506020880151955060408801519450606088015193506080880151925060a0880151613a17816145d4565b60c0890151909250613a28816145bc565b8091505092959891949750929550565b6001600160a01b03169052565b60008151808452815b81811015613a6a57602081850181015186830182015201613a4e565b81811115613a7b5782602083870101525b50601f01601f19169290920160200192915050565b6001600160a01b0391909116815260200190565b6001600160a01b0392831681529116602082015260400190565b6001600160a01b039384168152919092166020820152604081019190915260600190565b6001600160a01b03929092168252602082015260400190565b602080825282518282018190526000919060409081850190868401855b82811015613b5c5781518051855286810151878601528581015186860152606080820151908601526080908101519085015260a09093019290850190600101613b18565b5091979650505050505050565b6153608101818360005b61029b811015613b93578151835260209283019290910190600101613b73565b50505092915050565b6020808252825182820181905260009190848201906040850190845b81811015613bd457835183529284019291840191600101613bb8565b50909695505050505050565b901515815260200190565b6020810160098310613c0d57634e487b7160e01b600052602160045260246000fd5b91905290565b918252602082015260400190565b9283526020830191909152604082015260600190565b90815260200190565b6000602082526120ed6020830184613a45565b6020808252601f908201527f63616e6e6f742061747461636b2070756e6b20696e2074686520686f75736500604082015260600190565b6020808252600d908201526c6e6f7420667265652070756e6b60981b604082015260600190565b6020808252600d908201526c092dcecc2d8d2c840d2dcc8caf609b1b604082015260600190565b60208082526019908201527f63616e206f6e6c792061747461636b206e65696768626f727300000000000000604082015260600190565b6020808252601390820152721e5bdd48191bdb89dd081a185d99481b185b99606a1b604082015260600190565b6020808252600f908201526e63616e6e6f74207377696d6d696e6760881b604082015260600190565b60208082526011908201527004661696c656420746f207573652068657607c1b604082015260600190565b60208082526008908201526731b7b7b63237bbb760c11b604082015260600190565b6020808252600b908201526a726567697374657265642160a81b604082015260600190565b60208082526017908201527f596f752061747461636b206120646561642070756e6b21000000000000000000604082015260600190565b6020808252600c908201526b6e6f7420696e20686f75736560a01b604082015260600190565b60208082526010908201526f70756e6b2041206973206d6f76696e6760801b604082015260600190565b6020808252600c908201526b4e6f7420616c6c6f7765642160a01b604082015260600190565b60208082526015908201527447657420617574686f72697a65642066697273742160581b604082015260600190565b6020808252818101527f676f20746f20686f75736520746f20636c61696d20796f757220726577617264604082015260600190565b6020808252601a908201527f63616e206f6e6c7920676574206f7574206e65696768626f7273000000000000604082015260600190565b60208082526017908201527f63616e206f6e6c792066697368206e65696768626f7273000000000000000000604082015260600190565b6020808252601e908201527f4f6e6c792061646d696e2063616e207374617274207468652067616d652e0000604082015260600190565b6020808252601d908201527f596f7520617265206368617267696e67206120646561642070756e6b21000000604082015260600190565b6020808252600e908201526d796f7520617265206d6f76696e6760901b604082015260600190565b60208082526019908201527f6f746865722070756e6b20616c7265616479206f6e2069742100000000000000604082015260600190565b6020808252600e908201526d50756e6b206e6f7420657869742160901b604082015260600190565b6020808252600990820152683737ba1037bbb732b960b91b604082015260600190565b6020808252600790820152661a5b9d985b1a5960ca1b604082015260600190565b600060e082019050825182526020830151602083015260408301516040830152606083015160608301526080830151608083015260a083015160a083015260c083015160c083015292915050565b815181526020918201519181019190915260400190565b60006020825282516020830152602083015160408301526040830151606083015260608301516080830152608083015160a083015260a083015160c083015260c083015160e083015260e083015161010081818501528085015191505061012081818501528085015191505061014061416f81850183613a38565b80850151915050610180610160818186015261418f6101a0860184613a45565b9501519301929092525090919050565b81518152602080830151908201526040918201519181019190915260600190565b9283526001600160a01b03919091166020830152604082015260600190565b92835260208301919091526001600160a01b0316604082015260600190565b998a5260208a019890985260408901969096526060880194909452608087019290925260a086015260c085015260e08401526101008301526101208201526101400190565b948552602085019390935260408401919091526060830152608082015260a00190565b600080821280156001600160ff1b03849003851316156142885761428861457a565b600160ff1b83900384128116156142a1576142a161457a565b50500190565b600082198211156142ba576142ba61457a565b500190565b6000826142ce576142ce614590565b500490565b80825b60018086116142e55750614310565b8187048211156142f7576142f761457a565b8086161561430457918102915b9490941c9380026142d6565b94509492505050565b600082801561432f576001811461433957614342565b60019150506143e1565b829150506143e1565b5081614350575060006143e1565b5060016000821380821461436957801561438057614392565b82860483111561437b5761437b61457a565b614392565b8286058312156143925761439261457a565b508083161561439e5750805b6143af858460011c848502846142d3565b80870482116000831316156143c6576143c661457a565b80860582126000831216156143dd576143dd61457a565b0290505b949350505050565b60006120ed6001600160ff1b03600160ff1b60ff861685614319565b60006001600160ff1b038184138284138082168684048611161561442b5761442b61457a565b600160ff1b848712828116878305891216156144495761444961457a565b8587129250878205871284841616156144645761446461457a565b8785058712818416161561447a5761447a61457a565b505050929093029392505050565b60008160001904831182151516156144a2576144a261457a565b500290565b60008083128015600160ff1b8501841216156144c5576144c561457a565b6001600160ff1b03840183138116156144e0576144e061457a565b50500390565b6000828210156144f8576144f861457a565b500390565b60028104600182168061451157607f821691505b60208210811415611f8f57634e487b7160e01b600052602260045260246000fd5b60006001600160ff1b0382141561454b5761454b61457a565b5060010190565b600060001982141561454b5761454b61457a565b60008261457557614575614590565b500690565b634e487b7160e01b600052601160045260246000fd5b634e487b7160e01b600052601260045260246000fd5b634e487b7160e01b600052604160045260246000fd5b6001600160a01b03811681146145d157600080fd5b50565b80151581146145d157600080fdfea26469706673582212207b95a4d1279019ce237604b6e910e8f8004aeb89132628d28e590769f442380d64736f6c63430008000033",
  "immutableReferences": {},
  "source": "// SPDX-License-Identifier: MIT\r\npragma solidity ^0.8.0;\r\n\r\nimport \"./Building.sol\";\r\n\r\ncontract RogueLand {\r\n    \r\n    enum ActionChoices { SitStill, GoLeft, GoRight, GoUp, GoDown, GoLeftUp, GoLeftDown, GoRightUp, GoRightDown }\r\n\t\r\n    struct MovingPunk {\r\n      uint punkId;\r\n      uint punkNonce;\r\n    }\r\n\r\n    struct KillEvent {\r\n      uint A;\r\n      uint B;\r\n      uint t;\r\n      int x;\r\n      int y;\r\n    }\r\n\r\n    struct TimeSpace {\r\n      uint t;\r\n      int x;\r\n      int y;\r\n    }\r\n\r\n    struct Position {\r\n      int x;\r\n      int y;\r\n    }\r\n\r\n    struct StillPunk {\r\n      uint oldNeighbor;\r\n      uint newNeighbor;\r\n      int x;\r\n      int y;\r\n      uint showtime;\r\n      uint gold;\r\n      uint enemy;\r\n      uint hp;\r\n      uint nonce; // \r\n      uint evil; // \r\n    }\r\n    \r\n    struct PunkInfo {      \r\n      uint oldNeighbor;\r\n      uint newNeighbor;\r\n      int x;\r\n      int y;\r\n      uint showTime;\r\n      uint totalGold;\r\n      uint hp;\r\n      uint evil;\r\n      uint seed;\r\n      address player;\r\n      string name;\r\n      uint blockNumber;\r\n    }\r\n\r\n    struct GameInfo {\r\n      uint total;\r\n      uint dead;\r\n      uint pool;\r\n      uint squidBalance;\r\n      uint squidApproved;\r\n      uint hepBalance;\r\n      uint hepApproved;\r\n    }\r\n\r\n    uint public constant AC = 9; // \r\n    uint public constant BAREHAND = 5; // \r\n    \r\n    address public owner;\r\n    address public hepAddress;\r\n    address public squidAddress;\r\n    address public buildingAddress;\r\n    uint public startBlock; // \r\n    uint private _randNonce;\r\n    uint public blockPerRound = 500;\r\n    uint public rewardsPerRound = 5e15;\r\n    //bool public gameOver;\r\n    uint public totalPunk; // \r\n    address[] public deadPunk; // \r\n\r\n  \r\n    // \r\n    mapping (uint => address) public punkMaster;\r\n    mapping (address => uint) public punkOf;\r\n    mapping (address => string) public nickNameOf;\r\n\r\n    // punk\r\n    mapping (uint => mapping (uint => Position)) public movingPunks;\r\n\r\n    // punk\r\n    mapping (uint => uint) public lastScheduleOf;\r\n\r\n    // \r\n    //mapping (uint => uint) private _randseedOfRound;\r\n    mapping (uint => uint) private _randseedOfPunk;\r\n\r\n    // punk\r\n    mapping (uint => StillPunk) public stillPunks;\r\n\r\n    // punk\r\n    mapping (address => KillEvent) public lastKilled;\r\n\r\n    // punk\r\n    mapping (address => mapping (uint => bool)) public takeAction;\r\n\r\n    // punk\r\n    mapping (int => mapping (int => uint)) public stillPunkOn;\r\n  \r\n    // \r\n    mapping (uint => mapping (int => mapping (int => MovingPunk))) public movingPunksOn;\r\n\r\n\r\n    event ActionCommitted(uint indexed punkId, uint indexed time, ActionChoices action);\r\n    event UseHEP(uint indexed id, uint restore);\r\n    event Attacked(uint indexed punkA, uint indexed punkB, uint damage);\r\n    event Killed(uint indexed punkA, uint indexed punkB);\r\n    event Fishing(uint indexed id, int x, int y, uint gold);\r\n  \r\n    constructor(address buildingAddress_, address hepAddress_, address squidAddress_) {\r\n        owner = msg.sender;\r\n        buildingAddress = buildingAddress_;\r\n        hepAddress = hepAddress_;\r\n        squidAddress = squidAddress_;\r\n        _randNonce = uint(keccak256(abi.encode(block.timestamp, msg.sender)));\r\n        //_randseedOfRound[0] = _randNonce;\r\n    }\r\n\r\n    // \r\n    function getEvents(int x1, int y1, int x2, int y2, uint t) public view returns (uint[] memory) {\r\n        require(x2 >= x1 && y2 >= y1, \"Invalid index\");\r\n        uint[] memory selectEvents = new uint[](uint((x2-x1+1)*(y2-y1+1)));\r\n        uint i = 0;\r\n        for (int x=x1; x<=x2; x++) {\r\n          for (int y=y1; y<=y2; y++) {\r\n            selectEvents[i] = getPunkOn(t, x, y);\r\n            i ++;\r\n          }\r\n        }\r\n        return selectEvents;\r\n    }\r\n\r\n    function getDeadPunk() public view returns (KillEvent[] memory) {\r\n        KillEvent[] memory _deadPunks = new KillEvent[](deadPunk.length);\r\n        for (uint i=0; i<deadPunk.length; i++) {\r\n          _deadPunks[i] = lastKilled[deadPunk[i]];\r\n        }\r\n        return _deadPunks;\r\n    }\r\n\r\n    function _resetPunk(uint id, int x, int y) private {\r\n      uint t = getCurrentTime();\r\n      lastScheduleOf[id] = t;\r\n      stillPunks[id].hp = 15; // 15\r\n      stillPunks[id].nonce = t;\r\n      stillPunks[id].evil = 0;\r\n      stillPunks[id].gold = 0;\r\n      stillPunks[id].showtime = t;\r\n      _addStillPunk(id, x, y, t);\r\n    }\r\n\r\n    // \r\n    function setNickName(string memory name) public {\r\n        nickNameOf[msg.sender] = name;\r\n    }\r\n\r\n    function freePunk() public view returns (uint) {\r\n      uint id;\r\n      for (id=2; id<=667; id++) {\r\n        if (punkMaster[id] == address(0)) {\r\n          break;\r\n        }\r\n      }\r\n      return id;\r\n    }\r\n\r\n    function gameInfo(address player) public view returns (GameInfo memory) {\r\n        uint total = totalPunk;\r\n        uint dead = deadPunk.length;\r\n        IERC20 squid = IERC20(squidAddress);\r\n        uint pool = squid.balanceOf(buildingAddress);\r\n        uint squidBalance = squid.balanceOf(player);\r\n        uint squidApproved = squid.allowance(player, buildingAddress);\r\n        IERC20 hep = IERC20(hepAddress);\r\n        uint hepBalance = hep.balanceOf(player);\r\n        uint hepApproved = hep.allowance(player, address(this));\r\n        return GameInfo(total, dead, pool, squidBalance, squidApproved, hepBalance, hepApproved);\r\n    }\r\n\r\n    function register(uint id) public {\r\n        if (id == 0) {\r\n          id = freePunk();\r\n        }\r\n        require(id >= 2 && id <= 667, 'invalid');\r\n        require(punkMaster[id] == address(0), 'not free punk');\r\n        require(punkOf[msg.sender] == 0, \"registered!\");\r\n        Building building = Building(buildingAddress);\r\n        (int x, int y) = building.playerLand(msg.sender);\r\n        require(x != 0 || y != 0, \"you don't have land\");\r\n        (,,,,,bool used,) = building.landInfo(x, y);\r\n        if (used) {\r\n          building.payFee(msg.sender, 1e18);\r\n        }\r\n        else {\r\n          building.setUsed(x, y);\r\n        }\r\n        punkMaster[id] = msg.sender;\r\n        punkOf[msg.sender] = id;\r\n        _randseedOfPunk[id] = uint(keccak256(abi.encode(block.timestamp, msg.sender, _randNonce)));\r\n        _resetPunk(id, x, y);\r\n        totalPunk ++;\r\n    }\r\n\r\n    // \r\n    function startGame(uint startBlock_) public {\r\n        require(msg.sender == owner, \"Only admin can start the game.\");\r\n        startBlock = startBlock_;\r\n    }\r\n\r\n    function setRewards(uint rewards) public {\r\n        require(msg.sender == owner, \"Only admin can start the game.\");\r\n        rewardsPerRound = rewards;\r\n    }\r\n\r\n\r\n    // punkApunkB\r\n    function _kill(uint A, uint B, uint t, int x, int y) private {\r\n      // B\r\n      _removeStillPunk(B);\r\n      // \r\n      lastKilled[punkMaster[B]] = KillEvent(A, B, t, x, y);\r\n      deadPunk.push(punkMaster[B]);\r\n      punkOf[punkMaster[B]] = 0;\r\n      punkMaster[B] = address(0);\r\n      // AB\r\n      stillPunks[A].gold += (stillPunks[B].gold);\r\n      stillPunks[B].gold = 0;\r\n      stillPunks[A].enemy = 0;\r\n      stillPunks[B].enemy = 0;\r\n      // A\r\n      stillPunks[A].evil ++;\r\n      Building building = Building(buildingAddress);\r\n      building.award(msg.sender, 2e17);\r\n      \r\n\t    emit Killed(A, B);\r\n    }\r\n    \r\n    // punkApunkB\r\n    function _attack(uint A, uint B) private {\r\n      // 1d201d5\r\n      _randseedOfPunk[B] = uint(keccak256(abi.encode(A, _randseedOfPunk[B])));\r\n      uint dice = _randseedOfPunk[B] % 100;\r\n      //  10+AC \r\n      if (dice/5+1 < 10+AC) {\r\n        // 1d5\r\n        stillPunks[B].hp = (stillPunks[B].hp < (dice%5+1)? 0 : stillPunks[B].hp-(dice%5+1));\r\n\t\t    emit Attacked(A, B, dice%5+1);\r\n      }\r\n\t    else {\r\n\t\t    emit Attacked(A, B, 0);\r\n\t    }\r\n    }\r\n\r\n    // punkApunkB\r\n    function attack(uint A, uint B) public {\r\n      require(punkOf[msg.sender] == A, \"Get authorized first!\");\r\n      require(A > 0 && B > 0, \"Punk not exit!\");\r\n      require(punkMaster[B] != address(0), \"You attack a dead punk!\");\r\n      require(!takeAction[msg.sender][block.number/10], \"cooldown\");\r\n      takeAction[msg.sender][block.number/10] = true;\r\n      uint t = getCurrentTime();\r\n      Position memory posA = getPostion(A, t);\r\n      Position memory posB = getPostion(B, t);\r\n\t    //require(stillPunks[A].showtime <= t, \"punk A is moving\");\r\n      //require(t > stillPunks[B].nonce, \"punk B is just born!\");\r\n      //require(posA.x**2 < 625 && posA.y**2 < 625 && posB.x**2 < 625 && posB.y**2 < 625, \"cannot attack punks outside the game area\");\r\n      require((posA.x-posB.x)**2 <=1  &&  (posA.y-posB.y)**2 <=1, \"can only attack neighbors\");\r\n      Building building = Building(buildingAddress);\r\n      require(building.buildingType(posB.x, posB.y)/3 != 3, \"cannot attack punk in the house\");\r\n\r\n      if (stillPunks[A].enemy != B) {\r\n        stillPunks[A].enemy = B;\r\n      }\r\n\r\n      _attack(A, B);\r\n      if (stillPunks[B].hp == 0) {\r\n        _kill(A, B, t, posB.x, posB.y);\r\n      }\r\n      else {\r\n        // punkB\r\n        _attack(B, A);\r\n        if (stillPunks[A].hp == 0) {\r\n          _kill(B, A, t, posA.x, posA.y);\r\n        }\r\n      }\r\n    }\r\n\r\n    // HEP\r\n    function useHEP(uint id) public {\r\n      IERC20 hep = IERC20(hepAddress);\r\n      require(hep.transferFrom(msg.sender, address(this), 1), 'Failed to use hep');\r\n\r\n      require(!takeAction[msg.sender][block.number/10], \"cooldown\");\r\n      takeAction[msg.sender][block.number/10] = true;\r\n\r\n      // \r\n      //if (stillPunks[id].enemy != 0) {\r\n      //  leaveBattle(id);\r\n      //}\r\n\r\n      stillPunks[id].hp += 10;\r\n      if (stillPunks[id].hp > 15) {\r\n        emit UseHEP(id, 25-stillPunks[id].hp);\r\n        stillPunks[id].hp = 15;\r\n      }\r\n      else {\r\n        emit UseHEP(id, 10);\r\n      }\r\n    }\r\n\r\n    function _removeStillPunk(uint id) private {\r\n        uint oldNeighbor = stillPunks[id].oldNeighbor;\r\n        uint newNeighbor = stillPunks[id].newNeighbor;\r\n        int x = stillPunks[id].x;\r\n        int y = stillPunks[id].y;\r\n        if (oldNeighbor > 0) {\r\n          stillPunks[oldNeighbor].newNeighbor = newNeighbor;\r\n        }\r\n        else {\r\n          stillPunkOn[x][y] = newNeighbor;\r\n        }\r\n        if (newNeighbor > 0) {\r\n          stillPunks[newNeighbor].oldNeighbor = oldNeighbor;\r\n        }\r\n\r\n        // \r\n        uint gold = pendingGold(id)/rewardsPerRound;\r\n        if (gold > 0) {\r\n          Building building = Building(buildingAddress);\r\n          stillPunks[id].gold += building.mine(x, y, gold)*rewardsPerRound;\r\n        }\r\n    }\r\n\r\n    function _addStillPunk(uint id, int x, int y, uint t) private {\r\n        Building building = Building(buildingAddress);\r\n        LoserLand loserLand = LoserLand(building.landAddress());\r\n        address landOwner = loserLand.landOwner(x, y);\r\n        if (building.buildingType(x, y)/3 == 3 && msg.sender != landOwner) {\r\n          building.payFee(msg.sender, (building.buildingType(x, y)%3+1) * 5e16);\r\n          building.award(landOwner, (building.buildingType(x, y)%3+1) * 5e16);\r\n        }\r\n        require (getPunkOn(t, x, y) == 0 || building.buildingType(x, y)/3 == 3, 'other punk already on it!');\r\n        require (building.buildingType(x, y)/3 != 2, 'cannot swimming');\r\n        uint latestNeighbor = stillPunkOn[x][y];\r\n        stillPunkOn[x][y] = id;\r\n        stillPunks[id].oldNeighbor = 0;\r\n        stillPunks[id].newNeighbor = latestNeighbor;\r\n        stillPunks[id].x = x;\r\n        stillPunks[id].y = y;\r\n        stillPunks[id].showtime = t;\r\n        if (latestNeighbor > 0) {\r\n          stillPunks[latestNeighbor].oldNeighbor = id;\r\n        }\r\n    }\r\n\r\n    function _addMovingPunk(uint id, uint t, int x, int y) private {\r\n        movingPunksOn[t][x][y].punkId = id;\r\n        movingPunksOn[t][x][y].punkNonce = stillPunks[id].nonce;\r\n        movingPunks[id][t].x = x;\r\n        movingPunks[id][t].y = y;\r\n    }\r\n\r\n\r\n\r\n    // punk\r\n    function scheduleAction(uint id, ActionChoices action) public {\r\n        require(punkOf[msg.sender] == id, \"Get authorized first!\");\r\n        require(id > 0, \"Punk not exit!\");\r\n        require(action != ActionChoices.SitStill, \"Not allowed!\");\r\n        uint currentTime = getCurrentTime();\r\n        if (lastScheduleOf[id] < currentTime) {\r\n          lastScheduleOf[id] = currentTime;\r\n        }\r\n        uint t = lastScheduleOf[id];\r\n        int x = stillPunks[id].x;\r\n        int y = stillPunks[id].y;\r\n        // remove this punk from still punks in (x, y) \r\n        _removeStillPunk(id);\r\n        _addMovingPunk(id, t, x, y);\r\n        if (action == ActionChoices.GoLeft) {\r\n          _addStillPunk(id, x-1, y, t+1);\r\n        }\r\n        if (action == ActionChoices.GoRight) {\r\n          _addStillPunk(id, x+1, y, t+1);\r\n        }\r\n        if (action == ActionChoices.GoUp) {\r\n          _addStillPunk(id, x, y+1, t+1);\r\n        }\r\n        if (action == ActionChoices.GoDown) {\r\n          _addStillPunk(id, x, y-1, t+1);\r\n        }\r\n        if (action == ActionChoices.GoLeftUp) {\r\n          _addStillPunk(id, x-1, y+1, t+1);\r\n        }\r\n        if (action == ActionChoices.GoLeftDown) {\r\n          _addStillPunk(id, x-1, y-1, t+1);\r\n        }\r\n        if (action == ActionChoices.GoRightUp) {\r\n          _addStillPunk(id, x+1, y+1, t+1);\r\n        }\r\n        if (action == ActionChoices.GoRightDown) {\r\n          _addStillPunk(id, x+1, y-1, t+1);\r\n        }\r\n        lastScheduleOf[id] ++;\r\n        emit ActionCommitted(id, lastScheduleOf[id], action);\r\n    }\r\n\r\n    function getCurrentTime() public view returns (uint) {\r\n      if (startBlock == 0 || startBlock > block.number) {\r\n        return 0;\r\n      }\r\n      uint time = (block.number - startBlock) / blockPerRound + 1;\r\n      return time;\r\n    }\r\n\r\n    function getPunkInfo(uint id) public view returns (PunkInfo memory) {\r\n      uint t = getCurrentTime();\r\n      Position memory pos = getPostion(id, t);\r\n      address player = punkMaster[id];\r\n      uint totalGold = stillPunks[id].gold + pendingGold(id);\r\n      return PunkInfo(stillPunks[id].oldNeighbor, stillPunks[id].newNeighbor, pos.x, pos.y, stillPunks[id].showtime, totalGold, stillPunks[id].hp, stillPunks[id].evil, _randseedOfPunk[id], player, nickNameOf[player], block.number);\r\n    }\r\n\r\n    function getPunkOn(uint t, int x, int y) public view returns (uint) {\r\n      if (stillPunkOn[x][y] != 0  && stillPunks[stillPunkOn[x][y]].showtime <= t) {\r\n        return stillPunkOn[x][y];\r\n      }\r\n      else {\r\n        uint id = movingPunksOn[t][x][y].punkId;\r\n        if (movingPunksOn[t][x][y].punkNonce == stillPunks[id].nonce) {\r\n          return id;\r\n        }\r\n      }\r\n      return 0;\r\n    }\r\n\r\n    function getPostion(uint id, uint t) public view returns (Position memory) {\r\n      if (lastScheduleOf[id] > t) {\r\n        return Position(movingPunks[id][t].x, movingPunks[id][t].y);\r\n      }\r\n      else {\r\n        return Position(stillPunks[id].x, stillPunks[id].y);\r\n      }\r\n    }\r\n\r\n    function getCurrentStatus(uint id) public view returns (TimeSpace memory) {\r\n      uint time = getCurrentTime();\r\n      Position memory pos = getPostion(id, time);\r\n      return TimeSpace(time, pos.x, pos.y);\r\n    }\r\n\r\n    function getScheduleInfo(uint id) public view returns (TimeSpace memory) {\r\n      uint time = getCurrentTime();\r\n      if (lastScheduleOf[id] > time) {\r\n        time = lastScheduleOf[id];\r\n      }\r\n      return TimeSpace(time, stillPunks[id].x, stillPunks[id].y);\r\n    }\r\n\r\n    function getGoldsofAllPunk() public view returns (uint[667] memory) {\r\n      uint[667] memory golds;\r\n      for (uint i=0; i<667; i++) {\r\n        golds[i] = punkMaster[i+1] == address(0) ? 0 : stillPunks[i+1].gold;\r\n      }\r\n      return golds;\r\n    }\r\n\r\n    function pendingGold(uint id) public view returns (uint) {\r\n      uint time = getCurrentTime();\r\n      if (stillPunks[id].showtime < time) {\r\n        Building building = Building(buildingAddress);\r\n        uint productivity = building.getProductivity(stillPunks[id].x, stillPunks[id].y);\r\n        return (time - stillPunks[id].showtime) * productivity * rewardsPerRound;\r\n      }\r\n      else {\r\n        return 0;\r\n      }\r\n    }\r\n\r\n    function fish(int x, int y) public {\r\n      uint id = punkOf[msg.sender];\r\n      require(id > 0, \"Punk not exit!\");\r\n      uint t = getCurrentTime();\r\n      Position memory pos = getPostion(id, t);\r\n      require((pos.x-x)**2 <=1  &&  (pos.y-y)**2 <=1, \"can only fish neighbors\");\r\n      Building building = Building(buildingAddress);\r\n      require (building.buildingType(x, y)/3 == 2, 'cannot swimming');\r\n      require (t >= stillPunks[id].showtime, \"you are moving\");\r\n      _randNonce = uint(keccak256(abi.encode(_randNonce, block.timestamp, msg.sender)));\r\n      if (_randNonce % 40 < t - stillPunks[id].showtime) {\r\n        uint _gold = building.buildingType(x, y) % 3 + 1; \r\n        building.fish(x, y);\r\n        stillPunks[id].gold += _gold * 20 * rewardsPerRound;\r\n        emit Fishing(id, x, y, _gold);\r\n      }\r\n      else {\r\n        emit Fishing(id, x, y, 0);\r\n      }\r\n      stillPunks[id].showtime = t;\r\n    }\r\n\r\n    function charge(uint A, uint B, bool getOut) public {\r\n      require(punkOf[msg.sender] == A, \"Get authorized first!\");\r\n      require(A > 0 && B > 0, \"Punk not exit!\");\r\n      require(punkMaster[B] != address(0), \"You are charging a dead punk!\");\r\n      uint t = getCurrentTime();\r\n      Position memory posA = getPostion(A, t);\r\n      Position memory posB = getPostion(B, t);\r\n      Building building = Building(buildingAddress);\r\n      require(building.buildingType(posB.x, posB.y)/3 == 3, \"not in house\");\r\n      LoserLand loserLand = LoserLand(building.landAddress());\r\n      address landOwner = loserLand.landOwner(posB.x, posB.y);\r\n      require(landOwner == msg.sender, \"not owner\");\r\n      require(t - stillPunks[B].showtime > 5, \"invalid\");\r\n      if (getOut) {\r\n        require(stillPunks[A].showtime <= t, \"punk A is moving\");\r\n        require((posA.x-posB.x)**2 <=1  &&  (posA.y-posB.y)**2 <=1, \"can only get out neighbors\");\r\n        _removeStillPunk(B);\r\n        _removeStillPunk(A);\r\n        _addStillPunk(A, posB.x, posB.y, t);\r\n        _addStillPunk(B, posA.x, posA.y, t);\r\n      }\r\n      else {\r\n        uint gold = (building.buildingType(posB.x, posB.y)%3+1) * (t-stillPunks[B].showtime) * 1e16;\r\n        building.payFee(msg.sender, gold);\r\n        building.award(landOwner, gold);\r\n        stillPunks[B].showtime = t;\r\n      }\r\n    }\r\n\r\n    // \r\n    function claimRewards() public {\r\n      uint id = punkOf[msg.sender];\r\n      require(id > 0, \"Punk not exit!\");\r\n      uint t = getCurrentTime();\r\n      Position memory pos = getPostion(id, t);\r\n      Building building = Building(buildingAddress);\r\n      require(building.buildingType(pos.x, pos.y)/3 == 3, 'go to house to claim your reward');\r\n      building.award(msg.sender, stillPunks[id].gold);\r\n      stillPunks[id].gold = 0;\r\n      // \r\n      //_removeStillPunk(id);\r\n      //punkOf[punkMaster[id]] = 0;\r\n      //punkMaster[id] = address(0);\r\n    }\r\n\r\n}\r\n",
  "sourcePath": "C:/Users/Weixuan/Documents/github/RogueLand/contracts/RogueLand.sol",
  "compiler": {
    "name": "solc",
    "version": "0.8.0+commit.c7dfd78e.Emscripten.clang"
  },
  "schemaVersion": "3.4.0",
  "updatedAt": "2021-12-12T09:47:17.817Z",
  "networkType": "ethereum",
  "devdoc": {
    "kind": "dev",
    "methods": {},
    "version": 1
  },
  "userdoc": {
    "kind": "user",
    "methods": {},
    "version": 1
  }
}