{
  "contractName": "RogueLand",
  "abi": [
    {
      "inputs": [
        {
          "internalType": "address",
          "name": "nftAddress_",
          "type": "address"
        }
      ],
      "stateMutability": "nonpayable",
      "type": "constructor"
    },
    {
      "inputs": [
        {
          "internalType": "address",
          "name": "",
          "type": "address"
        }
      ],
      "name": "authorizerOf",
      "outputs": [
        {
          "internalType": "uint256",
          "name": "id",
          "type": "uint256"
        },
        {
          "internalType": "string",
          "name": "name",
          "type": "string"
        },
        {
          "internalType": "address",
          "name": "holder",
          "type": "address"
        }
      ],
      "stateMutability": "view",
      "type": "function",
      "constant": true
    },
    {
      "inputs": [
        {
          "internalType": "uint256",
          "name": "",
          "type": "uint256"
        },
        {
          "internalType": "int256",
          "name": "",
          "type": "int256"
        },
        {
          "internalType": "int256",
          "name": "",
          "type": "int256"
        }
      ],
      "name": "events",
      "outputs": [
        {
          "internalType": "uint256",
          "name": "movingPunk",
          "type": "uint256"
        },
        {
          "internalType": "uint256",
          "name": "gold",
          "type": "uint256"
        }
      ],
      "stateMutability": "view",
      "type": "function",
      "constant": true
    },
    {
      "inputs": [
        {
          "internalType": "uint256",
          "name": "",
          "type": "uint256"
        }
      ],
      "name": "lastScheduleOf",
      "outputs": [
        {
          "internalType": "uint256",
          "name": "",
          "type": "uint256"
        }
      ],
      "stateMutability": "view",
      "type": "function",
      "constant": true
    },
    {
      "inputs": [
        {
          "internalType": "uint256",
          "name": "",
          "type": "uint256"
        },
        {
          "internalType": "uint256",
          "name": "",
          "type": "uint256"
        }
      ],
      "name": "movingPunks",
      "outputs": [
        {
          "internalType": "uint256",
          "name": "newNeighbor",
          "type": "uint256"
        },
        {
          "internalType": "enum RogueLand.ActionChoices",
          "name": "action",
          "type": "uint8"
        },
        {
          "internalType": "int256",
          "name": "x",
          "type": "int256"
        },
        {
          "internalType": "int256",
          "name": "y",
          "type": "int256"
        }
      ],
      "stateMutability": "view",
      "type": "function",
      "constant": true
    },
    {
      "inputs": [],
      "name": "nftAddress",
      "outputs": [
        {
          "internalType": "address",
          "name": "",
          "type": "address"
        }
      ],
      "stateMutability": "view",
      "type": "function",
      "constant": true
    },
    {
      "inputs": [],
      "name": "owner",
      "outputs": [
        {
          "internalType": "address",
          "name": "",
          "type": "address"
        }
      ],
      "stateMutability": "view",
      "type": "function",
      "constant": true
    },
    {
      "inputs": [
        {
          "internalType": "int256",
          "name": "",
          "type": "int256"
        },
        {
          "internalType": "int256",
          "name": "",
          "type": "int256"
        }
      ],
      "name": "stillPunkOn",
      "outputs": [
        {
          "internalType": "uint256",
          "name": "",
          "type": "uint256"
        }
      ],
      "stateMutability": "view",
      "type": "function",
      "constant": true
    },
    {
      "inputs": [
        {
          "internalType": "uint256",
          "name": "",
          "type": "uint256"
        }
      ],
      "name": "stillPunks",
      "outputs": [
        {
          "internalType": "uint256",
          "name": "oldNeighbor",
          "type": "uint256"
        },
        {
          "internalType": "uint256",
          "name": "newNeighbor",
          "type": "uint256"
        },
        {
          "internalType": "int256",
          "name": "x",
          "type": "int256"
        },
        {
          "internalType": "int256",
          "name": "y",
          "type": "int256"
        },
        {
          "internalType": "uint256",
          "name": "showtime",
          "type": "uint256"
        }
      ],
      "stateMutability": "view",
      "type": "function",
      "constant": true
    },
    {
      "inputs": [
        {
          "internalType": "int256",
          "name": "x1",
          "type": "int256"
        },
        {
          "internalType": "int256",
          "name": "y1",
          "type": "int256"
        },
        {
          "internalType": "int256",
          "name": "x2",
          "type": "int256"
        },
        {
          "internalType": "int256",
          "name": "y2",
          "type": "int256"
        },
        {
          "internalType": "uint256",
          "name": "t",
          "type": "uint256"
        }
      ],
      "name": "getEvents",
      "outputs": [
        {
          "components": [
            {
              "internalType": "uint256",
              "name": "movingPunk",
              "type": "uint256"
            },
            {
              "internalType": "uint256",
              "name": "gold",
              "type": "uint256"
            }
          ],
          "internalType": "struct RogueLand.Event[]",
          "name": "",
          "type": "tuple[]"
        }
      ],
      "stateMutability": "view",
      "type": "function",
      "constant": true
    },
    {
      "inputs": [
        {
          "internalType": "address",
          "name": "player_",
          "type": "address"
        },
        {
          "internalType": "uint256",
          "name": "id_",
          "type": "uint256"
        },
        {
          "internalType": "string",
          "name": "name_",
          "type": "string"
        }
      ],
      "name": "authorize",
      "outputs": [],
      "stateMutability": "nonpayable",
      "type": "function"
    },
    {
      "inputs": [
        {
          "internalType": "uint256",
          "name": "id",
          "type": "uint256"
        },
        {
          "internalType": "enum RogueLand.ActionChoices",
          "name": "action",
          "type": "uint8"
        }
      ],
      "name": "scheduleAction",
      "outputs": [],
      "stateMutability": "nonpayable",
      "type": "function"
    },
    {
      "inputs": [],
      "name": "getCurrentTime",
      "outputs": [
        {
          "internalType": "uint256",
          "name": "",
          "type": "uint256"
        }
      ],
      "stateMutability": "view",
      "type": "function",
      "constant": true
    },
    {
      "inputs": [
        {
          "internalType": "uint256",
          "name": "id",
          "type": "uint256"
        }
      ],
      "name": "getCurrentStatus",
      "outputs": [
        {
          "components": [
            {
              "internalType": "uint256",
              "name": "t",
              "type": "uint256"
            },
            {
              "internalType": "int256",
              "name": "x",
              "type": "int256"
            },
            {
              "internalType": "int256",
              "name": "y",
              "type": "int256"
            }
          ],
          "internalType": "struct RogueLand.StatusInfo",
          "name": "",
          "type": "tuple"
        }
      ],
      "stateMutability": "view",
      "type": "function",
      "constant": true
    },
    {
      "inputs": [
        {
          "internalType": "uint256",
          "name": "id",
          "type": "uint256"
        }
      ],
      "name": "getScheduleInfo",
      "outputs": [
        {
          "components": [
            {
              "internalType": "uint256",
              "name": "t",
              "type": "uint256"
            },
            {
              "internalType": "int256",
              "name": "x",
              "type": "int256"
            },
            {
              "internalType": "int256",
              "name": "y",
              "type": "int256"
            }
          ],
          "internalType": "struct RogueLand.StatusInfo",
          "name": "",
          "type": "tuple"
        }
      ],
      "stateMutability": "view",
      "type": "function",
      "constant": true
    },
    {
      "inputs": [
        {
          "internalType": "address",
          "name": "player_",
          "type": "address"
        }
      ],
      "name": "getAuthorizedId",
      "outputs": [
        {
          "internalType": "uint256",
          "name": "",
          "type": "uint256"
        }
      ],
      "stateMutability": "view",
      "type": "function",
      "constant": true
    },
    {
      "inputs": [
        {
          "internalType": "address",
          "name": "player_",
          "type": "address"
        }
      ],
      "name": "getPlayerInfo",
      "outputs": [
        {
          "components": [
            {
              "internalType": "uint256",
              "name": "id",
              "type": "uint256"
            },
            {
              "internalType": "string",
              "name": "name",
              "type": "string"
            },
            {
              "internalType": "string",
              "name": "uri",
              "type": "string"
            }
          ],
          "internalType": "struct RogueLand.PlayerInfo",
          "name": "",
          "type": "tuple"
        }
      ],
      "stateMutability": "view",
      "type": "function",
      "constant": true
    }
  ],
  "bytecode": "0x60806040523480156200001157600080fd5b5060405162002d7338038062002d738339818101604052810190620000379190620000dd565b336000806101000a81548173ffffffffffffffffffffffffffffffffffffffff021916908373ffffffffffffffffffffffffffffffffffffffff16021790555080600160006101000a81548173ffffffffffffffffffffffffffffffffffffffff021916908373ffffffffffffffffffffffffffffffffffffffff160217905550436002819055505062000157565b600081519050620000d7816200013d565b92915050565b600060208284031215620000f057600080fd5b60006200010084828501620000c6565b91505092915050565b600062000116826200011d565b9050919050565b600073ffffffffffffffffffffffffffffffffffffffff82169050919050565b620001488162000109565b81146200015457600080fd5b50565b612c0c80620001676000396000f3fe608060405234801561001057600080fd5b50600436106101005760003560e01c80635bf8633a1161009757806394b876341161006657806394b87634146102eb578063a0aa13c61461031b578063de4f8f1f1461034b578063fb1677b11461037f57610100565b80635bf8633a1461024f578063671a8b1a1461026d5780637336ffac1461029d5780638da5cb5b146102cd57610100565b806340d68c11116100d357806340d68c111461019f5780634d71e725146101bb5780635288a86c146101ee578063593284011461021f57610100565b8063033d5e4d14610105578063186b1bd11461013557806329cb924d146101515780632a166de31461016f575b600080fd5b61011f600480360381019061011a9190611f0b565b6103b1565b60405161012c919061240a565b60405180910390f35b61014f600480360381019061014a9190611db0565b610446565b005b610159610699565b6040516101669190612425565b60405180910390f35b61018960048036038101906101849190611e17565b6106c0565b6040516101969190612425565b60405180910390f35b6101b960048036038101906101b49190611f34565b6106e5565b005b6101d560048036038101906101d09190611fbf565b610d5f565b6040516101e59493929190612440565b60405180910390f35b61020860048036038101906102039190611f70565b610da9565b6040516102169291906124c3565b60405180910390f35b61023960048036038101906102349190611d5e565b610de7565b60405161024691906123e8565b60405180910390f35b61025761102f565b604051610264919061232b565b60405180910390f35b61028760048036038101906102829190611f0b565b611055565b6040516102949190612425565b60405180910390f35b6102b760048036038101906102b29190611e53565b61106d565b6040516102c49190612346565b60405180910390f35b6102d5611362565b6040516102e2919061232b565b60405180910390f35b61030560048036038101906103009190611d5e565b611386565b6040516103129190612425565b60405180910390f35b61033560048036038101906103309190611f0b565b6115fe565b604051610342919061240a565b60405180910390f35b61036560048036038101906103609190611f0b565b6116ee565b6040516103769594939291906124ec565b60405180910390f35b61039960048036038101906103949190611d5e565b611724565b6040516103a893929190612485565b60405180910390f35b6103b9611b26565b60006103c3610699565b905080600560008581526020019081526020016000205411156103f757600560008481526020019081526020016000205490505b6040518060600160405280828152602001600660008681526020019081526020016000206002015481526020016006600086815260200190815260200160002060030154815250915050919050565b6000600160009054906101000a900473ffffffffffffffffffffffffffffffffffffffff1690508073ffffffffffffffffffffffffffffffffffffffff16636352211e846040518263ffffffff1660e01b81526004016104a69190612425565b60206040518083038186803b1580156104be57600080fd5b505afa1580156104d2573d6000803e3d6000fd5b505050506040513d601f19601f820116820180604052508101906104f69190611d87565b73ffffffffffffffffffffffffffffffffffffffff163373ffffffffffffffffffffffffffffffffffffffff1614610563576040517f08c379a000000000000000000000000000000000000000000000000000000000815260040161055a906123c8565b60405180910390fd5b60405180606001604052808481526020018381526020013373ffffffffffffffffffffffffffffffffffffffff16815250600360008673ffffffffffffffffffffffffffffffffffffffff1673ffffffffffffffffffffffffffffffffffffffff1681526020019081526020016000206000820151816000015560208201518160010190805190602001906105f9929190611b47565b5060408201518160020160006101000a81548173ffffffffffffffffffffffffffffffffffffffff021916908373ffffffffffffffffffffffffffffffffffffffff16021790555090505060006005600085815260200190815260200160002054141561069357600061066a610699565b905080600560008681526020019081526020016000208190555061069184600080846117f6565b505b50505050565b6000806101f4600254436106ad91906128cc565b6106b791906126f0565b90508091505090565b6007602052816000526040600020602052806000526040600020600091509150505481565b81600360003373ffffffffffffffffffffffffffffffffffffffff1673ffffffffffffffffffffffffffffffffffffffff1681526020019081526020016000206000015414610769576040517f08c379a0000000000000000000000000000000000000000000000000000000008152600401610760906123a8565b60405180910390fd5b6000610773610699565b905080600560008581526020019081526020016000205410156107a9578060056000858152602001908152602001600020819055505b6000600560008581526020019081526020016000205490506000600660008681526020019081526020016000206002015490506000600660008781526020019081526020016000206003015490506108028683836118fc565b61080f86848484896119b1565b60016008811115610849577f4e487b7100000000000000000000000000000000000000000000000000000000600052602160045260246000fd5b856008811115610882577f4e487b7100000000000000000000000000000000000000000000000000000000600052602160045260246000fd5b14156108ad576108ac866001846108999190612838565b836001876108a7919061269a565b6117f6565b5b600260088111156108e7577f4e487b7100000000000000000000000000000000000000000000000000000000600052602160045260246000fd5b856008811115610920577f4e487b7100000000000000000000000000000000000000000000000000000000600052602160045260246000fd5b141561094b5761094a866001846109379190612606565b83600187610945919061269a565b6117f6565b5b60036008811115610985577f4e487b7100000000000000000000000000000000000000000000000000000000600052602160045260246000fd5b8560088111156109be577f4e487b7100000000000000000000000000000000000000000000000000000000600052602160045260246000fd5b14156109e9576109e886836001846109d69190612606565b6001876109e3919061269a565b6117f6565b5b60046008811115610a23577f4e487b7100000000000000000000000000000000000000000000000000000000600052602160045260246000fd5b856008811115610a5c577f4e487b7100000000000000000000000000000000000000000000000000000000600052602160045260246000fd5b1415610a8757610a868683600184610a749190612838565b600187610a81919061269a565b6117f6565b5b60056008811115610ac1577f4e487b7100000000000000000000000000000000000000000000000000000000600052602160045260246000fd5b856008811115610afa577f4e487b7100000000000000000000000000000000000000000000000000000000600052602160045260246000fd5b1415610b3157610b3086600184610b119190612838565b600184610b1e9190612606565b600187610b2b919061269a565b6117f6565b5b60066008811115610b6b577f4e487b7100000000000000000000000000000000000000000000000000000000600052602160045260246000fd5b856008811115610ba4577f4e487b7100000000000000000000000000000000000000000000000000000000600052602160045260246000fd5b1415610bdb57610bda86600184610bbb9190612838565b600184610bc89190612838565b600187610bd5919061269a565b6117f6565b5b60076008811115610c15577f4e487b7100000000000000000000000000000000000000000000000000000000600052602160045260246000fd5b856008811115610c4e577f4e487b7100000000000000000000000000000000000000000000000000000000600052602160045260246000fd5b1415610c8557610c8486600184610c659190612606565b600184610c729190612606565b600187610c7f919061269a565b6117f6565b5b600880811115610cbe577f4e487b7100000000000000000000000000000000000000000000000000000000600052602160045260246000fd5b856008811115610cf7577f4e487b7100000000000000000000000000000000000000000000000000000000600052602160045260246000fd5b1415610d2e57610d2d86600184610d0e9190612606565b600184610d1b9190612838565b600187610d28919061269a565b6117f6565b5b600560008781526020019081526020016000206000815480929190610d5290612a28565b9190505550505050505050565b6004602052816000526040600020602052806000526040600020600091509150508060000154908060010160009054906101000a900460ff16908060020154908060030154905084565b600860205282600052604060002060205281600052604060002060205280600052604060002060009250925050508060000154908060010154905082565b610def611bcd565b6000610dfa83611386565b11610e3a576040517f08c379a0000000000000000000000000000000000000000000000000000000008152600401610e3190612388565b60405180910390fd5b6000600160009054906101000a900473ffffffffffffffffffffffffffffffffffffffff1690506000600360008573ffffffffffffffffffffffffffffffffffffffff1673ffffffffffffffffffffffffffffffffffffffff1681526020019081526020016000206000015490506000600360008673ffffffffffffffffffffffffffffffffffffffff1673ffffffffffffffffffffffffffffffffffffffff1681526020019081526020016000206001018054610ef7906129ad565b80601f0160208091040260200160405190810160405280929190818152602001828054610f23906129ad565b8015610f705780601f10610f4557610100808354040283529160200191610f70565b820191906000526020600020905b815481529060010190602001808311610f5357829003601f168201915b5050505050905060008373ffffffffffffffffffffffffffffffffffffffff1663c87b56dd846040518263ffffffff1660e01b8152600401610fb29190612425565b60006040518083038186803b158015610fca57600080fd5b505afa158015610fde573d6000803e3d6000fd5b505050506040513d6000823e3d601f19601f820116820180604052508101906110079190611eca565b9050604051806060016040528084815260200183815260200182815250945050505050919050565b600160009054906101000a900473ffffffffffffffffffffffffffffffffffffffff1681565b60056020528060005260406000206000915090505481565b606085841215801561107f5750848312155b6110be576040517f08c379a00000000000000000000000000000000000000000000000000000000081526004016110b590612368565b60405180910390fd5b6000600186856110ce9190612838565b6110d89190612606565b600188876110e69190612838565b6110f09190612606565b6110fa9190612721565b67ffffffffffffffff811115611139577f4e487b7100000000000000000000000000000000000000000000000000000000600052604160045260246000fd5b60405190808252806020026020018201604052801561117257816020015b61115f611bee565b8152602001906001900390816111575790505b5090506000808890505b8681136113535760008890505b86811361133f5760086000878152602001908152602001600020600083815260200190815260200160002060008281526020019081526020016000206040518060400160405290816000820154815260200160018201548152505084848151811061121d577f4e487b7100000000000000000000000000000000000000000000000000000000600052603260045260246000fd5b602002602001018190525060006008600088815260200190815260200160002060008481526020019081526020016000206000838152602001908152602001600020600001541480156112aa575085600660006007600086815260200190815260200160002060008581526020019081526020016000205481526020019081526020016000206004015411155b1561131e576007600083815260200190815260200160002060008281526020019081526020016000205484848151811061130d577f4e487b7100000000000000000000000000000000000000000000000000000000600052603260045260246000fd5b602002602001015160000181815250505b828061132990612a28565b9350508080611337906129df565b915050611189565b50808061134b906129df565b91505061117c565b50819250505095945050505050565b60008054906101000a900473ffffffffffffffffffffffffffffffffffffffff1681565b600080600160009054906101000a900473ffffffffffffffffffffffffffffffffffffffff169050600073ffffffffffffffffffffffffffffffffffffffff16600360008573ffffffffffffffffffffffffffffffffffffffff1673ffffffffffffffffffffffffffffffffffffffff16815260200190815260200160002060020160009054906101000a900473ffffffffffffffffffffffffffffffffffffffff1673ffffffffffffffffffffffffffffffffffffffff1614806115a357508073ffffffffffffffffffffffffffffffffffffffff16636352211e600360008673ffffffffffffffffffffffffffffffffffffffff1673ffffffffffffffffffffffffffffffffffffffff168152602001908152602001600020600001546040518263ffffffff1660e01b81526004016114c19190612425565b60206040518083038186803b1580156114d957600080fd5b505afa1580156114ed573d6000803e3d6000fd5b505050506040513d601f19601f820116820180604052508101906115119190611d87565b73ffffffffffffffffffffffffffffffffffffffff16600360008573ffffffffffffffffffffffffffffffffffffffff1673ffffffffffffffffffffffffffffffffffffffff16815260200190815260200160002060020160009054906101000a900473ffffffffffffffffffffffffffffffffffffffff1673ffffffffffffffffffffffffffffffffffffffff1614155b156115b25760009150506115f9565b600360008473ffffffffffffffffffffffffffffffffffffffff1673ffffffffffffffffffffffffffffffffffffffff168152602001908152602001600020600001549150505b919050565b611606611b26565b6000611610610699565b9050806005600085815260200190815260200160002054111561169e576040518060600160405280828152602001600460008681526020019081526020016000206000848152602001908152602001600020600201548152602001600460008681526020019081526020016000206000848152602001908152602001600020600301548152509150506116e9565b60405180606001604052808281526020016006600086815260200190815260200160002060020154815260200160066000868152602001908152602001600020600301548152509150505b919050565b60066020528060005260406000206000915090508060000154908060010154908060020154908060030154908060040154905085565b600360205280600052604060002060009150905080600001549080600101805461174d906129ad565b80601f0160208091040260200160405190810160405280929190818152602001828054611779906129ad565b80156117c65780601f1061179b576101008083540402835291602001916117c6565b820191906000526020600020905b8154815290600101906020018083116117a957829003601f168201915b5050505050908060020160009054906101000a900473ffffffffffffffffffffffffffffffffffffffff16905083565b600060076000858152602001908152602001600020600084815260200190815260200160002054905084600760008681526020019081526020016000206000858152602001908152602001600020819055506000600660008781526020019081526020016000206000018190555080600660008781526020019081526020016000206001018190555083600660008781526020019081526020016000206002018190555082600660008781526020019081526020016000206003018190555081600660008781526020019081526020016000206004018190555060008111156118f5578460066000838152602001908152602001600020600001819055505b5050505050565b600060066000858152602001908152602001600020600001549050600060066000868152602001908152602001600020600101549050600082111561195b57806006600084815260200190815260200160002060010181905550611985565b80600760008681526020019081526020016000206000858152602001908152602001600020819055505b60008111156119aa578160066000838152602001908152602001600020600001819055505b5050505050565b60086000858152602001908152602001600020600084815260200190815260200160002060008381526020019081526020016000206000015460046000878152602001908152602001600020600086815260200190815260200160002060000181905550846008600086815260200190815260200160002060008581526020019081526020016000206000848152602001908152602001600020600001819055508060046000878152602001908152602001600020600086815260200190815260200160002060010160006101000a81548160ff02191690836008811115611ac2577f4e487b7100000000000000000000000000000000000000000000000000000000600052602160045260246000fd5b0217905550826004600087815260200190815260200160002060008681526020019081526020016000206002018190555081600460008781526020019081526020016000206000868152602001908152602001600020600301819055505050505050565b60405180606001604052806000815260200160008152602001600081525090565b828054611b53906129ad565b90600052602060002090601f016020900481019282611b755760008555611bbc565b82601f10611b8e57805160ff1916838001178555611bbc565b82800160010185558215611bbc579182015b82811115611bbb578251825591602001919060010190611ba0565b5b509050611bc99190611c08565b5090565b60405180606001604052806000815260200160608152602001606081525090565b604051806040016040528060008152602001600081525090565b5b80821115611c21576000816000905550600101611c09565b5090565b6000611c38611c3384612570565b61253f565b905082815260208101848484011115611c5057600080fd5b611c5b84828561296b565b509392505050565b6000611c76611c7184612570565b61253f565b905082815260208101848484011115611c8e57600080fd5b611c9984828561297a565b509392505050565b600081359050611cb081612b81565b92915050565b600081519050611cc581612b81565b92915050565b600081359050611cda81612b98565b92915050565b600081359050611cef81612ba8565b92915050565b600082601f830112611d0657600080fd5b8135611d16848260208601611c25565b91505092915050565b600082601f830112611d3057600080fd5b8151611d40848260208601611c63565b91505092915050565b600081359050611d5881612bbf565b92915050565b600060208284031215611d7057600080fd5b6000611d7e84828501611ca1565b91505092915050565b600060208284031215611d9957600080fd5b6000611da784828501611cb6565b91505092915050565b600080600060608486031215611dc557600080fd5b6000611dd386828701611ca1565b9350506020611de486828701611d49565b925050604084013567ffffffffffffffff811115611e0157600080fd5b611e0d86828701611cf5565b9150509250925092565b60008060408385031215611e2a57600080fd5b6000611e3885828601611ce0565b9250506020611e4985828601611ce0565b9150509250929050565b600080600080600060a08688031215611e6b57600080fd5b6000611e7988828901611ce0565b9550506020611e8a88828901611ce0565b9450506040611e9b88828901611ce0565b9350506060611eac88828901611ce0565b9250506080611ebd88828901611d49565b9150509295509295909350565b600060208284031215611edc57600080fd5b600082015167ffffffffffffffff811115611ef657600080fd5b611f0284828501611d1f565b91505092915050565b600060208284031215611f1d57600080fd5b6000611f2b84828501611d49565b91505092915050565b60008060408385031215611f4757600080fd5b6000611f5585828601611d49565b9250506020611f6685828601611ccb565b9150509250929050565b600080600060608486031215611f8557600080fd5b6000611f9386828701611d49565b9350506020611fa486828701611ce0565b9250506040611fb586828701611ce0565b9150509250925092565b60008060408385031215611fd257600080fd5b6000611fe085828601611d49565b9250506020611ff185828601611d49565b9150509250929050565b60006120078383612245565b60408301905092915050565b61201c81612900565b82525050565b600061202d826125b0565b61203781856125d3565b9350612042836125a0565b8060005b8381101561207357815161205a8882611ffb565b9750612065836125c6565b925050600181019050612046565b5085935050505092915050565b61208981612959565b82525050565b61209881612925565b82525050565b6120a781612925565b82525050565b60006120b8826125bb565b6120c281856125e4565b93506120d281856020860161297a565b6120db81612b5c565b840191505092915050565b60006120f1826125bb565b6120fb81856125f5565b935061210b81856020860161297a565b61211481612b5c565b840191505092915050565b600061212c600d836125f5565b91507f496e76616c696420696e646578000000000000000000000000000000000000006000830152602082019050919050565b600061216c600e836125f5565b91507f6e6f7420617574686f72697a65640000000000000000000000000000000000006000830152602082019050919050565b60006121ac6015836125f5565b91507f47657420617574686f72697a65642066697273742100000000000000000000006000830152602082019050919050565b60006121ec6022836125f5565b91507f4f6e6c79206f776e65722063616e20617574686f72697a65206869732070756e60008301527f6b210000000000000000000000000000000000000000000000000000000000006020830152604082019050919050565b60408201600082015161225b600085018261230d565b50602082015161226e602085018261230d565b50505050565b600060608301600083015161228c600086018261230d565b50602083015184820360208601526122a482826120ad565b915050604083015184820360408601526122be82826120ad565b9150508091505092915050565b6060820160008201516122e1600085018261230d565b5060208201516122f4602085018261208f565b506040820151612307604085018261208f565b50505050565b6123168161294f565b82525050565b6123258161294f565b82525050565b60006020820190506123406000830184612013565b92915050565b600060208201905081810360008301526123608184612022565b905092915050565b600060208201905081810360008301526123818161211f565b9050919050565b600060208201905081810360008301526123a18161215f565b9050919050565b600060208201905081810360008301526123c18161219f565b9050919050565b600060208201905081810360008301526123e1816121df565b9050919050565b600060208201905081810360008301526124028184612274565b905092915050565b600060608201905061241f60008301846122cb565b92915050565b600060208201905061243a600083018461231c565b92915050565b6000608082019050612455600083018761231c565b6124626020830186612080565b61246f604083018561209e565b61247c606083018461209e565b95945050505050565b600060608201905061249a600083018661231c565b81810360208301526124ac81856120e6565b90506124bb6040830184612013565b949350505050565b60006040820190506124d8600083018561231c565b6124e5602083018461231c565b9392505050565b600060a082019050612501600083018861231c565b61250e602083018761231c565b61251b604083018661209e565b612528606083018561209e565b612535608083018461231c565b9695505050505050565b6000604051905081810181811067ffffffffffffffff8211171561256657612565612b2d565b5b8060405250919050565b600067ffffffffffffffff82111561258b5761258a612b2d565b5b601f19601f8301169050602081019050919050565b6000819050602082019050919050565b600081519050919050565b600081519050919050565b6000602082019050919050565b600082825260208201905092915050565b600082825260208201905092915050565b600082825260208201905092915050565b600061261182612925565b915061261c83612925565b9250817f7fffffffffffffffffffffffffffffffffffffffffffffffffffffffffffffff0383136000831215161561265757612656612a71565b5b817f800000000000000000000000000000000000000000000000000000000000000003831260008312161561268f5761268e612a71565b5b828201905092915050565b60006126a58261294f565b91506126b08361294f565b9250827fffffffffffffffffffffffffffffffffffffffffffffffffffffffffffffffff038211156126e5576126e4612a71565b5b828201905092915050565b60006126fb8261294f565b91506127068361294f565b92508261271657612715612aa0565b5b828204905092915050565b600061272c82612925565b915061273783612925565b9250827f7fffffffffffffffffffffffffffffffffffffffffffffffffffffffffffffff048211600084136000841316161561277657612775612a71565b5b817f800000000000000000000000000000000000000000000000000000000000000005831260008412600084131616156127b3576127b2612a71565b5b827f800000000000000000000000000000000000000000000000000000000000000005821260008413600084121616156127f0576127ef612a71565b5b827f7fffffffffffffffffffffffffffffffffffffffffffffffffffffffffffffff058212600084126000841216161561282d5761282c612a71565b5b828202905092915050565b600061284382612925565b915061284e83612925565b9250827f80000000000000000000000000000000000000000000000000000000000000000182126000841215161561288957612888612a71565b5b827f7fffffffffffffffffffffffffffffffffffffffffffffffffffffffffffffff0182136000841216156128c1576128c0612a71565b5b828203905092915050565b60006128d78261294f565b91506128e28361294f565b9250828210156128f5576128f4612a71565b5b828203905092915050565b600061290b8261292f565b9050919050565b600081905061292082612b6d565b919050565b6000819050919050565b600073ffffffffffffffffffffffffffffffffffffffff82169050919050565b6000819050919050565b600061296482612912565b9050919050565b82818337600083830152505050565b60005b8381101561299857808201518184015260208101905061297d565b838111156129a7576000848401525b50505050565b600060028204905060018216806129c557607f821691505b602082108114156129d9576129d8612afe565b5b50919050565b60006129ea82612925565b91507f7fffffffffffffffffffffffffffffffffffffffffffffffffffffffffffffff821415612a1d57612a1c612a71565b5b600182019050919050565b6000612a338261294f565b91507fffffffffffffffffffffffffffffffffffffffffffffffffffffffffffffffff821415612a6657612a65612a71565b5b600182019050919050565b7f4e487b7100000000000000000000000000000000000000000000000000000000600052601160045260246000fd5b7f4e487b7100000000000000000000000000000000000000000000000000000000600052601260045260246000fd5b7f4e487b7100000000000000000000000000000000000000000000000000000000600052602160045260246000fd5b7f4e487b7100000000000000000000000000000000000000000000000000000000600052602260045260246000fd5b7f4e487b7100000000000000000000000000000000000000000000000000000000600052604160045260246000fd5b6000601f19601f8301169050919050565b60098110612b7e57612b7d612acf565b5b50565b612b8a81612900565b8114612b9557600080fd5b50565b60098110612ba557600080fd5b50565b612bb181612925565b8114612bbc57600080fd5b50565b612bc88161294f565b8114612bd357600080fd5b5056fea264697066735822122046fc9c982cb34c723a8f03216f16e6428b8dc613ee09da8b48a71ca436def00e64736f6c63430008000033",
  "immutableReferences": {},
  "source": "// SPDX-License-Identifier: MIT\r\npragma solidity ^0.8.0;\r\n\r\nimport \"@openzeppelin/contracts/token/ERC721/extensions/IERC721Metadata.sol\";\r\n\r\ncontract RogueLand {\r\n    \r\n    enum ActionChoices { SitStill, GoLeft, GoRight, GoUp, GoDown, GoLeftUp, GoLeftDown, GoRightUp, GoRightDown }\r\n\t\r\n    struct Event {\r\n      uint movingPunk;\r\n      uint gold;\r\n    }\r\n  \r\n    struct Authorizer {\r\n      uint id;\r\n      string name;\r\n      address holder;\r\n    }\r\n\r\n    struct PlayerInfo {\r\n      uint id;\r\n      string name;\r\n      string uri;\r\n    }\r\n\r\n    struct StatusInfo {\r\n      uint t;\r\n      int x;\r\n      int y;\r\n    }\r\n\r\n    struct MovingPunk {\r\n      uint newNeighbor;\r\n      ActionChoices action;\r\n      int x;\r\n      int y;\r\n    }\r\n\r\n    struct StillPunk {\r\n      uint oldNeighbor;\r\n      uint newNeighbor;\r\n      int x;\r\n      int y;\r\n      uint showtime;\r\n    }\r\n\r\n    address public owner;\r\n    address public nftAddress;\r\n\r\n    uint private _startBlock; // \r\n  \r\n    // \r\n    mapping (address => Authorizer) public authorizerOf;\r\n\r\n    // punk\r\n    mapping (uint => mapping (uint => MovingPunk)) public movingPunks;\r\n\r\n    // punk\r\n    mapping (uint => uint) public lastScheduleOf;\r\n\r\n    // punk\r\n    mapping (uint => StillPunk) public stillPunks;\r\n\r\n    // punk\r\n    mapping (int => mapping (int => uint)) public stillPunkOn;\r\n  \r\n    // \r\n    mapping (uint => mapping (int => mapping (int => Event))) public events;\r\n  \r\n    constructor(address nftAddress_) {\r\n        owner = msg.sender;\r\n        nftAddress = nftAddress_;\r\n        _startBlock = block.number;\r\n    }\r\n\r\n    function getEvents(int x1, int y1, int x2, int y2, uint t) public view returns (Event[] memory) {\r\n        require(x2 >= x1 && y2 >= y1, \"Invalid index\");\r\n        Event[] memory selectEvents = new Event[](uint((x2-x1+1)*(y2-y1+1)));\r\n        uint i = 0;\r\n        for (int x=x1; x<=x2; x++) {\r\n          for (int y=y1; y<=y2; y++) {\r\n            selectEvents[i] = events[t][x][y];\r\n            if (events[t][x][y].movingPunk == 0 && stillPunks[stillPunkOn[x][y]].showtime <= t) {\r\n              selectEvents[i].movingPunk = stillPunkOn[x][y];\r\n            }\r\n            i ++;\r\n          }\r\n        }\r\n        return selectEvents;\r\n    }\r\n\r\n    // punk\r\n    function authorize(address player_, uint id_, string memory name_) public {\r\n        IERC721Metadata nft = IERC721Metadata(nftAddress);\r\n        require(msg.sender == nft.ownerOf(id_), \"Only owner can authorize his punk!\");\r\n        authorizerOf[player_] = Authorizer(id_, name_, msg.sender);\r\n        if (lastScheduleOf[id_] == 0) {\r\n          uint t = getCurrentTime();\r\n          lastScheduleOf[id_] = t;\r\n          _addStillPunk(id_, 0, 0, t);\r\n        }\r\n    }\r\n\r\n    function _removeStillPunk(uint id, int x, int y) private {\r\n        uint oldNeighbor = stillPunks[id].oldNeighbor;\r\n        uint newNeighbor = stillPunks[id].newNeighbor;\r\n        if (oldNeighbor > 0) {\r\n          stillPunks[oldNeighbor].newNeighbor = newNeighbor;\r\n        }\r\n        else {\r\n          stillPunkOn[x][y] = newNeighbor;\r\n        }\r\n        if (newNeighbor > 0) {\r\n          stillPunks[newNeighbor].oldNeighbor = oldNeighbor;\r\n        }\r\n    }\r\n\r\n    function _addStillPunk(uint id, int x, int y, uint t) private {\r\n        uint latestNeighbor = stillPunkOn[x][y];\r\n        stillPunkOn[x][y] = id;\r\n        stillPunks[id].oldNeighbor = 0;\r\n        stillPunks[id].newNeighbor = latestNeighbor;\r\n        stillPunks[id].x = x;\r\n        stillPunks[id].y = y;\r\n        stillPunks[id].showtime = t;\r\n        if (latestNeighbor > 0) {\r\n          stillPunks[latestNeighbor].oldNeighbor = id;\r\n        }\r\n    }\r\n\r\n    function _addMovingPunk(uint id, uint t, int x, int y, ActionChoices action) private {\r\n        movingPunks[id][t].newNeighbor = events[t][x][y].movingPunk;\r\n        events[t][x][y].movingPunk = id;\r\n        movingPunks[id][t].action = action;\r\n        movingPunks[id][t].x = x;\r\n        movingPunks[id][t].y = y;\r\n    }\r\n\r\n    // punk\r\n    function scheduleAction(uint id, ActionChoices action) public {\r\n        require(authorizerOf[msg.sender].id == id, \"Get authorized first!\");\r\n        uint currentTime = getCurrentTime();\r\n        if (lastScheduleOf[id] < currentTime) {\r\n          lastScheduleOf[id] = currentTime;\r\n        }\r\n        uint t = lastScheduleOf[id];\r\n        int x = stillPunks[id].x;\r\n        int y = stillPunks[id].y;\r\n        // remove this punk from still punks in (x, y) \r\n        _removeStillPunk(id, x, y);\r\n        _addMovingPunk(id, t, x, y, action);\r\n        if (action == ActionChoices.GoLeft) {\r\n          _addStillPunk(id, x-1, y, t+1);\r\n        }\r\n        if (action == ActionChoices.GoRight) {\r\n          _addStillPunk(id, x+1, y, t+1);\r\n        }\r\n        if (action == ActionChoices.GoUp) {\r\n          _addStillPunk(id, x, y+1, t+1);\r\n        }\r\n        if (action == ActionChoices.GoDown) {\r\n          _addStillPunk(id, x, y-1, t+1);\r\n        }\r\n        if (action == ActionChoices.GoLeftUp) {\r\n          _addStillPunk(id, x-1, y+1, t+1);\r\n        }\r\n        if (action == ActionChoices.GoLeftDown) {\r\n          _addStillPunk(id, x-1, y-1, t+1);\r\n        }\r\n        if (action == ActionChoices.GoRightUp) {\r\n          _addStillPunk(id, x+1, y+1, t+1);\r\n        }\r\n        if (action == ActionChoices.GoRightDown) {\r\n          _addStillPunk(id, x+1, y-1, t+1);\r\n        }\r\n        lastScheduleOf[id] ++;\r\n    }\r\n\r\n    function getCurrentTime() public view returns (uint) {\r\n      uint time = (block.number - _startBlock) / 500;\r\n      return time;\r\n    }\r\n\r\n    function getCurrentStatus(uint id) public view returns (StatusInfo memory) {\r\n      uint time = getCurrentTime();\r\n      if (lastScheduleOf[id] > time) {\r\n        return StatusInfo(time, movingPunks[id][time].x, movingPunks[id][time].y);\r\n      }\r\n      else {\r\n        return StatusInfo(time, stillPunks[id].x, stillPunks[id].y);\r\n      }\r\n      \r\n    }\r\n\r\n    function getScheduleInfo(uint id) public view returns (StatusInfo memory) {\r\n      uint time = getCurrentTime();\r\n      if (lastScheduleOf[id] > time) {\r\n        time = lastScheduleOf[id];\r\n      }\r\n      return StatusInfo(time, stillPunks[id].x, stillPunks[id].y);\r\n    }\r\n\r\n    function getAuthorizedId(address player_) public view returns (uint) {\r\n      IERC721 nft = IERC721(nftAddress);\r\n      if (authorizerOf[player_].holder == address(0) || authorizerOf[player_].holder != nft.ownerOf(authorizerOf[player_].id)) {\r\n        return 0;\r\n      }\r\n      else {\r\n        return authorizerOf[player_].id;\r\n      }\r\n    }\r\n\r\n    function getPlayerInfo(address player_) public view returns (PlayerInfo memory) {\r\n      require (getAuthorizedId(player_) > 0, \"not authorized\");\r\n      IERC721Metadata nft = IERC721Metadata(nftAddress);\r\n      uint id = authorizerOf[player_].id;\r\n      string memory name = authorizerOf[player_].name;\r\n      string memory uri = nft.tokenURI(id);\r\n      return PlayerInfo(id, name, uri);\r\n    }\r\n\r\n}\r\n",
  "sourcePath": "C:/Users/Weixuan/Documents/github/RogueLand/contracts/RogueLand.sol",
  "compiler": {
    "name": "solc",
    "version": "0.8.0+commit.c7dfd78e.Emscripten.clang"
  },
  "schemaVersion": "3.4.0",
  "updatedAt": "2021-08-23T14:58:19.262Z",
  "networkType": "ethereum",
  "devdoc": {
    "kind": "dev",
    "methods": {},
    "version": 1
  },
  "userdoc": {
    "kind": "user",
    "methods": {},
    "version": 1
  }
}